{
  "contractName": "GovernorMikeDelegate",
  "abi": [
    {
      "anonymous": false,
      "inputs": [
        {
          "indexed": false,
          "internalType": "address",
          "name": "oldAdmin",
          "type": "address"
        },
        {
          "indexed": false,
          "internalType": "address",
          "name": "newAdmin",
          "type": "address"
        }
      ],
      "name": "NewAdmin",
      "type": "event"
    },
    {
      "anonymous": false,
      "inputs": [
        {
          "indexed": false,
          "internalType": "address",
          "name": "oldImplementation",
          "type": "address"
        },
        {
          "indexed": false,
          "internalType": "address",
          "name": "newImplementation",
          "type": "address"
        }
      ],
      "name": "NewImplementation",
      "type": "event"
    },
    {
      "anonymous": false,
      "inputs": [
        {
          "indexed": false,
          "internalType": "address",
          "name": "oldPendingAdmin",
          "type": "address"
        },
        {
          "indexed": false,
          "internalType": "address",
          "name": "newPendingAdmin",
          "type": "address"
        }
      ],
      "name": "NewPendingAdmin",
      "type": "event"
    },
    {
      "anonymous": false,
      "inputs": [
        {
          "indexed": false,
          "internalType": "uint256",
          "name": "id",
          "type": "uint256"
        }
      ],
      "name": "ProposalCanceled",
      "type": "event"
    },
    {
      "anonymous": false,
      "inputs": [
        {
          "indexed": false,
          "internalType": "uint256",
          "name": "id",
          "type": "uint256"
        },
        {
          "indexed": false,
          "internalType": "address",
          "name": "proposer",
          "type": "address"
        },
        {
          "indexed": false,
          "internalType": "uint256",
          "name": "startBlock",
          "type": "uint256"
        },
        {
          "indexed": false,
          "internalType": "uint256",
          "name": "endBlock",
          "type": "uint256"
        }
      ],
      "name": "ProposalCreated",
      "type": "event"
    },
    {
      "anonymous": false,
      "inputs": [
        {
          "indexed": false,
          "internalType": "uint256",
          "name": "id",
          "type": "uint256"
        }
      ],
      "name": "ProposalExecuted",
      "type": "event"
    },
    {
      "anonymous": false,
      "inputs": [
        {
          "indexed": false,
          "internalType": "uint256",
          "name": "id",
          "type": "uint256"
        },
        {
          "indexed": false,
          "internalType": "uint256",
          "name": "eta",
          "type": "uint256"
        }
      ],
      "name": "ProposalQueued",
      "type": "event"
    },
    {
      "anonymous": false,
      "inputs": [
        {
          "indexed": false,
          "internalType": "uint256",
          "name": "oldProposalThreshold",
          "type": "uint256"
        },
        {
          "indexed": false,
          "internalType": "uint256",
          "name": "newProposalThreshold",
          "type": "uint256"
        }
      ],
      "name": "ProposalThresholdSet",
      "type": "event"
    },
    {
      "anonymous": false,
      "inputs": [
        {
          "indexed": true,
          "internalType": "address",
          "name": "voter",
          "type": "address"
        },
        {
          "indexed": false,
          "internalType": "uint256",
          "name": "proposalId",
          "type": "uint256"
        },
        {
          "indexed": false,
          "internalType": "uint8",
          "name": "support",
          "type": "uint8"
        },
        {
          "indexed": false,
          "internalType": "uint256",
          "name": "votes",
          "type": "uint256"
        },
        {
          "indexed": false,
          "internalType": "string",
          "name": "reason",
          "type": "string"
        }
      ],
      "name": "VoteCast",
      "type": "event"
    },
    {
      "anonymous": false,
      "inputs": [
        {
          "indexed": false,
          "internalType": "uint256",
          "name": "oldVotingDelay",
          "type": "uint256"
        },
        {
          "indexed": false,
          "internalType": "uint256",
          "name": "newVotingDelay",
          "type": "uint256"
        }
      ],
      "name": "VotingDelaySet",
      "type": "event"
    },
    {
      "anonymous": false,
      "inputs": [
        {
          "indexed": false,
          "internalType": "uint256",
          "name": "oldVotingPeriod",
          "type": "uint256"
        },
        {
          "indexed": false,
          "internalType": "uint256",
          "name": "newVotingPeriod",
          "type": "uint256"
        }
      ],
      "name": "VotingPeriodSet",
      "type": "event"
    },
    {
      "anonymous": false,
      "inputs": [
        {
          "indexed": false,
          "internalType": "address",
          "name": "account",
          "type": "address"
        },
        {
          "indexed": false,
          "internalType": "uint256",
          "name": "expiration",
          "type": "uint256"
        }
      ],
      "name": "WhitelistAccountExpirationSet",
      "type": "event"
    },
    {
      "anonymous": false,
      "inputs": [
        {
          "indexed": false,
          "internalType": "address",
          "name": "oldGuardian",
          "type": "address"
        },
        {
          "indexed": false,
          "internalType": "address",
          "name": "newGuardian",
          "type": "address"
        }
      ],
      "name": "WhitelistGuardianSet",
      "type": "event"
    },
    {
      "constant": true,
      "inputs": [],
      "name": "BALLOT_TYPEHASH",
      "outputs": [
        {
          "internalType": "bytes32",
          "name": "",
          "type": "bytes32"
        }
      ],
      "payable": false,
      "stateMutability": "view",
      "type": "function"
    },
    {
      "constant": true,
      "inputs": [],
      "name": "DOMAIN_TYPEHASH",
      "outputs": [
        {
          "internalType": "bytes32",
          "name": "",
          "type": "bytes32"
        }
      ],
      "payable": false,
      "stateMutability": "view",
      "type": "function"
    },
    {
      "constant": true,
      "inputs": [],
      "name": "MAX_PROPOSAL_THRESHOLD",
      "outputs": [
        {
          "internalType": "uint256",
          "name": "",
          "type": "uint256"
        }
      ],
      "payable": false,
      "stateMutability": "view",
      "type": "function"
    },
    {
      "constant": true,
      "inputs": [],
      "name": "MAX_VOTING_DELAY",
      "outputs": [
        {
          "internalType": "uint256",
          "name": "",
          "type": "uint256"
        }
      ],
      "payable": false,
      "stateMutability": "view",
      "type": "function"
    },
    {
      "constant": true,
      "inputs": [],
      "name": "MAX_VOTING_PERIOD",
      "outputs": [
        {
          "internalType": "uint256",
          "name": "",
          "type": "uint256"
        }
      ],
      "payable": false,
      "stateMutability": "view",
      "type": "function"
    },
    {
      "constant": true,
      "inputs": [],
      "name": "MIN_PROPOSAL_THRESHOLD",
      "outputs": [
        {
          "internalType": "uint256",
          "name": "",
          "type": "uint256"
        }
      ],
      "payable": false,
      "stateMutability": "view",
      "type": "function"
    },
    {
      "constant": true,
      "inputs": [],
      "name": "MIN_VOTING_DELAY",
      "outputs": [
        {
          "internalType": "uint256",
          "name": "",
          "type": "uint256"
        }
      ],
      "payable": false,
      "stateMutability": "view",
      "type": "function"
    },
    {
      "constant": true,
      "inputs": [],
      "name": "MIN_VOTING_PERIOD",
      "outputs": [
        {
          "internalType": "uint256",
          "name": "",
          "type": "uint256"
        }
      ],
      "payable": false,
      "stateMutability": "view",
      "type": "function"
    },
    {
      "constant": true,
      "inputs": [],
      "name": "admin",
      "outputs": [
        {
          "internalType": "address",
          "name": "",
          "type": "address"
        }
      ],
      "payable": false,
      "stateMutability": "view",
      "type": "function"
    },
    {
      "constant": true,
      "inputs": [],
      "name": "comp",
      "outputs": [
        {
          "internalType": "contract CompInterface",
          "name": "",
          "type": "address"
        }
      ],
      "payable": false,
      "stateMutability": "view",
      "type": "function"
    },
    {
      "constant": true,
      "inputs": [],
      "name": "implementation",
      "outputs": [
        {
          "internalType": "address",
          "name": "",
          "type": "address"
        }
      ],
      "payable": false,
      "stateMutability": "view",
      "type": "function"
    },
    {
      "constant": true,
      "inputs": [],
      "name": "initialProposalId",
      "outputs": [
        {
          "internalType": "uint256",
          "name": "",
          "type": "uint256"
        }
      ],
      "payable": false,
      "stateMutability": "view",
      "type": "function"
    },
    {
      "constant": true,
      "inputs": [
        {
          "internalType": "address",
          "name": "",
          "type": "address"
        }
      ],
      "name": "latestProposalIds",
      "outputs": [
        {
          "internalType": "uint256",
          "name": "",
          "type": "uint256"
        }
      ],
      "payable": false,
      "stateMutability": "view",
      "type": "function"
    },
    {
      "constant": true,
      "inputs": [],
      "name": "name",
      "outputs": [
        {
          "internalType": "string",
          "name": "",
          "type": "string"
        }
      ],
      "payable": false,
      "stateMutability": "view",
      "type": "function"
    },
    {
      "constant": true,
      "inputs": [],
      "name": "pendingAdmin",
      "outputs": [
        {
          "internalType": "address",
          "name": "",
          "type": "address"
        }
      ],
      "payable": false,
      "stateMutability": "view",
      "type": "function"
    },
    {
      "constant": true,
      "inputs": [],
      "name": "proposalCount",
      "outputs": [
        {
          "internalType": "uint256",
          "name": "",
          "type": "uint256"
        }
      ],
      "payable": false,
      "stateMutability": "view",
      "type": "function"
    },
    {
      "constant": true,
      "inputs": [],
      "name": "proposalMaxOperations",
      "outputs": [
        {
          "internalType": "uint256",
          "name": "",
          "type": "uint256"
        }
      ],
      "payable": false,
      "stateMutability": "view",
      "type": "function"
    },
    {
      "constant": true,
      "inputs": [],
      "name": "proposalThreshold",
      "outputs": [
        {
          "internalType": "uint256",
          "name": "",
          "type": "uint256"
        }
      ],
      "payable": false,
      "stateMutability": "view",
      "type": "function"
    },
    {
      "constant": true,
      "inputs": [
        {
          "internalType": "uint256",
          "name": "",
          "type": "uint256"
        }
      ],
      "name": "proposals",
      "outputs": [
        {
          "internalType": "uint256",
          "name": "id",
          "type": "uint256"
        },
        {
          "internalType": "address",
          "name": "proposer",
          "type": "address"
        },
        {
          "internalType": "uint256",
          "name": "eta",
          "type": "uint256"
        },
        {
          "internalType": "uint256",
          "name": "startBlock",
          "type": "uint256"
        },
        {
          "internalType": "uint256",
          "name": "endBlock",
          "type": "uint256"
        },
        {
          "internalType": "bool",
          "name": "canceled",
          "type": "bool"
        },
        {
          "internalType": "bool",
          "name": "executed",
          "type": "bool"
        }
      ],
      "payable": false,
      "stateMutability": "view",
      "type": "function"
    },
    {
      "constant": true,
      "inputs": [],
      "name": "quorumVotes",
      "outputs": [
        {
          "internalType": "uint256",
          "name": "",
          "type": "uint256"
        }
      ],
      "payable": false,
      "stateMutability": "view",
      "type": "function"
    },
    {
      "constant": true,
      "inputs": [],
      "name": "timelock",
      "outputs": [
        {
          "internalType": "contract TimelockInterface",
          "name": "",
          "type": "address"
        }
      ],
      "payable": false,
      "stateMutability": "view",
      "type": "function"
    },
    {
      "constant": true,
      "inputs": [],
      "name": "votingDelay",
      "outputs": [
        {
          "internalType": "uint256",
          "name": "",
          "type": "uint256"
        }
      ],
      "payable": false,
      "stateMutability": "view",
      "type": "function"
    },
    {
      "constant": true,
      "inputs": [],
      "name": "votingPeriod",
      "outputs": [
        {
          "internalType": "uint256",
          "name": "",
          "type": "uint256"
        }
      ],
      "payable": false,
      "stateMutability": "view",
      "type": "function"
    },
    {
      "constant": true,
      "inputs": [
        {
          "internalType": "address",
          "name": "",
          "type": "address"
        }
      ],
      "name": "whitelistAccountExpirations",
      "outputs": [
        {
          "internalType": "uint256",
          "name": "",
          "type": "uint256"
        }
      ],
      "payable": false,
      "stateMutability": "view",
      "type": "function"
    },
    {
      "constant": true,
      "inputs": [],
      "name": "whitelistGuardian",
      "outputs": [
        {
          "internalType": "address",
          "name": "",
          "type": "address"
        }
      ],
      "payable": false,
      "stateMutability": "view",
      "type": "function"
    },
    {
      "constant": false,
      "inputs": [
        {
          "internalType": "address",
          "name": "timelock_",
          "type": "address"
        },
        {
          "internalType": "address",
          "name": "comp_",
          "type": "address"
        },
        {
          "internalType": "uint256",
          "name": "votingPeriod_",
          "type": "uint256"
        },
        {
          "internalType": "uint256",
          "name": "votingDelay_",
          "type": "uint256"
        },
        {
          "internalType": "uint256",
          "name": "proposalThreshold_",
          "type": "uint256"
        }
      ],
      "name": "initialize",
      "outputs": [],
      "payable": false,
      "stateMutability": "nonpayable",
      "type": "function"
    },
    {
      "constant": false,
      "inputs": [
        {
          "components": [
            {
              "internalType": "address[]",
              "name": "targets",
              "type": "address[]"
            },
            {
              "internalType": "uint256[]",
              "name": "values",
              "type": "uint256[]"
            },
            {
              "internalType": "string[]",
              "name": "signatures",
              "type": "string[]"
            },
            {
              "internalType": "bytes[]",
              "name": "calldatas",
              "type": "bytes[]"
            },
            {
              "internalType": "string",
              "name": "description",
              "type": "string"
            }
          ],
          "internalType": "struct GovernorMikeDelegateStorageV1.Issue[]",
          "name": "issues_",
          "type": "tuple[]"
        }
      ],
      "name": "propose",
      "outputs": [
        {
          "internalType": "uint256",
          "name": "",
          "type": "uint256"
        }
      ],
      "payable": false,
      "stateMutability": "nonpayable",
      "type": "function"
    },
    {
      "constant": false,
      "inputs": [
        {
          "internalType": "uint256",
          "name": "proposalId",
          "type": "uint256"
        }
      ],
      "name": "queue",
      "outputs": [],
      "payable": false,
      "stateMutability": "nonpayable",
      "type": "function"
    },
    {
      "constant": false,
      "inputs": [
        {
          "internalType": "uint256",
          "name": "proposalId",
          "type": "uint256"
        }
      ],
      "name": "execute",
      "outputs": [],
      "payable": true,
      "stateMutability": "payable",
      "type": "function"
    },
    {
      "constant": false,
      "inputs": [
        {
          "internalType": "uint256",
          "name": "proposalId",
          "type": "uint256"
        }
      ],
      "name": "cancel",
      "outputs": [],
      "payable": false,
      "stateMutability": "nonpayable",
      "type": "function"
    },
    {
      "constant": true,
      "inputs": [
        {
          "internalType": "uint256",
          "name": "proposalId",
          "type": "uint256"
        },
        {
          "internalType": "uint256",
          "name": "issueNum",
          "type": "uint256"
        }
      ],
      "name": "getIssue",
      "outputs": [
        {
          "internalType": "address[]",
          "name": "targets",
          "type": "address[]"
        },
        {
          "internalType": "uint256[]",
          "name": "values",
          "type": "uint256[]"
        },
        {
          "internalType": "string[]",
          "name": "signatures",
          "type": "string[]"
        },
        {
          "internalType": "bytes[]",
          "name": "calldatas",
          "type": "bytes[]"
        },
        {
          "internalType": "string",
          "name": "description",
          "type": "string"
        }
      ],
      "payable": false,
      "stateMutability": "view",
      "type": "function"
    },
    {
      "constant": true,
      "inputs": [
        {
          "internalType": "uint256",
          "name": "proposalId",
          "type": "uint256"
        }
      ],
      "name": "getVotes",
      "outputs": [
        {
          "internalType": "uint256[]",
          "name": "",
          "type": "uint256[]"
        }
      ],
      "payable": false,
      "stateMutability": "view",
      "type": "function"
    },
    {
      "constant": true,
      "inputs": [
        {
          "internalType": "uint256",
          "name": "proposalId",
          "type": "uint256"
        },
        {
          "internalType": "address",
          "name": "voter",
          "type": "address"
        }
      ],
      "name": "getReceipt",
      "outputs": [
        {
          "components": [
            {
              "internalType": "bool",
              "name": "hasVoted",
              "type": "bool"
            },
            {
              "internalType": "uint8",
              "name": "support",
              "type": "uint8"
            },
            {
              "internalType": "uint96",
              "name": "votes",
              "type": "uint96"
            }
          ],
          "internalType": "struct GovernorMikeDelegateStorageV1.Receipt",
          "name": "",
          "type": "tuple"
        }
      ],
      "payable": false,
      "stateMutability": "view",
      "type": "function"
    },
    {
      "constant": true,
      "inputs": [
        {
          "internalType": "uint256",
          "name": "proposalId",
          "type": "uint256"
        }
      ],
      "name": "state",
      "outputs": [
        {
          "internalType": "enum GovernorMikeDelegateStorageV1.ProposalState",
          "name": "",
          "type": "uint8"
        }
      ],
      "payable": false,
      "stateMutability": "view",
      "type": "function"
    },
    {
      "constant": false,
      "inputs": [
        {
          "internalType": "uint256",
          "name": "proposalId",
          "type": "uint256"
        },
        {
          "internalType": "uint8",
          "name": "support",
          "type": "uint8"
        }
      ],
      "name": "castVote",
      "outputs": [],
      "payable": false,
      "stateMutability": "nonpayable",
      "type": "function"
    },
    {
      "constant": false,
      "inputs": [
        {
          "internalType": "uint256",
          "name": "proposalId",
          "type": "uint256"
        },
        {
          "internalType": "uint8",
          "name": "support",
          "type": "uint8"
        },
        {
          "internalType": "string",
          "name": "reason",
          "type": "string"
        }
      ],
      "name": "castVoteWithReason",
      "outputs": [],
      "payable": false,
      "stateMutability": "nonpayable",
      "type": "function"
    },
    {
      "constant": false,
      "inputs": [
        {
          "internalType": "uint256",
          "name": "proposalId",
          "type": "uint256"
        },
        {
          "internalType": "uint8",
          "name": "support",
          "type": "uint8"
        },
        {
          "internalType": "uint8",
          "name": "v",
          "type": "uint8"
        },
        {
          "internalType": "bytes32",
          "name": "r",
          "type": "bytes32"
        },
        {
          "internalType": "bytes32",
          "name": "s",
          "type": "bytes32"
        }
      ],
      "name": "castVoteBySig",
      "outputs": [],
      "payable": false,
      "stateMutability": "nonpayable",
      "type": "function"
    },
    {
      "constant": true,
      "inputs": [
        {
          "internalType": "address",
          "name": "account",
          "type": "address"
        }
      ],
      "name": "isWhitelisted",
      "outputs": [
        {
          "internalType": "bool",
          "name": "",
          "type": "bool"
        }
      ],
      "payable": false,
      "stateMutability": "view",
      "type": "function"
    },
    {
      "constant": false,
      "inputs": [
        {
          "internalType": "uint256",
          "name": "newVotingDelay",
          "type": "uint256"
        }
      ],
      "name": "_setVotingDelay",
      "outputs": [],
      "payable": false,
      "stateMutability": "nonpayable",
      "type": "function"
    },
    {
      "constant": false,
      "inputs": [
        {
          "internalType": "uint256",
          "name": "newVotingPeriod",
          "type": "uint256"
        }
      ],
      "name": "_setVotingPeriod",
      "outputs": [],
      "payable": false,
      "stateMutability": "nonpayable",
      "type": "function"
    },
    {
      "constant": false,
      "inputs": [
        {
          "internalType": "uint256",
          "name": "newProposalThreshold",
          "type": "uint256"
        }
      ],
      "name": "_setProposalThreshold",
      "outputs": [],
      "payable": false,
      "stateMutability": "nonpayable",
      "type": "function"
    },
    {
      "constant": false,
      "inputs": [
        {
          "internalType": "address",
          "name": "account",
          "type": "address"
        },
        {
          "internalType": "uint256",
          "name": "expiration",
          "type": "uint256"
        }
      ],
      "name": "_setWhitelistAccountExpiration",
      "outputs": [],
      "payable": false,
      "stateMutability": "nonpayable",
      "type": "function"
    },
    {
      "constant": false,
      "inputs": [
        {
          "internalType": "address",
          "name": "account",
          "type": "address"
        }
      ],
      "name": "_setWhitelistGuardian",
      "outputs": [],
      "payable": false,
      "stateMutability": "nonpayable",
      "type": "function"
    },
    {
      "constant": false,
      "inputs": [
        {
          "internalType": "address",
          "name": "newPendingAdmin",
          "type": "address"
        }
      ],
      "name": "_setPendingAdmin",
      "outputs": [],
      "payable": false,
      "stateMutability": "nonpayable",
      "type": "function"
    },
    {
      "constant": false,
      "inputs": [],
      "name": "_acceptAdmin",
      "outputs": [],
      "payable": false,
      "stateMutability": "nonpayable",
      "type": "function"
    }
  ],
  "bytecode": "0x608060405234801561001057600080fd5b50616f9680620000216000396000f3fe6080604052600436106102725760003560e01c8063641dea8a1161014f578063d33219b4116100c1578063e9c714f21161007a578063e9c714f214610970578063eb02b3a114610987578063f851a440146109c8578063fc4eee42146109f3578063fe0d94c114610a1e578063ff98109914610a3a57610272565b8063d33219b41461085e578063da35c66414610889578063ddf0b009146108b4578063deaaa7cc146108dd578063e23a9a5214610908578063e48083fe1461094557610272565b8063a64e024a11610113578063a64e024a14610760578063b11262631461078b578063b58131b0146107b6578063b71d1a0c146107e1578063c5a8425d1461080a578063d13f90b41461083557610272565b8063641dea8a1461067b578063791f5d23146106b85780637b3c71d3146106e35780637bdbe4d01461070c578063995333651461073757610272565b806325fd935a116101e85780633bccf4fd116101ac5780633bccf4fd1461056f5780633e4f49e61461059857806340e58ee5146105d55780634d6733d2146105fe57806356781388146106275780635c60da1b1461065057610272565b806325fd935a14610474578063267822471461049f57806338bd0dda146104ca5780633932abb1146105075780633af32abf1461053257610272565b806317977c611161023a57806317977c611461036457806317ba1b8b146103a15780631dfb1b5a146103ca57806320606b70146103f3578063215809ca1461041e57806324bc1a641461044957610272565b8063013cf08b1461027757806302a251a3146102ba57806306fdde03146102e55780630ea2d98c14610310578063109d0af814610339575b600080fd5b34801561028357600080fd5b5061029e6004803603610299919081019061485d565b610a77565b6040516102b19796959493929190616901565b60405180910390f35b3480156102c657600080fd5b506102cf610af3565b6040516102dc91906168a1565b60405180910390f35b3480156102f157600080fd5b506102fa610af9565b60405161030791906163e4565b60405180910390f35b34801561031c57600080fd5b506103376004803603610332919081019061485d565b610b32565b005b34801561034557600080fd5b5061034e610c62565b60405161035b9190616393565b60405180910390f35b34801561037057600080fd5b5061038b600480360361038691908101906146ad565b610c88565b60405161039891906168a1565b60405180910390f35b3480156103ad57600080fd5b506103c860048036036103c3919081019061485d565b610ca0565b005b3480156103d657600080fd5b506103f160048036036103ec919081019061485d565b610ddf565b005b3480156103ff57600080fd5b50610408610f0d565b60405161041591906162b7565b60405180910390f35b34801561042a57600080fd5b50610433610f24565b60405161044091906168a1565b60405180910390f35b34801561045557600080fd5b5061045e610f2a565b60405161046b91906168a1565b60405180910390f35b34801561048057600080fd5b50610489610f38565b60405161049691906168a1565b60405180910390f35b3480156104ab57600080fd5b506104b4610f46565b6040516104c191906160ac565b60405180910390f35b3480156104d657600080fd5b506104f160048036036104ec91908101906146ad565b610f6c565b6040516104fe91906168a1565b60405180910390f35b34801561051357600080fd5b5061051c610f84565b60405161052991906168a1565b60405180910390f35b34801561053e57600080fd5b50610559600480360361055491908101906146ad565b610f8a565b604051610566919061629c565b60405180910390f35b34801561057b57600080fd5b50610596600480360361059191908101906149cf565b610fd5565b005b3480156105a457600080fd5b506105bf60048036036105ba919081019061485d565b6111f5565b6040516105cc91906163c9565b60405180910390f35b3480156105e157600080fd5b506105fc60048036036105f7919081019061485d565b6113c2565b005b34801561060a57600080fd5b506106256004803603610620919081019061474d565b61193b565b005b34801561063357600080fd5b5061064e60048036036106499190810190614927565b611aa3565b005b34801561065c57600080fd5b50610665611b03565b60405161067291906160ac565b60405180910390f35b34801561068757600080fd5b506106a2600480360361069d9190810190614789565b611b29565b6040516106af91906168a1565b60405180910390f35b3480156106c457600080fd5b506106cd6121db565b6040516106da91906168a1565b60405180910390f35b3480156106ef57600080fd5b5061070a60048036036107059190810190614963565b6121e9565b005b34801561071857600080fd5b5061072161224f565b60405161072e91906168a1565b60405180910390f35b34801561074357600080fd5b5061075e600480360361075991908101906146ad565b612254565b005b34801561076c57600080fd5b506107756123aa565b60405161078291906168a1565b60405180910390f35b34801561079757600080fd5b506107a06123b1565b6040516107ad91906168a1565b60405180910390f35b3480156107c257600080fd5b506107cb6123b7565b6040516107d891906168a1565b60405180910390f35b3480156107ed57600080fd5b50610808600480360361080391908101906146ad565b6123bd565b005b34801561081657600080fd5b5061081f6124f1565b60405161082c91906160ac565b60405180910390f35b34801561084157600080fd5b5061085c600480360361085791908101906146d6565b612517565b005b34801561086a57600080fd5b506108736128be565b60405161088091906163ae565b60405180910390f35b34801561089557600080fd5b5061089e6128e4565b6040516108ab91906168a1565b60405180910390f35b3480156108c057600080fd5b506108db60048036036108d6919081019061485d565b6128ea565b005b3480156108e957600080fd5b506108f2612c64565b6040516108ff91906162b7565b60405180910390f35b34801561091457600080fd5b5061092f600480360361092a91908101906148af565b612c7b565b60405161093c9190616886565b60405180910390f35b34801561095157600080fd5b5061095a612d5f565b60405161096791906168a1565b60405180910390f35b34801561097c57600080fd5b50610985612d64565b005b34801561099357600080fd5b506109ae60048036036109a991908101906148eb565b612fd7565b6040516109bf959493929190616204565b60405180910390f35b3480156109d457600080fd5b506109dd613377565b6040516109ea91906160ac565b60405180910390f35b3480156109ff57600080fd5b50610a0861339c565b604051610a1591906168a1565b60405180910390f35b610a386004803603610a33919081019061485d565b6133a2565b005b348015610a4657600080fd5b50610a616004803603610a5c919081019061485d565b61361a565b604051610a6e919061627a565b60405180910390f35b600a6020528060005260406000206000915090508060000154908060010160009054906101000a900473ffffffffffffffffffffffffffffffffffffffff16908060020154908060040154908060050154908060070160009054906101000a900460ff16908060070160019054906101000a900460ff16905087565b60045481565b6040518060400160405280601681526020017f436f6d706f756e6420476f7665726e6f72204d696b650000000000000000000081525081565b6000809054906101000a900473ffffffffffffffffffffffffffffffffffffffff1673ffffffffffffffffffffffffffffffffffffffff163373ffffffffffffffffffffffffffffffffffffffff1614610bc1576040517f08c379a0000000000000000000000000000000000000000000000000000000008152600401610bb890616546565b60405180910390fd5b6116808110158015610bd6575062013b008111155b610c15576040517f08c379a0000000000000000000000000000000000000000000000000000000008152600401610c0c90616666565b60405180910390fd5b60006004549050816004819055507f7e3f7f0708a84de9203036abaa450dccc85ad5ff52f78c170f3edb55cf5e882881600454604051610c56929190616970565b60405180910390a15050565b600960009054906101000a900473ffffffffffffffffffffffffffffffffffffffff1681565b600b6020528060005260406000206000915090505481565b6000809054906101000a900473ffffffffffffffffffffffffffffffffffffffff1673ffffffffffffffffffffffffffffffffffffffff163373ffffffffffffffffffffffffffffffffffffffff1614610d2f576040517f08c379a0000000000000000000000000000000000000000000000000000000008152600401610d2690616706565b60405180910390fd5b690a968163f0a57b4000008110158015610d53575069152d02c7e14af68000008111155b610d92576040517f08c379a0000000000000000000000000000000000000000000000000000000008152600401610d8990616786565b60405180910390fd5b60006005549050816005819055507fccb45da8d5717e6c4544694297c4ba5cf151d455c9bb0ed4fc7a38411bc0546181600554604051610dd3929190616970565b60405180910390a15050565b6000809054906101000a900473ffffffffffffffffffffffffffffffffffffffff1673ffffffffffffffffffffffffffffffffffffffff163373ffffffffffffffffffffffffffffffffffffffff1614610e6e576040517f08c379a0000000000000000000000000000000000000000000000000000000008152600401610e65906164a6565b60405180910390fd5b60018110158015610e815750619d808111155b610ec0576040517f08c379a0000000000000000000000000000000000000000000000000000000008152600401610eb790616446565b60405180910390fd5b60006003549050816003819055507fc565b045403dc03c2eea82b81a0465edad9e2e7fc4d97e11421c209da93d7a9381600354604051610f01929190616970565b60405180910390a15050565b604051610f1990616097565b604051809103902081565b61168081565b6954b40b1f852bda00000081565b69152d02c7e14af680000081565b600160009054906101000a900473ffffffffffffffffffffffffffffffffffffffff1681565b600c6020528060005260406000206000915090505481565b60035481565b600042600c60008473ffffffffffffffffffffffffffffffffffffffff1673ffffffffffffffffffffffffffffffffffffffff16815260200190815260200160002054119050919050565b6000604051610fe390616097565b60405180910390206040518060400160405280601681526020017f436f6d706f756e6420476f7665726e6f72204d696b650000000000000000000081525080519060200120611030613688565b3060405160200161104494939291906162d2565b604051602081830303815290604052805190602001209050600060405161106a9061604b565b6040518091039020878760405160200161108693929190616317565b604051602081830303815290604052805190602001209050600082826040516020016110b3929190616060565b6040516020818303038152906040528051906020012090506000600182888888604051600081526020016040526040516110f0949392919061634e565b6020604051602081039080840390855afa158015611112573d6000803e3d6000fd5b505050602060405103519050600073ffffffffffffffffffffffffffffffffffffffff168173ffffffffffffffffffffffffffffffffffffffff16141561118e576040517f08c379a000000000000000000000000000000000000000000000000000000000815260040161118590616606565b60405180910390fd5b8073ffffffffffffffffffffffffffffffffffffffff167fb8e138887d0aa13bab447e82de9d5c1777041ecd21ca36ba824ff1e6c07ddda48a8a6111d3858e8e613695565b6040516111e2939291906169e7565b60405180910390a2505050505050505050565b600081600754101561123c576040517f08c379a0000000000000000000000000000000000000000000000000000000008152600401611233906165c6565b60405180910390fd5b6000600a600084815260200190815260200160002090508060070160009054906101000a900460ff16156112745760029150506113bd565b806004015443116112895760009150506113bd565b8060050154431161129e5760019150506113bd565b6954b40b1f852bda0000006112b284613976565b10156112c25760039150506113bd565b6000816002015414156112d95760049150506113bd565b8060070160019054906101000a900460ff16156112fa5760079150506113bd565b6113a78160020154600860009054906101000a900473ffffffffffffffffffffffffffffffffffffffff1673ffffffffffffffffffffffffffffffffffffffff1663c1a287e26040518163ffffffff1660e01b815260040160206040518083038186803b15801561136a57600080fd5b505afa15801561137e573d6000803e3d6000fd5b505050506040513d601f19601f820116820180604052506113a29190810190614886565b6139f8565b42106113b75760069150506113bd565b60059150505b919050565b6007808111156113ce57fe5b6113d7826111f5565b60078111156113e257fe5b1415611423576040517f08c379a000000000000000000000000000000000000000000000000000000000815260040161141a90616806565b60405180910390fd5b6000600a6000838152602001908152602001600020905060008160030161144984613a4d565b8154811061145357fe5b906000526020600020906005020190508160010160009054906101000a900473ffffffffffffffffffffffffffffffffffffffff1673ffffffffffffffffffffffffffffffffffffffff163373ffffffffffffffffffffffffffffffffffffffff16146117a4576114e78260010160009054906101000a900473ffffffffffffffffffffffffffffffffffffffff16610f8a565b1561167657600554600960009054906101000a900473ffffffffffffffffffffffffffffffffffffffff1673ffffffffffffffffffffffffffffffffffffffff1663782d6fe18460010160009054906101000a900473ffffffffffffffffffffffffffffffffffffffff1661155d436001613acf565b6040518363ffffffff1660e01b815260040161157a929190616119565b60206040518083038186803b15801561159257600080fd5b505afa1580156115a6573d6000803e3d6000fd5b505050506040513d601f19601f820116820180604052506115ca9190810190614a46565b6bffffffffffffffffffffffff161080156116325750600d60009054906101000a900473ffffffffffffffffffffffffffffffffffffffff1673ffffffffffffffffffffffffffffffffffffffff163373ffffffffffffffffffffffffffffffffffffffff16145b611671576040517f08c379a000000000000000000000000000000000000000000000000000000000815260040161166890616526565b60405180910390fd5b6117a3565b600554600960009054906101000a900473ffffffffffffffffffffffffffffffffffffffff1673ffffffffffffffffffffffffffffffffffffffff1663782d6fe18460010160009054906101000a900473ffffffffffffffffffffffffffffffffffffffff166116e7436001613acf565b6040518363ffffffff1660e01b8152600401611704929190616119565b60206040518083038186803b15801561171c57600080fd5b505afa158015611730573d6000803e3d6000fd5b505050506040513d601f19601f820116820180604052506117549190810190614a46565b6bffffffffffffffffffffffff16106117a2576040517f08c379a0000000000000000000000000000000000000000000000000000000008152600401611799906164c6565b60405180910390fd5b5b5b60018260070160006101000a81548160ff02191690831515021790555060008090505b81600001805490508110156118fe57600860009054906101000a900473ffffffffffffffffffffffffffffffffffffffff1673ffffffffffffffffffffffffffffffffffffffff1663591fcdfe83600001838154811061182357fe5b9060005260206000200160009054906101000a900473ffffffffffffffffffffffffffffffffffffffff1684600101848154811061185d57fe5b906000526020600020015485600201858154811061187757fe5b9060005260206000200186600301868154811061189057fe5b9060005260206000200188600201546040518663ffffffff1660e01b81526004016118bf9594939291906161a3565b600060405180830381600087803b1580156118d957600080fd5b505af11580156118ed573d6000803e3d6000fd5b5050505080806001019150506117c7565b507f789cf55be980739dad1d0699b93b58e806b51c9d96619bfa8fe0a28abaa7b30c8360405161192e91906168a1565b60405180910390a1505050565b6000809054906101000a900473ffffffffffffffffffffffffffffffffffffffff1673ffffffffffffffffffffffffffffffffffffffff163373ffffffffffffffffffffffffffffffffffffffff1614806119e35750600d60009054906101000a900473ffffffffffffffffffffffffffffffffffffffff1673ffffffffffffffffffffffffffffffffffffffff163373ffffffffffffffffffffffffffffffffffffffff16145b611a22576040517f08c379a0000000000000000000000000000000000000000000000000000000008152600401611a1990616866565b60405180910390fd5b80600c60008473ffffffffffffffffffffffffffffffffffffffff1673ffffffffffffffffffffffffffffffffffffffff168152602001908152602001600020819055507f4e7b7545bc5744d0e30425959f4687475774b6c7edad77d24cb51c7d967d45158282604051611a97929190616119565b60405180910390a15050565b3373ffffffffffffffffffffffffffffffffffffffff167fb8e138887d0aa13bab447e82de9d5c1777041ecd21ca36ba824ff1e6c07ddda48383611ae8338787613695565b604051611af7939291906169e7565b60405180910390a25050565b600260009054906101000a900473ffffffffffffffffffffffffffffffffffffffff1681565b60006007600081548092919060010191905055506000600a60006007548152602001908152602001600020905060008090505b8351811015611f0157600554600960009054906101000a900473ffffffffffffffffffffffffffffffffffffffff1673ffffffffffffffffffffffffffffffffffffffff1663782d6fe133611bb2436001613acf565b6040518363ffffffff1660e01b8152600401611bcf9291906160c7565b60206040518083038186803b158015611be757600080fd5b505afa158015611bfb573d6000803e3d6000fd5b505050506040513d601f19601f82011682018060405250611c1f9190810190614a46565b6bffffffffffffffffffffffff161180611c3e5750611c3d33610f8a565b5b611c7d576040517f08c379a0000000000000000000000000000000000000000000000000000000008152600401611c7490616566565b60405180910390fd5b838181518110611c8957fe5b60200260200101516020015151848281518110611ca257fe5b60200260200101516000015151148015611ceb5750838181518110611cc357fe5b60200260200101516040015151848281518110611cdc57fe5b60200260200101516000015151145b8015611d265750838181518110611cfe57fe5b60200260200101516060015151848281518110611d1757fe5b60200260200101516000015151145b611d65576040517f08c379a0000000000000000000000000000000000000000000000000000000008152600401611d5c90616506565b60405180910390fd5b6000848281518110611d7357fe5b602002602001015160000151511415611dc1576040517f08c379a0000000000000000000000000000000000000000000000000000000008152600401611db890616586565b60405180910390fd5b600a848281518110611dcf57fe5b602002602001015160000151511115611e1d576040517f08c379a0000000000000000000000000000000000000000000000000000000008152600401611e1490616406565b60405180910390fd5b81600301848281518110611e2d57fe5b6020026020010151908060018154018082558091505090600182039060005260206000209060050201600090919290919091506000820151816000019080519060200190611e7c929190613cf5565b506020820151816001019080519060200190611e99929190613d7f565b506040820151816002019080519060200190611eb6929190613dcc565b506060820151816003019080519060200190611ed3929190613e2c565b506080820151816004019080519060200190611ef0929190613e8c565b505050508080600101915050611b5c565b506000600b60003373ffffffffffffffffffffffffffffffffffffffff1673ffffffffffffffffffffffffffffffffffffffff16815260200190815260200160002054905060008114612011576000611f59826111f5565b905060016007811115611f6857fe5b816007811115611f7457fe5b1415611fb5576040517f08c379a0000000000000000000000000000000000000000000000000000000008152600401611fac90616826565b60405180910390fd5b60006007811115611fc257fe5b816007811115611fce57fe5b141561200f576040517f08c379a000000000000000000000000000000000000000000000000000000000815260040161200690616726565b60405180910390fd5b505b600061201f436003546139f8565b9050600061202f826004546139f8565b90506007548460000181905550338460010160006101000a81548173ffffffffffffffffffffffffffffffffffffffff021916908373ffffffffffffffffffffffffffffffffffffffff1602179055506000846002018190555081846004018190555080846005018190555085516040519080825280602002602001820160405280156120cb5781602001602082028038833980820191505090505b508460060190805190602001906120e3929190613f0c565b5060008460070160006101000a81548160ff02191690831515021790555060008460070160016101000a81548160ff0219169083151502179055508360000154600b60008660010160009054906101000a900473ffffffffffffffffffffffffffffffffffffffff1673ffffffffffffffffffffffffffffffffffffffff1673ffffffffffffffffffffffffffffffffffffffff168152602001908152602001600020819055507fd38d9a9a102af286aea1cbcadb8aab8446a90859626389db3710ed4fea4c2c3984600001543384846040516121c394939291906168bc565b60405180910390a18360000154945050505050919050565b690a968163f0a57b40000081565b3373ffffffffffffffffffffffffffffffffffffffff167fb8e138887d0aa13bab447e82de9d5c1777041ecd21ca36ba824ff1e6c07ddda4858561222e338989613695565b8686604051612241959493929190616999565b60405180910390a250505050565b600a81565b6000809054906101000a900473ffffffffffffffffffffffffffffffffffffffff1673ffffffffffffffffffffffffffffffffffffffff163373ffffffffffffffffffffffffffffffffffffffff16146122e3576040517f08c379a00000000000000000000000000000000000000000000000000000000081526004016122da90616746565b60405180910390fd5b6000600d60009054906101000a900473ffffffffffffffffffffffffffffffffffffffff16905081600d60006101000a81548173ffffffffffffffffffffffffffffffffffffffff021916908373ffffffffffffffffffffffffffffffffffffffff1602179055507f80a07e73e552148844a9c216d9724212d609cfa54e9c1a2e97203bdd2c4ad34181600d60009054906101000a900473ffffffffffffffffffffffffffffffffffffffff1660405161239e9291906160f0565b60405180910390a15050565b62013b0081565b619d8081565b60055481565b6000809054906101000a900473ffffffffffffffffffffffffffffffffffffffff1673ffffffffffffffffffffffffffffffffffffffff163373ffffffffffffffffffffffffffffffffffffffff161461244c576040517f08c379a000000000000000000000000000000000000000000000000000000000815260040161244390616466565b60405180910390fd5b6000600160009054906101000a900473ffffffffffffffffffffffffffffffffffffffff16905081600160006101000a81548173ffffffffffffffffffffffffffffffffffffffff021916908373ffffffffffffffffffffffffffffffffffffffff1602179055507fca4f2f25d0898edd99413412fb94012f9e54ec8142f9b093e7720646a95b16a981836040516124e59291906160f0565b60405180910390a15050565b600d60009054906101000a900473ffffffffffffffffffffffffffffffffffffffff1681565b600073ffffffffffffffffffffffffffffffffffffffff16600860009054906101000a900473ffffffffffffffffffffffffffffffffffffffff1673ffffffffffffffffffffffffffffffffffffffff16146125a8576040517f08c379a000000000000000000000000000000000000000000000000000000000815260040161259f906164e6565b60405180910390fd5b6000809054906101000a900473ffffffffffffffffffffffffffffffffffffffff1673ffffffffffffffffffffffffffffffffffffffff163373ffffffffffffffffffffffffffffffffffffffff1614612637576040517f08c379a000000000000000000000000000000000000000000000000000000000815260040161262e906166c6565b60405180910390fd5b600073ffffffffffffffffffffffffffffffffffffffff168573ffffffffffffffffffffffffffffffffffffffff1614156126a7576040517f08c379a000000000000000000000000000000000000000000000000000000000815260040161269e906165e6565b60405180910390fd5b600073ffffffffffffffffffffffffffffffffffffffff168473ffffffffffffffffffffffffffffffffffffffff161415612717576040517f08c379a000000000000000000000000000000000000000000000000000000000815260040161270e90616766565b60405180910390fd5b611680831015801561272c575062013b008311155b61276b576040517f08c379a0000000000000000000000000000000000000000000000000000000008152600401612762906167a6565b60405180910390fd5b6001821015801561277e5750619d808211155b6127bd576040517f08c379a00000000000000000000000000000000000000000000000000000000081526004016127b4906167e6565b60405180910390fd5b690a968163f0a57b40000081101580156127e1575069152d02c7e14af68000008111155b612820576040517f08c379a000000000000000000000000000000000000000000000000000000000815260040161281790616686565b60405180910390fd5b84600860006101000a81548173ffffffffffffffffffffffffffffffffffffffff021916908373ffffffffffffffffffffffffffffffffffffffff16021790555083600960006101000a81548173ffffffffffffffffffffffffffffffffffffffff021916908373ffffffffffffffffffffffffffffffffffffffff1602179055508260048190555081600381905550806005819055505050505050565b600860009054906101000a900473ffffffffffffffffffffffffffffffffffffffff1681565b60075481565b600460078111156128f757fe5b612900826111f5565b600781111561290b57fe5b1461294b576040517f08c379a0000000000000000000000000000000000000000000000000000000008152600401612942906166a6565b60405180910390fd5b6000600a6000838152602001908152602001600020905060008160030161297184613a4d565b8154811061297b57fe5b906000526020600020906005020190506000612a3642600860009054906101000a900473ffffffffffffffffffffffffffffffffffffffff1673ffffffffffffffffffffffffffffffffffffffff16636a42b8f86040518163ffffffff1660e01b815260040160206040518083038186803b1580156129f957600080fd5b505afa158015612a0d573d6000803e3d6000fd5b505050506040513d601f19601f82011682018060405250612a319190810190614886565b6139f8565b905060008090505b8260000180549050811015612c1b57612c0e836000018281548110612a5f57fe5b9060005260206000200160009054906101000a900473ffffffffffffffffffffffffffffffffffffffff16846001018381548110612a9957fe5b9060005260206000200154856002018481548110612ab357fe5b906000526020600020018054600181600116156101000203166002900480601f016020809104026020016040519081016040528092919081815260200182805460018160011615610100020316600290048015612b515780601f10612b2657610100808354040283529160200191612b51565b820191906000526020600020905b815481529060010190602001808311612b3457829003601f168201915b5050505050866003018581548110612b6557fe5b906000526020600020018054600181600116156101000203166002900480601f016020809104026020016040519081016040528092919081815260200182805460018160011615610100020316600290048015612c035780601f10612bd857610100808354040283529160200191612c03565b820191906000526020600020905b815481529060010190602001808311612be657829003601f168201915b505050505086613b1f565b8080600101915050612a3e565b508083600201819055507f9a2e42fd6722813d69113e7d0079d3d940171428df7373df9c7f7617cfda28928482604051612c56929190616970565b60405180910390a150505050565b604051612c709061604b565b604051809103902081565b612c83613f59565b600a600084815260200190815260200160002060080160008373ffffffffffffffffffffffffffffffffffffffff1673ffffffffffffffffffffffffffffffffffffffff1681526020019081526020016000206040518060600160405290816000820160009054906101000a900460ff161515151581526020016000820160019054906101000a900460ff1660ff1660ff1681526020016000820160029054906101000a90046bffffffffffffffffffffffff166bffffffffffffffffffffffff166bffffffffffffffffffffffff1681525050905092915050565b600181565b600160009054906101000a900473ffffffffffffffffffffffffffffffffffffffff1673ffffffffffffffffffffffffffffffffffffffff163373ffffffffffffffffffffffffffffffffffffffff16148015612dee5750600073ffffffffffffffffffffffffffffffffffffffff163373ffffffffffffffffffffffffffffffffffffffff1614155b612e2d576040517f08c379a0000000000000000000000000000000000000000000000000000000008152600401612e24906167c6565b60405180910390fd5b60008060009054906101000a900473ffffffffffffffffffffffffffffffffffffffff1690506000600160009054906101000a900473ffffffffffffffffffffffffffffffffffffffff169050600160009054906101000a900473ffffffffffffffffffffffffffffffffffffffff166000806101000a81548173ffffffffffffffffffffffffffffffffffffffff021916908373ffffffffffffffffffffffffffffffffffffffff1602179055506000600160006101000a81548173ffffffffffffffffffffffffffffffffffffffff021916908373ffffffffffffffffffffffffffffffffffffffff1602179055507ff9ffabca9c8276e99321725bcb43fb076a6c66a54b7f21c4e8146d8519b417dc826000809054906101000a900473ffffffffffffffffffffffffffffffffffffffff16604051612f709291906160f0565b60405180910390a17fca4f2f25d0898edd99413412fb94012f9e54ec8142f9b093e7720646a95b16a981600160009054906101000a900473ffffffffffffffffffffffffffffffffffffffff16604051612fcb9291906160f0565b60405180910390a15050565b60608060608060606000600a6000898152602001908152602001600020600301878154811061300257fe5b906000526020600020906005020190508060000181600101826002018360030184600401848054806020026020016040519081016040528092919081815260200182805480156130a757602002820191906000526020600020905b8160009054906101000a900473ffffffffffffffffffffffffffffffffffffffff1673ffffffffffffffffffffffffffffffffffffffff168152602001906001019080831161305d575b50505050509450838054806020026020016040519081016040528092919081815260200182805480156130f957602002820191906000526020600020905b8154815260200190600101908083116130e5575b5050505050935082805480602002602001604051908101604052809291908181526020016000905b828210156131dd578382906000526020600020018054600181600116156101000203166002900480601f0160208091040260200160405190810160405280929190818152602001828054600181600116156101000203166002900480156131c95780601f1061319e576101008083540402835291602001916131c9565b820191906000526020600020905b8154815290600101906020018083116131ac57829003601f168201915b505050505081526020019060010190613121565b50505050925081805480602002602001604051908101604052809291908181526020016000905b828210156132c0578382906000526020600020018054600181600116156101000203166002900480601f0160208091040260200160405190810160405280929190818152602001828054600181600116156101000203166002900480156132ac5780601f10613281576101008083540402835291602001916132ac565b820191906000526020600020905b81548152906001019060200180831161328f57829003601f168201915b505050505081526020019060010190613204565b505050509150808054600181600116156101000203166002900480601f01602080910402602001604051908101604052809291908181526020018280546001816001161561010002031660029004801561335b5780601f106133305761010080835404028352916020019161335b565b820191906000526020600020905b81548152906001019060200180831161333e57829003601f168201915b5050505050905095509550955095509550509295509295909350565b6000809054906101000a900473ffffffffffffffffffffffffffffffffffffffff1681565b60065481565b600560078111156133af57fe5b6133b8826111f5565b60078111156133c357fe5b14613403576040517f08c379a00000000000000000000000000000000000000000000000000000000081526004016133fa906165a6565b60405180910390fd5b6000600a6000838152602001908152602001600020905060008160030161342984613a4d565b8154811061343357fe5b9060005260206000209060050201905060018260070160016101000a81548160ff02191690831515021790555060008090505b81600001805490508110156135dd57600860009054906101000a900473ffffffffffffffffffffffffffffffffffffffff1673ffffffffffffffffffffffffffffffffffffffff16630825f38f8360010183815481106134c257fe5b90600052602060002001548460000184815481106134dc57fe5b9060005260206000200160009054906101000a900473ffffffffffffffffffffffffffffffffffffffff1685600101858154811061351657fe5b906000526020600020015486600201868154811061353057fe5b9060005260206000200187600301878154811061354957fe5b9060005260206000200189600201546040518763ffffffff1660e01b81526004016135789594939291906161a3565b6000604051808303818588803b15801561359157600080fd5b505af11580156135a5573d6000803e3d6000fd5b50505050506040513d6000823e3d601f19601f820116820180604052506135cf919081019061481c565b508080600101915050613466565b507f712ae1383f79ac853f8d882153778e0260ef8f03b504e2866e0593e04d2b291f8360405161360d91906168a1565b60405180910390a1505050565b6060600a600083815260200190815260200160002060060180548060200260200160405190810160405280929190818152602001828054801561367c57602002820191906000526020600020905b815481526020019060010190808311613668575b50505050509050919050565b6000804690508091505090565b6000600160078111156136a457fe5b6136ad846111f5565b60078111156136b857fe5b146136f8576040517f08c379a00000000000000000000000000000000000000000000000000000000081526004016136ef90616486565b60405180910390fd5b60028260ff16111561373f576040517f08c379a0000000000000000000000000000000000000000000000000000000008152600401613736906166e6565b60405180910390fd5b6000600a6000858152602001908152602001600020905060008160080160008773ffffffffffffffffffffffffffffffffffffffff1673ffffffffffffffffffffffffffffffffffffffff1681526020019081526020016000209050600015158160000160009054906101000a900460ff161515146137f3576040517f08c379a00000000000000000000000000000000000000000000000000000000081526004016137ea90616646565b60405180910390fd5b6000600960009054906101000a900473ffffffffffffffffffffffffffffffffffffffff1673ffffffffffffffffffffffffffffffffffffffff1663782d6fe18885600401546040518363ffffffff1660e01b8152600401613856929190616119565b60206040518083038186803b15801561386e57600080fd5b505afa158015613882573d6000803e3d6000fd5b505050506040513d601f19601f820116820180604052506138a69190810190614a46565b90506138dc836006018660ff16815481106138bd57fe5b9060005260206000200154826bffffffffffffffffffffffff166139f8565b836006018660ff16815481106138ee57fe5b906000526020600020018190555060018260000160006101000a81548160ff021916908315150217905550848260000160016101000a81548160ff021916908360ff160217905550808260000160026101000a8154816bffffffffffffffffffffffff02191690836bffffffffffffffffffffffff1602179055508093505050509392505050565b600080600a60008481526020019081526020016000206006019050600080905060008090505b82805490508110156139f057838382815481106139b557fe5b906000526020600020015411156139e3578281815481106139d257fe5b906000526020600020015493508091505b808060010191505061399c565b505050919050565b600080828401905083811015613a43576040517f08c379a0000000000000000000000000000000000000000000000000000000008152600401613a3a90616626565b60405180910390fd5b8091505092915050565b600080600a60008481526020019081526020016000206006019050600080905060008090505b8280549050811015613ac75781838281548110613a8c57fe5b90600052602060002001541115613aba57828181548110613aa957fe5b906000526020600020015491508093505b8080600101915050613a73565b505050919050565b600082821115613b14576040517f08c379a0000000000000000000000000000000000000000000000000000000008152600401613b0b90616846565b60405180910390fd5b818303905092915050565b600860009054906101000a900473ffffffffffffffffffffffffffffffffffffffff1673ffffffffffffffffffffffffffffffffffffffff1663f2b065378686868686604051602001613b76959493929190616142565b604051602081830303815290604052805190602001206040518263ffffffff1660e01b8152600401613ba891906162b7565b60206040518083038186803b158015613bc057600080fd5b505afa158015613bd4573d6000803e3d6000fd5b505050506040513d601f19601f82011682018060405250613bf891908101906147ca565b15613c38576040517f08c379a0000000000000000000000000000000000000000000000000000000008152600401613c2f90616426565b60405180910390fd5b600860009054906101000a900473ffffffffffffffffffffffffffffffffffffffff1673ffffffffffffffffffffffffffffffffffffffff16633a66f90186868686866040518663ffffffff1660e01b8152600401613c9b959493929190616142565b602060405180830381600087803b158015613cb557600080fd5b505af1158015613cc9573d6000803e3d6000fd5b505050506040513d601f19601f82011682018060405250613ced91908101906147f3565b505050505050565b828054828255906000526020600020908101928215613d6e579160200282015b82811115613d6d5782518260006101000a81548173ffffffffffffffffffffffffffffffffffffffff021916908373ffffffffffffffffffffffffffffffffffffffff16021790555091602001919060010190613d15565b5b509050613d7b9190613f8d565b5090565b828054828255906000526020600020908101928215613dbb579160200282015b82811115613dba578251825591602001919060010190613d9f565b5b509050613dc89190613fd0565b5090565b828054828255906000526020600020908101928215613e1b579160200282015b82811115613e1a578251829080519060200190613e0a929190613e8c565b5091602001919060010190613dec565b5b509050613e289190613ff5565b5090565b828054828255906000526020600020908101928215613e7b579160200282015b82811115613e7a578251829080519060200190613e6a929190614021565b5091602001919060010190613e4c565b5b509050613e8891906140a1565b5090565b828054600181600116156101000203166002900490600052602060002090601f016020900481019282601f10613ecd57805160ff1916838001178555613efb565b82800160010185558215613efb579182015b82811115613efa578251825591602001919060010190613edf565b5b509050613f089190613fd0565b5090565b828054828255906000526020600020908101928215613f48579160200282015b82811115613f47578251825591602001919060010190613f2c565b5b509050613f559190613fd0565b5090565b6040518060600160405280600015158152602001600060ff16815260200160006bffffffffffffffffffffffff1681525090565b613fcd91905b80821115613fc957600081816101000a81549073ffffffffffffffffffffffffffffffffffffffff021916905550600101613f93565b5090565b90565b613ff291905b80821115613fee576000816000905550600101613fd6565b5090565b90565b61401e91905b8082111561401a576000818161401191906140cd565b50600101613ffb565b5090565b90565b828054600181600116156101000203166002900490600052602060002090601f016020900481019282601f1061406257805160ff1916838001178555614090565b82800160010185558215614090579182015b8281111561408f578251825591602001919060010190614074565b5b50905061409d9190613fd0565b5090565b6140ca91905b808211156140c657600081816140bd9190614115565b506001016140a7565b5090565b90565b50805460018160011615610100020316600290046000825580601f106140f35750614112565b601f0160209004906000526020600020908101906141119190613fd0565b5b50565b50805460018160011615610100020316600290046000825580601f1061413b575061415a565b601f0160209004906000526020600020908101906141599190613fd0565b5b50565b60008135905061416c81616ec9565b92915050565b600082601f83011261418357600080fd5b813561419661419182616a5e565b616a31565b915081818352602084019350602081019050838560208402820111156141bb57600080fd5b60005b838110156141eb57816141d1888261415d565b8452602084019350602083019250506001810190506141be565b5050505092915050565b600082601f83011261420657600080fd5b813561421961421482616a86565b616a31565b9150818183526020840193506020810190508360005b8381101561425f57813586016142458882614413565b84526020840193506020830192505060018101905061422f565b5050505092915050565b600082601f83011261427a57600080fd5b813561428d61428882616aae565b616a31565b9150818183526020840193506020810190508360005b838110156142d357813586016142b98882614505565b8452602084019350602083019250506001810190506142a3565b5050505092915050565b600082601f8301126142ee57600080fd5b81356143016142fc82616ad6565b616a31565b9150818183526020840193506020810190508360005b83811015614347578135860161432d8882614559565b845260208401935060208301925050600181019050614317565b5050505092915050565b600082601f83011261436257600080fd5b813561437561437082616afe565b616a31565b9150818183526020840193506020810190508385602084028201111561439a57600080fd5b60005b838110156143ca57816143b08882614659565b84526020840193506020830192505060018101905061439d565b5050505092915050565b6000815190506143e381616ee0565b92915050565b6000813590506143f881616ef7565b92915050565b60008151905061440d81616ef7565b92915050565b600082601f83011261442457600080fd5b813561443761443282616b26565b616a31565b9150808252602083016020830185838301111561445357600080fd5b61445e838284616e5f565b50505092915050565b600082601f83011261447857600080fd5b815161448b61448682616b52565b616a31565b915080825260208301602083018583830111156144a757600080fd5b6144b2838284616e6e565b50505092915050565b60008083601f8401126144cd57600080fd5b8235905067ffffffffffffffff8111156144e657600080fd5b6020830191508360018202830111156144fe57600080fd5b9250929050565b600082601f83011261451657600080fd5b813561452961452482616b7e565b616a31565b9150808252602083016020830185838301111561454557600080fd5b614550838284616e5f565b50505092915050565b600060a0828403121561456b57600080fd5b61457560a0616a31565b9050600082013567ffffffffffffffff81111561459157600080fd5b61459d84828501614172565b600083015250602082013567ffffffffffffffff8111156145bd57600080fd5b6145c984828501614351565b602083015250604082013567ffffffffffffffff8111156145e957600080fd5b6145f584828501614269565b604083015250606082013567ffffffffffffffff81111561461557600080fd5b614621848285016141f5565b606083015250608082013567ffffffffffffffff81111561464157600080fd5b61464d84828501614505565b60808301525092915050565b60008135905061466881616f0e565b92915050565b60008151905061467d81616f0e565b92915050565b60008135905061469281616f25565b92915050565b6000815190506146a781616f3c565b92915050565b6000602082840312156146bf57600080fd5b60006146cd8482850161415d565b91505092915050565b600080600080600060a086880312156146ee57600080fd5b60006146fc8882890161415d565b955050602061470d8882890161415d565b945050604061471e88828901614659565b935050606061472f88828901614659565b925050608061474088828901614659565b9150509295509295909350565b6000806040838503121561476057600080fd5b600061476e8582860161415d565b925050602061477f85828601614659565b9150509250929050565b60006020828403121561479b57600080fd5b600082013567ffffffffffffffff8111156147b557600080fd5b6147c1848285016142dd565b91505092915050565b6000602082840312156147dc57600080fd5b60006147ea848285016143d4565b91505092915050565b60006020828403121561480557600080fd5b6000614813848285016143fe565b91505092915050565b60006020828403121561482e57600080fd5b600082015167ffffffffffffffff81111561484857600080fd5b61485484828501614467565b91505092915050565b60006020828403121561486f57600080fd5b600061487d84828501614659565b91505092915050565b60006020828403121561489857600080fd5b60006148a68482850161466e565b91505092915050565b600080604083850312156148c257600080fd5b60006148d085828601614659565b92505060206148e18582860161415d565b9150509250929050565b600080604083850312156148fe57600080fd5b600061490c85828601614659565b925050602061491d85828601614659565b9150509250929050565b6000806040838503121561493a57600080fd5b600061494885828601614659565b925050602061495985828601614683565b9150509250929050565b6000806000806060858703121561497957600080fd5b600061498787828801614659565b945050602061499887828801614683565b935050604085013567ffffffffffffffff8111156149b557600080fd5b6149c1878288016144bb565b925092505092959194509250565b600080600080600060a086880312156149e757600080fd5b60006149f588828901614659565b9550506020614a0688828901614683565b9450506040614a1788828901614683565b9350506060614a28888289016143e9565b9250506080614a39888289016143e9565b9150509295509295909350565b600060208284031215614a5857600080fd5b6000614a6684828501614698565b91505092915050565b6000614a7b8383614ad6565b60208301905092915050565b6000614a938383614d17565b905092915050565b6000614aa78383614e72565b905092915050565b6000614abb8383615ff1565b60208301905092915050565b614ad081616dbd565b82525050565b614adf81616d33565b82525050565b614aee81616d33565b82525050565b6000614aff82616c14565b614b098185616ca0565b9350614b1483616baa565b8060005b83811015614b45578151614b2c8882614a6f565b9750614b3783616c6c565b925050600181019050614b18565b5085935050505092915050565b6000614b5d82616c1f565b614b678185616cb1565b935083602082028501614b7985616bba565b8060005b85811015614bb55784840389528151614b968582614a87565b9450614ba183616c79565b925060208a01995050600181019050614b7d565b50829750879550505050505092915050565b6000614bd282616c2a565b614bdc8185616cc2565b935083602082028501614bee85616bca565b8060005b85811015614c2a5784840389528151614c0b8582614a9b565b9450614c1683616c86565b925060208a01995050600181019050614bf2565b50829750879550505050505092915050565b6000614c4782616c35565b614c518185616cd3565b9350614c5c83616bda565b8060005b83811015614c8d578151614c748882614aaf565b9750614c7f83616c93565b925050600181019050614c60565b5085935050505092915050565b614ca381616d45565b82525050565b614cb281616d45565b82525050565b614cc181616d51565b82525050565b614cd8614cd382616d51565b616ea1565b82525050565b6000614ce982616c4b565b614cf38185616cf5565b9350614d03818560208601616e6e565b614d0c81616eab565b840191505092915050565b6000614d2282616c40565b614d2c8185616ce4565b9350614d3c818560208601616e6e565b614d4581616eab565b840191505092915050565b600081546001811660008114614d6d5760018114614d9357614dd7565b607f6002830416614d7e8187616cf5565b955060ff198316865260208601935050614dd7565b60028204614da18187616cf5565b9550614dac85616bea565b60005b82811015614dce57815481890152600182019150602081019050614daf565b80880195505050505b505092915050565b614de881616dcf565b82525050565b614df781616df3565b82525050565b614e0681616e17565b82525050565b6000614e188385616d17565b9350614e25838584616e5f565b614e2e83616eab565b840190509392505050565b6000614e4482616c61565b614e4e8185616d17565b9350614e5e818560208601616e6e565b614e6781616eab565b840191505092915050565b6000614e7d82616c56565b614e878185616d06565b9350614e97818560208601616e6e565b614ea081616eab565b840191505092915050565b6000614eb682616c56565b614ec08185616d17565b9350614ed0818560208601616e6e565b614ed981616eab565b840191505092915050565b600081546001811660008114614f015760018114614f2757614f6b565b607f6002830416614f128187616d17565b955060ff198316865260208601935050614f6b565b60028204614f358187616d17565b9550614f4085616bff565b60005b82811015614f6257815481890152600182019150602081019050614f43565b80880195505050505b505092915050565b6000614f80602783616d17565b91507f476f7665726e6f724d696b653a3a70726f706f73653a20746f6f206d616e792060008301527f616374696f6e73000000000000000000000000000000000000000000000000006020830152604082019050919050565b6000614fe6605483616d17565b91507f476f7665726e6f724d696b653a3a71756575654f72526576657274496e74657260008301527f6e616c3a206964656e746963616c2070726f706f73616c20616374696f6e206160208301527f6c726561647920717565756564206174206574610000000000000000000000006040830152606082019050919050565b6000615072603383616d17565b91507f476f7665726e6f724d696b653a3a5f736574566f74696e6744656c61793a206960008301527f6e76616c696420766f74696e672064656c6179000000000000000000000000006020830152604082019050919050565b60006150d8602983616d17565b91507f476f7665726e6f724d696b653a5f73657450656e64696e6741646d696e3a206160008301527f646d696e206f6e6c7900000000000000000000000000000000000000000000006020830152604082019050919050565b600061513e603083616d17565b91507f476f7665726e6f724d696b653a3a63617374566f7465496e7465726e616c3a2060008301527f766f74696e6720697320636c6f736564000000000000000000000000000000006020830152604082019050919050565b60006151a4602983616d17565b91507f476f7665726e6f724d696b653a3a5f736574566f74696e6744656c61793a206160008301527f646d696e206f6e6c7900000000000000000000000000000000000000000000006020830152604082019050919050565b600061520a602883616d28565b91507f42616c6c6f742875696e743235362070726f706f73616c49642c75696e74382060008301527f737570706f7274290000000000000000000000000000000000000000000000006020830152602882019050919050565b6000615270602e83616d17565b91507f476f7665726e6f724d696b653a3a63616e63656c3a2070726f706f736572206160008301527f626f7665207468726573686f6c640000000000000000000000000000000000006020830152604082019050919050565b60006152d6603283616d17565b91507f476f7665726e6f724d696b653a3a696e697469616c697a653a2063616e206f6e60008301527f6c7920696e697469616c697a65206f6e636500000000000000000000000000006020830152604082019050919050565b600061533c600283616d28565b91507f19010000000000000000000000000000000000000000000000000000000000006000830152600282019050919050565b600061537c604383616d17565b91507f476f7665726e6f724d696b653a3a70726f706f73653a2070726f706f73616c2060008301527f66756e6374696f6e20696e666f726d6174696f6e206172697479206d69736d6160208301527f74636800000000000000000000000000000000000000000000000000000000006040830152606082019050919050565b6000615408602a83616d17565b91507f476f7665726e6f724d696b653a3a63616e63656c3a2077686974656c6973746560008301527f642070726f706f736572000000000000000000000000000000000000000000006020830152604082019050919050565b600061546e602a83616d17565b91507f476f7665726e6f724d696b653a3a5f736574566f74696e67506572696f643a2060008301527f61646d696e206f6e6c79000000000000000000000000000000000000000000006020830152604082019050919050565b60006154d4603e83616d17565b91507f476f7665726e6f724d696b653a3a70726f706f73653a2070726f706f7365722060008301527f766f7465732062656c6f772070726f706f73616c207468726573686f6c6400006020830152604082019050919050565b600061553a602b83616d17565b91507f476f7665726e6f724d696b653a3a70726f706f73653a206d7573742070726f7660008301527f69646520616374696f6e730000000000000000000000000000000000000000006020830152604082019050919050565b60006155a0604483616d17565b91507f476f7665726e6f724d696b653a3a657865637574653a2070726f706f73616c2060008301527f63616e206f6e6c7920626520657865637574656420696620697420697320717560208301527f65756564000000000000000000000000000000000000000000000000000000006040830152606082019050919050565b600061562c602883616d17565b91507f476f7665726e6f724d696b653a3a73746174653a20696e76616c69642070726f60008301527f706f73616c2069640000000000000000000000000000000000000000000000006020830152604082019050919050565b6000615692603283616d17565b91507f476f7665726e6f724d696b653a3a696e697469616c697a653a20696e76616c6960008301527f642074696d656c6f636b206164647265737300000000000000000000000000006020830152604082019050919050565b60006156f8602e83616d17565b91507f476f7665726e6f724d696b653a3a63617374566f746542795369673a20696e7660008301527f616c6964207369676e61747572650000000000000000000000000000000000006020830152604082019050919050565b600061575e601183616d17565b91507f6164646974696f6e206f766572666c6f770000000000000000000000000000006000830152602082019050919050565b600061579e604383616d28565b91507f454950373132446f6d61696e28737472696e67206e616d652c75696e7432353660008301527f20636861696e49642c6164647265737320766572696679696e67436f6e74726160208301527f63742900000000000000000000000000000000000000000000000000000000006040830152604382019050919050565b600061582a603383616d17565b91507f476f7665726e6f724d696b653a3a63617374566f7465496e7465726e616c3a2060008301527f766f74657220616c726561647920766f746564000000000000000000000000006020830152604082019050919050565b6000615890603583616d17565b91507f476f7665726e6f724d696b653a3a5f736574566f74696e67506572696f643a2060008301527f696e76616c696420766f74696e6720706572696f6400000000000000000000006020830152604082019050919050565b60006158f6603483616d17565b91507f476f7665726e6f724d696b653a3a696e697469616c697a653a20696e76616c6960008301527f642070726f706f73616c207468726573686f6c640000000000000000000000006020830152604082019050919050565b600061595c604383616d17565b91507f476f7665726e6f724d696b653a3a71756575653a2070726f706f73616c20636160008301527f6e206f6e6c79206265207175657565642069662069742069732073756363656560208301527f64656400000000000000000000000000000000000000000000000000000000006040830152606082019050919050565b60006159e8602483616d17565b91507f476f7665726e6f724d696b653a3a696e697469616c697a653a2061646d696e2060008301527f6f6e6c79000000000000000000000000000000000000000000000000000000006020830152604082019050919050565b6000615a4e603183616d17565b91507f476f7665726e6f724d696b653a3a63617374566f7465496e7465726e616c3a2060008301527f696e76616c696420766f746520747970650000000000000000000000000000006020830152604082019050919050565b6000615ab4602f83616d17565b91507f476f7665726e6f724d696b653a3a5f73657450726f706f73616c54687265736860008301527f6f6c643a2061646d696e206f6e6c7900000000000000000000000000000000006020830152604082019050919050565b6000615b1a605883616d17565b91507f476f7665726e6f724d696b653a3a70726f706f73653a206f6e65206c6976652060008301527f70726f706f73616c207065722070726f706f7365722c20666f756e6420616e2060208301527f616c72656164792070656e64696e672070726f706f73616c00000000000000006040830152606082019050919050565b6000615ba6602f83616d17565b91507f476f7665726e6f724d696b653a3a5f73657457686974656c697374477561726460008301527f69616e3a2061646d696e206f6e6c7900000000000000000000000000000000006020830152604082019050919050565b6000615c0c602e83616d17565b91507f476f7665726e6f724d696b653a3a696e697469616c697a653a20696e76616c6960008301527f6420636f6d7020616464726573730000000000000000000000000000000000006020830152604082019050919050565b6000615c72603f83616d17565b91507f476f7665726e6f724d696b653a3a5f73657450726f706f73616c54687265736860008301527f6f6c643a20696e76616c69642070726f706f73616c207468726573686f6c64006020830152604082019050919050565b6000615cd8600083616d17565b9150600082019050919050565b6000615cf2602f83616d17565b91507f476f7665726e6f724d696b653a3a696e697469616c697a653a20696e76616c6960008301527f6420766f74696e6720706572696f6400000000000000000000000000000000006020830152604082019050919050565b6000615d58602d83616d17565b91507f476f7665726e6f724d696b653a5f61636365707441646d696e3a2070656e646960008301527f6e672061646d696e206f6e6c79000000000000000000000000000000000000006020830152604082019050919050565b6000615dbe602e83616d17565b91507f476f7665726e6f724d696b653a3a696e697469616c697a653a20696e76616c6960008301527f6420766f74696e672064656c61790000000000000000000000000000000000006020830152604082019050919050565b6000615e24603583616d17565b91507f476f7665726e6f724d696b653a3a63616e63656c3a2063616e6e6f742063616e60008301527f63656c2065786563757465642070726f706f73616c00000000000000000000006020830152604082019050919050565b6000615e8a605783616d17565b91507f476f7665726e6f724d696b653a3a70726f706f73653a206f6e65206c6976652060008301527f70726f706f73616c207065722070726f706f7365722c20666f756e6420616e2060208301527f616c7265616479206163746976652070726f706f73616c0000000000000000006040830152606082019050919050565b6000615f16601583616d17565b91507f7375627472616374696f6e20756e646572666c6f7700000000000000000000006000830152602082019050919050565b6000615f56603883616d17565b91507f476f7665726e6f724d696b653a3a5f73657457686974656c6973744163636f7560008301527f6e7445787069726174696f6e3a2061646d696e206f6e6c7900000000000000006020830152604082019050919050565b606082016000820151615fc56000850182614c9a565b506020820151615fd8602085018261600f565b506040820151615feb604085018261603c565b50505050565b615ffa81616d8e565b82525050565b61600981616d8e565b82525050565b61601881616d98565b82525050565b61602781616d98565b82525050565b61603681616e4d565b82525050565b61604581616da5565b82525050565b6000616056826151fd565b9150819050919050565b600061606b8261532f565b91506160778285614cc7565b6020820191506160878284614cc7565b6020820191508190509392505050565b60006160a282615791565b9150819050919050565b60006020820190506160c16000830184614ae5565b92915050565b60006040820190506160dc6000830185614ac7565b6160e96020830184616000565b9392505050565b60006040820190506161056000830185614ae5565b6161126020830184614ae5565b9392505050565b600060408201905061612e6000830185614ae5565b61613b6020830184616000565b9392505050565b600060a0820190506161576000830188614ae5565b6161646020830187616000565b81810360408301526161768186614e39565b9050818103606083015261618a8185614cde565b90506161996080830184616000565b9695505050505050565b600060a0820190506161b86000830188614ae5565b6161c56020830187616000565b81810360408301526161d78186614ee4565b905081810360608301526161eb8185614d50565b90506161fa6080830184616000565b9695505050505050565b600060a082019050818103600083015261621e8188614af4565b905081810360208301526162328187614c3c565b905081810360408301526162468186614bc7565b9050818103606083015261625a8185614b52565b9050818103608083015261626e8184614e39565b90509695505050505050565b600060208201905081810360008301526162948184614c3c565b905092915050565b60006020820190506162b16000830184614ca9565b92915050565b60006020820190506162cc6000830184614cb8565b92915050565b60006080820190506162e76000830187614cb8565b6162f46020830186614cb8565b6163016040830185616000565b61630e6060830184614ae5565b95945050505050565b600060608201905061632c6000830186614cb8565b6163396020830185616000565b616346604083018461601e565b949350505050565b60006080820190506163636000830187614cb8565b616370602083018661601e565b61637d6040830185614cb8565b61638a6060830184614cb8565b95945050505050565b60006020820190506163a86000830184614ddf565b92915050565b60006020820190506163c36000830184614dee565b92915050565b60006020820190506163de6000830184614dfd565b92915050565b600060208201905081810360008301526163fe8184614eab565b905092915050565b6000602082019050818103600083015261641f81614f73565b9050919050565b6000602082019050818103600083015261643f81614fd9565b9050919050565b6000602082019050818103600083015261645f81615065565b9050919050565b6000602082019050818103600083015261647f816150cb565b9050919050565b6000602082019050818103600083015261649f81615131565b9050919050565b600060208201905081810360008301526164bf81615197565b9050919050565b600060208201905081810360008301526164df81615263565b9050919050565b600060208201905081810360008301526164ff816152c9565b9050919050565b6000602082019050818103600083015261651f8161536f565b9050919050565b6000602082019050818103600083015261653f816153fb565b9050919050565b6000602082019050818103600083015261655f81615461565b9050919050565b6000602082019050818103600083015261657f816154c7565b9050919050565b6000602082019050818103600083015261659f8161552d565b9050919050565b600060208201905081810360008301526165bf81615593565b9050919050565b600060208201905081810360008301526165df8161561f565b9050919050565b600060208201905081810360008301526165ff81615685565b9050919050565b6000602082019050818103600083015261661f816156eb565b9050919050565b6000602082019050818103600083015261663f81615751565b9050919050565b6000602082019050818103600083015261665f8161581d565b9050919050565b6000602082019050818103600083015261667f81615883565b9050919050565b6000602082019050818103600083015261669f816158e9565b9050919050565b600060208201905081810360008301526166bf8161594f565b9050919050565b600060208201905081810360008301526166df816159db565b9050919050565b600060208201905081810360008301526166ff81615a41565b9050919050565b6000602082019050818103600083015261671f81615aa7565b9050919050565b6000602082019050818103600083015261673f81615b0d565b9050919050565b6000602082019050818103600083015261675f81615b99565b9050919050565b6000602082019050818103600083015261677f81615bff565b9050919050565b6000602082019050818103600083015261679f81615c65565b9050919050565b600060208201905081810360008301526167bf81615ce5565b9050919050565b600060208201905081810360008301526167df81615d4b565b9050919050565b600060208201905081810360008301526167ff81615db1565b9050919050565b6000602082019050818103600083015261681f81615e17565b9050919050565b6000602082019050818103600083015261683f81615e7d565b9050919050565b6000602082019050818103600083015261685f81615f09565b9050919050565b6000602082019050818103600083015261687f81615f49565b9050919050565b600060608201905061689b6000830184615faf565b92915050565b60006020820190506168b66000830184616000565b92915050565b60006080820190506168d16000830187616000565b6168de6020830186614ac7565b6168eb6040830185616000565b6168f86060830184616000565b95945050505050565b600060e082019050616916600083018a616000565b6169236020830189614ae5565b6169306040830188616000565b61693d6060830187616000565b61694a6080830186616000565b61695760a0830185614ca9565b61696460c0830184614ca9565b98975050505050505050565b60006040820190506169856000830185616000565b6169926020830184616000565b9392505050565b60006080820190506169ae6000830188616000565b6169bb602083018761601e565b6169c8604083018661602d565b81810360608301526169db818486614e0c565b90509695505050505050565b60006080820190506169fc6000830186616000565b616a09602083018561601e565b616a16604083018461602d565b8181036060830152616a2781615ccb565b9050949350505050565b6000604051905081810181811067ffffffffffffffff82111715616a5457600080fd5b8060405250919050565b600067ffffffffffffffff821115616a7557600080fd5b602082029050602081019050919050565b600067ffffffffffffffff821115616a9d57600080fd5b602082029050602081019050919050565b600067ffffffffffffffff821115616ac557600080fd5b602082029050602081019050919050565b600067ffffffffffffffff821115616aed57600080fd5b602082029050602081019050919050565b600067ffffffffffffffff821115616b1557600080fd5b602082029050602081019050919050565b600067ffffffffffffffff821115616b3d57600080fd5b601f19601f8301169050602081019050919050565b600067ffffffffffffffff821115616b6957600080fd5b601f19601f8301169050602081019050919050565b600067ffffffffffffffff821115616b9557600080fd5b601f19601f8301169050602081019050919050565b6000819050602082019050919050565b6000819050602082019050919050565b6000819050602082019050919050565b6000819050602082019050919050565b60008190508160005260206000209050919050565b60008190508160005260206000209050919050565b600081519050919050565b600081519050919050565b600081519050919050565b600081519050919050565b600081519050919050565b600081519050919050565b600081519050919050565b600081519050919050565b6000602082019050919050565b6000602082019050919050565b6000602082019050919050565b6000602082019050919050565b600082825260208201905092915050565b600082825260208201905092915050565b600082825260208201905092915050565b600082825260208201905092915050565b600082825260208201905092915050565b600082825260208201905092915050565b600082825260208201905092915050565b600082825260208201905092915050565b600081905092915050565b6000616d3e82616d6e565b9050919050565b60008115159050919050565b6000819050919050565b6000819050616d6982616ebc565b919050565b600073ffffffffffffffffffffffffffffffffffffffff82169050919050565b6000819050919050565b600060ff82169050919050565b60006bffffffffffffffffffffffff82169050919050565b6000616dc882616e29565b9050919050565b6000616dda82616de1565b9050919050565b6000616dec82616d6e565b9050919050565b6000616dfe82616e05565b9050919050565b6000616e1082616d6e565b9050919050565b6000616e2282616d5b565b9050919050565b6000616e3482616e3b565b9050919050565b6000616e4682616d6e565b9050919050565b6000616e5882616da5565b9050919050565b82818337600083830152505050565b60005b83811015616e8c578082015181840152602081019050616e71565b83811115616e9b576000848401525b50505050565b6000819050919050565b6000601f19601f8301169050919050565b60088110616ec657fe5b50565b616ed281616d33565b8114616edd57600080fd5b50565b616ee981616d45565b8114616ef457600080fd5b50565b616f0081616d51565b8114616f0b57600080fd5b50565b616f1781616d8e565b8114616f2257600080fd5b50565b616f2e81616d98565b8114616f3957600080fd5b50565b616f4581616da5565b8114616f5057600080fd5b5056fea365627a7a7231582005a9bccb35ffc314c10e8ef724e6401dab37b00efd09bdf827fc3399eb70b68f6c6578706572696d656e74616cf564736f6c63430005100040",
  "source": "pragma solidity ^0.5.16;\npragma experimental ABIEncoderV2;\n\nimport \"./GovernorMikeInterfaces.sol\";\n\ncontract GovernorMikeDelegate is\n    GovernorMikeDelegateStorageV2,\n    GovernorMikeEvents\n{\n\n    /// @notice The name of this contract\n    string public constant name = \"Compound Governor Mike\";\n\n    /// @notice The minimum setable proposal threshold\n    uint public constant MIN_PROPOSAL_THRESHOLD = 50000e18; // 50,000 Comp\n\n    /// @notice The maximum setable proposal threshold\n    uint public constant MAX_PROPOSAL_THRESHOLD = 100000e18; //100,000 Comp\n\n    /// @notice The minimum setable voting period\n    uint public constant MIN_VOTING_PERIOD = 5760; // About 24 hours\n\n    /// @notice The max setable voting period\n    uint public constant MAX_VOTING_PERIOD = 80640; // About 2 weeks\n\n    /// @notice The min setable voting delay\n    uint public constant MIN_VOTING_DELAY = 1;\n\n    /// @notice The max setable voting delay\n    uint public constant MAX_VOTING_DELAY = 40320; // About 1 week\n\n    /// @notice The number of votes in support of a proposal required in order for a quorum to be reached and for a vote to succeed\n    uint public constant quorumVotes = 400000e18; // 400,000 = 4% of Comp\n\n    /// @notice The maximum number of actions that can be included in a proposal\n    uint public constant proposalMaxOperations = 10; // 10 actions\n\n    /// @notice The EIP-712 typehash for the contract's domain\n    bytes32 public constant DOMAIN_TYPEHASH = keccak256(\"EIP712Domain(string name,uint256 chainId,address verifyingContract)\");\n\n    /// @notice The EIP-712 typehash for the ballot struct used by the contract\n    bytes32 public constant BALLOT_TYPEHASH = keccak256(\"Ballot(uint256 proposalId,uint8 support)\");\n\n    /**\n      * @notice Used to initialize the contract during delegator contructor\n      * @param timelock_ The address of the Timelock\n      * @param comp_ The address of the COMP token\n      * @param votingPeriod_ The initial voting period\n      * @param votingDelay_ The initial voting delay\n      * @param proposalThreshold_ The initial proposal threshold\n      */\n    function initialize(address timelock_, address comp_, uint votingPeriod_, uint votingDelay_, uint proposalThreshold_) public {\n        require(address(timelock) == address(0), \"GovernorMike::initialize: can only initialize once\");\n        require(msg.sender == admin, \"GovernorMike::initialize: admin only\");\n        require(timelock_ != address(0), \"GovernorMike::initialize: invalid timelock address\");\n        require(comp_ != address(0), \"GovernorMike::initialize: invalid comp address\");\n        require(votingPeriod_ >= MIN_VOTING_PERIOD && votingPeriod_ <= MAX_VOTING_PERIOD, \"GovernorMike::initialize: invalid voting period\");\n        require(votingDelay_ >= MIN_VOTING_DELAY && votingDelay_ <= MAX_VOTING_DELAY, \"GovernorMike::initialize: invalid voting delay\");\n        require(proposalThreshold_ >= MIN_PROPOSAL_THRESHOLD && proposalThreshold_ <= MAX_PROPOSAL_THRESHOLD, \"GovernorMike::initialize: invalid proposal threshold\");\n\n        timelock = TimelockInterface(timelock_);\n        comp = CompInterface(comp_);\n        votingPeriod = votingPeriod_;\n        votingDelay = votingDelay_;\n        proposalThreshold = proposalThreshold_;\n    }\n\n    /**\n      * @notice Function used to propose a new proposal with multiple issues.\n      * Sender must have delegates above the proposal threshold\n      * @param issues_ Choices\n      * @return Proposal id of new proposal\n      */\n    function propose(\n        Issue[] memory issues_\n    ) public returns (uint) {\n        proposalCount++;\n        Proposal storage newProposal = proposals[proposalCount];\n        \n        for (uint i = 0; i < issues_.length; i++) {\n            // Allow addresses above proposal threshold and whitelisted addresses to propose\n            require(comp.getPriorVotes(msg.sender, sub256(block.number, 1)) > proposalThreshold || isWhitelisted(msg.sender), \"GovernorMike::propose: proposer votes below proposal threshold\");\n            require(\n                issues_[i].targets.length == issues_[i].values.length && issues_[i].targets.length == issues_[i].signatures.length && issues_[i].targets.length == issues_[i].calldatas.length,\n                \"GovernorMike::propose: proposal function information arity mismatch\"\n            );\n            require(issues_[i].targets.length != 0, \"GovernorMike::propose: must provide actions\");\n            require(issues_[i].targets.length <= proposalMaxOperations, \"GovernorMike::propose: too many actions\");\n\n            newProposal.issues.push(issues_[i]);\n        }\n\n        uint latestProposalId = latestProposalIds[msg.sender];\n        if (latestProposalId != 0) {\n          ProposalState proposersLatestProposalState = state(latestProposalId);\n          require(proposersLatestProposalState != ProposalState.Active, \"GovernorMike::propose: one live proposal per proposer, found an already active proposal\");\n          require(proposersLatestProposalState != ProposalState.Pending, \"GovernorMike::propose: one live proposal per proposer, found an already pending proposal\");\n        }\n\n        uint startBlock = add256(block.number, votingDelay);\n        uint endBlock = add256(startBlock, votingPeriod);\n\n        newProposal.id = proposalCount;\n        newProposal.proposer = msg.sender;\n        newProposal.eta = 0;\n        // newProposal.issues = issues_; // above\n        newProposal.startBlock = startBlock;\n        newProposal.endBlock = endBlock;\n        newProposal.votes = new uint[](issues_.length);\n        newProposal.canceled = false;\n        newProposal.executed = false;\n\n        latestProposalIds[newProposal.proposer] = newProposal.id;\n\n        emit ProposalCreated(newProposal.id, msg.sender, startBlock, endBlock);\n        return newProposal.id;\n    }\n\n    /**\n      * @notice Queues a proposal of state succeeded\n      * @param proposalId The id of the proposal to queue\n      */\n    function queue(uint proposalId) external {\n        require(state(proposalId) == ProposalState.Succeeded, \"GovernorMike::queue: proposal can only be queued if it is succeeded\");\n        Proposal storage proposal = proposals[proposalId];\n        Issue storage issue = proposal.issues[_winnerIssue(proposalId)];\n        uint eta = add256(block.timestamp, timelock.delay());\n        for (uint i = 0; i < issue.targets.length; i++) {\n            queueOrRevertInternal(issue.targets[i], issue.values[i], issue.signatures[i], issue.calldatas[i], eta);\n        }\n        proposal.eta = eta;\n        emit ProposalQueued(proposalId, eta);\n    }\n\n    function queueOrRevertInternal(address target, uint value, string memory signature, bytes memory data, uint eta) internal {\n        require(!timelock.queuedTransactions(keccak256(abi.encode(target, value, signature, data, eta))), \"GovernorMike::queueOrRevertInternal: identical proposal action already queued at eta\");\n        timelock.queueTransaction(target, value, signature, data, eta);\n    }\n\n    /**\n      * @notice Executes a queued proposal if eta has passed\n      * @param proposalId The id of the proposal to execute\n      */\n    function execute(uint proposalId) external payable {\n        require(state(proposalId) == ProposalState.Queued, \"GovernorMike::execute: proposal can only be executed if it is queued\");\n        Proposal storage proposal = proposals[proposalId];\n        Issue storage issue = proposal.issues[_winnerIssue(proposalId)];\n        proposal.executed = true;\n        for (uint i = 0; i < issue.targets.length; i++) {\n            timelock.executeTransaction.value(issue.values[i])(issue.targets[i], issue.values[i], issue.signatures[i], issue.calldatas[i], proposal.eta);\n        }\n        emit ProposalExecuted(proposalId);\n    }\n\n    /**\n      * @notice Cancels a proposal only if sender is the proposer, or proposer delegates dropped below proposal threshold\n      * @param proposalId The id of the proposal to cancel\n      */\n    function cancel(uint proposalId) external {\n        require(state(proposalId) != ProposalState.Executed, \"GovernorMike::cancel: cannot cancel executed proposal\");\n\n        Proposal storage proposal = proposals[proposalId];\n        Issue storage issue = proposal.issues[_winnerIssue(proposalId)];\n\n        // Proposer can cancel\n        if(msg.sender != proposal.proposer) {\n            // Whitelisted proposers can't be canceled for falling below proposal threshold\n            if(isWhitelisted(proposal.proposer)) {\n                require((comp.getPriorVotes(proposal.proposer, sub256(block.number, 1)) < proposalThreshold) && msg.sender == whitelistGuardian, \"GovernorMike::cancel: whitelisted proposer\");\n            }\n            else {\n                require((comp.getPriorVotes(proposal.proposer, sub256(block.number, 1)) < proposalThreshold), \"GovernorMike::cancel: proposer above threshold\");\n            }\n        }\n        \n        proposal.canceled = true;\n        for (uint i = 0; i < issue.targets.length; i++) {\n            timelock.cancelTransaction(issue.targets[i], issue.values[i], issue.signatures[i], issue.calldatas[i], proposal.eta);\n        }\n\n        emit ProposalCanceled(proposalId);\n    }\n\n    /**\n      * @notice Gets an issue of a proposal\n      * @param proposalId the id of the proposal\n      * @param issueNum the number of the issue\n      * @return Targets, values, signatures, calldatas, and description of the issue\n      */\n    function getIssue(uint proposalId, uint issueNum) external view returns (address[] memory targets, uint[] memory values, string[] memory signatures, bytes[] memory calldatas, string memory description) {\n        Issue storage issue = proposals[proposalId].issues[issueNum];\n        return (issue.targets, issue.values, issue.signatures, issue.calldatas, issue.description);\n    }\n\n    /**\n      * @notice Gets actions of a proposal\n      * @param proposalId the id of the proposal\n      * @return votes of the proposal\n      */\n    function getVotes(uint proposalId) external view returns (uint[] memory) {\n        return proposals[proposalId].votes;\n    }\n\n    /**\n      * @notice Gets the receipt for a voter on a given proposal\n      * @param proposalId the id of proposal\n      * @param voter The address of the voter\n      * @return The voting receipt\n      */\n    function getReceipt(uint proposalId, address voter) external view returns (Receipt memory) {\n        return proposals[proposalId].receipts[voter];\n    }\n\n    /**\n      * @notice Gets the state of a proposal\n      * @param proposalId The id of the proposal\n      * @return Proposal state\n      */\n    function state(uint proposalId) public view returns (ProposalState) {\n        require(proposalCount >= proposalId, \"GovernorMike::state: invalid proposal id\");\n        Proposal storage proposal = proposals[proposalId];\n        if (proposal.canceled) {\n            return ProposalState.Canceled;\n        } else if (block.number <= proposal.startBlock) {\n            return ProposalState.Pending;\n        } else if (block.number <= proposal.endBlock) {\n            return ProposalState.Active;\n        } else if (_winnerIssueVotes(proposalId) < quorumVotes) { // maxVotes < quorumVotes\n            return ProposalState.Defeated;\n        } else if (proposal.eta == 0) {\n            return ProposalState.Succeeded;\n        } else if (proposal.executed) {\n            return ProposalState.Executed;\n        } else if (block.timestamp >= add256(proposal.eta, timelock.GRACE_PERIOD())) {\n            return ProposalState.Expired;\n        } else {\n            return ProposalState.Queued;\n        }\n    }\n\n    function _winnerIssue(uint proposalId) internal view returns(uint winnerIssue) {\n        uint[] storage votes = proposals[proposalId].votes;\n        uint maxVotes = 0;\n        for (uint i = 0; i < votes.length; i++) {\n            // TODO: case of equal\n            if (votes[i] > maxVotes) {\n                maxVotes = votes[i];\n                winnerIssue = i;\n            }\n        }\n    }\n\n    function _winnerIssueVotes(uint proposalId) internal view returns(uint maxVotes) {\n        uint[] storage votes = proposals[proposalId].votes;\n        uint winnerIssue = 0;\n        for (uint i = 0; i < votes.length; i++) {\n            // TODO: case of equal\n            if (votes[i] > maxVotes) {\n                maxVotes = votes[i];\n                winnerIssue = i;\n            }\n        }\n    }\n\n    /**\n      * @notice Cast a vote for a proposal\n      * @param proposalId The id of the proposal to vote on\n      * @param support The id of the issue to vote on\n      */\n    function castVote(uint proposalId, uint8 support) external {\n        emit VoteCast(msg.sender, proposalId, support, castVoteInternal(msg.sender, proposalId, support), \"\");\n    }\n\n    /**\n      * @notice Cast a vote for a proposal with a reason\n      * @param proposalId The id of the proposal to vote on\n      * @param support The id of the issue to vote on\n      * @param reason The reason given for the vote by the voter\n      */\n    function castVoteWithReason(uint proposalId, uint8 support, string calldata reason) external {\n        emit VoteCast(msg.sender, proposalId, support, castVoteInternal(msg.sender, proposalId, support), reason);\n    }\n\n    /**\n      * @notice Cast a vote for a proposal by signature\n      * @dev External function that accepts EIP-712 signatures for voting on proposals.\n      */\n    function castVoteBySig(uint proposalId, uint8 support, uint8 v, bytes32 r, bytes32 s) external {\n        bytes32 domainSeparator = keccak256(abi.encode(DOMAIN_TYPEHASH, keccak256(bytes(name)), getChainIdInternal(), address(this)));\n        bytes32 structHash = keccak256(abi.encode(BALLOT_TYPEHASH, proposalId, support));\n        bytes32 digest = keccak256(abi.encodePacked(\"\\x19\\x01\", domainSeparator, structHash));\n        address signatory = ecrecover(digest, v, r, s);\n        require(signatory != address(0), \"GovernorMike::castVoteBySig: invalid signature\");\n        emit VoteCast(signatory, proposalId, support, castVoteInternal(signatory, proposalId, support), \"\");\n    }\n\n    /**\n      * @notice Internal function that caries out voting logic\n      * @param voter The voter that is casting their vote\n      * @param proposalId The id of the proposal to vote on\n      * @param support The id of the issue to vote on\n      * @return The number of votes cast\n      */\n    function castVoteInternal(address voter, uint proposalId, uint8 support) internal returns (uint96) {\n        require(state(proposalId) == ProposalState.Active, \"GovernorMike::castVoteInternal: voting is closed\");\n        require(support <= 2, \"GovernorMike::castVoteInternal: invalid vote type\");\n        Proposal storage proposal = proposals[proposalId];\n        Receipt storage receipt = proposal.receipts[voter];\n        require(receipt.hasVoted == false, \"GovernorMike::castVoteInternal: voter already voted\");\n        uint96 votes = comp.getPriorVotes(voter, proposal.startBlock);\n\n        proposal.votes[support] = add256(proposal.votes[support], votes);\n\n        receipt.hasVoted = true;\n        receipt.support = support;\n        receipt.votes = votes;\n\n        return votes;\n    }\n\n    /**\n     * @notice View function which returns if an account is whitelisted\n     * @param account Account to check white list status of\n     * @return If the account is whitelisted\n     */\n    function isWhitelisted(address account) public view returns (bool) {\n        return (whitelistAccountExpirations[account] > now);\n    }\n\n    /**\n      * @notice Admin function for setting the voting delay\n      * @param newVotingDelay new voting delay, in blocks\n      */\n    function _setVotingDelay(uint newVotingDelay) external {\n        require(msg.sender == admin, \"GovernorMike::_setVotingDelay: admin only\");\n        require(newVotingDelay >= MIN_VOTING_DELAY && newVotingDelay <= MAX_VOTING_DELAY, \"GovernorMike::_setVotingDelay: invalid voting delay\");\n        uint oldVotingDelay = votingDelay;\n        votingDelay = newVotingDelay;\n\n        emit VotingDelaySet(oldVotingDelay,votingDelay);\n    }\n\n    /**\n      * @notice Admin function for setting the voting period\n      * @param newVotingPeriod new voting period, in blocks\n      */\n    function _setVotingPeriod(uint newVotingPeriod) external {\n        require(msg.sender == admin, \"GovernorMike::_setVotingPeriod: admin only\");\n        require(newVotingPeriod >= MIN_VOTING_PERIOD && newVotingPeriod <= MAX_VOTING_PERIOD, \"GovernorMike::_setVotingPeriod: invalid voting period\");\n        uint oldVotingPeriod = votingPeriod;\n        votingPeriod = newVotingPeriod;\n\n        emit VotingPeriodSet(oldVotingPeriod, votingPeriod);\n    }\n\n    /**\n      * @notice Admin function for setting the proposal threshold\n      * @dev newProposalThreshold must be greater than the hardcoded min\n      * @param newProposalThreshold new proposal threshold\n      */\n    function _setProposalThreshold(uint newProposalThreshold) external {\n        require(msg.sender == admin, \"GovernorMike::_setProposalThreshold: admin only\");\n        require(newProposalThreshold >= MIN_PROPOSAL_THRESHOLD && newProposalThreshold <= MAX_PROPOSAL_THRESHOLD, \"GovernorMike::_setProposalThreshold: invalid proposal threshold\");\n        uint oldProposalThreshold = proposalThreshold;\n        proposalThreshold = newProposalThreshold;\n\n        emit ProposalThresholdSet(oldProposalThreshold, proposalThreshold);\n    }\n\n    /**\n     * @notice Admin function for setting the whitelist expiration as a timestamp for an account. Whitelist status allows accounts to propose without meeting threshold\n     * @param account Account address to set whitelist expiration for\n     * @param expiration Expiration for account whitelist status as timestamp (if now < expiration, whitelisted)\n     */\n    function _setWhitelistAccountExpiration(address account, uint expiration) external {\n        require(msg.sender == admin || msg.sender == whitelistGuardian, \"GovernorMike::_setWhitelistAccountExpiration: admin only\");\n        whitelistAccountExpirations[account] = expiration;\n\n        emit WhitelistAccountExpirationSet(account, expiration);\n    }\n\n    /**\n     * @notice Admin function for setting the whitelistGuardian. WhitelistGuardian can cancel proposals from whitelisted addresses\n     * @param account Account to set whitelistGuardian to (0x0 to remove whitelistGuardian)\n     */\n     function _setWhitelistGuardian(address account) external {\n        require(msg.sender == admin, \"GovernorMike::_setWhitelistGuardian: admin only\");\n        address oldGuardian = whitelistGuardian;\n        whitelistGuardian = account;\n\n        emit WhitelistGuardianSet(oldGuardian, whitelistGuardian);\n     }\n\n    /**\n      * @notice Begins transfer of admin rights. The newPendingAdmin must call `_acceptAdmin` to finalize the transfer.\n      * @dev Admin function to begin change of admin. The newPendingAdmin must call `_acceptAdmin` to finalize the transfer.\n      * @param newPendingAdmin New pending admin.\n      */\n    function _setPendingAdmin(address newPendingAdmin) external {\n        // Check caller = admin\n        require(msg.sender == admin, \"GovernorMike:_setPendingAdmin: admin only\");\n\n        // Save current value, if any, for inclusion in log\n        address oldPendingAdmin = pendingAdmin;\n\n        // Store pendingAdmin with value newPendingAdmin\n        pendingAdmin = newPendingAdmin;\n\n        // Emit NewPendingAdmin(oldPendingAdmin, newPendingAdmin)\n        emit NewPendingAdmin(oldPendingAdmin, newPendingAdmin);\n    }\n\n    /**\n      * @notice Accepts transfer of admin rights. msg.sender must be pendingAdmin\n      * @dev Admin function for pending admin to accept role and update admin\n      */\n    function _acceptAdmin() external {\n        // Check caller is pendingAdmin and pendingAdmin  address(0)\n        require(msg.sender == pendingAdmin && msg.sender != address(0), \"GovernorMike:_acceptAdmin: pending admin only\");\n\n        // Save current values for inclusion in log\n        address oldAdmin = admin;\n        address oldPendingAdmin = pendingAdmin;\n\n        // Store admin with value pendingAdmin\n        admin = pendingAdmin;\n\n        // Clear the pending value\n        pendingAdmin = address(0);\n\n        emit NewAdmin(oldAdmin, admin);\n        emit NewPendingAdmin(oldPendingAdmin, pendingAdmin);\n    }\n\n    function add256(uint256 a, uint256 b) internal pure returns (uint) {\n        uint c = a + b;\n        require(c >= a, \"addition overflow\");\n        return c;\n    }\n\n    function sub256(uint256 a, uint256 b) internal pure returns (uint) {\n        require(b <= a, \"subtraction underflow\");\n        return a - b;\n    }\n\n    function getChainIdInternal() internal pure returns (uint) {\n        uint chainId;\n        assembly { chainId := chainid() }\n        return chainId;\n    }\n}\n",
  "sourcePath": "/Users/lukepark/Desktop/Governor-M/contracts/GovernorMikeDelegate.sol",
  "compiler": {
    "name": "solc",
    "version": "0.5.16+commit.9c3226ce.Emscripten.clang"
  },
  "schemaVersion": "3.4.3",
  "updatedAt": "2021-12-27T03:52:18.497Z",
  "devdoc": {
    "methods": {
      "_acceptAdmin()": {
        "details": "Admin function for pending admin to accept role and update admin"
      },
      "_setPendingAdmin(address)": {
        "details": "Admin function to begin change of admin. The newPendingAdmin must call `_acceptAdmin` to finalize the transfer.",
        "params": {
          "newPendingAdmin": "New pending admin."
        }
      },
      "_setProposalThreshold(uint256)": {
        "details": "newProposalThreshold must be greater than the hardcoded min",
        "params": {
          "newProposalThreshold": "new proposal threshold"
        }
      },
      "_setVotingDelay(uint256)": {
        "params": {
          "newVotingDelay": "new voting delay, in blocks"
        }
      },
      "_setVotingPeriod(uint256)": {
        "params": {
          "newVotingPeriod": "new voting period, in blocks"
        }
      },
      "_setWhitelistAccountExpiration(address,uint256)": {
        "params": {
          "account": "Account address to set whitelist expiration for",
          "expiration": "Expiration for account whitelist status as timestamp (if now < expiration, whitelisted)"
        }
      },
      "_setWhitelistGuardian(address)": {
        "params": {
          "account": "Account to set whitelistGuardian to (0x0 to remove whitelistGuardian)"
        }
      },
      "cancel(uint256)": {
        "params": {
          "proposalId": "The id of the proposal to cancel"
        }
      },
      "castVote(uint256,uint8)": {
        "params": {
          "proposalId": "The id of the proposal to vote on",
          "support": "The id of the issue to vote on"
        }
      },
      "castVoteBySig(uint256,uint8,uint8,bytes32,bytes32)": {
        "details": "External function that accepts EIP-712 signatures for voting on proposals."
      },
      "castVoteWithReason(uint256,uint8,string)": {
        "params": {
          "proposalId": "The id of the proposal to vote on",
          "reason": "The reason given for the vote by the voter",
          "support": "The id of the issue to vote on"
        }
      },
      "execute(uint256)": {
        "params": {
          "proposalId": "The id of the proposal to execute"
        }
      },
      "getIssue(uint256,uint256)": {
        "params": {
          "issueNum": "the number of the issue",
          "proposalId": "the id of the proposal"
        },
        "return": "Targets, values, signatures, calldatas, and description of the issue"
      },
      "getReceipt(uint256,address)": {
        "params": {
          "proposalId": "the id of proposal",
          "voter": "The address of the voter"
        },
        "return": "The voting receipt"
      },
      "getVotes(uint256)": {
        "params": {
          "proposalId": "the id of the proposal"
        },
        "return": "votes of the proposal"
      },
      "initialize(address,address,uint256,uint256,uint256)": {
        "params": {
          "comp_": "The address of the COMP token",
          "proposalThreshold_": "The initial proposal threshold",
          "timelock_": "The address of the Timelock",
          "votingDelay_": "The initial voting delay",
          "votingPeriod_": "The initial voting period"
        }
      },
      "isWhitelisted(address)": {
        "params": {
          "account": "Account to check white list status of"
        },
        "return": "If the account is whitelisted"
      },
      "propose((address[],uint256[],string[],bytes[],string)[])": {
        "params": {
          "issues_": "Choices"
        },
        "return": "Proposal id of new proposal"
      },
      "queue(uint256)": {
        "params": {
          "proposalId": "The id of the proposal to queue"
        }
      },
      "state(uint256)": {
        "params": {
          "proposalId": "The id of the proposal"
        },
        "return": "Proposal state"
      }
    }
  },
  "userdoc": {
    "methods": {
      "_acceptAdmin()": {
        "notice": "Accepts transfer of admin rights. msg.sender must be pendingAdmin"
      },
      "_setPendingAdmin(address)": {
        "notice": "Begins transfer of admin rights. The newPendingAdmin must call `_acceptAdmin` to finalize the transfer."
      },
      "_setProposalThreshold(uint256)": {
        "notice": "Admin function for setting the proposal threshold"
      },
      "_setVotingDelay(uint256)": {
        "notice": "Admin function for setting the voting delay"
      },
      "_setVotingPeriod(uint256)": {
        "notice": "Admin function for setting the voting period"
      },
      "_setWhitelistAccountExpiration(address,uint256)": {
        "notice": "Admin function for setting the whitelist expiration as a timestamp for an account. Whitelist status allows accounts to propose without meeting threshold"
      },
      "_setWhitelistGuardian(address)": {
        "notice": "Admin function for setting the whitelistGuardian. WhitelistGuardian can cancel proposals from whitelisted addresses"
      },
      "cancel(uint256)": {
        "notice": "Cancels a proposal only if sender is the proposer, or proposer delegates dropped below proposal threshold"
      },
      "castVote(uint256,uint8)": {
        "notice": "Cast a vote for a proposal"
      },
      "castVoteBySig(uint256,uint8,uint8,bytes32,bytes32)": {
        "notice": "Cast a vote for a proposal by signature"
      },
      "castVoteWithReason(uint256,uint8,string)": {
        "notice": "Cast a vote for a proposal with a reason"
      },
      "execute(uint256)": {
        "notice": "Executes a queued proposal if eta has passed"
      },
      "getIssue(uint256,uint256)": {
        "notice": "Gets an issue of a proposal"
      },
      "getReceipt(uint256,address)": {
        "notice": "Gets the receipt for a voter on a given proposal"
      },
      "getVotes(uint256)": {
        "notice": "Gets actions of a proposal"
      },
      "initialize(address,address,uint256,uint256,uint256)": {
        "notice": "Used to initialize the contract during delegator contructor"
      },
      "isWhitelisted(address)": {
        "notice": "View function which returns if an account is whitelisted"
      },
      "propose((address[],uint256[],string[],bytes[],string)[])": {
        "notice": "Function used to propose a new proposal with multiple issues. Sender must have delegates above the proposal threshold"
      },
      "queue(uint256)": {
        "notice": "Queues a proposal of state succeeded"
      },
      "state(uint256)": {
        "notice": "Gets the state of a proposal"
      }
    }
  }
}