{
  "contractName": "GovernorMikeDelegateStorageV2",
  "abi": [
    {
      "inputs": [],
      "name": "admin",
      "outputs": [
        {
          "internalType": "address",
          "name": "",
          "type": "address"
        }
      ],
      "stateMutability": "view",
      "type": "function"
    },
    {
      "inputs": [],
      "name": "comp",
      "outputs": [
        {
          "internalType": "contract CompInterface",
          "name": "",
          "type": "address"
        }
      ],
      "stateMutability": "view",
      "type": "function"
    },
    {
      "inputs": [],
      "name": "implementation",
      "outputs": [
        {
          "internalType": "address",
          "name": "",
          "type": "address"
        }
      ],
      "stateMutability": "view",
      "type": "function"
    },
    {
      "inputs": [],
      "name": "initialProposalId",
      "outputs": [
        {
          "internalType": "uint256",
          "name": "",
          "type": "uint256"
        }
      ],
      "stateMutability": "view",
      "type": "function"
    },
    {
      "inputs": [
        {
          "internalType": "address",
          "name": "",
          "type": "address"
        }
      ],
      "name": "latestProposalIds",
      "outputs": [
        {
          "internalType": "uint256",
          "name": "",
          "type": "uint256"
        }
      ],
      "stateMutability": "view",
      "type": "function"
    },
    {
      "inputs": [],
      "name": "pendingAdmin",
      "outputs": [
        {
          "internalType": "address",
          "name": "",
          "type": "address"
        }
      ],
      "stateMutability": "view",
      "type": "function"
    },
    {
      "inputs": [],
      "name": "proposalCount",
      "outputs": [
        {
          "internalType": "uint256",
          "name": "",
          "type": "uint256"
        }
      ],
      "stateMutability": "view",
      "type": "function"
    },
    {
      "inputs": [],
      "name": "proposalThreshold",
      "outputs": [
        {
          "internalType": "uint256",
          "name": "",
          "type": "uint256"
        }
      ],
      "stateMutability": "view",
      "type": "function"
    },
    {
      "inputs": [
        {
          "internalType": "uint256",
          "name": "",
          "type": "uint256"
        }
      ],
      "name": "proposals",
      "outputs": [
        {
          "internalType": "uint256",
          "name": "id",
          "type": "uint256"
        },
        {
          "internalType": "address",
          "name": "proposer",
          "type": "address"
        },
        {
          "internalType": "uint256",
          "name": "eta",
          "type": "uint256"
        },
        {
          "internalType": "uint256",
          "name": "startBlock",
          "type": "uint256"
        },
        {
          "internalType": "uint256",
          "name": "endBlock",
          "type": "uint256"
        },
        {
          "internalType": "bool",
          "name": "canceled",
          "type": "bool"
        },
        {
          "internalType": "bool",
          "name": "executed",
          "type": "bool"
        }
      ],
      "stateMutability": "view",
      "type": "function"
    },
    {
      "inputs": [],
      "name": "timelock",
      "outputs": [
        {
          "internalType": "contract TimelockInterface",
          "name": "",
          "type": "address"
        }
      ],
      "stateMutability": "view",
      "type": "function"
    },
    {
      "inputs": [],
      "name": "votingDelay",
      "outputs": [
        {
          "internalType": "uint256",
          "name": "",
          "type": "uint256"
        }
      ],
      "stateMutability": "view",
      "type": "function"
    },
    {
      "inputs": [],
      "name": "votingPeriod",
      "outputs": [
        {
          "internalType": "uint256",
          "name": "",
          "type": "uint256"
        }
      ],
      "stateMutability": "view",
      "type": "function"
    },
    {
      "inputs": [
        {
          "internalType": "address",
          "name": "",
          "type": "address"
        }
      ],
      "name": "whitelistAccountExpirations",
      "outputs": [
        {
          "internalType": "uint256",
          "name": "",
          "type": "uint256"
        }
      ],
      "stateMutability": "view",
      "type": "function"
    },
    {
      "inputs": [],
      "name": "whitelistGuardian",
      "outputs": [
        {
          "internalType": "address",
          "name": "",
          "type": "address"
        }
      ],
      "stateMutability": "view",
      "type": "function"
    }
  ],
  "bytecode": "0x608060405234801561001057600080fd5b50610738806100206000396000f3fe608060405234801561001057600080fd5b50600436106100ea5760003560e01c80635c60da1b1161008c578063d33219b411610066578063d33219b414610257578063da35c66414610275578063f851a44014610293578063fc4eee42146102b1576100ea565b80635c60da1b146101fd578063b58131b01461021b578063c5a8425d14610239576100ea565b806317977c61116100c857806317977c6114610161578063267822471461019157806338bd0dda146101af5780633932abb1146101df576100ea565b8063013cf08b146100ef57806302a251a314610125578063109d0af814610143575b600080fd5b610109600480360381019061010491906104b6565b6102cf565b60405161011c979695949392919061054e565b60405180910390f35b61012d61034b565b60405161013a91906105bd565b60405180910390f35b61014b610351565b6040516101589190610637565b60405180910390f35b61017b6004803603810190610176919061067e565b610377565b60405161018891906105bd565b60405180910390f35b61019961038f565b6040516101a691906106ab565b60405180910390f35b6101c960048036038101906101c4919061067e565b6103b5565b6040516101d691906105bd565b60405180910390f35b6101e76103cd565b6040516101f491906105bd565b60405180910390f35b6102056103d3565b60405161021291906106ab565b60405180910390f35b6102236103f9565b60405161023091906105bd565b60405180910390f35b6102416103ff565b60405161024e91906106ab565b60405180910390f35b61025f610425565b60405161026c91906106e7565b60405180910390f35b61027d61044b565b60405161028a91906105bd565b60405180910390f35b61029b610451565b6040516102a891906106ab565b60405180910390f35b6102b9610475565b6040516102c691906105bd565b60405180910390f35b600a6020528060005260406000206000915090508060000154908060010160009054906101000a900473ffffffffffffffffffffffffffffffffffffffff16908060020154908060040154908060050154908060070160009054906101000a900460ff16908060070160019054906101000a900460ff16905087565b60045481565b600960009054906101000a900473ffffffffffffffffffffffffffffffffffffffff1681565b600b6020528060005260406000206000915090505481565b600160009054906101000a900473ffffffffffffffffffffffffffffffffffffffff1681565b600c6020528060005260406000206000915090505481565b60035481565b600260009054906101000a900473ffffffffffffffffffffffffffffffffffffffff1681565b60055481565b600d60009054906101000a900473ffffffffffffffffffffffffffffffffffffffff1681565b600860009054906101000a900473ffffffffffffffffffffffffffffffffffffffff1681565b60075481565b60008054906101000a900473ffffffffffffffffffffffffffffffffffffffff1681565b60065481565b600080fd5b6000819050919050565b61049381610480565b811461049e57600080fd5b50565b6000813590506104b08161048a565b92915050565b6000602082840312156104cc576104cb61047b565b5b60006104da848285016104a1565b91505092915050565b6104ec81610480565b82525050565b600073ffffffffffffffffffffffffffffffffffffffff82169050919050565b600061051d826104f2565b9050919050565b61052d81610512565b82525050565b60008115159050919050565b61054881610533565b82525050565b600060e082019050610563600083018a6104e3565b6105706020830189610524565b61057d60408301886104e3565b61058a60608301876104e3565b61059760808301866104e3565b6105a460a083018561053f565b6105b160c083018461053f565b98975050505050505050565b60006020820190506105d260008301846104e3565b92915050565b6000819050919050565b60006105fd6105f86105f3846104f2565b6105d8565b6104f2565b9050919050565b600061060f826105e2565b9050919050565b600061062182610604565b9050919050565b61063181610616565b82525050565b600060208201905061064c6000830184610628565b92915050565b61065b81610512565b811461066657600080fd5b50565b60008135905061067881610652565b92915050565b6000602082840312156106945761069361047b565b5b60006106a284828501610669565b91505092915050565b60006020820190506106c06000830184610524565b92915050565b60006106d182610604565b9050919050565b6106e1816106c6565b82525050565b60006020820190506106fc60008301846106d8565b9291505056fea26469706673582212208a5abf0da40b933ed0450a26ffbf79147e63bdea05abcdd85e30ba5fdf49f4f164736f6c634300080a0033",
  "immutableReferences": {},
  "source": "// SPDX-License-Identifier: BSD-3-Clause\n\npragma solidity ^0.8.0;\n\ncontract GovernorMikeEvents {\n    /// @notice An event emitted when a new proposal is created\n    event ProposalCreated(uint id, address proposer, uint startBlock, uint endBlock); // TODO: details\n\n    /// @notice An event emitted when a vote has been cast on a proposal\n    /// @param voter The address which casted a vote\n    /// @param proposalId The proposal id which was voted on\n    /// @param support Support value for the vote. 0=against, 1=for, 2=abstain\n    /// @param votes Number of votes which were cast by the voter\n    /// @param reason The reason given for the vote by the voter\n    event VoteCast(address indexed voter, uint proposalId, uint8 support, uint votes, string reason);\n\n    /// @notice An event emitted when a proposal has been canceled\n    event ProposalCanceled(uint id);\n\n    /// @notice An event emitted when a proposal has been queued in the Timelock\n    event ProposalQueued(uint id, uint eta);\n\n    /// @notice An event emitted when a proposal has been executed in the Timelock\n    event ProposalExecuted(uint id);\n\n    /// @notice An event emitted when the voting delay is set\n    event VotingDelaySet(uint oldVotingDelay, uint newVotingDelay);\n\n    /// @notice An event emitted when the voting period is set\n    event VotingPeriodSet(uint oldVotingPeriod, uint newVotingPeriod);\n\n    /// @notice Emitted when implementation is changed\n    event NewImplementation(address oldImplementation, address newImplementation);\n\n    /// @notice Emitted when proposal threshold is set\n    event ProposalThresholdSet(uint oldProposalThreshold, uint newProposalThreshold);\n\n    /// @notice Emitted when pendingAdmin is changed\n    event NewPendingAdmin(address oldPendingAdmin, address newPendingAdmin);\n\n    /// @notice Emitted when pendingAdmin is accepted, which means admin is updated\n    event NewAdmin(address oldAdmin, address newAdmin);\n\n    /// @notice Emitted when whitelist account expiration is set\n    event WhitelistAccountExpirationSet(address account, uint expiration);\n\n    /// @notice Emitted when the whitelistGuardian is set\n    event WhitelistGuardianSet(address oldGuardian, address newGuardian);\n}\n\ncontract GovernorMikeDelegatorStorage {\n    /// @notice Administrator for this contract\n    address public admin;\n\n    /// @notice Pending administrator for this contract\n    address public pendingAdmin;\n\n    /// @notice Active brains of Governor\n    address public implementation;\n}\n\n\n/**\n * @title Storage for Governor Mike Delegate\n * @notice For future upgrades, do not change GovernorMikeDelegateStorageV1. Create a new\n * contract which implements GovernorMikeDelegateStorageV1 and following the naming convention\n * GovernorMikeDelegateStorageVX.\n */\ncontract GovernorMikeDelegateStorageV1 is GovernorMikeDelegatorStorage {\n\n    /// @notice The delay before voting on a proposal may take place, once proposed, in blocks\n    uint public votingDelay;\n\n    /// @notice The duration of voting on a proposal, in blocks\n    uint public votingPeriod;\n\n    /// @notice The number of votes required in order for a voter to become a proposer\n    uint public proposalThreshold;\n\n    /// @notice Initial proposal id set at become\n    uint public initialProposalId;\n\n    /// @notice The total number of proposals\n    uint public proposalCount;\n\n    /// @notice The address of the Compound Protocol Timelock\n    TimelockInterface public timelock;\n\n    /// @notice The address of the Compound governance token\n    CompInterface public comp;\n\n    /// @notice The official record of all proposals ever proposed\n    mapping (uint => Proposal) public proposals;\n\n    /// @notice The latest proposal for each proposer\n    mapping (address => uint) public latestProposalIds;\n\n    struct Issue {\n        /// @notice `targets`: Target addresses for proposal calls\n        address[] targets;\n\n        /// @notice `values`: Eth values for proposal calls\n        uint[] values;\n        \n        /// @notice `signatures`: Function signatures for proposal calls\n        string[] signatures;\n\n        /// @notice `calldatas`: Calldatas for proposal calls\n        bytes[] calldatas;\n\n        /// @notice `description`: String description of the proposal\n        string description;\n    }\n\n    struct Proposal {\n        /// @notice Unique id for looking up a proposal\n        uint id;\n\n        /// @notice Creator of the proposal\n        address proposer;\n\n        /// @notice The timestamp that the proposal will be available for execution, set once the vote succeeds\n        uint eta;\n\n        /// @notice The ordered list of issues\n        Issue[] issues;\n\n        /// @notice The block at which voting begins: holders must delegate their votes prior to this block\n        uint startBlock;\n\n        /// @notice The block at which voting ends: votes must be cast prior to this block\n        uint endBlock;\n\n        /// @notice Current number of votes: indexed to issues\n        uint[] votes;\n\n        /// @notice Flag marking whether the proposal has been canceled\n        bool canceled;\n\n        /// @notice Flag marking whether the proposal has been executed\n        bool executed;\n\n        /// @notice Receipts of ballots for the entire set of voters\n        mapping (address => Receipt) receipts;\n    }\n\n    /// @notice Ballot receipt record for a voter\n    struct Receipt {\n        /// @notice Whether or not a vote has been cast\n        bool hasVoted;\n\n        /// @notice Whether or not the voter supports the proposal or abstains\n        uint8 support;\n\n        /// @notice The number of votes the voter had, which were cast\n        uint96 votes;\n    }\n\n    /// @notice Possible states that a proposal may be in\n    enum ProposalState {\n        Pending,\n        Active,\n        Canceled,\n        Defeated,\n        Succeeded,\n        Queued,\n        Expired,\n        Executed\n    }\n}\n\ncontract GovernorMikeDelegateStorageV2 is GovernorMikeDelegateStorageV1 {\n    /// @notice Stores the expiration of account whitelist status as a timestamp\n    mapping (address => uint) public whitelistAccountExpirations;\n\n    /// @notice Address which manages whitelisted proposals and whitelist accounts\n    address public whitelistGuardian;\n}\n\ninterface TimelockInterface {\n    function delay() external view returns (uint);\n    function GRACE_PERIOD() external view returns (uint);\n    function acceptAdmin() external;\n    function queuedTransactions(bytes32 hash) external view returns (bool);\n    function queueTransaction(address target, uint value, string calldata signature, bytes calldata data, uint eta) external returns (bytes32);\n    function cancelTransaction(address target, uint value, string calldata signature, bytes calldata data, uint eta) external;\n    function executeTransaction(address target, uint value, string calldata signature, bytes calldata data, uint eta) external payable returns (bytes memory);\n}\n\ninterface CompInterface {\n    function getPriorVotes(address account, uint blockNumber) external view returns (uint96);\n}\n\ninterface GovernorAlpha {\n    /// @notice The total number of proposals\n    function proposalCount() external returns (uint);\n}",
  "sourcePath": "/Users/lukepark/Desktop/D3LAB/Governor/dev/Governor-M/contracts/GovernorMikeInterfaces.sol",
  "compiler": {
    "name": "solc",
    "version": "0.8.10+commit.fc410830.Emscripten.clang"
  },
  "schemaVersion": "3.4.3",
  "updatedAt": "2022-06-27T10:03:38.451Z",
  "devdoc": {
    "kind": "dev",
    "methods": {},
    "version": 1
  },
  "userdoc": {
    "kind": "user",
    "methods": {
      "admin()": {
        "notice": "Administrator for this contract"
      },
      "comp()": {
        "notice": "The address of the Compound governance token"
      },
      "implementation()": {
        "notice": "Active brains of Governor"
      },
      "initialProposalId()": {
        "notice": "Initial proposal id set at become"
      },
      "latestProposalIds(address)": {
        "notice": "The latest proposal for each proposer"
      },
      "pendingAdmin()": {
        "notice": "Pending administrator for this contract"
      },
      "proposalCount()": {
        "notice": "The total number of proposals"
      },
      "proposalThreshold()": {
        "notice": "The number of votes required in order for a voter to become a proposer"
      },
      "proposals(uint256)": {
        "notice": "The official record of all proposals ever proposed"
      },
      "timelock()": {
        "notice": "The address of the Compound Protocol Timelock"
      },
      "votingDelay()": {
        "notice": "The delay before voting on a proposal may take place, once proposed, in blocks"
      },
      "votingPeriod()": {
        "notice": "The duration of voting on a proposal, in blocks"
      },
      "whitelistAccountExpirations(address)": {
        "notice": "Stores the expiration of account whitelist status as a timestamp"
      },
      "whitelistGuardian()": {
        "notice": "Address which manages whitelisted proposals and whitelist accounts"
      }
    },
    "version": 1
  }
}