{
  "contractName": "GovernorMikeDelegate",
  "abi": [
    {
      "anonymous": false,
      "inputs": [
        {
          "indexed": false,
          "internalType": "address",
          "name": "oldAdmin",
          "type": "address"
        },
        {
          "indexed": false,
          "internalType": "address",
          "name": "newAdmin",
          "type": "address"
        }
      ],
      "name": "NewAdmin",
      "type": "event"
    },
    {
      "anonymous": false,
      "inputs": [
        {
          "indexed": false,
          "internalType": "address",
          "name": "oldImplementation",
          "type": "address"
        },
        {
          "indexed": false,
          "internalType": "address",
          "name": "newImplementation",
          "type": "address"
        }
      ],
      "name": "NewImplementation",
      "type": "event"
    },
    {
      "anonymous": false,
      "inputs": [
        {
          "indexed": false,
          "internalType": "address",
          "name": "oldPendingAdmin",
          "type": "address"
        },
        {
          "indexed": false,
          "internalType": "address",
          "name": "newPendingAdmin",
          "type": "address"
        }
      ],
      "name": "NewPendingAdmin",
      "type": "event"
    },
    {
      "anonymous": false,
      "inputs": [
        {
          "indexed": false,
          "internalType": "uint256",
          "name": "id",
          "type": "uint256"
        }
      ],
      "name": "ProposalCanceled",
      "type": "event"
    },
    {
      "anonymous": false,
      "inputs": [
        {
          "indexed": false,
          "internalType": "uint256",
          "name": "id",
          "type": "uint256"
        },
        {
          "indexed": false,
          "internalType": "address",
          "name": "proposer",
          "type": "address"
        },
        {
          "indexed": false,
          "internalType": "uint256",
          "name": "startBlock",
          "type": "uint256"
        },
        {
          "indexed": false,
          "internalType": "uint256",
          "name": "endBlock",
          "type": "uint256"
        }
      ],
      "name": "ProposalCreated",
      "type": "event"
    },
    {
      "anonymous": false,
      "inputs": [
        {
          "indexed": false,
          "internalType": "uint256",
          "name": "id",
          "type": "uint256"
        }
      ],
      "name": "ProposalExecuted",
      "type": "event"
    },
    {
      "anonymous": false,
      "inputs": [
        {
          "indexed": false,
          "internalType": "uint256",
          "name": "id",
          "type": "uint256"
        },
        {
          "indexed": false,
          "internalType": "uint256",
          "name": "eta",
          "type": "uint256"
        }
      ],
      "name": "ProposalQueued",
      "type": "event"
    },
    {
      "anonymous": false,
      "inputs": [
        {
          "indexed": false,
          "internalType": "uint256",
          "name": "oldProposalThreshold",
          "type": "uint256"
        },
        {
          "indexed": false,
          "internalType": "uint256",
          "name": "newProposalThreshold",
          "type": "uint256"
        }
      ],
      "name": "ProposalThresholdSet",
      "type": "event"
    },
    {
      "anonymous": false,
      "inputs": [
        {
          "indexed": true,
          "internalType": "address",
          "name": "voter",
          "type": "address"
        },
        {
          "indexed": false,
          "internalType": "uint256",
          "name": "proposalId",
          "type": "uint256"
        },
        {
          "indexed": false,
          "internalType": "uint8",
          "name": "support",
          "type": "uint8"
        },
        {
          "indexed": false,
          "internalType": "uint256",
          "name": "votes",
          "type": "uint256"
        },
        {
          "indexed": false,
          "internalType": "string",
          "name": "reason",
          "type": "string"
        }
      ],
      "name": "VoteCast",
      "type": "event"
    },
    {
      "anonymous": false,
      "inputs": [
        {
          "indexed": false,
          "internalType": "uint256",
          "name": "oldVotingDelay",
          "type": "uint256"
        },
        {
          "indexed": false,
          "internalType": "uint256",
          "name": "newVotingDelay",
          "type": "uint256"
        }
      ],
      "name": "VotingDelaySet",
      "type": "event"
    },
    {
      "anonymous": false,
      "inputs": [
        {
          "indexed": false,
          "internalType": "uint256",
          "name": "oldVotingPeriod",
          "type": "uint256"
        },
        {
          "indexed": false,
          "internalType": "uint256",
          "name": "newVotingPeriod",
          "type": "uint256"
        }
      ],
      "name": "VotingPeriodSet",
      "type": "event"
    },
    {
      "anonymous": false,
      "inputs": [
        {
          "indexed": false,
          "internalType": "address",
          "name": "account",
          "type": "address"
        },
        {
          "indexed": false,
          "internalType": "uint256",
          "name": "expiration",
          "type": "uint256"
        }
      ],
      "name": "WhitelistAccountExpirationSet",
      "type": "event"
    },
    {
      "anonymous": false,
      "inputs": [
        {
          "indexed": false,
          "internalType": "address",
          "name": "oldGuardian",
          "type": "address"
        },
        {
          "indexed": false,
          "internalType": "address",
          "name": "newGuardian",
          "type": "address"
        }
      ],
      "name": "WhitelistGuardianSet",
      "type": "event"
    },
    {
      "constant": true,
      "inputs": [],
      "name": "BALLOT_TYPEHASH",
      "outputs": [
        {
          "internalType": "bytes32",
          "name": "",
          "type": "bytes32"
        }
      ],
      "payable": false,
      "stateMutability": "view",
      "type": "function"
    },
    {
      "constant": true,
      "inputs": [],
      "name": "DOMAIN_TYPEHASH",
      "outputs": [
        {
          "internalType": "bytes32",
          "name": "",
          "type": "bytes32"
        }
      ],
      "payable": false,
      "stateMutability": "view",
      "type": "function"
    },
    {
      "constant": true,
      "inputs": [],
      "name": "MAX_PROPOSAL_THRESHOLD",
      "outputs": [
        {
          "internalType": "uint256",
          "name": "",
          "type": "uint256"
        }
      ],
      "payable": false,
      "stateMutability": "view",
      "type": "function"
    },
    {
      "constant": true,
      "inputs": [],
      "name": "MAX_VOTING_DELAY",
      "outputs": [
        {
          "internalType": "uint256",
          "name": "",
          "type": "uint256"
        }
      ],
      "payable": false,
      "stateMutability": "view",
      "type": "function"
    },
    {
      "constant": true,
      "inputs": [],
      "name": "MAX_VOTING_PERIOD",
      "outputs": [
        {
          "internalType": "uint256",
          "name": "",
          "type": "uint256"
        }
      ],
      "payable": false,
      "stateMutability": "view",
      "type": "function"
    },
    {
      "constant": true,
      "inputs": [],
      "name": "MIN_PROPOSAL_THRESHOLD",
      "outputs": [
        {
          "internalType": "uint256",
          "name": "",
          "type": "uint256"
        }
      ],
      "payable": false,
      "stateMutability": "view",
      "type": "function"
    },
    {
      "constant": true,
      "inputs": [],
      "name": "MIN_VOTING_DELAY",
      "outputs": [
        {
          "internalType": "uint256",
          "name": "",
          "type": "uint256"
        }
      ],
      "payable": false,
      "stateMutability": "view",
      "type": "function"
    },
    {
      "constant": true,
      "inputs": [],
      "name": "MIN_VOTING_PERIOD",
      "outputs": [
        {
          "internalType": "uint256",
          "name": "",
          "type": "uint256"
        }
      ],
      "payable": false,
      "stateMutability": "view",
      "type": "function"
    },
    {
      "constant": true,
      "inputs": [],
      "name": "admin",
      "outputs": [
        {
          "internalType": "address",
          "name": "",
          "type": "address"
        }
      ],
      "payable": false,
      "stateMutability": "view",
      "type": "function"
    },
    {
      "constant": true,
      "inputs": [],
      "name": "comp",
      "outputs": [
        {
          "internalType": "contract CompInterface",
          "name": "",
          "type": "address"
        }
      ],
      "payable": false,
      "stateMutability": "view",
      "type": "function"
    },
    {
      "constant": true,
      "inputs": [],
      "name": "implementation",
      "outputs": [
        {
          "internalType": "address",
          "name": "",
          "type": "address"
        }
      ],
      "payable": false,
      "stateMutability": "view",
      "type": "function"
    },
    {
      "constant": true,
      "inputs": [],
      "name": "initialProposalId",
      "outputs": [
        {
          "internalType": "uint256",
          "name": "",
          "type": "uint256"
        }
      ],
      "payable": false,
      "stateMutability": "view",
      "type": "function"
    },
    {
      "constant": true,
      "inputs": [
        {
          "internalType": "address",
          "name": "",
          "type": "address"
        }
      ],
      "name": "latestProposalIds",
      "outputs": [
        {
          "internalType": "uint256",
          "name": "",
          "type": "uint256"
        }
      ],
      "payable": false,
      "stateMutability": "view",
      "type": "function"
    },
    {
      "constant": true,
      "inputs": [],
      "name": "name",
      "outputs": [
        {
          "internalType": "string",
          "name": "",
          "type": "string"
        }
      ],
      "payable": false,
      "stateMutability": "view",
      "type": "function"
    },
    {
      "constant": true,
      "inputs": [],
      "name": "pendingAdmin",
      "outputs": [
        {
          "internalType": "address",
          "name": "",
          "type": "address"
        }
      ],
      "payable": false,
      "stateMutability": "view",
      "type": "function"
    },
    {
      "constant": true,
      "inputs": [],
      "name": "proposalCount",
      "outputs": [
        {
          "internalType": "uint256",
          "name": "",
          "type": "uint256"
        }
      ],
      "payable": false,
      "stateMutability": "view",
      "type": "function"
    },
    {
      "constant": true,
      "inputs": [],
      "name": "proposalMaxOperations",
      "outputs": [
        {
          "internalType": "uint256",
          "name": "",
          "type": "uint256"
        }
      ],
      "payable": false,
      "stateMutability": "view",
      "type": "function"
    },
    {
      "constant": true,
      "inputs": [],
      "name": "proposalThreshold",
      "outputs": [
        {
          "internalType": "uint256",
          "name": "",
          "type": "uint256"
        }
      ],
      "payable": false,
      "stateMutability": "view",
      "type": "function"
    },
    {
      "constant": true,
      "inputs": [
        {
          "internalType": "uint256",
          "name": "",
          "type": "uint256"
        }
      ],
      "name": "proposals",
      "outputs": [
        {
          "internalType": "uint256",
          "name": "id",
          "type": "uint256"
        },
        {
          "internalType": "address",
          "name": "proposer",
          "type": "address"
        },
        {
          "internalType": "uint256",
          "name": "eta",
          "type": "uint256"
        },
        {
          "internalType": "uint256",
          "name": "startBlock",
          "type": "uint256"
        },
        {
          "internalType": "uint256",
          "name": "endBlock",
          "type": "uint256"
        },
        {
          "internalType": "bool",
          "name": "canceled",
          "type": "bool"
        },
        {
          "internalType": "bool",
          "name": "executed",
          "type": "bool"
        }
      ],
      "payable": false,
      "stateMutability": "view",
      "type": "function"
    },
    {
      "constant": true,
      "inputs": [],
      "name": "quorumVotes",
      "outputs": [
        {
          "internalType": "uint256",
          "name": "",
          "type": "uint256"
        }
      ],
      "payable": false,
      "stateMutability": "view",
      "type": "function"
    },
    {
      "constant": true,
      "inputs": [],
      "name": "timelock",
      "outputs": [
        {
          "internalType": "contract TimelockInterface",
          "name": "",
          "type": "address"
        }
      ],
      "payable": false,
      "stateMutability": "view",
      "type": "function"
    },
    {
      "constant": true,
      "inputs": [],
      "name": "votingDelay",
      "outputs": [
        {
          "internalType": "uint256",
          "name": "",
          "type": "uint256"
        }
      ],
      "payable": false,
      "stateMutability": "view",
      "type": "function"
    },
    {
      "constant": true,
      "inputs": [],
      "name": "votingPeriod",
      "outputs": [
        {
          "internalType": "uint256",
          "name": "",
          "type": "uint256"
        }
      ],
      "payable": false,
      "stateMutability": "view",
      "type": "function"
    },
    {
      "constant": true,
      "inputs": [
        {
          "internalType": "address",
          "name": "",
          "type": "address"
        }
      ],
      "name": "whitelistAccountExpirations",
      "outputs": [
        {
          "internalType": "uint256",
          "name": "",
          "type": "uint256"
        }
      ],
      "payable": false,
      "stateMutability": "view",
      "type": "function"
    },
    {
      "constant": true,
      "inputs": [],
      "name": "whitelistGuardian",
      "outputs": [
        {
          "internalType": "address",
          "name": "",
          "type": "address"
        }
      ],
      "payable": false,
      "stateMutability": "view",
      "type": "function"
    },
    {
      "constant": false,
      "inputs": [
        {
          "internalType": "address",
          "name": "timelock_",
          "type": "address"
        },
        {
          "internalType": "address",
          "name": "comp_",
          "type": "address"
        },
        {
          "internalType": "uint256",
          "name": "votingPeriod_",
          "type": "uint256"
        },
        {
          "internalType": "uint256",
          "name": "votingDelay_",
          "type": "uint256"
        },
        {
          "internalType": "uint256",
          "name": "proposalThreshold_",
          "type": "uint256"
        }
      ],
      "name": "initialize",
      "outputs": [],
      "payable": false,
      "stateMutability": "nonpayable",
      "type": "function"
    },
    {
      "constant": false,
      "inputs": [
        {
          "components": [
            {
              "internalType": "address[]",
              "name": "targets",
              "type": "address[]"
            },
            {
              "internalType": "uint256[]",
              "name": "values",
              "type": "uint256[]"
            },
            {
              "internalType": "string[]",
              "name": "signatures",
              "type": "string[]"
            },
            {
              "internalType": "bytes[]",
              "name": "calldatas",
              "type": "bytes[]"
            },
            {
              "internalType": "string",
              "name": "description",
              "type": "string"
            }
          ],
          "internalType": "struct GovernorMikeDelegateStorageV1.Issue[]",
          "name": "issues_",
          "type": "tuple[]"
        }
      ],
      "name": "propose",
      "outputs": [
        {
          "internalType": "uint256",
          "name": "",
          "type": "uint256"
        }
      ],
      "payable": false,
      "stateMutability": "nonpayable",
      "type": "function"
    },
    {
      "constant": false,
      "inputs": [
        {
          "internalType": "uint256",
          "name": "proposalId",
          "type": "uint256"
        }
      ],
      "name": "queue",
      "outputs": [],
      "payable": false,
      "stateMutability": "nonpayable",
      "type": "function"
    },
    {
      "constant": false,
      "inputs": [
        {
          "internalType": "uint256",
          "name": "proposalId",
          "type": "uint256"
        }
      ],
      "name": "execute",
      "outputs": [],
      "payable": true,
      "stateMutability": "payable",
      "type": "function"
    },
    {
      "constant": false,
      "inputs": [
        {
          "internalType": "uint256",
          "name": "proposalId",
          "type": "uint256"
        }
      ],
      "name": "cancel",
      "outputs": [],
      "payable": false,
      "stateMutability": "nonpayable",
      "type": "function"
    },
    {
      "constant": true,
      "inputs": [
        {
          "internalType": "uint256",
          "name": "proposalId",
          "type": "uint256"
        },
        {
          "internalType": "uint256",
          "name": "issueNum",
          "type": "uint256"
        }
      ],
      "name": "getActions",
      "outputs": [
        {
          "internalType": "address[]",
          "name": "targets",
          "type": "address[]"
        },
        {
          "internalType": "uint256[]",
          "name": "values",
          "type": "uint256[]"
        },
        {
          "internalType": "string[]",
          "name": "signatures",
          "type": "string[]"
        },
        {
          "internalType": "bytes[]",
          "name": "calldatas",
          "type": "bytes[]"
        }
      ],
      "payable": false,
      "stateMutability": "view",
      "type": "function"
    },
    {
      "constant": true,
      "inputs": [
        {
          "internalType": "uint256",
          "name": "proposalId",
          "type": "uint256"
        },
        {
          "internalType": "address",
          "name": "voter",
          "type": "address"
        }
      ],
      "name": "getReceipt",
      "outputs": [
        {
          "components": [
            {
              "internalType": "bool",
              "name": "hasVoted",
              "type": "bool"
            },
            {
              "internalType": "uint8",
              "name": "support",
              "type": "uint8"
            },
            {
              "internalType": "uint96",
              "name": "votes",
              "type": "uint96"
            }
          ],
          "internalType": "struct GovernorMikeDelegateStorageV1.Receipt",
          "name": "",
          "type": "tuple"
        }
      ],
      "payable": false,
      "stateMutability": "view",
      "type": "function"
    },
    {
      "constant": true,
      "inputs": [
        {
          "internalType": "uint256",
          "name": "proposalId",
          "type": "uint256"
        }
      ],
      "name": "state",
      "outputs": [
        {
          "internalType": "enum GovernorMikeDelegateStorageV1.ProposalState",
          "name": "",
          "type": "uint8"
        }
      ],
      "payable": false,
      "stateMutability": "view",
      "type": "function"
    },
    {
      "constant": false,
      "inputs": [
        {
          "internalType": "uint256",
          "name": "proposalId",
          "type": "uint256"
        },
        {
          "internalType": "uint8",
          "name": "support",
          "type": "uint8"
        }
      ],
      "name": "castVote",
      "outputs": [],
      "payable": false,
      "stateMutability": "nonpayable",
      "type": "function"
    },
    {
      "constant": false,
      "inputs": [
        {
          "internalType": "uint256",
          "name": "proposalId",
          "type": "uint256"
        },
        {
          "internalType": "uint8",
          "name": "support",
          "type": "uint8"
        },
        {
          "internalType": "string",
          "name": "reason",
          "type": "string"
        }
      ],
      "name": "castVoteWithReason",
      "outputs": [],
      "payable": false,
      "stateMutability": "nonpayable",
      "type": "function"
    },
    {
      "constant": false,
      "inputs": [
        {
          "internalType": "uint256",
          "name": "proposalId",
          "type": "uint256"
        },
        {
          "internalType": "uint8",
          "name": "support",
          "type": "uint8"
        },
        {
          "internalType": "uint8",
          "name": "v",
          "type": "uint8"
        },
        {
          "internalType": "bytes32",
          "name": "r",
          "type": "bytes32"
        },
        {
          "internalType": "bytes32",
          "name": "s",
          "type": "bytes32"
        }
      ],
      "name": "castVoteBySig",
      "outputs": [],
      "payable": false,
      "stateMutability": "nonpayable",
      "type": "function"
    },
    {
      "constant": true,
      "inputs": [
        {
          "internalType": "address",
          "name": "account",
          "type": "address"
        }
      ],
      "name": "isWhitelisted",
      "outputs": [
        {
          "internalType": "bool",
          "name": "",
          "type": "bool"
        }
      ],
      "payable": false,
      "stateMutability": "view",
      "type": "function"
    },
    {
      "constant": false,
      "inputs": [
        {
          "internalType": "uint256",
          "name": "newVotingDelay",
          "type": "uint256"
        }
      ],
      "name": "_setVotingDelay",
      "outputs": [],
      "payable": false,
      "stateMutability": "nonpayable",
      "type": "function"
    },
    {
      "constant": false,
      "inputs": [
        {
          "internalType": "uint256",
          "name": "newVotingPeriod",
          "type": "uint256"
        }
      ],
      "name": "_setVotingPeriod",
      "outputs": [],
      "payable": false,
      "stateMutability": "nonpayable",
      "type": "function"
    },
    {
      "constant": false,
      "inputs": [
        {
          "internalType": "uint256",
          "name": "newProposalThreshold",
          "type": "uint256"
        }
      ],
      "name": "_setProposalThreshold",
      "outputs": [],
      "payable": false,
      "stateMutability": "nonpayable",
      "type": "function"
    },
    {
      "constant": false,
      "inputs": [
        {
          "internalType": "address",
          "name": "account",
          "type": "address"
        },
        {
          "internalType": "uint256",
          "name": "expiration",
          "type": "uint256"
        }
      ],
      "name": "_setWhitelistAccountExpiration",
      "outputs": [],
      "payable": false,
      "stateMutability": "nonpayable",
      "type": "function"
    },
    {
      "constant": false,
      "inputs": [
        {
          "internalType": "address",
          "name": "account",
          "type": "address"
        }
      ],
      "name": "_setWhitelistGuardian",
      "outputs": [],
      "payable": false,
      "stateMutability": "nonpayable",
      "type": "function"
    },
    {
      "constant": false,
      "inputs": [
        {
          "internalType": "address",
          "name": "newPendingAdmin",
          "type": "address"
        }
      ],
      "name": "_setPendingAdmin",
      "outputs": [],
      "payable": false,
      "stateMutability": "nonpayable",
      "type": "function"
    },
    {
      "constant": false,
      "inputs": [],
      "name": "_acceptAdmin",
      "outputs": [],
      "payable": false,
      "stateMutability": "nonpayable",
      "type": "function"
    }
  ],
  "bytecode": "0x608060405234801561001057600080fd5b50616f6280620000216000396000f3fe6080604052600436106102675760003560e01c8063641dea8a11610144578063d13f90b4116100b6578063e23a9a521161007a578063e23a9a521461093d578063e48083fe1461097a578063e9c714f2146109a5578063f851a440146109bc578063fc4eee42146109e7578063fe0d94c114610a1257610267565b8063d13f90b41461086a578063d33219b414610893578063da35c664146108be578063ddf0b009146108e9578063deaaa7cc1461091257610267565b80639953336511610108578063995333651461076c578063a64e024a14610795578063b1126263146107c0578063b58131b0146107eb578063b71d1a0c14610816578063c5a8425d1461083f57610267565b8063641dea8a14610670578063771164d4146106ad578063791f5d23146106ed5780637b3c71d3146107185780637bdbe4d01461074157610267565b806325fd935a116101dd5780633bccf4fd116101a15780633bccf4fd146105645780633e4f49e61461058d57806340e58ee5146105ca5780634d6733d2146105f3578063567813881461061c5780635c60da1b1461064557610267565b806325fd935a14610469578063267822471461049457806338bd0dda146104bf5780633932abb1146104fc5780633af32abf1461052757610267565b806317977c611161022f57806317977c611461035957806317ba1b8b146103965780631dfb1b5a146103bf57806320606b70146103e8578063215809ca1461041357806324bc1a641461043e57610267565b8063013cf08b1461026c57806302a251a3146102af57806306fdde03146102da5780630ea2d98c14610305578063109d0af81461032e575b600080fd5b34801561027857600080fd5b50610293600480360361028e91908101906147da565b610a2e565b6040516102a697969594939291906168cd565b60405180910390f35b3480156102bb57600080fd5b506102c4610aaa565b6040516102d1919061686d565b60405180910390f35b3480156102e657600080fd5b506102ef610ab0565b6040516102fc9190616390565b60405180910390f35b34801561031157600080fd5b5061032c600480360361032791908101906147da565b610ae9565b005b34801561033a57600080fd5b50610343610c19565b604051610350919061633f565b60405180910390f35b34801561036557600080fd5b50610380600480360361037b919081019061462a565b610c3f565b60405161038d919061686d565b60405180910390f35b3480156103a257600080fd5b506103bd60048036036103b891908101906147da565b610c57565b005b3480156103cb57600080fd5b506103e660048036036103e191908101906147da565b610d96565b005b3480156103f457600080fd5b506103fd610ec4565b60405161040a9190616263565b60405180910390f35b34801561041f57600080fd5b50610428610edb565b604051610435919061686d565b60405180910390f35b34801561044a57600080fd5b50610453610ee1565b604051610460919061686d565b60405180910390f35b34801561047557600080fd5b5061047e610eef565b60405161048b919061686d565b60405180910390f35b3480156104a057600080fd5b506104a9610efd565b6040516104b6919061608f565b60405180910390f35b3480156104cb57600080fd5b506104e660048036036104e1919081019061462a565b610f23565b6040516104f3919061686d565b60405180910390f35b34801561050857600080fd5b50610511610f3b565b60405161051e919061686d565b60405180910390f35b34801561053357600080fd5b5061054e6004803603610549919081019061462a565b610f41565b60405161055b9190616248565b60405180910390f35b34801561057057600080fd5b5061058b6004803603610586919081019061494c565b610f8c565b005b34801561059957600080fd5b506105b460048036036105af91908101906147da565b6111ac565b6040516105c19190616375565b60405180910390f35b3480156105d657600080fd5b506105f160048036036105ec91908101906147da565b611386565b005b3480156105ff57600080fd5b5061061a600480360361061591908101906146ca565b6118ff565b005b34801561062857600080fd5b50610643600480360361063e91908101906148a4565b611a67565b005b34801561065157600080fd5b5061065a611ac7565b604051610667919061608f565b60405180910390f35b34801561067c57600080fd5b5061069760048036036106929190810190614706565b611aed565b6040516106a4919061686d565b60405180910390f35b3480156106b957600080fd5b506106d460048036036106cf9190810190614868565b61226b565b6040516106e494939291906161e7565b60405180910390f35b3480156106f957600080fd5b50610702612566565b60405161070f919061686d565b60405180910390f35b34801561072457600080fd5b5061073f600480360361073a91908101906148e0565b612574565b005b34801561074d57600080fd5b506107566125da565b604051610763919061686d565b60405180910390f35b34801561077857600080fd5b50610793600480360361078e919081019061462a565b6125df565b005b3480156107a157600080fd5b506107aa612735565b6040516107b7919061686d565b60405180910390f35b3480156107cc57600080fd5b506107d561273c565b6040516107e2919061686d565b60405180910390f35b3480156107f757600080fd5b50610800612742565b60405161080d919061686d565b60405180910390f35b34801561082257600080fd5b5061083d6004803603610838919081019061462a565b612748565b005b34801561084b57600080fd5b5061085461287c565b604051610861919061608f565b60405180910390f35b34801561087657600080fd5b50610891600480360361088c9190810190614653565b6128a2565b005b34801561089f57600080fd5b506108a8612c49565b6040516108b5919061635a565b60405180910390f35b3480156108ca57600080fd5b506108d3612c6f565b6040516108e0919061686d565b60405180910390f35b3480156108f557600080fd5b50610910600480360361090b91908101906147da565b612c75565b005b34801561091e57600080fd5b50610927612fef565b6040516109349190616263565b60405180910390f35b34801561094957600080fd5b50610964600480360361095f919081019061482c565b613006565b6040516109719190616852565b60405180910390f35b34801561098657600080fd5b5061098f6130ea565b60405161099c919061686d565b60405180910390f35b3480156109b157600080fd5b506109ba6130ef565b005b3480156109c857600080fd5b506109d1613362565b6040516109de919061608f565b60405180910390f35b3480156109f357600080fd5b506109fc613387565b604051610a09919061686d565b60405180910390f35b610a2c6004803603610a2791908101906147da565b61338d565b005b600a6020528060005260406000206000915090508060000154908060010160009054906101000a900473ffffffffffffffffffffffffffffffffffffffff16908060020154908060040154908060050154908060070160009054906101000a900460ff16908060070160019054906101000a900460ff16905087565b60045481565b6040518060400160405280601681526020017f436f6d706f756e6420476f7665726e6f72204d696b650000000000000000000081525081565b6000809054906101000a900473ffffffffffffffffffffffffffffffffffffffff1673ffffffffffffffffffffffffffffffffffffffff163373ffffffffffffffffffffffffffffffffffffffff1614610b78576040517f08c379a0000000000000000000000000000000000000000000000000000000008152600401610b6f906164f2565b60405180910390fd5b6116808110158015610b8d575062013b008111155b610bcc576040517f08c379a0000000000000000000000000000000000000000000000000000000008152600401610bc390616612565b60405180910390fd5b60006004549050816004819055507f7e3f7f0708a84de9203036abaa450dccc85ad5ff52f78c170f3edb55cf5e882881600454604051610c0d92919061693c565b60405180910390a15050565b600960009054906101000a900473ffffffffffffffffffffffffffffffffffffffff1681565b600b6020528060005260406000206000915090505481565b6000809054906101000a900473ffffffffffffffffffffffffffffffffffffffff1673ffffffffffffffffffffffffffffffffffffffff163373ffffffffffffffffffffffffffffffffffffffff1614610ce6576040517f08c379a0000000000000000000000000000000000000000000000000000000008152600401610cdd906166b2565b60405180910390fd5b690a968163f0a57b4000008110158015610d0a575069152d02c7e14af68000008111155b610d49576040517f08c379a0000000000000000000000000000000000000000000000000000000008152600401610d4090616732565b60405180910390fd5b60006005549050816005819055507fccb45da8d5717e6c4544694297c4ba5cf151d455c9bb0ed4fc7a38411bc0546181600554604051610d8a92919061693c565b60405180910390a15050565b6000809054906101000a900473ffffffffffffffffffffffffffffffffffffffff1673ffffffffffffffffffffffffffffffffffffffff163373ffffffffffffffffffffffffffffffffffffffff1614610e25576040517f08c379a0000000000000000000000000000000000000000000000000000000008152600401610e1c90616452565b60405180910390fd5b60018110158015610e385750619d808111155b610e77576040517f08c379a0000000000000000000000000000000000000000000000000000000008152600401610e6e906163f2565b60405180910390fd5b60006003549050816003819055507fc565b045403dc03c2eea82b81a0465edad9e2e7fc4d97e11421c209da93d7a9381600354604051610eb892919061693c565b60405180910390a15050565b604051610ed09061607a565b604051809103902081565b61168081565b6954b40b1f852bda00000081565b69152d02c7e14af680000081565b600160009054906101000a900473ffffffffffffffffffffffffffffffffffffffff1681565b600c6020528060005260406000206000915090505481565b60035481565b600042600c60008473ffffffffffffffffffffffffffffffffffffffff1673ffffffffffffffffffffffffffffffffffffffff16815260200190815260200160002054119050919050565b6000604051610f9a9061607a565b60405180910390206040518060400160405280601681526020017f436f6d706f756e6420476f7665726e6f72204d696b650000000000000000000081525080519060200120610fe7613605565b30604051602001610ffb949392919061627e565b60405160208183030381529060405280519060200120905060006040516110219061602e565b6040518091039020878760405160200161103d939291906162c3565b6040516020818303038152906040528051906020012090506000828260405160200161106a929190616043565b6040516020818303038152906040528051906020012090506000600182888888604051600081526020016040526040516110a794939291906162fa565b6020604051602081039080840390855afa1580156110c9573d6000803e3d6000fd5b505050602060405103519050600073ffffffffffffffffffffffffffffffffffffffff168173ffffffffffffffffffffffffffffffffffffffff161415611145576040517f08c379a000000000000000000000000000000000000000000000000000000000815260040161113c906165b2565b60405180910390fd5b8073ffffffffffffffffffffffffffffffffffffffff167fb8e138887d0aa13bab447e82de9d5c1777041ecd21ca36ba824ff1e6c07ddda48a8a61118a858e8e613612565b604051611199939291906169b3565b60405180910390a2505050505050505050565b600081600754101580156111c1575060065482115b611200576040517f08c379a00000000000000000000000000000000000000000000000000000000081526004016111f790616572565b60405180910390fd5b6000600a600084815260200190815260200160002090508060070160009054906101000a900460ff1615611238576002915050611381565b8060040154431161124d576000915050611381565b80600501544311611262576001915050611381565b6954b40b1f852bda000000611276846138f3565b1015611286576003915050611381565b60008160020154141561129d576004915050611381565b8060070160019054906101000a900460ff16156112be576007915050611381565b61136b8160020154600860009054906101000a900473ffffffffffffffffffffffffffffffffffffffff1673ffffffffffffffffffffffffffffffffffffffff1663c1a287e26040518163ffffffff1660e01b815260040160206040518083038186803b15801561132e57600080fd5b505afa158015611342573d6000803e3d6000fd5b505050506040513d601f19601f820116820180604052506113669190810190614803565b613975565b421061137b576006915050611381565b60059150505b919050565b60078081111561139257fe5b61139b826111ac565b60078111156113a657fe5b14156113e7576040517f08c379a00000000000000000000000000000000000000000000000000000000081526004016113de906167d2565b60405180910390fd5b6000600a6000838152602001908152602001600020905060008160030161140d846139ca565b8154811061141757fe5b906000526020600020906005020190508160010160009054906101000a900473ffffffffffffffffffffffffffffffffffffffff1673ffffffffffffffffffffffffffffffffffffffff163373ffffffffffffffffffffffffffffffffffffffff1614611768576114ab8260010160009054906101000a900473ffffffffffffffffffffffffffffffffffffffff16610f41565b1561163a57600554600960009054906101000a900473ffffffffffffffffffffffffffffffffffffffff1673ffffffffffffffffffffffffffffffffffffffff1663782d6fe18460010160009054906101000a900473ffffffffffffffffffffffffffffffffffffffff16611521436001613a4c565b6040518363ffffffff1660e01b815260040161153e9291906160fc565b60206040518083038186803b15801561155657600080fd5b505afa15801561156a573d6000803e3d6000fd5b505050506040513d601f19601f8201168201806040525061158e91908101906149c3565b6bffffffffffffffffffffffff161080156115f65750600d60009054906101000a900473ffffffffffffffffffffffffffffffffffffffff1673ffffffffffffffffffffffffffffffffffffffff163373ffffffffffffffffffffffffffffffffffffffff16145b611635576040517f08c379a000000000000000000000000000000000000000000000000000000000815260040161162c906164d2565b60405180910390fd5b611767565b600554600960009054906101000a900473ffffffffffffffffffffffffffffffffffffffff1673ffffffffffffffffffffffffffffffffffffffff1663782d6fe18460010160009054906101000a900473ffffffffffffffffffffffffffffffffffffffff166116ab436001613a4c565b6040518363ffffffff1660e01b81526004016116c89291906160fc565b60206040518083038186803b1580156116e057600080fd5b505afa1580156116f4573d6000803e3d6000fd5b505050506040513d601f19601f8201168201806040525061171891908101906149c3565b6bffffffffffffffffffffffff1610611766576040517f08c379a000000000000000000000000000000000000000000000000000000000815260040161175d90616472565b60405180910390fd5b5b5b60018260070160006101000a81548160ff02191690831515021790555060008090505b81600001805490508110156118c257600860009054906101000a900473ffffffffffffffffffffffffffffffffffffffff1673ffffffffffffffffffffffffffffffffffffffff1663591fcdfe8360000183815481106117e757fe5b9060005260206000200160009054906101000a900473ffffffffffffffffffffffffffffffffffffffff1684600101848154811061182157fe5b906000526020600020015485600201858154811061183b57fe5b9060005260206000200186600301868154811061185457fe5b9060005260206000200188600201546040518663ffffffff1660e01b8152600401611883959493929190616186565b600060405180830381600087803b15801561189d57600080fd5b505af11580156118b1573d6000803e3d6000fd5b50505050808060010191505061178b565b507f789cf55be980739dad1d0699b93b58e806b51c9d96619bfa8fe0a28abaa7b30c836040516118f2919061686d565b60405180910390a1505050565b6000809054906101000a900473ffffffffffffffffffffffffffffffffffffffff1673ffffffffffffffffffffffffffffffffffffffff163373ffffffffffffffffffffffffffffffffffffffff1614806119a75750600d60009054906101000a900473ffffffffffffffffffffffffffffffffffffffff1673ffffffffffffffffffffffffffffffffffffffff163373ffffffffffffffffffffffffffffffffffffffff16145b6119e6576040517f08c379a00000000000000000000000000000000000000000000000000000000081526004016119dd90616832565b60405180910390fd5b80600c60008473ffffffffffffffffffffffffffffffffffffffff1673ffffffffffffffffffffffffffffffffffffffff168152602001908152602001600020819055507f4e7b7545bc5744d0e30425959f4687475774b6c7edad77d24cb51c7d967d45158282604051611a5b9291906160fc565b60405180910390a15050565b3373ffffffffffffffffffffffffffffffffffffffff167fb8e138887d0aa13bab447e82de9d5c1777041ecd21ca36ba824ff1e6c07ddda48383611aac338787613612565b604051611abb939291906169b3565b60405180910390a25050565b600260009054906101000a900473ffffffffffffffffffffffffffffffffffffffff1681565b60006007600081548092919060010191905055506000600a60006007548152602001908152602001600020905060006006541415611b60576040517f08c379a0000000000000000000000000000000000000000000000000000000008152600401611b5790616772565b60405180910390fd5b60008090505b8351811015611f9157600554600960009054906101000a900473ffffffffffffffffffffffffffffffffffffffff1673ffffffffffffffffffffffffffffffffffffffff1663782d6fe133611bbc436001613a4c565b6040518363ffffffff1660e01b8152600401611bd99291906160aa565b60206040518083038186803b158015611bf157600080fd5b505afa158015611c05573d6000803e3d6000fd5b505050506040513d601f19601f82011682018060405250611c2991908101906149c3565b6bffffffffffffffffffffffff161180611c485750611c4733610f41565b5b611c87576040517f08c379a0000000000000000000000000000000000000000000000000000000008152600401611c7e90616512565b60405180910390fd5b838181518110611c9357fe5b60200260200101516020015151848281518110611cac57fe5b60200260200101516000015151148015611cf55750838181518110611ccd57fe5b60200260200101516040015151848281518110611ce657fe5b60200260200101516000015151145b8015611d305750838181518110611d0857fe5b60200260200101516060015151848281518110611d2157fe5b60200260200101516000015151145b611d6f576040517f08c379a0000000000000000000000000000000000000000000000000000000008152600401611d66906164b2565b60405180910390fd5b6000848281518110611d7d57fe5b602002602001015160000151511415611dcb576040517f08c379a0000000000000000000000000000000000000000000000000000000008152600401611dc290616532565b60405180910390fd5b600a848281518110611dd957fe5b602002602001015160000151511115611e27576040517f08c379a0000000000000000000000000000000000000000000000000000000008152600401611e1e906163b2565b60405180910390fd5b816003016040518060a00160405280868481518110611e4257fe5b6020026020010151600001518152602001868481518110611e5f57fe5b6020026020010151602001518152602001868481518110611e7c57fe5b6020026020010151604001518152602001868481518110611e9957fe5b6020026020010151606001518152602001868481518110611eb657fe5b602002602001015160800151815250908060018154018082558091505090600182039060005260206000209060050201600090919290919091506000820151816000019080519060200190611f0c929190613c72565b506020820151816001019080519060200190611f29929190613cfc565b506040820151816002019080519060200190611f46929190613d49565b506060820151816003019080519060200190611f63929190613da9565b506080820151816004019080519060200190611f80929190613e09565b505050508080600101915050611b66565b506000600b60003373ffffffffffffffffffffffffffffffffffffffff1673ffffffffffffffffffffffffffffffffffffffff168152602001908152602001600020549050600081146120a1576000611fe9826111ac565b905060016007811115611ff857fe5b81600781111561200457fe5b1415612045576040517f08c379a000000000000000000000000000000000000000000000000000000000815260040161203c906167f2565b60405180910390fd5b6000600781111561205257fe5b81600781111561205e57fe5b141561209f576040517f08c379a0000000000000000000000000000000000000000000000000000000008152600401612096906166d2565b60405180910390fd5b505b60006120af43600354613975565b905060006120bf82600454613975565b90506007548460000181905550338460010160006101000a81548173ffffffffffffffffffffffffffffffffffffffff021916908373ffffffffffffffffffffffffffffffffffffffff16021790555060008460020181905550818460040181905550808460050181905550855160405190808252806020026020018201604052801561215b5781602001602082028038833980820191505090505b50846006019080519060200190612173929190613e89565b5060008460070160006101000a81548160ff02191690831515021790555060008460070160016101000a81548160ff0219169083151502179055508360000154600b60008660010160009054906101000a900473ffffffffffffffffffffffffffffffffffffffff1673ffffffffffffffffffffffffffffffffffffffff1673ffffffffffffffffffffffffffffffffffffffff168152602001908152602001600020819055507fd38d9a9a102af286aea1cbcadb8aab8446a90859626389db3710ed4fea4c2c3984600001543384846040516122539493929190616888565b60405180910390a18360000154945050505050919050565b6060806060806000600a6000888152602001908152602001600020600301868154811061229457fe5b90600052602060002090600502019050806000018160010182600201836003018380548060200260200160405190810160405280929190818152602001828054801561233557602002820191906000526020600020905b8160009054906101000a900473ffffffffffffffffffffffffffffffffffffffff1673ffffffffffffffffffffffffffffffffffffffff16815260200190600101908083116122eb575b505050505093508280548060200260200160405190810160405280929190818152602001828054801561238757602002820191906000526020600020905b815481526020019060010190808311612373575b5050505050925081805480602002602001604051908101604052809291908181526020016000905b8282101561246b578382906000526020600020018054600181600116156101000203166002900480601f0160208091040260200160405190810160405280929190818152602001828054600181600116156101000203166002900480156124575780601f1061242c57610100808354040283529160200191612457565b820191906000526020600020905b81548152906001019060200180831161243a57829003601f168201915b5050505050815260200190600101906123af565b50505050915080805480602002602001604051908101604052809291908181526020016000905b8282101561254e578382906000526020600020018054600181600116156101000203166002900480601f01602080910402602001604051908101604052809291908181526020018280546001816001161561010002031660029004801561253a5780601f1061250f5761010080835404028352916020019161253a565b820191906000526020600020905b81548152906001019060200180831161251d57829003601f168201915b505050505081526020019060010190612492565b50505050905094509450945094505092959194509250565b690a968163f0a57b40000081565b3373ffffffffffffffffffffffffffffffffffffffff167fb8e138887d0aa13bab447e82de9d5c1777041ecd21ca36ba824ff1e6c07ddda485856125b9338989613612565b86866040516125cc959493929190616965565b60405180910390a250505050565b600a81565b6000809054906101000a900473ffffffffffffffffffffffffffffffffffffffff1673ffffffffffffffffffffffffffffffffffffffff163373ffffffffffffffffffffffffffffffffffffffff161461266e576040517f08c379a0000000000000000000000000000000000000000000000000000000008152600401612665906166f2565b60405180910390fd5b6000600d60009054906101000a900473ffffffffffffffffffffffffffffffffffffffff16905081600d60006101000a81548173ffffffffffffffffffffffffffffffffffffffff021916908373ffffffffffffffffffffffffffffffffffffffff1602179055507f80a07e73e552148844a9c216d9724212d609cfa54e9c1a2e97203bdd2c4ad34181600d60009054906101000a900473ffffffffffffffffffffffffffffffffffffffff166040516127299291906160d3565b60405180910390a15050565b62013b0081565b619d8081565b60055481565b6000809054906101000a900473ffffffffffffffffffffffffffffffffffffffff1673ffffffffffffffffffffffffffffffffffffffff163373ffffffffffffffffffffffffffffffffffffffff16146127d7576040517f08c379a00000000000000000000000000000000000000000000000000000000081526004016127ce90616412565b60405180910390fd5b6000600160009054906101000a900473ffffffffffffffffffffffffffffffffffffffff16905081600160006101000a81548173ffffffffffffffffffffffffffffffffffffffff021916908373ffffffffffffffffffffffffffffffffffffffff1602179055507fca4f2f25d0898edd99413412fb94012f9e54ec8142f9b093e7720646a95b16a981836040516128709291906160d3565b60405180910390a15050565b600d60009054906101000a900473ffffffffffffffffffffffffffffffffffffffff1681565b600073ffffffffffffffffffffffffffffffffffffffff16600860009054906101000a900473ffffffffffffffffffffffffffffffffffffffff1673ffffffffffffffffffffffffffffffffffffffff1614612933576040517f08c379a000000000000000000000000000000000000000000000000000000000815260040161292a90616492565b60405180910390fd5b6000809054906101000a900473ffffffffffffffffffffffffffffffffffffffff1673ffffffffffffffffffffffffffffffffffffffff163373ffffffffffffffffffffffffffffffffffffffff16146129c2576040517f08c379a00000000000000000000000000000000000000000000000000000000081526004016129b990616672565b60405180910390fd5b600073ffffffffffffffffffffffffffffffffffffffff168573ffffffffffffffffffffffffffffffffffffffff161415612a32576040517f08c379a0000000000000000000000000000000000000000000000000000000008152600401612a2990616592565b60405180910390fd5b600073ffffffffffffffffffffffffffffffffffffffff168473ffffffffffffffffffffffffffffffffffffffff161415612aa2576040517f08c379a0000000000000000000000000000000000000000000000000000000008152600401612a9990616712565b60405180910390fd5b6116808310158015612ab7575062013b008311155b612af6576040517f08c379a0000000000000000000000000000000000000000000000000000000008152600401612aed90616752565b60405180910390fd5b60018210158015612b095750619d808211155b612b48576040517f08c379a0000000000000000000000000000000000000000000000000000000008152600401612b3f906167b2565b60405180910390fd5b690a968163f0a57b4000008110158015612b6c575069152d02c7e14af68000008111155b612bab576040517f08c379a0000000000000000000000000000000000000000000000000000000008152600401612ba290616632565b60405180910390fd5b84600860006101000a81548173ffffffffffffffffffffffffffffffffffffffff021916908373ffffffffffffffffffffffffffffffffffffffff16021790555083600960006101000a81548173ffffffffffffffffffffffffffffffffffffffff021916908373ffffffffffffffffffffffffffffffffffffffff1602179055508260048190555081600381905550806005819055505050505050565b600860009054906101000a900473ffffffffffffffffffffffffffffffffffffffff1681565b60075481565b60046007811115612c8257fe5b612c8b826111ac565b6007811115612c9657fe5b14612cd6576040517f08c379a0000000000000000000000000000000000000000000000000000000008152600401612ccd90616652565b60405180910390fd5b6000600a60008381526020019081526020016000209050600081600301612cfc846139ca565b81548110612d0657fe5b906000526020600020906005020190506000612dc142600860009054906101000a900473ffffffffffffffffffffffffffffffffffffffff1673ffffffffffffffffffffffffffffffffffffffff16636a42b8f86040518163ffffffff1660e01b815260040160206040518083038186803b158015612d8457600080fd5b505afa158015612d98573d6000803e3d6000fd5b505050506040513d601f19601f82011682018060405250612dbc9190810190614803565b613975565b905060008090505b8260000180549050811015612fa657612f99836000018281548110612dea57fe5b9060005260206000200160009054906101000a900473ffffffffffffffffffffffffffffffffffffffff16846001018381548110612e2457fe5b9060005260206000200154856002018481548110612e3e57fe5b906000526020600020018054600181600116156101000203166002900480601f016020809104026020016040519081016040528092919081815260200182805460018160011615610100020316600290048015612edc5780601f10612eb157610100808354040283529160200191612edc565b820191906000526020600020905b815481529060010190602001808311612ebf57829003601f168201915b5050505050866003018581548110612ef057fe5b906000526020600020018054600181600116156101000203166002900480601f016020809104026020016040519081016040528092919081815260200182805460018160011615610100020316600290048015612f8e5780601f10612f6357610100808354040283529160200191612f8e565b820191906000526020600020905b815481529060010190602001808311612f7157829003601f168201915b505050505086613a9c565b8080600101915050612dc9565b508083600201819055507f9a2e42fd6722813d69113e7d0079d3d940171428df7373df9c7f7617cfda28928482604051612fe192919061693c565b60405180910390a150505050565b604051612ffb9061602e565b604051809103902081565b61300e613ed6565b600a600084815260200190815260200160002060080160008373ffffffffffffffffffffffffffffffffffffffff1673ffffffffffffffffffffffffffffffffffffffff1681526020019081526020016000206040518060600160405290816000820160009054906101000a900460ff161515151581526020016000820160019054906101000a900460ff1660ff1660ff1681526020016000820160029054906101000a90046bffffffffffffffffffffffff166bffffffffffffffffffffffff166bffffffffffffffffffffffff1681525050905092915050565b600181565b600160009054906101000a900473ffffffffffffffffffffffffffffffffffffffff1673ffffffffffffffffffffffffffffffffffffffff163373ffffffffffffffffffffffffffffffffffffffff161480156131795750600073ffffffffffffffffffffffffffffffffffffffff163373ffffffffffffffffffffffffffffffffffffffff1614155b6131b8576040517f08c379a00000000000000000000000000000000000000000000000000000000081526004016131af90616792565b60405180910390fd5b60008060009054906101000a900473ffffffffffffffffffffffffffffffffffffffff1690506000600160009054906101000a900473ffffffffffffffffffffffffffffffffffffffff169050600160009054906101000a900473ffffffffffffffffffffffffffffffffffffffff166000806101000a81548173ffffffffffffffffffffffffffffffffffffffff021916908373ffffffffffffffffffffffffffffffffffffffff1602179055506000600160006101000a81548173ffffffffffffffffffffffffffffffffffffffff021916908373ffffffffffffffffffffffffffffffffffffffff1602179055507ff9ffabca9c8276e99321725bcb43fb076a6c66a54b7f21c4e8146d8519b417dc826000809054906101000a900473ffffffffffffffffffffffffffffffffffffffff166040516132fb9291906160d3565b60405180910390a17fca4f2f25d0898edd99413412fb94012f9e54ec8142f9b093e7720646a95b16a981600160009054906101000a900473ffffffffffffffffffffffffffffffffffffffff166040516133569291906160d3565b60405180910390a15050565b6000809054906101000a900473ffffffffffffffffffffffffffffffffffffffff1681565b60065481565b6005600781111561339a57fe5b6133a3826111ac565b60078111156133ae57fe5b146133ee576040517f08c379a00000000000000000000000000000000000000000000000000000000081526004016133e590616552565b60405180910390fd5b6000600a60008381526020019081526020016000209050600081600301613414846139ca565b8154811061341e57fe5b9060005260206000209060050201905060018260070160016101000a81548160ff02191690831515021790555060008090505b81600001805490508110156135c857600860009054906101000a900473ffffffffffffffffffffffffffffffffffffffff1673ffffffffffffffffffffffffffffffffffffffff16630825f38f8360010183815481106134ad57fe5b90600052602060002001548460000184815481106134c757fe5b9060005260206000200160009054906101000a900473ffffffffffffffffffffffffffffffffffffffff1685600101858154811061350157fe5b906000526020600020015486600201868154811061351b57fe5b9060005260206000200187600301878154811061353457fe5b9060005260206000200189600201546040518763ffffffff1660e01b8152600401613563959493929190616186565b6000604051808303818588803b15801561357c57600080fd5b505af1158015613590573d6000803e3d6000fd5b50505050506040513d6000823e3d601f19601f820116820180604052506135ba9190810190614799565b508080600101915050613451565b507f712ae1383f79ac853f8d882153778e0260ef8f03b504e2866e0593e04d2b291f836040516135f8919061686d565b60405180910390a1505050565b6000804690508091505090565b60006001600781111561362157fe5b61362a846111ac565b600781111561363557fe5b14613675576040517f08c379a000000000000000000000000000000000000000000000000000000000815260040161366c90616432565b60405180910390fd5b60028260ff1611156136bc576040517f08c379a00000000000000000000000000000000000000000000000000000000081526004016136b390616692565b60405180910390fd5b6000600a6000858152602001908152602001600020905060008160080160008773ffffffffffffffffffffffffffffffffffffffff1673ffffffffffffffffffffffffffffffffffffffff1681526020019081526020016000209050600015158160000160009054906101000a900460ff16151514613770576040517f08c379a0000000000000000000000000000000000000000000000000000000008152600401613767906165f2565b60405180910390fd5b6000600960009054906101000a900473ffffffffffffffffffffffffffffffffffffffff1673ffffffffffffffffffffffffffffffffffffffff1663782d6fe18885600401546040518363ffffffff1660e01b81526004016137d39291906160fc565b60206040518083038186803b1580156137eb57600080fd5b505afa1580156137ff573d6000803e3d6000fd5b505050506040513d601f19601f8201168201806040525061382391908101906149c3565b9050613859836006018660ff168154811061383a57fe5b9060005260206000200154826bffffffffffffffffffffffff16613975565b836006018660ff168154811061386b57fe5b906000526020600020018190555060018260000160006101000a81548160ff021916908315150217905550848260000160016101000a81548160ff021916908360ff160217905550808260000160026101000a8154816bffffffffffffffffffffffff02191690836bffffffffffffffffffffffff1602179055508093505050509392505050565b600080600a60008481526020019081526020016000206006019050600080905060008090505b828054905081101561396d578383828154811061393257fe5b906000526020600020015411156139605782818154811061394f57fe5b906000526020600020015493508091505b8080600101915050613919565b505050919050565b6000808284019050838110156139c0576040517f08c379a00000000000000000000000000000000000000000000000000000000081526004016139b7906165d2565b60405180910390fd5b8091505092915050565b600080600a60008481526020019081526020016000206006019050600080905060008090505b8280549050811015613a445781838281548110613a0957fe5b90600052602060002001541115613a3757828181548110613a2657fe5b906000526020600020015491508093505b80806001019150506139f0565b505050919050565b600082821115613a91576040517f08c379a0000000000000000000000000000000000000000000000000000000008152600401613a8890616812565b60405180910390fd5b818303905092915050565b600860009054906101000a900473ffffffffffffffffffffffffffffffffffffffff1673ffffffffffffffffffffffffffffffffffffffff1663f2b065378686868686604051602001613af3959493929190616125565b604051602081830303815290604052805190602001206040518263ffffffff1660e01b8152600401613b259190616263565b60206040518083038186803b158015613b3d57600080fd5b505afa158015613b51573d6000803e3d6000fd5b505050506040513d601f19601f82011682018060405250613b759190810190614747565b15613bb5576040517f08c379a0000000000000000000000000000000000000000000000000000000008152600401613bac906163d2565b60405180910390fd5b600860009054906101000a900473ffffffffffffffffffffffffffffffffffffffff1673ffffffffffffffffffffffffffffffffffffffff16633a66f90186868686866040518663ffffffff1660e01b8152600401613c18959493929190616125565b602060405180830381600087803b158015613c3257600080fd5b505af1158015613c46573d6000803e3d6000fd5b505050506040513d601f19601f82011682018060405250613c6a9190810190614770565b505050505050565b828054828255906000526020600020908101928215613ceb579160200282015b82811115613cea5782518260006101000a81548173ffffffffffffffffffffffffffffffffffffffff021916908373ffffffffffffffffffffffffffffffffffffffff16021790555091602001919060010190613c92565b5b509050613cf89190613f0a565b5090565b828054828255906000526020600020908101928215613d38579160200282015b82811115613d37578251825591602001919060010190613d1c565b5b509050613d459190613f4d565b5090565b828054828255906000526020600020908101928215613d98579160200282015b82811115613d97578251829080519060200190613d87929190613e09565b5091602001919060010190613d69565b5b509050613da59190613f72565b5090565b828054828255906000526020600020908101928215613df8579160200282015b82811115613df7578251829080519060200190613de7929190613f9e565b5091602001919060010190613dc9565b5b509050613e05919061401e565b5090565b828054600181600116156101000203166002900490600052602060002090601f016020900481019282601f10613e4a57805160ff1916838001178555613e78565b82800160010185558215613e78579182015b82811115613e77578251825591602001919060010190613e5c565b5b509050613e859190613f4d565b5090565b828054828255906000526020600020908101928215613ec5579160200282015b82811115613ec4578251825591602001919060010190613ea9565b5b509050613ed29190613f4d565b5090565b6040518060600160405280600015158152602001600060ff16815260200160006bffffffffffffffffffffffff1681525090565b613f4a91905b80821115613f4657600081816101000a81549073ffffffffffffffffffffffffffffffffffffffff021916905550600101613f10565b5090565b90565b613f6f91905b80821115613f6b576000816000905550600101613f53565b5090565b90565b613f9b91905b80821115613f975760008181613f8e919061404a565b50600101613f78565b5090565b90565b828054600181600116156101000203166002900490600052602060002090601f016020900481019282601f10613fdf57805160ff191683800117855561400d565b8280016001018555821561400d579182015b8281111561400c578251825591602001919060010190613ff1565b5b50905061401a9190613f4d565b5090565b61404791905b80821115614043576000818161403a9190614092565b50600101614024565b5090565b90565b50805460018160011615610100020316600290046000825580601f10614070575061408f565b601f01602090049060005260206000209081019061408e9190613f4d565b5b50565b50805460018160011615610100020316600290046000825580601f106140b857506140d7565b601f0160209004906000526020600020908101906140d69190613f4d565b5b50565b6000813590506140e981616e95565b92915050565b600082601f83011261410057600080fd5b813561411361410e82616a2a565b6169fd565b9150818183526020840193506020810190508385602084028201111561413857600080fd5b60005b83811015614168578161414e88826140da565b84526020840193506020830192505060018101905061413b565b5050505092915050565b600082601f83011261418357600080fd5b813561419661419182616a52565b6169fd565b9150818183526020840193506020810190508360005b838110156141dc57813586016141c28882614390565b8452602084019350602083019250506001810190506141ac565b5050505092915050565b600082601f8301126141f757600080fd5b813561420a61420582616a7a565b6169fd565b9150818183526020840193506020810190508360005b8381101561425057813586016142368882614482565b845260208401935060208301925050600181019050614220565b5050505092915050565b600082601f83011261426b57600080fd5b813561427e61427982616aa2565b6169fd565b9150818183526020840193506020810190508360005b838110156142c457813586016142aa88826144d6565b845260208401935060208301925050600181019050614294565b5050505092915050565b600082601f8301126142df57600080fd5b81356142f26142ed82616aca565b6169fd565b9150818183526020840193506020810190508385602084028201111561431757600080fd5b60005b83811015614347578161432d88826145d6565b84526020840193506020830192505060018101905061431a565b5050505092915050565b60008151905061436081616eac565b92915050565b60008135905061437581616ec3565b92915050565b60008151905061438a81616ec3565b92915050565b600082601f8301126143a157600080fd5b81356143b46143af82616af2565b6169fd565b915080825260208301602083018583830111156143d057600080fd5b6143db838284616e2b565b50505092915050565b600082601f8301126143f557600080fd5b815161440861440382616b1e565b6169fd565b9150808252602083016020830185838301111561442457600080fd5b61442f838284616e3a565b50505092915050565b60008083601f84011261444a57600080fd5b8235905067ffffffffffffffff81111561446357600080fd5b60208301915083600182028301111561447b57600080fd5b9250929050565b600082601f83011261449357600080fd5b81356144a66144a182616b4a565b6169fd565b915080825260208301602083018583830111156144c257600080fd5b6144cd838284616e2b565b50505092915050565b600060a082840312156144e857600080fd5b6144f260a06169fd565b9050600082013567ffffffffffffffff81111561450e57600080fd5b61451a848285016140ef565b600083015250602082013567ffffffffffffffff81111561453a57600080fd5b614546848285016142ce565b602083015250604082013567ffffffffffffffff81111561456657600080fd5b614572848285016141e6565b604083015250606082013567ffffffffffffffff81111561459257600080fd5b61459e84828501614172565b606083015250608082013567ffffffffffffffff8111156145be57600080fd5b6145ca84828501614482565b60808301525092915050565b6000813590506145e581616eda565b92915050565b6000815190506145fa81616eda565b92915050565b60008135905061460f81616ef1565b92915050565b60008151905061462481616f08565b92915050565b60006020828403121561463c57600080fd5b600061464a848285016140da565b91505092915050565b600080600080600060a0868803121561466b57600080fd5b6000614679888289016140da565b955050602061468a888289016140da565b945050604061469b888289016145d6565b93505060606146ac888289016145d6565b92505060806146bd888289016145d6565b9150509295509295909350565b600080604083850312156146dd57600080fd5b60006146eb858286016140da565b92505060206146fc858286016145d6565b9150509250929050565b60006020828403121561471857600080fd5b600082013567ffffffffffffffff81111561473257600080fd5b61473e8482850161425a565b91505092915050565b60006020828403121561475957600080fd5b600061476784828501614351565b91505092915050565b60006020828403121561478257600080fd5b60006147908482850161437b565b91505092915050565b6000602082840312156147ab57600080fd5b600082015167ffffffffffffffff8111156147c557600080fd5b6147d1848285016143e4565b91505092915050565b6000602082840312156147ec57600080fd5b60006147fa848285016145d6565b91505092915050565b60006020828403121561481557600080fd5b6000614823848285016145eb565b91505092915050565b6000806040838503121561483f57600080fd5b600061484d858286016145d6565b925050602061485e858286016140da565b9150509250929050565b6000806040838503121561487b57600080fd5b6000614889858286016145d6565b925050602061489a858286016145d6565b9150509250929050565b600080604083850312156148b757600080fd5b60006148c5858286016145d6565b92505060206148d685828601614600565b9150509250929050565b600080600080606085870312156148f657600080fd5b6000614904878288016145d6565b945050602061491587828801614600565b935050604085013567ffffffffffffffff81111561493257600080fd5b61493e87828801614438565b925092505092959194509250565b600080600080600060a0868803121561496457600080fd5b6000614972888289016145d6565b955050602061498388828901614600565b945050604061499488828901614600565b93505060606149a588828901614366565b92505060806149b688828901614366565b9150509295509295909350565b6000602082840312156149d557600080fd5b60006149e384828501614615565b91505092915050565b60006149f88383614a53565b60208301905092915050565b6000614a108383614c94565b905092915050565b6000614a248383614def565b905092915050565b6000614a388383615fd4565b60208301905092915050565b614a4d81616d89565b82525050565b614a5c81616cff565b82525050565b614a6b81616cff565b82525050565b6000614a7c82616be0565b614a868185616c6c565b9350614a9183616b76565b8060005b83811015614ac2578151614aa988826149ec565b9750614ab483616c38565b925050600181019050614a95565b5085935050505092915050565b6000614ada82616beb565b614ae48185616c7d565b935083602082028501614af685616b86565b8060005b85811015614b325784840389528151614b138582614a04565b9450614b1e83616c45565b925060208a01995050600181019050614afa565b50829750879550505050505092915050565b6000614b4f82616bf6565b614b598185616c8e565b935083602082028501614b6b85616b96565b8060005b85811015614ba75784840389528151614b888582614a18565b9450614b9383616c52565b925060208a01995050600181019050614b6f565b50829750879550505050505092915050565b6000614bc482616c01565b614bce8185616c9f565b9350614bd983616ba6565b8060005b83811015614c0a578151614bf18882614a2c565b9750614bfc83616c5f565b925050600181019050614bdd565b5085935050505092915050565b614c2081616d11565b82525050565b614c2f81616d11565b82525050565b614c3e81616d1d565b82525050565b614c55614c5082616d1d565b616e6d565b82525050565b6000614c6682616c17565b614c708185616cc1565b9350614c80818560208601616e3a565b614c8981616e77565b840191505092915050565b6000614c9f82616c0c565b614ca98185616cb0565b9350614cb9818560208601616e3a565b614cc281616e77565b840191505092915050565b600081546001811660008114614cea5760018114614d1057614d54565b607f6002830416614cfb8187616cc1565b955060ff198316865260208601935050614d54565b60028204614d1e8187616cc1565b9550614d2985616bb6565b60005b82811015614d4b57815481890152600182019150602081019050614d2c565b80880195505050505b505092915050565b614d6581616d9b565b82525050565b614d7481616dbf565b82525050565b614d8381616de3565b82525050565b6000614d958385616ce3565b9350614da2838584616e2b565b614dab83616e77565b840190509392505050565b6000614dc182616c2d565b614dcb8185616ce3565b9350614ddb818560208601616e3a565b614de481616e77565b840191505092915050565b6000614dfa82616c22565b614e048185616cd2565b9350614e14818560208601616e3a565b614e1d81616e77565b840191505092915050565b6000614e3382616c22565b614e3d8185616ce3565b9350614e4d818560208601616e3a565b614e5681616e77565b840191505092915050565b600081546001811660008114614e7e5760018114614ea457614ee8565b607f6002830416614e8f8187616ce3565b955060ff198316865260208601935050614ee8565b60028204614eb28187616ce3565b9550614ebd85616bcb565b60005b82811015614edf57815481890152600182019150602081019050614ec0565b80880195505050505b505092915050565b6000614efd602783616ce3565b91507f476f7665726e6f724d696b653a3a70726f706f73653a20746f6f206d616e792060008301527f616374696f6e73000000000000000000000000000000000000000000000000006020830152604082019050919050565b6000614f63605483616ce3565b91507f476f7665726e6f724d696b653a3a71756575654f72526576657274496e74657260008301527f6e616c3a206964656e746963616c2070726f706f73616c20616374696f6e206160208301527f6c726561647920717565756564206174206574610000000000000000000000006040830152606082019050919050565b6000614fef603383616ce3565b91507f476f7665726e6f724d696b653a3a5f736574566f74696e6744656c61793a206960008301527f6e76616c696420766f74696e672064656c6179000000000000000000000000006020830152604082019050919050565b6000615055602983616ce3565b91507f476f7665726e6f724d696b653a5f73657450656e64696e6741646d696e3a206160008301527f646d696e206f6e6c7900000000000000000000000000000000000000000000006020830152604082019050919050565b60006150bb603083616ce3565b91507f476f7665726e6f724d696b653a3a63617374566f7465496e7465726e616c3a2060008301527f766f74696e6720697320636c6f736564000000000000000000000000000000006020830152604082019050919050565b6000615121602983616ce3565b91507f476f7665726e6f724d696b653a3a5f736574566f74696e6744656c61793a206160008301527f646d696e206f6e6c7900000000000000000000000000000000000000000000006020830152604082019050919050565b6000615187602883616cf4565b91507f42616c6c6f742875696e743235362070726f706f73616c49642c75696e74382060008301527f737570706f7274290000000000000000000000000000000000000000000000006020830152602882019050919050565b60006151ed602e83616ce3565b91507f476f7665726e6f724d696b653a3a63616e63656c3a2070726f706f736572206160008301527f626f7665207468726573686f6c640000000000000000000000000000000000006020830152604082019050919050565b6000615253603283616ce3565b91507f476f7665726e6f724d696b653a3a696e697469616c697a653a2063616e206f6e60008301527f6c7920696e697469616c697a65206f6e636500000000000000000000000000006020830152604082019050919050565b60006152b9600283616cf4565b91507f19010000000000000000000000000000000000000000000000000000000000006000830152600282019050919050565b60006152f9604383616ce3565b91507f476f7665726e6f724d696b653a3a70726f706f73653a2070726f706f73616c2060008301527f66756e6374696f6e20696e666f726d6174696f6e206172697479206d69736d6160208301527f74636800000000000000000000000000000000000000000000000000000000006040830152606082019050919050565b6000615385602a83616ce3565b91507f476f7665726e6f724d696b653a3a63616e63656c3a2077686974656c6973746560008301527f642070726f706f736572000000000000000000000000000000000000000000006020830152604082019050919050565b60006153eb602a83616ce3565b91507f476f7665726e6f724d696b653a3a5f736574566f74696e67506572696f643a2060008301527f61646d696e206f6e6c79000000000000000000000000000000000000000000006020830152604082019050919050565b6000615451603e83616ce3565b91507f476f7665726e6f724d696b653a3a70726f706f73653a2070726f706f7365722060008301527f766f7465732062656c6f772070726f706f73616c207468726573686f6c6400006020830152604082019050919050565b60006154b7602b83616ce3565b91507f476f7665726e6f724d696b653a3a70726f706f73653a206d7573742070726f7660008301527f69646520616374696f6e730000000000000000000000000000000000000000006020830152604082019050919050565b600061551d604483616ce3565b91507f476f7665726e6f724d696b653a3a657865637574653a2070726f706f73616c2060008301527f63616e206f6e6c7920626520657865637574656420696620697420697320717560208301527f65756564000000000000000000000000000000000000000000000000000000006040830152606082019050919050565b60006155a9602883616ce3565b91507f476f7665726e6f724d696b653a3a73746174653a20696e76616c69642070726f60008301527f706f73616c2069640000000000000000000000000000000000000000000000006020830152604082019050919050565b600061560f603283616ce3565b91507f476f7665726e6f724d696b653a3a696e697469616c697a653a20696e76616c6960008301527f642074696d656c6f636b206164647265737300000000000000000000000000006020830152604082019050919050565b6000615675602e83616ce3565b91507f476f7665726e6f724d696b653a3a63617374566f746542795369673a20696e7660008301527f616c6964207369676e61747572650000000000000000000000000000000000006020830152604082019050919050565b60006156db601183616ce3565b91507f6164646974696f6e206f766572666c6f770000000000000000000000000000006000830152602082019050919050565b600061571b604383616cf4565b91507f454950373132446f6d61696e28737472696e67206e616d652c75696e7432353660008301527f20636861696e49642c6164647265737320766572696679696e67436f6e74726160208301527f63742900000000000000000000000000000000000000000000000000000000006040830152604382019050919050565b60006157a7603383616ce3565b91507f476f7665726e6f724d696b653a3a63617374566f7465496e7465726e616c3a2060008301527f766f74657220616c726561647920766f746564000000000000000000000000006020830152604082019050919050565b600061580d603583616ce3565b91507f476f7665726e6f724d696b653a3a5f736574566f74696e67506572696f643a2060008301527f696e76616c696420766f74696e6720706572696f6400000000000000000000006020830152604082019050919050565b6000615873603483616ce3565b91507f476f7665726e6f724d696b653a3a696e697469616c697a653a20696e76616c6960008301527f642070726f706f73616c207468726573686f6c640000000000000000000000006020830152604082019050919050565b60006158d9604383616ce3565b91507f476f7665726e6f724d696b653a3a71756575653a2070726f706f73616c20636160008301527f6e206f6e6c79206265207175657565642069662069742069732073756363656560208301527f64656400000000000000000000000000000000000000000000000000000000006040830152606082019050919050565b6000615965602483616ce3565b91507f476f7665726e6f724d696b653a3a696e697469616c697a653a2061646d696e2060008301527f6f6e6c79000000000000000000000000000000000000000000000000000000006020830152604082019050919050565b60006159cb603183616ce3565b91507f476f7665726e6f724d696b653a3a63617374566f7465496e7465726e616c3a2060008301527f696e76616c696420766f746520747970650000000000000000000000000000006020830152604082019050919050565b6000615a31602f83616ce3565b91507f476f7665726e6f724d696b653a3a5f73657450726f706f73616c54687265736860008301527f6f6c643a2061646d696e206f6e6c7900000000000000000000000000000000006020830152604082019050919050565b6000615a97605883616ce3565b91507f476f7665726e6f724d696b653a3a70726f706f73653a206f6e65206c6976652060008301527f70726f706f73616c207065722070726f706f7365722c20666f756e6420616e2060208301527f616c72656164792070656e64696e672070726f706f73616c00000000000000006040830152606082019050919050565b6000615b23602f83616ce3565b91507f476f7665726e6f724d696b653a3a5f73657457686974656c697374477561726460008301527f69616e3a2061646d696e206f6e6c7900000000000000000000000000000000006020830152604082019050919050565b6000615b89602e83616ce3565b91507f476f7665726e6f724d696b653a3a696e697469616c697a653a20696e76616c6960008301527f6420636f6d7020616464726573730000000000000000000000000000000000006020830152604082019050919050565b6000615bef603f83616ce3565b91507f476f7665726e6f724d696b653a3a5f73657450726f706f73616c54687265736860008301527f6f6c643a20696e76616c69642070726f706f73616c207468726573686f6c64006020830152604082019050919050565b6000615c55600083616ce3565b9150600082019050919050565b6000615c6f602f83616ce3565b91507f476f7665726e6f724d696b653a3a696e697469616c697a653a20696e76616c6960008301527f6420766f74696e6720706572696f6400000000000000000000000000000000006020830152604082019050919050565b6000615cd5602f83616ce3565b91507f476f7665726e6f724d696b653a3a70726f706f73653a20476f7665726e6f722060008301527f4d696b65206e6f742061637469766500000000000000000000000000000000006020830152604082019050919050565b6000615d3b602d83616ce3565b91507f476f7665726e6f724d696b653a5f61636365707441646d696e3a2070656e646960008301527f6e672061646d696e206f6e6c79000000000000000000000000000000000000006020830152604082019050919050565b6000615da1602e83616ce3565b91507f476f7665726e6f724d696b653a3a696e697469616c697a653a20696e76616c6960008301527f6420766f74696e672064656c61790000000000000000000000000000000000006020830152604082019050919050565b6000615e07603583616ce3565b91507f476f7665726e6f724d696b653a3a63616e63656c3a2063616e6e6f742063616e60008301527f63656c2065786563757465642070726f706f73616c00000000000000000000006020830152604082019050919050565b6000615e6d605783616ce3565b91507f476f7665726e6f724d696b653a3a70726f706f73653a206f6e65206c6976652060008301527f70726f706f73616c207065722070726f706f7365722c20666f756e6420616e2060208301527f616c7265616479206163746976652070726f706f73616c0000000000000000006040830152606082019050919050565b6000615ef9601583616ce3565b91507f7375627472616374696f6e20756e646572666c6f7700000000000000000000006000830152602082019050919050565b6000615f39603883616ce3565b91507f476f7665726e6f724d696b653a3a5f73657457686974656c6973744163636f7560008301527f6e7445787069726174696f6e3a2061646d696e206f6e6c7900000000000000006020830152604082019050919050565b606082016000820151615fa86000850182614c17565b506020820151615fbb6020850182615ff2565b506040820151615fce604085018261601f565b50505050565b615fdd81616d5a565b82525050565b615fec81616d5a565b82525050565b615ffb81616d64565b82525050565b61600a81616d64565b82525050565b61601981616e19565b82525050565b61602881616d71565b82525050565b60006160398261517a565b9150819050919050565b600061604e826152ac565b915061605a8285614c44565b60208201915061606a8284614c44565b6020820191508190509392505050565b60006160858261570e565b9150819050919050565b60006020820190506160a46000830184614a62565b92915050565b60006040820190506160bf6000830185614a44565b6160cc6020830184615fe3565b9392505050565b60006040820190506160e86000830185614a62565b6160f56020830184614a62565b9392505050565b60006040820190506161116000830185614a62565b61611e6020830184615fe3565b9392505050565b600060a08201905061613a6000830188614a62565b6161476020830187615fe3565b81810360408301526161598186614db6565b9050818103606083015261616d8185614c5b565b905061617c6080830184615fe3565b9695505050505050565b600060a08201905061619b6000830188614a62565b6161a86020830187615fe3565b81810360408301526161ba8186614e61565b905081810360608301526161ce8185614ccd565b90506161dd6080830184615fe3565b9695505050505050565b600060808201905081810360008301526162018187614a71565b905081810360208301526162158186614bb9565b905081810360408301526162298185614b44565b9050818103606083015261623d8184614acf565b905095945050505050565b600060208201905061625d6000830184614c26565b92915050565b60006020820190506162786000830184614c35565b92915050565b60006080820190506162936000830187614c35565b6162a06020830186614c35565b6162ad6040830185615fe3565b6162ba6060830184614a62565b95945050505050565b60006060820190506162d86000830186614c35565b6162e56020830185615fe3565b6162f26040830184616001565b949350505050565b600060808201905061630f6000830187614c35565b61631c6020830186616001565b6163296040830185614c35565b6163366060830184614c35565b95945050505050565b60006020820190506163546000830184614d5c565b92915050565b600060208201905061636f6000830184614d6b565b92915050565b600060208201905061638a6000830184614d7a565b92915050565b600060208201905081810360008301526163aa8184614e28565b905092915050565b600060208201905081810360008301526163cb81614ef0565b9050919050565b600060208201905081810360008301526163eb81614f56565b9050919050565b6000602082019050818103600083015261640b81614fe2565b9050919050565b6000602082019050818103600083015261642b81615048565b9050919050565b6000602082019050818103600083015261644b816150ae565b9050919050565b6000602082019050818103600083015261646b81615114565b9050919050565b6000602082019050818103600083015261648b816151e0565b9050919050565b600060208201905081810360008301526164ab81615246565b9050919050565b600060208201905081810360008301526164cb816152ec565b9050919050565b600060208201905081810360008301526164eb81615378565b9050919050565b6000602082019050818103600083015261650b816153de565b9050919050565b6000602082019050818103600083015261652b81615444565b9050919050565b6000602082019050818103600083015261654b816154aa565b9050919050565b6000602082019050818103600083015261656b81615510565b9050919050565b6000602082019050818103600083015261658b8161559c565b9050919050565b600060208201905081810360008301526165ab81615602565b9050919050565b600060208201905081810360008301526165cb81615668565b9050919050565b600060208201905081810360008301526165eb816156ce565b9050919050565b6000602082019050818103600083015261660b8161579a565b9050919050565b6000602082019050818103600083015261662b81615800565b9050919050565b6000602082019050818103600083015261664b81615866565b9050919050565b6000602082019050818103600083015261666b816158cc565b9050919050565b6000602082019050818103600083015261668b81615958565b9050919050565b600060208201905081810360008301526166ab816159be565b9050919050565b600060208201905081810360008301526166cb81615a24565b9050919050565b600060208201905081810360008301526166eb81615a8a565b9050919050565b6000602082019050818103600083015261670b81615b16565b9050919050565b6000602082019050818103600083015261672b81615b7c565b9050919050565b6000602082019050818103600083015261674b81615be2565b9050919050565b6000602082019050818103600083015261676b81615c62565b9050919050565b6000602082019050818103600083015261678b81615cc8565b9050919050565b600060208201905081810360008301526167ab81615d2e565b9050919050565b600060208201905081810360008301526167cb81615d94565b9050919050565b600060208201905081810360008301526167eb81615dfa565b9050919050565b6000602082019050818103600083015261680b81615e60565b9050919050565b6000602082019050818103600083015261682b81615eec565b9050919050565b6000602082019050818103600083015261684b81615f2c565b9050919050565b60006060820190506168676000830184615f92565b92915050565b60006020820190506168826000830184615fe3565b92915050565b600060808201905061689d6000830187615fe3565b6168aa6020830186614a44565b6168b76040830185615fe3565b6168c46060830184615fe3565b95945050505050565b600060e0820190506168e2600083018a615fe3565b6168ef6020830189614a62565b6168fc6040830188615fe3565b6169096060830187615fe3565b6169166080830186615fe3565b61692360a0830185614c26565b61693060c0830184614c26565b98975050505050505050565b60006040820190506169516000830185615fe3565b61695e6020830184615fe3565b9392505050565b600060808201905061697a6000830188615fe3565b6169876020830187616001565b6169946040830186616010565b81810360608301526169a7818486614d89565b90509695505050505050565b60006080820190506169c86000830186615fe3565b6169d56020830185616001565b6169e26040830184616010565b81810360608301526169f381615c48565b9050949350505050565b6000604051905081810181811067ffffffffffffffff82111715616a2057600080fd5b8060405250919050565b600067ffffffffffffffff821115616a4157600080fd5b602082029050602081019050919050565b600067ffffffffffffffff821115616a6957600080fd5b602082029050602081019050919050565b600067ffffffffffffffff821115616a9157600080fd5b602082029050602081019050919050565b600067ffffffffffffffff821115616ab957600080fd5b602082029050602081019050919050565b600067ffffffffffffffff821115616ae157600080fd5b602082029050602081019050919050565b600067ffffffffffffffff821115616b0957600080fd5b601f19601f8301169050602081019050919050565b600067ffffffffffffffff821115616b3557600080fd5b601f19601f8301169050602081019050919050565b600067ffffffffffffffff821115616b6157600080fd5b601f19601f8301169050602081019050919050565b6000819050602082019050919050565b6000819050602082019050919050565b6000819050602082019050919050565b6000819050602082019050919050565b60008190508160005260206000209050919050565b60008190508160005260206000209050919050565b600081519050919050565b600081519050919050565b600081519050919050565b600081519050919050565b600081519050919050565b600081519050919050565b600081519050919050565b600081519050919050565b6000602082019050919050565b6000602082019050919050565b6000602082019050919050565b6000602082019050919050565b600082825260208201905092915050565b600082825260208201905092915050565b600082825260208201905092915050565b600082825260208201905092915050565b600082825260208201905092915050565b600082825260208201905092915050565b600082825260208201905092915050565b600082825260208201905092915050565b600081905092915050565b6000616d0a82616d3a565b9050919050565b60008115159050919050565b6000819050919050565b6000819050616d3582616e88565b919050565b600073ffffffffffffffffffffffffffffffffffffffff82169050919050565b6000819050919050565b600060ff82169050919050565b60006bffffffffffffffffffffffff82169050919050565b6000616d9482616df5565b9050919050565b6000616da682616dad565b9050919050565b6000616db882616d3a565b9050919050565b6000616dca82616dd1565b9050919050565b6000616ddc82616d3a565b9050919050565b6000616dee82616d27565b9050919050565b6000616e0082616e07565b9050919050565b6000616e1282616d3a565b9050919050565b6000616e2482616d71565b9050919050565b82818337600083830152505050565b60005b83811015616e58578082015181840152602081019050616e3d565b83811115616e67576000848401525b50505050565b6000819050919050565b6000601f19601f8301169050919050565b60088110616e9257fe5b50565b616e9e81616cff565b8114616ea957600080fd5b50565b616eb581616d11565b8114616ec057600080fd5b50565b616ecc81616d1d565b8114616ed757600080fd5b50565b616ee381616d5a565b8114616eee57600080fd5b50565b616efa81616d64565b8114616f0557600080fd5b50565b616f1181616d71565b8114616f1c57600080fd5b5056fea365627a7a72315820be0d267caed8dad3402a35d3768288443c7c92bb7ff9d44f18af3d9c609ab5b16c6578706572696d656e74616cf564736f6c63430005100040",
  "source": "pragma solidity ^0.5.16;\npragma experimental ABIEncoderV2;\n\nimport \"./GovernorMikeInterfaces.sol\";\n\ncontract GovernorMikeDelegate is\n    GovernorMikeDelegateStorageV2,\n    GovernorMikeEvents\n{\n\n    /// @notice The name of this contract\n    string public constant name = \"Compound Governor Mike\";\n\n    /// @notice The minimum setable proposal threshold\n    uint public constant MIN_PROPOSAL_THRESHOLD = 50000e18; // 50,000 Comp\n\n    /// @notice The maximum setable proposal threshold\n    uint public constant MAX_PROPOSAL_THRESHOLD = 100000e18; //100,000 Comp\n\n    /// @notice The minimum setable voting period\n    uint public constant MIN_VOTING_PERIOD = 5760; // About 24 hours\n\n    /// @notice The max setable voting period\n    uint public constant MAX_VOTING_PERIOD = 80640; // About 2 weeks\n\n    /// @notice The min setable voting delay\n    uint public constant MIN_VOTING_DELAY = 1;\n\n    /// @notice The max setable voting delay\n    uint public constant MAX_VOTING_DELAY = 40320; // About 1 week\n\n    /// @notice The number of votes in support of a proposal required in order for a quorum to be reached and for a vote to succeed\n    uint public constant quorumVotes = 400000e18; // 400,000 = 4% of Comp\n\n    /// @notice The maximum number of actions that can be included in a proposal\n    uint public constant proposalMaxOperations = 10; // 10 actions\n\n    /// @notice The EIP-712 typehash for the contract's domain\n    bytes32 public constant DOMAIN_TYPEHASH = keccak256(\"EIP712Domain(string name,uint256 chainId,address verifyingContract)\");\n\n    /// @notice The EIP-712 typehash for the ballot struct used by the contract\n    bytes32 public constant BALLOT_TYPEHASH = keccak256(\"Ballot(uint256 proposalId,uint8 support)\");\n\n    /**\n      * @notice Used to initialize the contract during delegator contructor\n      * @param timelock_ The address of the Timelock\n      * @param comp_ The address of the COMP token\n      * @param votingPeriod_ The initial voting period\n      * @param votingDelay_ The initial voting delay\n      * @param proposalThreshold_ The initial proposal threshold\n      */\n    function initialize(address timelock_, address comp_, uint votingPeriod_, uint votingDelay_, uint proposalThreshold_) public {\n        require(address(timelock) == address(0), \"GovernorMike::initialize: can only initialize once\");\n        require(msg.sender == admin, \"GovernorMike::initialize: admin only\");\n        require(timelock_ != address(0), \"GovernorMike::initialize: invalid timelock address\");\n        require(comp_ != address(0), \"GovernorMike::initialize: invalid comp address\");\n        require(votingPeriod_ >= MIN_VOTING_PERIOD && votingPeriod_ <= MAX_VOTING_PERIOD, \"GovernorMike::initialize: invalid voting period\");\n        require(votingDelay_ >= MIN_VOTING_DELAY && votingDelay_ <= MAX_VOTING_DELAY, \"GovernorMike::initialize: invalid voting delay\");\n        require(proposalThreshold_ >= MIN_PROPOSAL_THRESHOLD && proposalThreshold_ <= MAX_PROPOSAL_THRESHOLD, \"GovernorMike::initialize: invalid proposal threshold\");\n\n        timelock = TimelockInterface(timelock_);\n        comp = CompInterface(comp_);\n        votingPeriod = votingPeriod_;\n        votingDelay = votingDelay_;\n        proposalThreshold = proposalThreshold_;\n    }\n\n    /**\n      * @notice Function used to propose a new proposal with multiple issues.\n      * Sender must have delegates above the proposal threshold\n      * @param issues_ Choices\n      * @return Proposal id of new proposal\n      */\n    function propose(\n        Issue[] memory issues_\n    ) public returns (uint) {\n        proposalCount++;\n        Proposal storage newProposal = proposals[proposalCount];\n\n        // Reject proposals before initiating as Governor\n        require(initialProposalId != 0, \"GovernorMike::propose: Governor Mike not active\");\n        \n        for (uint i = 0; i < issues_.length; i++) {\n            // Allow addresses above proposal threshold and whitelisted addresses to propose\n            require(comp.getPriorVotes(msg.sender, sub256(block.number, 1)) > proposalThreshold || isWhitelisted(msg.sender), \"GovernorMike::propose: proposer votes below proposal threshold\");\n            require(\n                issues_[i].targets.length == issues_[i].values.length && issues_[i].targets.length == issues_[i].signatures.length && issues_[i].targets.length == issues_[i].calldatas.length,\n                \"GovernorMike::propose: proposal function information arity mismatch\"\n            );\n            require(issues_[i].targets.length != 0, \"GovernorMike::propose: must provide actions\");\n            require(issues_[i].targets.length <= proposalMaxOperations, \"GovernorMike::propose: too many actions\");\n\n            newProposal.issues.push(Issue({\n                targets: issues_[i].targets,\n                values: issues_[i].values,\n                signatures: issues_[i].signatures,\n                calldatas: issues_[i].calldatas,\n                description: issues_[i].description\n            }));\n        }\n\n        uint latestProposalId = latestProposalIds[msg.sender];\n        if (latestProposalId != 0) {\n          ProposalState proposersLatestProposalState = state(latestProposalId);\n          require(proposersLatestProposalState != ProposalState.Active, \"GovernorMike::propose: one live proposal per proposer, found an already active proposal\");\n          require(proposersLatestProposalState != ProposalState.Pending, \"GovernorMike::propose: one live proposal per proposer, found an already pending proposal\");\n        }\n\n        uint startBlock = add256(block.number, votingDelay);\n        uint endBlock = add256(startBlock, votingPeriod);\n\n        newProposal.id = proposalCount;\n        newProposal.proposer = msg.sender;\n        newProposal.eta = 0;\n        // newProposal.issues = issues_; // above\n        newProposal.startBlock = startBlock;\n        newProposal.endBlock = endBlock;\n        newProposal.votes = new uint[](issues_.length);\n        newProposal.canceled = false;\n        newProposal.executed = false;\n\n        latestProposalIds[newProposal.proposer] = newProposal.id;\n\n        emit ProposalCreated(newProposal.id, msg.sender, startBlock, endBlock);\n        return newProposal.id;\n    }\n\n    /**\n      * @notice Queues a proposal of state succeeded\n      * @param proposalId The id of the proposal to queue\n      */\n    function queue(uint proposalId) external {\n        require(state(proposalId) == ProposalState.Succeeded, \"GovernorMike::queue: proposal can only be queued if it is succeeded\");\n        Proposal storage proposal = proposals[proposalId];\n        Issue storage issue = proposal.issues[_winnerIssue(proposalId)];\n        uint eta = add256(block.timestamp, timelock.delay());\n        for (uint i = 0; i < issue.targets.length; i++) {\n            queueOrRevertInternal(issue.targets[i], issue.values[i], issue.signatures[i], issue.calldatas[i], eta);\n        }\n        proposal.eta = eta;\n        emit ProposalQueued(proposalId, eta);\n    }\n\n    function queueOrRevertInternal(address target, uint value, string memory signature, bytes memory data, uint eta) internal {\n        require(!timelock.queuedTransactions(keccak256(abi.encode(target, value, signature, data, eta))), \"GovernorMike::queueOrRevertInternal: identical proposal action already queued at eta\");\n        timelock.queueTransaction(target, value, signature, data, eta);\n    }\n\n    /**\n      * @notice Executes a queued proposal if eta has passed\n      * @param proposalId The id of the proposal to execute\n      */\n    function execute(uint proposalId) external payable {\n        require(state(proposalId) == ProposalState.Queued, \"GovernorMike::execute: proposal can only be executed if it is queued\");\n        Proposal storage proposal = proposals[proposalId];\n        Issue storage issue = proposal.issues[_winnerIssue(proposalId)];\n        proposal.executed = true;\n        for (uint i = 0; i < issue.targets.length; i++) {\n            timelock.executeTransaction.value(issue.values[i])(issue.targets[i], issue.values[i], issue.signatures[i], issue.calldatas[i], proposal.eta);\n        }\n        emit ProposalExecuted(proposalId);\n    }\n\n    /**\n      * @notice Cancels a proposal only if sender is the proposer, or proposer delegates dropped below proposal threshold\n      * @param proposalId The id of the proposal to cancel\n      */\n    function cancel(uint proposalId) external {\n        require(state(proposalId) != ProposalState.Executed, \"GovernorMike::cancel: cannot cancel executed proposal\");\n\n        Proposal storage proposal = proposals[proposalId];\n        Issue storage issue = proposal.issues[_winnerIssue(proposalId)];\n\n        // Proposer can cancel\n        if(msg.sender != proposal.proposer) {\n            // Whitelisted proposers can't be canceled for falling below proposal threshold\n            if(isWhitelisted(proposal.proposer)) {\n                require((comp.getPriorVotes(proposal.proposer, sub256(block.number, 1)) < proposalThreshold) && msg.sender == whitelistGuardian, \"GovernorMike::cancel: whitelisted proposer\");\n            }\n            else {\n                require((comp.getPriorVotes(proposal.proposer, sub256(block.number, 1)) < proposalThreshold), \"GovernorMike::cancel: proposer above threshold\");\n            }\n        }\n        \n        proposal.canceled = true;\n        for (uint i = 0; i < issue.targets.length; i++) {\n            timelock.cancelTransaction(issue.targets[i], issue.values[i], issue.signatures[i], issue.calldatas[i], proposal.eta);\n        }\n\n        emit ProposalCanceled(proposalId);\n    }\n\n    /**\n      * @notice Gets actions of a proposal\n      * @param proposalId the id of the proposal\n      * @param issueNum the number of the issue\n      * @return Targets, values, signatures, and calldatas of the issue actions\n      */\n    function getActions(uint proposalId, uint issueNum) external view returns (address[] memory targets, uint[] memory values, string[] memory signatures, bytes[] memory calldatas) {\n        Issue storage issue = proposals[proposalId].issues[issueNum];\n        return (issue.targets, issue.values, issue.signatures, issue.calldatas);\n    }\n\n    /**\n      * @notice Gets the receipt for a voter on a given proposal\n      * @param proposalId the id of proposal\n      * @param voter The address of the voter\n      * @return The voting receipt\n      */\n    function getReceipt(uint proposalId, address voter) external view returns (Receipt memory) {\n        return proposals[proposalId].receipts[voter];\n    }\n\n    /**\n      * @notice Gets the state of a proposal\n      * @param proposalId The id of the proposal\n      * @return Proposal state\n      */\n    function state(uint proposalId) public view returns (ProposalState) {\n        require(proposalCount >= proposalId && proposalId > initialProposalId, \"GovernorMike::state: invalid proposal id\");\n        Proposal storage proposal = proposals[proposalId];\n        if (proposal.canceled) {\n            return ProposalState.Canceled;\n        } else if (block.number <= proposal.startBlock) {\n            return ProposalState.Pending;\n        } else if (block.number <= proposal.endBlock) {\n            return ProposalState.Active;\n        } else if (_winnerIssueVotes(proposalId) < quorumVotes) { // maxVotes < quorumVotes\n            return ProposalState.Defeated;\n        } else if (proposal.eta == 0) {\n            return ProposalState.Succeeded;\n        } else if (proposal.executed) {\n            return ProposalState.Executed;\n        } else if (block.timestamp >= add256(proposal.eta, timelock.GRACE_PERIOD())) {\n            return ProposalState.Expired;\n        } else {\n            return ProposalState.Queued;\n        }\n    }\n\n    function _winnerIssue(uint proposalId) internal view returns(uint winnerIssue) {\n        uint[] storage votes = proposals[proposalId].votes;\n        uint maxVotes = 0;\n        for (uint i = 0; i < votes.length; i++) {\n            // TODO: case of equal\n            if (votes[i] > maxVotes) {\n                maxVotes = votes[i];\n                winnerIssue = i;\n            }\n        }\n    }\n\n    function _winnerIssueVotes(uint proposalId) internal view returns(uint maxVotes) {\n        uint[] storage votes = proposals[proposalId].votes;\n        uint winnerIssue = 0;\n        for (uint i = 0; i < votes.length; i++) {\n            // TODO: case of equal\n            if (votes[i] > maxVotes) {\n                maxVotes = votes[i];\n                winnerIssue = i;\n            }\n        }\n    }\n\n    /**\n      * @notice Cast a vote for a proposal\n      * @param proposalId The id of the proposal to vote on\n      * @param support The id of the issue to vote on\n      */\n    function castVote(uint proposalId, uint8 support) external {\n        emit VoteCast(msg.sender, proposalId, support, castVoteInternal(msg.sender, proposalId, support), \"\");\n    }\n\n    /**\n      * @notice Cast a vote for a proposal with a reason\n      * @param proposalId The id of the proposal to vote on\n      * @param support The id of the issue to vote on\n      * @param reason The reason given for the vote by the voter\n      */\n    function castVoteWithReason(uint proposalId, uint8 support, string calldata reason) external {\n        emit VoteCast(msg.sender, proposalId, support, castVoteInternal(msg.sender, proposalId, support), reason);\n    }\n\n    /**\n      * @notice Cast a vote for a proposal by signature\n      * @dev External function that accepts EIP-712 signatures for voting on proposals.\n      */\n    function castVoteBySig(uint proposalId, uint8 support, uint8 v, bytes32 r, bytes32 s) external {\n        bytes32 domainSeparator = keccak256(abi.encode(DOMAIN_TYPEHASH, keccak256(bytes(name)), getChainIdInternal(), address(this)));\n        bytes32 structHash = keccak256(abi.encode(BALLOT_TYPEHASH, proposalId, support));\n        bytes32 digest = keccak256(abi.encodePacked(\"\\x19\\x01\", domainSeparator, structHash));\n        address signatory = ecrecover(digest, v, r, s);\n        require(signatory != address(0), \"GovernorMike::castVoteBySig: invalid signature\");\n        emit VoteCast(signatory, proposalId, support, castVoteInternal(signatory, proposalId, support), \"\");\n    }\n\n    /**\n      * @notice Internal function that caries out voting logic\n      * @param voter The voter that is casting their vote\n      * @param proposalId The id of the proposal to vote on\n      * @param support The id of the issue to vote on\n      * @return The number of votes cast\n      */\n    function castVoteInternal(address voter, uint proposalId, uint8 support) internal returns (uint96) {\n        require(state(proposalId) == ProposalState.Active, \"GovernorMike::castVoteInternal: voting is closed\");\n        require(support <= 2, \"GovernorMike::castVoteInternal: invalid vote type\");\n        Proposal storage proposal = proposals[proposalId];\n        Receipt storage receipt = proposal.receipts[voter];\n        require(receipt.hasVoted == false, \"GovernorMike::castVoteInternal: voter already voted\");\n        uint96 votes = comp.getPriorVotes(voter, proposal.startBlock);\n\n        proposal.votes[support] = add256(proposal.votes[support], votes);\n\n        receipt.hasVoted = true;\n        receipt.support = support;\n        receipt.votes = votes;\n\n        return votes;\n    }\n\n    /**\n     * @notice View function which returns if an account is whitelisted\n     * @param account Account to check white list status of\n     * @return If the account is whitelisted\n     */\n    function isWhitelisted(address account) public view returns (bool) {\n        return (whitelistAccountExpirations[account] > now);\n    }\n\n    /**\n      * @notice Admin function for setting the voting delay\n      * @param newVotingDelay new voting delay, in blocks\n      */\n    function _setVotingDelay(uint newVotingDelay) external {\n        require(msg.sender == admin, \"GovernorMike::_setVotingDelay: admin only\");\n        require(newVotingDelay >= MIN_VOTING_DELAY && newVotingDelay <= MAX_VOTING_DELAY, \"GovernorMike::_setVotingDelay: invalid voting delay\");\n        uint oldVotingDelay = votingDelay;\n        votingDelay = newVotingDelay;\n\n        emit VotingDelaySet(oldVotingDelay,votingDelay);\n    }\n\n    /**\n      * @notice Admin function for setting the voting period\n      * @param newVotingPeriod new voting period, in blocks\n      */\n    function _setVotingPeriod(uint newVotingPeriod) external {\n        require(msg.sender == admin, \"GovernorMike::_setVotingPeriod: admin only\");\n        require(newVotingPeriod >= MIN_VOTING_PERIOD && newVotingPeriod <= MAX_VOTING_PERIOD, \"GovernorMike::_setVotingPeriod: invalid voting period\");\n        uint oldVotingPeriod = votingPeriod;\n        votingPeriod = newVotingPeriod;\n\n        emit VotingPeriodSet(oldVotingPeriod, votingPeriod);\n    }\n\n    /**\n      * @notice Admin function for setting the proposal threshold\n      * @dev newProposalThreshold must be greater than the hardcoded min\n      * @param newProposalThreshold new proposal threshold\n      */\n    function _setProposalThreshold(uint newProposalThreshold) external {\n        require(msg.sender == admin, \"GovernorMike::_setProposalThreshold: admin only\");\n        require(newProposalThreshold >= MIN_PROPOSAL_THRESHOLD && newProposalThreshold <= MAX_PROPOSAL_THRESHOLD, \"GovernorMike::_setProposalThreshold: invalid proposal threshold\");\n        uint oldProposalThreshold = proposalThreshold;\n        proposalThreshold = newProposalThreshold;\n\n        emit ProposalThresholdSet(oldProposalThreshold, proposalThreshold);\n    }\n\n    /**\n     * @notice Admin function for setting the whitelist expiration as a timestamp for an account. Whitelist status allows accounts to propose without meeting threshold\n     * @param account Account address to set whitelist expiration for\n     * @param expiration Expiration for account whitelist status as timestamp (if now < expiration, whitelisted)\n     */\n    function _setWhitelistAccountExpiration(address account, uint expiration) external {\n        require(msg.sender == admin || msg.sender == whitelistGuardian, \"GovernorMike::_setWhitelistAccountExpiration: admin only\");\n        whitelistAccountExpirations[account] = expiration;\n\n        emit WhitelistAccountExpirationSet(account, expiration);\n    }\n\n    /**\n     * @notice Admin function for setting the whitelistGuardian. WhitelistGuardian can cancel proposals from whitelisted addresses\n     * @param account Account to set whitelistGuardian to (0x0 to remove whitelistGuardian)\n     */\n     function _setWhitelistGuardian(address account) external {\n        require(msg.sender == admin, \"GovernorMike::_setWhitelistGuardian: admin only\");\n        address oldGuardian = whitelistGuardian;\n        whitelistGuardian = account;\n\n        emit WhitelistGuardianSet(oldGuardian, whitelistGuardian);\n     }\n\n    /**\n      * @notice Begins transfer of admin rights. The newPendingAdmin must call `_acceptAdmin` to finalize the transfer.\n      * @dev Admin function to begin change of admin. The newPendingAdmin must call `_acceptAdmin` to finalize the transfer.\n      * @param newPendingAdmin New pending admin.\n      */\n    function _setPendingAdmin(address newPendingAdmin) external {\n        // Check caller = admin\n        require(msg.sender == admin, \"GovernorMike:_setPendingAdmin: admin only\");\n\n        // Save current value, if any, for inclusion in log\n        address oldPendingAdmin = pendingAdmin;\n\n        // Store pendingAdmin with value newPendingAdmin\n        pendingAdmin = newPendingAdmin;\n\n        // Emit NewPendingAdmin(oldPendingAdmin, newPendingAdmin)\n        emit NewPendingAdmin(oldPendingAdmin, newPendingAdmin);\n    }\n\n    /**\n      * @notice Accepts transfer of admin rights. msg.sender must be pendingAdmin\n      * @dev Admin function for pending admin to accept role and update admin\n      */\n    function _acceptAdmin() external {\n        // Check caller is pendingAdmin and pendingAdmin  address(0)\n        require(msg.sender == pendingAdmin && msg.sender != address(0), \"GovernorMike:_acceptAdmin: pending admin only\");\n\n        // Save current values for inclusion in log\n        address oldAdmin = admin;\n        address oldPendingAdmin = pendingAdmin;\n\n        // Store admin with value pendingAdmin\n        admin = pendingAdmin;\n\n        // Clear the pending value\n        pendingAdmin = address(0);\n\n        emit NewAdmin(oldAdmin, admin);\n        emit NewPendingAdmin(oldPendingAdmin, pendingAdmin);\n    }\n\n    function add256(uint256 a, uint256 b) internal pure returns (uint) {\n        uint c = a + b;\n        require(c >= a, \"addition overflow\");\n        return c;\n    }\n\n    function sub256(uint256 a, uint256 b) internal pure returns (uint) {\n        require(b <= a, \"subtraction underflow\");\n        return a - b;\n    }\n\n    function getChainIdInternal() internal pure returns (uint) {\n        uint chainId;\n        assembly { chainId := chainid() }\n        return chainId;\n    }\n}\n",
  "sourcePath": "/Users/lukepark/Desktop/Governor-M/contracts/GovernorMikeDelegate.sol",
  "compiler": {
    "name": "solc",
    "version": "0.5.16+commit.9c3226ce.Emscripten.clang"
  },
  "schemaVersion": "3.4.3",
  "updatedAt": "2021-12-27T02:39:30.426Z",
  "devdoc": {
    "methods": {
      "_acceptAdmin()": {
        "details": "Admin function for pending admin to accept role and update admin"
      },
      "_setPendingAdmin(address)": {
        "details": "Admin function to begin change of admin. The newPendingAdmin must call `_acceptAdmin` to finalize the transfer.",
        "params": {
          "newPendingAdmin": "New pending admin."
        }
      },
      "_setProposalThreshold(uint256)": {
        "details": "newProposalThreshold must be greater than the hardcoded min",
        "params": {
          "newProposalThreshold": "new proposal threshold"
        }
      },
      "_setVotingDelay(uint256)": {
        "params": {
          "newVotingDelay": "new voting delay, in blocks"
        }
      },
      "_setVotingPeriod(uint256)": {
        "params": {
          "newVotingPeriod": "new voting period, in blocks"
        }
      },
      "_setWhitelistAccountExpiration(address,uint256)": {
        "params": {
          "account": "Account address to set whitelist expiration for",
          "expiration": "Expiration for account whitelist status as timestamp (if now < expiration, whitelisted)"
        }
      },
      "_setWhitelistGuardian(address)": {
        "params": {
          "account": "Account to set whitelistGuardian to (0x0 to remove whitelistGuardian)"
        }
      },
      "cancel(uint256)": {
        "params": {
          "proposalId": "The id of the proposal to cancel"
        }
      },
      "castVote(uint256,uint8)": {
        "params": {
          "proposalId": "The id of the proposal to vote on",
          "support": "The id of the issue to vote on"
        }
      },
      "castVoteBySig(uint256,uint8,uint8,bytes32,bytes32)": {
        "details": "External function that accepts EIP-712 signatures for voting on proposals."
      },
      "castVoteWithReason(uint256,uint8,string)": {
        "params": {
          "proposalId": "The id of the proposal to vote on",
          "reason": "The reason given for the vote by the voter",
          "support": "The id of the issue to vote on"
        }
      },
      "execute(uint256)": {
        "params": {
          "proposalId": "The id of the proposal to execute"
        }
      },
      "getActions(uint256,uint256)": {
        "params": {
          "issueNum": "the number of the issue",
          "proposalId": "the id of the proposal"
        },
        "return": "Targets, values, signatures, and calldatas of the issue actions"
      },
      "getReceipt(uint256,address)": {
        "params": {
          "proposalId": "the id of proposal",
          "voter": "The address of the voter"
        },
        "return": "The voting receipt"
      },
      "initialize(address,address,uint256,uint256,uint256)": {
        "params": {
          "comp_": "The address of the COMP token",
          "proposalThreshold_": "The initial proposal threshold",
          "timelock_": "The address of the Timelock",
          "votingDelay_": "The initial voting delay",
          "votingPeriod_": "The initial voting period"
        }
      },
      "isWhitelisted(address)": {
        "params": {
          "account": "Account to check white list status of"
        },
        "return": "If the account is whitelisted"
      },
      "propose((address[],uint256[],string[],bytes[],string)[])": {
        "params": {
          "issues_": "Choices"
        },
        "return": "Proposal id of new proposal"
      },
      "queue(uint256)": {
        "params": {
          "proposalId": "The id of the proposal to queue"
        }
      },
      "state(uint256)": {
        "params": {
          "proposalId": "The id of the proposal"
        },
        "return": "Proposal state"
      }
    }
  },
  "userdoc": {
    "methods": {
      "_acceptAdmin()": {
        "notice": "Accepts transfer of admin rights. msg.sender must be pendingAdmin"
      },
      "_setPendingAdmin(address)": {
        "notice": "Begins transfer of admin rights. The newPendingAdmin must call `_acceptAdmin` to finalize the transfer."
      },
      "_setProposalThreshold(uint256)": {
        "notice": "Admin function for setting the proposal threshold"
      },
      "_setVotingDelay(uint256)": {
        "notice": "Admin function for setting the voting delay"
      },
      "_setVotingPeriod(uint256)": {
        "notice": "Admin function for setting the voting period"
      },
      "_setWhitelistAccountExpiration(address,uint256)": {
        "notice": "Admin function for setting the whitelist expiration as a timestamp for an account. Whitelist status allows accounts to propose without meeting threshold"
      },
      "_setWhitelistGuardian(address)": {
        "notice": "Admin function for setting the whitelistGuardian. WhitelistGuardian can cancel proposals from whitelisted addresses"
      },
      "cancel(uint256)": {
        "notice": "Cancels a proposal only if sender is the proposer, or proposer delegates dropped below proposal threshold"
      },
      "castVote(uint256,uint8)": {
        "notice": "Cast a vote for a proposal"
      },
      "castVoteBySig(uint256,uint8,uint8,bytes32,bytes32)": {
        "notice": "Cast a vote for a proposal by signature"
      },
      "castVoteWithReason(uint256,uint8,string)": {
        "notice": "Cast a vote for a proposal with a reason"
      },
      "execute(uint256)": {
        "notice": "Executes a queued proposal if eta has passed"
      },
      "getActions(uint256,uint256)": {
        "notice": "Gets actions of a proposal"
      },
      "getReceipt(uint256,address)": {
        "notice": "Gets the receipt for a voter on a given proposal"
      },
      "initialize(address,address,uint256,uint256,uint256)": {
        "notice": "Used to initialize the contract during delegator contructor"
      },
      "isWhitelisted(address)": {
        "notice": "View function which returns if an account is whitelisted"
      },
      "propose((address[],uint256[],string[],bytes[],string)[])": {
        "notice": "Function used to propose a new proposal with multiple issues. Sender must have delegates above the proposal threshold"
      },
      "queue(uint256)": {
        "notice": "Queues a proposal of state succeeded"
      },
      "state(uint256)": {
        "notice": "Gets the state of a proposal"
      }
    }
  }
}