{
  "contractName": "GovernorMikeDelegator",
  "abi": [
    {
      "inputs": [
        {
          "internalType": "address",
          "name": "timelock_",
          "type": "address"
        },
        {
          "internalType": "address",
          "name": "comp_",
          "type": "address"
        },
        {
          "internalType": "address",
          "name": "admin_",
          "type": "address"
        },
        {
          "internalType": "address",
          "name": "implementation_",
          "type": "address"
        },
        {
          "internalType": "uint256",
          "name": "votingPeriod_",
          "type": "uint256"
        },
        {
          "internalType": "uint256",
          "name": "votingDelay_",
          "type": "uint256"
        },
        {
          "internalType": "uint256",
          "name": "proposalThreshold_",
          "type": "uint256"
        }
      ],
      "stateMutability": "nonpayable",
      "type": "constructor"
    },
    {
      "anonymous": false,
      "inputs": [
        {
          "indexed": false,
          "internalType": "address",
          "name": "oldAdmin",
          "type": "address"
        },
        {
          "indexed": false,
          "internalType": "address",
          "name": "newAdmin",
          "type": "address"
        }
      ],
      "name": "NewAdmin",
      "type": "event"
    },
    {
      "anonymous": false,
      "inputs": [
        {
          "indexed": false,
          "internalType": "address",
          "name": "oldImplementation",
          "type": "address"
        },
        {
          "indexed": false,
          "internalType": "address",
          "name": "newImplementation",
          "type": "address"
        }
      ],
      "name": "NewImplementation",
      "type": "event"
    },
    {
      "anonymous": false,
      "inputs": [
        {
          "indexed": false,
          "internalType": "address",
          "name": "oldPendingAdmin",
          "type": "address"
        },
        {
          "indexed": false,
          "internalType": "address",
          "name": "newPendingAdmin",
          "type": "address"
        }
      ],
      "name": "NewPendingAdmin",
      "type": "event"
    },
    {
      "anonymous": false,
      "inputs": [
        {
          "indexed": false,
          "internalType": "uint256",
          "name": "id",
          "type": "uint256"
        }
      ],
      "name": "ProposalCanceled",
      "type": "event"
    },
    {
      "anonymous": false,
      "inputs": [
        {
          "indexed": false,
          "internalType": "uint256",
          "name": "id",
          "type": "uint256"
        },
        {
          "indexed": false,
          "internalType": "address",
          "name": "proposer",
          "type": "address"
        },
        {
          "indexed": false,
          "internalType": "uint256",
          "name": "startBlock",
          "type": "uint256"
        },
        {
          "indexed": false,
          "internalType": "uint256",
          "name": "endBlock",
          "type": "uint256"
        }
      ],
      "name": "ProposalCreated",
      "type": "event"
    },
    {
      "anonymous": false,
      "inputs": [
        {
          "indexed": false,
          "internalType": "uint256",
          "name": "id",
          "type": "uint256"
        }
      ],
      "name": "ProposalExecuted",
      "type": "event"
    },
    {
      "anonymous": false,
      "inputs": [
        {
          "indexed": false,
          "internalType": "uint256",
          "name": "id",
          "type": "uint256"
        },
        {
          "indexed": false,
          "internalType": "uint256",
          "name": "eta",
          "type": "uint256"
        }
      ],
      "name": "ProposalQueued",
      "type": "event"
    },
    {
      "anonymous": false,
      "inputs": [
        {
          "indexed": false,
          "internalType": "uint256",
          "name": "oldProposalThreshold",
          "type": "uint256"
        },
        {
          "indexed": false,
          "internalType": "uint256",
          "name": "newProposalThreshold",
          "type": "uint256"
        }
      ],
      "name": "ProposalThresholdSet",
      "type": "event"
    },
    {
      "anonymous": false,
      "inputs": [
        {
          "indexed": true,
          "internalType": "address",
          "name": "voter",
          "type": "address"
        },
        {
          "indexed": false,
          "internalType": "uint256",
          "name": "proposalId",
          "type": "uint256"
        },
        {
          "indexed": false,
          "internalType": "uint8",
          "name": "support",
          "type": "uint8"
        },
        {
          "indexed": false,
          "internalType": "uint256",
          "name": "votes",
          "type": "uint256"
        },
        {
          "indexed": false,
          "internalType": "string",
          "name": "reason",
          "type": "string"
        }
      ],
      "name": "VoteCast",
      "type": "event"
    },
    {
      "anonymous": false,
      "inputs": [
        {
          "indexed": false,
          "internalType": "uint256",
          "name": "oldVotingDelay",
          "type": "uint256"
        },
        {
          "indexed": false,
          "internalType": "uint256",
          "name": "newVotingDelay",
          "type": "uint256"
        }
      ],
      "name": "VotingDelaySet",
      "type": "event"
    },
    {
      "anonymous": false,
      "inputs": [
        {
          "indexed": false,
          "internalType": "uint256",
          "name": "oldVotingPeriod",
          "type": "uint256"
        },
        {
          "indexed": false,
          "internalType": "uint256",
          "name": "newVotingPeriod",
          "type": "uint256"
        }
      ],
      "name": "VotingPeriodSet",
      "type": "event"
    },
    {
      "anonymous": false,
      "inputs": [
        {
          "indexed": false,
          "internalType": "address",
          "name": "account",
          "type": "address"
        },
        {
          "indexed": false,
          "internalType": "uint256",
          "name": "expiration",
          "type": "uint256"
        }
      ],
      "name": "WhitelistAccountExpirationSet",
      "type": "event"
    },
    {
      "anonymous": false,
      "inputs": [
        {
          "indexed": false,
          "internalType": "address",
          "name": "oldGuardian",
          "type": "address"
        },
        {
          "indexed": false,
          "internalType": "address",
          "name": "newGuardian",
          "type": "address"
        }
      ],
      "name": "WhitelistGuardianSet",
      "type": "event"
    },
    {
      "stateMutability": "payable",
      "type": "fallback"
    },
    {
      "inputs": [],
      "name": "admin",
      "outputs": [
        {
          "internalType": "address",
          "name": "",
          "type": "address"
        }
      ],
      "stateMutability": "view",
      "type": "function"
    },
    {
      "inputs": [],
      "name": "implementation",
      "outputs": [
        {
          "internalType": "address",
          "name": "",
          "type": "address"
        }
      ],
      "stateMutability": "view",
      "type": "function"
    },
    {
      "inputs": [],
      "name": "pendingAdmin",
      "outputs": [
        {
          "internalType": "address",
          "name": "",
          "type": "address"
        }
      ],
      "stateMutability": "view",
      "type": "function"
    },
    {
      "inputs": [
        {
          "internalType": "address",
          "name": "implementation_",
          "type": "address"
        }
      ],
      "name": "_setImplementation",
      "outputs": [],
      "stateMutability": "nonpayable",
      "type": "function"
    }
  ],
  "bytecode": "0x60806040523480156200001157600080fd5b5060405162000e8238038062000e82833981810160405281019062000037919062000478565b336000806101000a81548173ffffffffffffffffffffffffffffffffffffffff021916908373ffffffffffffffffffffffffffffffffffffffff16021790555062000120848888868686604051602401620000979594939291906200054d565b6040516020818303038152906040527fd13f90b4000000000000000000000000000000000000000000000000000000007bffffffffffffffffffffffffffffffffffffffffffffffffffffffff19166020820180517bffffffffffffffffffffffffffffffffffffffffffffffffffffffff83818316178352505050506200017e60201b60201c565b62000131846200020660201b60201c565b846000806101000a81548173ffffffffffffffffffffffffffffffffffffffff021916908373ffffffffffffffffffffffffffffffffffffffff16021790555050505050505050620007da565b6000808373ffffffffffffffffffffffffffffffffffffffff1683604051620001a891906200062d565b600060405180830381855af49150503d8060008114620001e5576040519150601f19603f3d011682016040523d82523d6000602084013e620001ea565b606091505b5091509150600082141562000200573d60208201fd5b50505050565b60008054906101000a900473ffffffffffffffffffffffffffffffffffffffff1673ffffffffffffffffffffffffffffffffffffffff163373ffffffffffffffffffffffffffffffffffffffff161462000297576040517f08c379a00000000000000000000000000000000000000000000000000000000081526004016200028e90620006cd565b60405180910390fd5b600073ffffffffffffffffffffffffffffffffffffffff168173ffffffffffffffffffffffffffffffffffffffff1614156200030a576040517f08c379a000000000000000000000000000000000000000000000000000000000815260040162000301906200078b565b60405180910390fd5b6000600260009054906101000a900473ffffffffffffffffffffffffffffffffffffffff16905081600260006101000a81548173ffffffffffffffffffffffffffffffffffffffff021916908373ffffffffffffffffffffffffffffffffffffffff1602179055507fd604de94d45953f9138079ec1b82d533cb2160c906d1076d1f7ed54befbca97a81600260009054906101000a900473ffffffffffffffffffffffffffffffffffffffff16604051620003c7929190620007ad565b60405180910390a15050565b600080fd5b600073ffffffffffffffffffffffffffffffffffffffff82169050919050565b60006200040582620003d8565b9050919050565b6200041781620003f8565b81146200042357600080fd5b50565b60008151905062000437816200040c565b92915050565b6000819050919050565b62000452816200043d565b81146200045e57600080fd5b50565b600081519050620004728162000447565b92915050565b600080600080600080600060e0888a0312156200049a5762000499620003d3565b5b6000620004aa8a828b0162000426565b9750506020620004bd8a828b0162000426565b9650506040620004d08a828b0162000426565b9550506060620004e38a828b0162000426565b9450506080620004f68a828b0162000461565b93505060a0620005098a828b0162000461565b92505060c06200051c8a828b0162000461565b91505092959891949750929550565b6200053681620003f8565b82525050565b62000547816200043d565b82525050565b600060a0820190506200056460008301886200052b565b6200057360208301876200052b565b6200058260408301866200053c565b6200059160608301856200053c565b620005a060808301846200053c565b9695505050505050565b600081519050919050565b600081905092915050565b60005b83811015620005e0578082015181840152602081019050620005c3565b83811115620005f0576000848401525b50505050565b60006200060382620005aa565b6200060f8185620005b5565b935062000621818560208601620005c0565b80840191505092915050565b60006200063b8284620005f6565b915081905092915050565b600082825260208201905092915050565b7f476f7665726e6f724d696b6544656c656761746f723a3a5f736574496d706c6560008201527f6d656e746174696f6e3a2061646d696e206f6e6c790000000000000000000000602082015250565b6000620006b560358362000646565b9150620006c28262000657565b604082019050919050565b60006020820190508181036000830152620006e881620006a6565b9050919050565b7f476f7665726e6f724d696b6544656c656761746f723a3a5f736574496d706c6560008201527f6d656e746174696f6e3a20696e76616c696420696d706c656d656e746174696f60208201527f6e20616464726573730000000000000000000000000000000000000000000000604082015250565b60006200077360498362000646565b91506200078082620006ef565b606082019050919050565b60006020820190508181036000830152620007a68162000764565b9050919050565b6000604082019050620007c460008301856200052b565b620007d360208301846200052b565b9392505050565b61069880620007ea6000396000f3fe6080604052600436106100435760003560e01c806326782247146100ed5780635c60da1b14610118578063bb913f4114610143578063f851a4401461016c57610044565b5b6000600260009054906101000a900473ffffffffffffffffffffffffffffffffffffffff1673ffffffffffffffffffffffffffffffffffffffff1660003660405161009092919061040b565b600060405180830381855af49150503d80600081146100cb576040519150601f19603f3d011682016040523d82523d6000602084013e6100d0565b606091505b505090506040513d6000823e81600081146100e9573d82f35b3d82fd5b3480156100f957600080fd5b50610102610197565b60405161010f9190610465565b60405180910390f35b34801561012457600080fd5b5061012d6101bd565b60405161013a9190610465565b60405180910390f35b34801561014f57600080fd5b5061016a600480360381019061016591906104b1565b6101e3565b005b34801561017857600080fd5b506101816103a8565b60405161018e9190610465565b60405180910390f35b600160009054906101000a900473ffffffffffffffffffffffffffffffffffffffff1681565b600260009054906101000a900473ffffffffffffffffffffffffffffffffffffffff1681565b60008054906101000a900473ffffffffffffffffffffffffffffffffffffffff1673ffffffffffffffffffffffffffffffffffffffff163373ffffffffffffffffffffffffffffffffffffffff1614610271576040517f08c379a000000000000000000000000000000000000000000000000000000000815260040161026890610561565b60405180910390fd5b600073ffffffffffffffffffffffffffffffffffffffff168173ffffffffffffffffffffffffffffffffffffffff1614156102e1576040517f08c379a00000000000000000000000000000000000000000000000000000000081526004016102d890610619565b60405180910390fd5b6000600260009054906101000a900473ffffffffffffffffffffffffffffffffffffffff16905081600260006101000a81548173ffffffffffffffffffffffffffffffffffffffff021916908373ffffffffffffffffffffffffffffffffffffffff1602179055507fd604de94d45953f9138079ec1b82d533cb2160c906d1076d1f7ed54befbca97a81600260009054906101000a900473ffffffffffffffffffffffffffffffffffffffff1660405161039c929190610639565b60405180910390a15050565b60008054906101000a900473ffffffffffffffffffffffffffffffffffffffff1681565b600081905092915050565b82818337600083830152505050565b60006103f283856103cc565b93506103ff8385846103d7565b82840190509392505050565b60006104188284866103e6565b91508190509392505050565b600073ffffffffffffffffffffffffffffffffffffffff82169050919050565b600061044f82610424565b9050919050565b61045f81610444565b82525050565b600060208201905061047a6000830184610456565b92915050565b600080fd5b61048e81610444565b811461049957600080fd5b50565b6000813590506104ab81610485565b92915050565b6000602082840312156104c7576104c6610480565b5b60006104d58482850161049c565b91505092915050565b600082825260208201905092915050565b7f476f7665726e6f724d696b6544656c656761746f723a3a5f736574496d706c6560008201527f6d656e746174696f6e3a2061646d696e206f6e6c790000000000000000000000602082015250565b600061054b6035836104de565b9150610556826104ef565b604082019050919050565b6000602082019050818103600083015261057a8161053e565b9050919050565b7f476f7665726e6f724d696b6544656c656761746f723a3a5f736574496d706c6560008201527f6d656e746174696f6e3a20696e76616c696420696d706c656d656e746174696f60208201527f6e20616464726573730000000000000000000000000000000000000000000000604082015250565b60006106036049836104de565b915061060e82610581565b606082019050919050565b60006020820190508181036000830152610632816105f6565b9050919050565b600060408201905061064e6000830185610456565b61065b6020830184610456565b939250505056fea2646970667358221220562ab0d5ed74251b8004568fd599776fa1d3ef4af1af4c53bd0210a12f63580764736f6c634300080a0033",
  "immutableReferences": {},
  "source": "// SPDX-License-Identifier: BSD-3-Clause\n\npragma solidity ^0.8.0;\n\nimport \"./GovernorMikeInterfaces.sol\";\n\n/**\n * @title GovernorMikeDelegator\n * \n * References\n *\n * - https://github.com/compound-finance/compound-protocol/blob/master/contracts/Governance/GovernorBravoDelegator.sol\n */\ncontract GovernorMikeDelegator is GovernorMikeDelegatorStorage, GovernorMikeEvents {\n\tconstructor(\n        address timelock_,\n        address comp_,\n        address admin_,\n        address implementation_,\n        uint votingPeriod_,\n        uint votingDelay_,\n        uint proposalThreshold_\n    ) {\n\n        // Admin set to msg.sender for initialization\n        admin = msg.sender;\n\n        delegateTo(\n            implementation_,\n            abi.encodeWithSignature(\n                \"initialize(address,address,uint256,uint256,uint256)\",\n                timelock_,\n                comp_,\n                votingPeriod_,\n                votingDelay_,\n                proposalThreshold_\n            )\n        );\n\n        _setImplementation(implementation_);\n\n\t\tadmin = admin_;\n\t}\n\n\t/**\n     * @notice Called by the admin to update the implementation of the delegator\n     * @param implementation_ The address of the new implementation for delegation\n     */\n    function _setImplementation(address implementation_) public {\n        require(msg.sender == admin, \"GovernorMikeDelegator::_setImplementation: admin only\");\n        require(implementation_ != address(0), \"GovernorMikeDelegator::_setImplementation: invalid implementation address\");\n\n        address oldImplementation = implementation;\n        implementation = implementation_;\n\n        emit NewImplementation(oldImplementation, implementation);\n    }\n\n    /**\n     * @notice Internal method to delegate execution to another contract\n     * @dev It returns to the external caller whatever the implementation returns or forwards reverts\n     * @param callee The contract to delegatecall\n     * @param data The raw data to delegatecall\n     */\n    function delegateTo(address callee, bytes memory data) internal {\n        (bool success, bytes memory returnData) = callee.delegatecall(data);\n        assembly {\n            if eq(success, 0) {\n                revert(add(returnData, 0x20), returndatasize())\n            }\n        }\n    }\n\n\t/**\n     * @dev Delegates execution to an implementation contract.\n     * It returns to the external caller whatever the implementation returns\n     * or forwards reverts.\n     */\n    fallback() external payable {\n        // delegate all other functions to current implementation\n        (bool success, ) = implementation.delegatecall(msg.data);\n\n        assembly {\n              let free_mem_ptr := mload(0x40)\n              returndatacopy(free_mem_ptr, 0, returndatasize())\n\n              switch success\n              case 0 { revert(free_mem_ptr, returndatasize()) }\n              default { return(free_mem_ptr, returndatasize()) }\n        }\n    }\n}\n",
  "sourcePath": "/Users/lukepark/Desktop/D3LAB/Governor/dev/Governor-M/contracts/GovernorMikeDelegator.sol",
  "compiler": {
    "name": "solc",
    "version": "0.8.10+commit.fc410830.Emscripten.clang"
  },
  "schemaVersion": "3.4.3",
  "updatedAt": "2022-06-27T10:03:38.443Z",
  "devdoc": {
    "kind": "dev",
    "methods": {
      "_setImplementation(address)": {
        "params": {
          "implementation_": "The address of the new implementation for delegation"
        }
      }
    },
    "title": "GovernorMikeDelegator  References - https://github.com/compound-finance/compound-protocol/blob/master/contracts/Governance/GovernorBravoDelegator.sol",
    "version": 1
  },
  "userdoc": {
    "events": {
      "NewAdmin(address,address)": {
        "notice": "Emitted when pendingAdmin is accepted, which means admin is updated"
      },
      "NewImplementation(address,address)": {
        "notice": "Emitted when implementation is changed"
      },
      "NewPendingAdmin(address,address)": {
        "notice": "Emitted when pendingAdmin is changed"
      },
      "ProposalCanceled(uint256)": {
        "notice": "An event emitted when a proposal has been canceled"
      },
      "ProposalCreated(uint256,address,uint256,uint256)": {
        "notice": "An event emitted when a new proposal is created"
      },
      "ProposalExecuted(uint256)": {
        "notice": "An event emitted when a proposal has been executed in the Timelock"
      },
      "ProposalQueued(uint256,uint256)": {
        "notice": "An event emitted when a proposal has been queued in the Timelock"
      },
      "ProposalThresholdSet(uint256,uint256)": {
        "notice": "Emitted when proposal threshold is set"
      },
      "VoteCast(address,uint256,uint8,uint256,string)": {
        "notice": "An event emitted when a vote has been cast on a proposal"
      },
      "VotingDelaySet(uint256,uint256)": {
        "notice": "An event emitted when the voting delay is set"
      },
      "VotingPeriodSet(uint256,uint256)": {
        "notice": "An event emitted when the voting period is set"
      },
      "WhitelistAccountExpirationSet(address,uint256)": {
        "notice": "Emitted when whitelist account expiration is set"
      },
      "WhitelistGuardianSet(address,address)": {
        "notice": "Emitted when the whitelistGuardian is set"
      }
    },
    "kind": "user",
    "methods": {
      "_setImplementation(address)": {
        "notice": "Called by the admin to update the implementation of the delegator"
      },
      "admin()": {
        "notice": "Administrator for this contract"
      },
      "implementation()": {
        "notice": "Active brains of Governor"
      },
      "pendingAdmin()": {
        "notice": "Pending administrator for this contract"
      }
    },
    "version": 1
  }
}