{
  "contractName": "GovernorMikeDelegate",
  "abi": [
    {
      "anonymous": false,
      "inputs": [
        {
          "indexed": false,
          "internalType": "address",
          "name": "oldAdmin",
          "type": "address"
        },
        {
          "indexed": false,
          "internalType": "address",
          "name": "newAdmin",
          "type": "address"
        }
      ],
      "name": "NewAdmin",
      "type": "event"
    },
    {
      "anonymous": false,
      "inputs": [
        {
          "indexed": false,
          "internalType": "address",
          "name": "oldImplementation",
          "type": "address"
        },
        {
          "indexed": false,
          "internalType": "address",
          "name": "newImplementation",
          "type": "address"
        }
      ],
      "name": "NewImplementation",
      "type": "event"
    },
    {
      "anonymous": false,
      "inputs": [
        {
          "indexed": false,
          "internalType": "address",
          "name": "oldPendingAdmin",
          "type": "address"
        },
        {
          "indexed": false,
          "internalType": "address",
          "name": "newPendingAdmin",
          "type": "address"
        }
      ],
      "name": "NewPendingAdmin",
      "type": "event"
    },
    {
      "anonymous": false,
      "inputs": [
        {
          "indexed": false,
          "internalType": "uint256",
          "name": "id",
          "type": "uint256"
        }
      ],
      "name": "ProposalCanceled",
      "type": "event"
    },
    {
      "anonymous": false,
      "inputs": [
        {
          "indexed": false,
          "internalType": "uint256",
          "name": "id",
          "type": "uint256"
        },
        {
          "indexed": false,
          "internalType": "address",
          "name": "proposer",
          "type": "address"
        },
        {
          "indexed": false,
          "internalType": "uint256",
          "name": "startBlock",
          "type": "uint256"
        },
        {
          "indexed": false,
          "internalType": "uint256",
          "name": "endBlock",
          "type": "uint256"
        }
      ],
      "name": "ProposalCreated",
      "type": "event"
    },
    {
      "anonymous": false,
      "inputs": [
        {
          "indexed": false,
          "internalType": "uint256",
          "name": "id",
          "type": "uint256"
        }
      ],
      "name": "ProposalExecuted",
      "type": "event"
    },
    {
      "anonymous": false,
      "inputs": [
        {
          "indexed": false,
          "internalType": "uint256",
          "name": "id",
          "type": "uint256"
        },
        {
          "indexed": false,
          "internalType": "uint256",
          "name": "eta",
          "type": "uint256"
        }
      ],
      "name": "ProposalQueued",
      "type": "event"
    },
    {
      "anonymous": false,
      "inputs": [
        {
          "indexed": false,
          "internalType": "uint256",
          "name": "oldProposalThreshold",
          "type": "uint256"
        },
        {
          "indexed": false,
          "internalType": "uint256",
          "name": "newProposalThreshold",
          "type": "uint256"
        }
      ],
      "name": "ProposalThresholdSet",
      "type": "event"
    },
    {
      "anonymous": false,
      "inputs": [
        {
          "indexed": true,
          "internalType": "address",
          "name": "voter",
          "type": "address"
        },
        {
          "indexed": false,
          "internalType": "uint256",
          "name": "proposalId",
          "type": "uint256"
        },
        {
          "indexed": false,
          "internalType": "uint8",
          "name": "support",
          "type": "uint8"
        },
        {
          "indexed": false,
          "internalType": "uint256",
          "name": "votes",
          "type": "uint256"
        },
        {
          "indexed": false,
          "internalType": "string",
          "name": "reason",
          "type": "string"
        }
      ],
      "name": "VoteCast",
      "type": "event"
    },
    {
      "anonymous": false,
      "inputs": [
        {
          "indexed": false,
          "internalType": "uint256",
          "name": "oldVotingDelay",
          "type": "uint256"
        },
        {
          "indexed": false,
          "internalType": "uint256",
          "name": "newVotingDelay",
          "type": "uint256"
        }
      ],
      "name": "VotingDelaySet",
      "type": "event"
    },
    {
      "anonymous": false,
      "inputs": [
        {
          "indexed": false,
          "internalType": "uint256",
          "name": "oldVotingPeriod",
          "type": "uint256"
        },
        {
          "indexed": false,
          "internalType": "uint256",
          "name": "newVotingPeriod",
          "type": "uint256"
        }
      ],
      "name": "VotingPeriodSet",
      "type": "event"
    },
    {
      "anonymous": false,
      "inputs": [
        {
          "indexed": false,
          "internalType": "address",
          "name": "account",
          "type": "address"
        },
        {
          "indexed": false,
          "internalType": "uint256",
          "name": "expiration",
          "type": "uint256"
        }
      ],
      "name": "WhitelistAccountExpirationSet",
      "type": "event"
    },
    {
      "anonymous": false,
      "inputs": [
        {
          "indexed": false,
          "internalType": "address",
          "name": "oldGuardian",
          "type": "address"
        },
        {
          "indexed": false,
          "internalType": "address",
          "name": "newGuardian",
          "type": "address"
        }
      ],
      "name": "WhitelistGuardianSet",
      "type": "event"
    },
    {
      "inputs": [],
      "name": "BALLOT_TYPEHASH",
      "outputs": [
        {
          "internalType": "bytes32",
          "name": "",
          "type": "bytes32"
        }
      ],
      "stateMutability": "view",
      "type": "function"
    },
    {
      "inputs": [],
      "name": "DOMAIN_TYPEHASH",
      "outputs": [
        {
          "internalType": "bytes32",
          "name": "",
          "type": "bytes32"
        }
      ],
      "stateMutability": "view",
      "type": "function"
    },
    {
      "inputs": [],
      "name": "MAX_PROPOSAL_THRESHOLD",
      "outputs": [
        {
          "internalType": "uint256",
          "name": "",
          "type": "uint256"
        }
      ],
      "stateMutability": "view",
      "type": "function"
    },
    {
      "inputs": [],
      "name": "MAX_VOTING_DELAY",
      "outputs": [
        {
          "internalType": "uint256",
          "name": "",
          "type": "uint256"
        }
      ],
      "stateMutability": "view",
      "type": "function"
    },
    {
      "inputs": [],
      "name": "MAX_VOTING_PERIOD",
      "outputs": [
        {
          "internalType": "uint256",
          "name": "",
          "type": "uint256"
        }
      ],
      "stateMutability": "view",
      "type": "function"
    },
    {
      "inputs": [],
      "name": "MIN_PROPOSAL_THRESHOLD",
      "outputs": [
        {
          "internalType": "uint256",
          "name": "",
          "type": "uint256"
        }
      ],
      "stateMutability": "view",
      "type": "function"
    },
    {
      "inputs": [],
      "name": "MIN_VOTING_DELAY",
      "outputs": [
        {
          "internalType": "uint256",
          "name": "",
          "type": "uint256"
        }
      ],
      "stateMutability": "view",
      "type": "function"
    },
    {
      "inputs": [],
      "name": "MIN_VOTING_PERIOD",
      "outputs": [
        {
          "internalType": "uint256",
          "name": "",
          "type": "uint256"
        }
      ],
      "stateMutability": "view",
      "type": "function"
    },
    {
      "inputs": [],
      "name": "admin",
      "outputs": [
        {
          "internalType": "address",
          "name": "",
          "type": "address"
        }
      ],
      "stateMutability": "view",
      "type": "function"
    },
    {
      "inputs": [],
      "name": "comp",
      "outputs": [
        {
          "internalType": "contract CompInterface",
          "name": "",
          "type": "address"
        }
      ],
      "stateMutability": "view",
      "type": "function"
    },
    {
      "inputs": [],
      "name": "implementation",
      "outputs": [
        {
          "internalType": "address",
          "name": "",
          "type": "address"
        }
      ],
      "stateMutability": "view",
      "type": "function"
    },
    {
      "inputs": [],
      "name": "initialProposalId",
      "outputs": [
        {
          "internalType": "uint256",
          "name": "",
          "type": "uint256"
        }
      ],
      "stateMutability": "view",
      "type": "function"
    },
    {
      "inputs": [
        {
          "internalType": "address",
          "name": "",
          "type": "address"
        }
      ],
      "name": "latestProposalIds",
      "outputs": [
        {
          "internalType": "uint256",
          "name": "",
          "type": "uint256"
        }
      ],
      "stateMutability": "view",
      "type": "function"
    },
    {
      "inputs": [],
      "name": "name",
      "outputs": [
        {
          "internalType": "string",
          "name": "",
          "type": "string"
        }
      ],
      "stateMutability": "view",
      "type": "function"
    },
    {
      "inputs": [],
      "name": "pendingAdmin",
      "outputs": [
        {
          "internalType": "address",
          "name": "",
          "type": "address"
        }
      ],
      "stateMutability": "view",
      "type": "function"
    },
    {
      "inputs": [],
      "name": "proposalCount",
      "outputs": [
        {
          "internalType": "uint256",
          "name": "",
          "type": "uint256"
        }
      ],
      "stateMutability": "view",
      "type": "function"
    },
    {
      "inputs": [],
      "name": "proposalMaxOperations",
      "outputs": [
        {
          "internalType": "uint256",
          "name": "",
          "type": "uint256"
        }
      ],
      "stateMutability": "view",
      "type": "function"
    },
    {
      "inputs": [],
      "name": "proposalThreshold",
      "outputs": [
        {
          "internalType": "uint256",
          "name": "",
          "type": "uint256"
        }
      ],
      "stateMutability": "view",
      "type": "function"
    },
    {
      "inputs": [
        {
          "internalType": "uint256",
          "name": "",
          "type": "uint256"
        }
      ],
      "name": "proposals",
      "outputs": [
        {
          "internalType": "uint256",
          "name": "id",
          "type": "uint256"
        },
        {
          "internalType": "address",
          "name": "proposer",
          "type": "address"
        },
        {
          "internalType": "uint256",
          "name": "eta",
          "type": "uint256"
        },
        {
          "internalType": "uint256",
          "name": "startBlock",
          "type": "uint256"
        },
        {
          "internalType": "uint256",
          "name": "endBlock",
          "type": "uint256"
        },
        {
          "internalType": "bool",
          "name": "canceled",
          "type": "bool"
        },
        {
          "internalType": "bool",
          "name": "executed",
          "type": "bool"
        }
      ],
      "stateMutability": "view",
      "type": "function"
    },
    {
      "inputs": [],
      "name": "quorumVotes",
      "outputs": [
        {
          "internalType": "uint256",
          "name": "",
          "type": "uint256"
        }
      ],
      "stateMutability": "view",
      "type": "function"
    },
    {
      "inputs": [],
      "name": "timelock",
      "outputs": [
        {
          "internalType": "contract TimelockInterface",
          "name": "",
          "type": "address"
        }
      ],
      "stateMutability": "view",
      "type": "function"
    },
    {
      "inputs": [],
      "name": "votingDelay",
      "outputs": [
        {
          "internalType": "uint256",
          "name": "",
          "type": "uint256"
        }
      ],
      "stateMutability": "view",
      "type": "function"
    },
    {
      "inputs": [],
      "name": "votingPeriod",
      "outputs": [
        {
          "internalType": "uint256",
          "name": "",
          "type": "uint256"
        }
      ],
      "stateMutability": "view",
      "type": "function"
    },
    {
      "inputs": [
        {
          "internalType": "address",
          "name": "",
          "type": "address"
        }
      ],
      "name": "whitelistAccountExpirations",
      "outputs": [
        {
          "internalType": "uint256",
          "name": "",
          "type": "uint256"
        }
      ],
      "stateMutability": "view",
      "type": "function"
    },
    {
      "inputs": [],
      "name": "whitelistGuardian",
      "outputs": [
        {
          "internalType": "address",
          "name": "",
          "type": "address"
        }
      ],
      "stateMutability": "view",
      "type": "function"
    },
    {
      "inputs": [
        {
          "internalType": "address",
          "name": "timelock_",
          "type": "address"
        },
        {
          "internalType": "address",
          "name": "comp_",
          "type": "address"
        },
        {
          "internalType": "uint256",
          "name": "votingPeriod_",
          "type": "uint256"
        },
        {
          "internalType": "uint256",
          "name": "votingDelay_",
          "type": "uint256"
        },
        {
          "internalType": "uint256",
          "name": "proposalThreshold_",
          "type": "uint256"
        }
      ],
      "name": "initialize",
      "outputs": [],
      "stateMutability": "nonpayable",
      "type": "function"
    },
    {
      "inputs": [
        {
          "components": [
            {
              "internalType": "address[]",
              "name": "targets",
              "type": "address[]"
            },
            {
              "internalType": "uint256[]",
              "name": "values",
              "type": "uint256[]"
            },
            {
              "internalType": "string[]",
              "name": "signatures",
              "type": "string[]"
            },
            {
              "internalType": "bytes[]",
              "name": "calldatas",
              "type": "bytes[]"
            },
            {
              "internalType": "string",
              "name": "description",
              "type": "string"
            }
          ],
          "internalType": "struct GovernorMikeDelegateStorageV1.Issue[]",
          "name": "issues_",
          "type": "tuple[]"
        }
      ],
      "name": "propose",
      "outputs": [
        {
          "internalType": "uint256",
          "name": "",
          "type": "uint256"
        }
      ],
      "stateMutability": "nonpayable",
      "type": "function"
    },
    {
      "inputs": [
        {
          "internalType": "uint256",
          "name": "proposalId",
          "type": "uint256"
        }
      ],
      "name": "queue",
      "outputs": [],
      "stateMutability": "nonpayable",
      "type": "function"
    },
    {
      "inputs": [
        {
          "internalType": "uint256",
          "name": "proposalId",
          "type": "uint256"
        }
      ],
      "name": "execute",
      "outputs": [],
      "stateMutability": "payable",
      "type": "function"
    },
    {
      "inputs": [
        {
          "internalType": "uint256",
          "name": "proposalId",
          "type": "uint256"
        }
      ],
      "name": "cancel",
      "outputs": [],
      "stateMutability": "nonpayable",
      "type": "function"
    },
    {
      "inputs": [
        {
          "internalType": "uint256",
          "name": "proposalId",
          "type": "uint256"
        },
        {
          "internalType": "uint256",
          "name": "issueNum",
          "type": "uint256"
        }
      ],
      "name": "getIssue",
      "outputs": [
        {
          "internalType": "address[]",
          "name": "targets",
          "type": "address[]"
        },
        {
          "internalType": "uint256[]",
          "name": "values",
          "type": "uint256[]"
        },
        {
          "internalType": "string[]",
          "name": "signatures",
          "type": "string[]"
        },
        {
          "internalType": "bytes[]",
          "name": "calldatas",
          "type": "bytes[]"
        },
        {
          "internalType": "string",
          "name": "description",
          "type": "string"
        }
      ],
      "stateMutability": "view",
      "type": "function"
    },
    {
      "inputs": [
        {
          "internalType": "uint256",
          "name": "proposalId",
          "type": "uint256"
        }
      ],
      "name": "getVotes",
      "outputs": [
        {
          "internalType": "uint256[]",
          "name": "",
          "type": "uint256[]"
        }
      ],
      "stateMutability": "view",
      "type": "function"
    },
    {
      "inputs": [
        {
          "internalType": "uint256",
          "name": "proposalId",
          "type": "uint256"
        },
        {
          "internalType": "address",
          "name": "voter",
          "type": "address"
        }
      ],
      "name": "getReceipt",
      "outputs": [
        {
          "components": [
            {
              "internalType": "bool",
              "name": "hasVoted",
              "type": "bool"
            },
            {
              "internalType": "uint8",
              "name": "support",
              "type": "uint8"
            },
            {
              "internalType": "uint96",
              "name": "votes",
              "type": "uint96"
            }
          ],
          "internalType": "struct GovernorMikeDelegateStorageV1.Receipt",
          "name": "",
          "type": "tuple"
        }
      ],
      "stateMutability": "view",
      "type": "function"
    },
    {
      "inputs": [
        {
          "internalType": "uint256",
          "name": "proposalId",
          "type": "uint256"
        }
      ],
      "name": "state",
      "outputs": [
        {
          "internalType": "enum GovernorMikeDelegateStorageV1.ProposalState",
          "name": "",
          "type": "uint8"
        }
      ],
      "stateMutability": "view",
      "type": "function"
    },
    {
      "inputs": [
        {
          "internalType": "uint256",
          "name": "proposalId",
          "type": "uint256"
        },
        {
          "internalType": "uint8",
          "name": "support",
          "type": "uint8"
        }
      ],
      "name": "castVote",
      "outputs": [],
      "stateMutability": "nonpayable",
      "type": "function"
    },
    {
      "inputs": [
        {
          "internalType": "uint256",
          "name": "proposalId",
          "type": "uint256"
        },
        {
          "internalType": "uint8",
          "name": "support",
          "type": "uint8"
        },
        {
          "internalType": "string",
          "name": "reason",
          "type": "string"
        }
      ],
      "name": "castVoteWithReason",
      "outputs": [],
      "stateMutability": "nonpayable",
      "type": "function"
    },
    {
      "inputs": [
        {
          "internalType": "uint256",
          "name": "proposalId",
          "type": "uint256"
        },
        {
          "internalType": "uint8",
          "name": "support",
          "type": "uint8"
        },
        {
          "internalType": "uint8",
          "name": "v",
          "type": "uint8"
        },
        {
          "internalType": "bytes32",
          "name": "r",
          "type": "bytes32"
        },
        {
          "internalType": "bytes32",
          "name": "s",
          "type": "bytes32"
        }
      ],
      "name": "castVoteBySig",
      "outputs": [],
      "stateMutability": "nonpayable",
      "type": "function"
    },
    {
      "inputs": [
        {
          "internalType": "address",
          "name": "account",
          "type": "address"
        }
      ],
      "name": "isWhitelisted",
      "outputs": [
        {
          "internalType": "bool",
          "name": "",
          "type": "bool"
        }
      ],
      "stateMutability": "view",
      "type": "function"
    },
    {
      "inputs": [
        {
          "internalType": "uint256",
          "name": "newVotingDelay",
          "type": "uint256"
        }
      ],
      "name": "_setVotingDelay",
      "outputs": [],
      "stateMutability": "nonpayable",
      "type": "function"
    },
    {
      "inputs": [
        {
          "internalType": "uint256",
          "name": "newVotingPeriod",
          "type": "uint256"
        }
      ],
      "name": "_setVotingPeriod",
      "outputs": [],
      "stateMutability": "nonpayable",
      "type": "function"
    },
    {
      "inputs": [
        {
          "internalType": "uint256",
          "name": "newProposalThreshold",
          "type": "uint256"
        }
      ],
      "name": "_setProposalThreshold",
      "outputs": [],
      "stateMutability": "nonpayable",
      "type": "function"
    },
    {
      "inputs": [
        {
          "internalType": "address",
          "name": "account",
          "type": "address"
        },
        {
          "internalType": "uint256",
          "name": "expiration",
          "type": "uint256"
        }
      ],
      "name": "_setWhitelistAccountExpiration",
      "outputs": [],
      "stateMutability": "nonpayable",
      "type": "function"
    },
    {
      "inputs": [
        {
          "internalType": "address",
          "name": "account",
          "type": "address"
        }
      ],
      "name": "_setWhitelistGuardian",
      "outputs": [],
      "stateMutability": "nonpayable",
      "type": "function"
    },
    {
      "inputs": [
        {
          "internalType": "address",
          "name": "newPendingAdmin",
          "type": "address"
        }
      ],
      "name": "_setPendingAdmin",
      "outputs": [],
      "stateMutability": "nonpayable",
      "type": "function"
    },
    {
      "inputs": [],
      "name": "_acceptAdmin",
      "outputs": [],
      "stateMutability": "nonpayable",
      "type": "function"
    }
  ],
  "bytecode": "0x608060405234801561001057600080fd5b5061725280620000216000396000f3fe6080604052600436106102725760003560e01c8063641dea8a1161014f578063d33219b4116100c1578063e9c714f21161007a578063e9c714f214610970578063eb02b3a114610987578063f851a440146109c8578063fc4eee42146109f3578063fe0d94c114610a1e578063ff98109914610a3a57610272565b8063d33219b41461085e578063da35c66414610889578063ddf0b009146108b4578063deaaa7cc146108dd578063e23a9a5214610908578063e48083fe1461094557610272565b8063a64e024a11610113578063a64e024a14610760578063b11262631461078b578063b58131b0146107b6578063b71d1a0c146107e1578063c5a8425d1461080a578063d13f90b41461083557610272565b8063641dea8a1461067b578063791f5d23146106b85780637b3c71d3146106e35780637bdbe4d01461070c578063995333651461073757610272565b806325fd935a116101e85780633bccf4fd116101ac5780633bccf4fd1461056f5780633e4f49e61461059857806340e58ee5146105d55780634d6733d2146105fe57806356781388146106275780635c60da1b1461065057610272565b806325fd935a14610474578063267822471461049f57806338bd0dda146104ca5780633932abb1146105075780633af32abf1461053257610272565b806317977c611161023a57806317977c611461036457806317ba1b8b146103a15780631dfb1b5a146103ca57806320606b70146103f3578063215809ca1461041e57806324bc1a641461044957610272565b8063013cf08b1461027757806302a251a3146102ba57806306fdde03146102e55780630ea2d98c14610310578063109d0af814610339575b600080fd5b34801561028357600080fd5b5061029e60048036038101906102999190614168565b610a77565b6040516102b19796959493929190614200565b60405180910390f35b3480156102c657600080fd5b506102cf610af3565b6040516102dc919061426f565b60405180910390f35b3480156102f157600080fd5b506102fa610af9565b6040516103079190614323565b60405180910390f35b34801561031c57600080fd5b5061033760048036038101906103329190614168565b610b32565b005b34801561034557600080fd5b5061034e610c61565b60405161035b91906143a4565b60405180910390f35b34801561037057600080fd5b5061038b600480360381019061038691906143eb565b610c87565b604051610398919061426f565b60405180910390f35b3480156103ad57600080fd5b506103c860048036038101906103c39190614168565b610c9f565b005b3480156103d657600080fd5b506103f160048036038101906103ec9190614168565b610ddc565b005b3480156103ff57600080fd5b50610408610f09565b6040516104159190614431565b60405180910390f35b34801561042a57600080fd5b50610433610f2d565b604051610440919061426f565b60405180910390f35b34801561045557600080fd5b5061045e610f33565b60405161046b919061426f565b60405180910390f35b34801561048057600080fd5b50610489610f41565b604051610496919061426f565b60405180910390f35b3480156104ab57600080fd5b506104b4610f4f565b6040516104c1919061444c565b60405180910390f35b3480156104d657600080fd5b506104f160048036038101906104ec91906143eb565b610f75565b6040516104fe919061426f565b60405180910390f35b34801561051357600080fd5b5061051c610f8d565b604051610529919061426f565b60405180910390f35b34801561053e57600080fd5b50610559600480360381019061055491906143eb565b610f93565b6040516105669190614467565b60405180910390f35b34801561057b57600080fd5b50610596600480360381019061059191906144e7565b610fde565b005b3480156105a457600080fd5b506105bf60048036038101906105ba9190614168565b611211565b6040516105cc91906145d9565b60405180910390f35b3480156105e157600080fd5b506105fc60048036038101906105f79190614168565b6113d1565b005b34801561060a57600080fd5b50610625600480360381019061062091906145f4565b611964565b005b34801561063357600080fd5b5061064e60048036038101906106499190614634565b611acb565b005b34801561065c57600080fd5b50610665611b2b565b604051610672919061444c565b60405180910390f35b34801561068757600080fd5b506106a2600480360381019061069d9190614d9a565b611b51565b6040516106af919061426f565b60405180910390f35b3480156106c457600080fd5b506106cd612274565b6040516106da919061426f565b60405180910390f35b3480156106ef57600080fd5b5061070a60048036038101906107059190614e3e565b612281565b005b34801561071857600080fd5b506107216122e7565b60405161072e919061426f565b60405180910390f35b34801561074357600080fd5b5061075e600480360381019061075991906143eb565b6122ec565b005b34801561076c57600080fd5b50610775612441565b604051610782919061426f565b60405180910390f35b34801561079757600080fd5b506107a0612448565b6040516107ad919061426f565b60405180910390f35b3480156107c257600080fd5b506107cb61244e565b6040516107d8919061426f565b60405180910390f35b3480156107ed57600080fd5b50610808600480360381019061080391906143eb565b612454565b005b34801561081657600080fd5b5061081f612587565b60405161082c919061444c565b60405180910390f35b34801561084157600080fd5b5061085c60048036038101906108579190614eb2565b6125ad565b005b34801561086a57600080fd5b506108736129d4565b6040516108809190614f4e565b60405180910390f35b34801561089557600080fd5b5061089e6129fa565b6040516108ab919061426f565b60405180910390f35b3480156108c057600080fd5b506108db60048036038101906108d69190614168565b612a00565b005b3480156108e957600080fd5b506108f2612d81565b6040516108ff9190614431565b60405180910390f35b34801561091457600080fd5b5061092f600480360381019061092a9190614f69565b612da5565b60405161093c9190615030565b60405180910390f35b34801561095157600080fd5b5061095a612e89565b604051610967919061426f565b60405180910390f35b34801561097c57600080fd5b50610985612e8e565b005b34801561099357600080fd5b506109ae60048036038101906109a9919061504b565b613100565b6040516109bf95949392919061542a565b60405180910390f35b3480156109d457600080fd5b506109dd613477565b6040516109ea919061444c565b60405180910390f35b3480156109ff57600080fd5b50610a0861349b565b604051610a15919061426f565b60405180910390f35b610a386004803603810190610a339190614168565b6134a1565b005b348015610a4657600080fd5b50610a616004803603810190610a5c9190614168565b613745565b604051610a6e91906154a0565b60405180910390f35b600a6020528060005260406000206000915090508060000154908060010160009054906101000a900473ffffffffffffffffffffffffffffffffffffffff16908060020154908060040154908060050154908060070160009054906101000a900460ff16908060070160019054906101000a900460ff16905087565b60045481565b6040518060400160405280601681526020017f436f6d706f756e6420476f7665726e6f72204d696b650000000000000000000081525081565b60008054906101000a900473ffffffffffffffffffffffffffffffffffffffff1673ffffffffffffffffffffffffffffffffffffffff163373ffffffffffffffffffffffffffffffffffffffff1614610bc0576040517f08c379a0000000000000000000000000000000000000000000000000000000008152600401610bb790615534565b60405180910390fd5b6116808110158015610bd5575062013b008111155b610c14576040517f08c379a0000000000000000000000000000000000000000000000000000000008152600401610c0b906155c6565b60405180910390fd5b60006004549050816004819055507f7e3f7f0708a84de9203036abaa450dccc85ad5ff52f78c170f3edb55cf5e882881600454604051610c559291906155e6565b60405180910390a15050565b600960009054906101000a900473ffffffffffffffffffffffffffffffffffffffff1681565b600b6020528060005260406000206000915090505481565b60008054906101000a900473ffffffffffffffffffffffffffffffffffffffff1673ffffffffffffffffffffffffffffffffffffffff163373ffffffffffffffffffffffffffffffffffffffff1614610d2d576040517f08c379a0000000000000000000000000000000000000000000000000000000008152600401610d2490615681565b60405180910390fd5b683635c9adc5dea000008110158015610d50575069152d02c7e14af68000008111155b610d8f576040517f08c379a0000000000000000000000000000000000000000000000000000000008152600401610d8690615713565b60405180910390fd5b60006005549050816005819055507fccb45da8d5717e6c4544694297c4ba5cf151d455c9bb0ed4fc7a38411bc0546181600554604051610dd09291906155e6565b60405180910390a15050565b60008054906101000a900473ffffffffffffffffffffffffffffffffffffffff1673ffffffffffffffffffffffffffffffffffffffff163373ffffffffffffffffffffffffffffffffffffffff1614610e6a576040517f08c379a0000000000000000000000000000000000000000000000000000000008152600401610e61906157a5565b60405180910390fd5b60018110158015610e7d5750619d808111155b610ebc576040517f08c379a0000000000000000000000000000000000000000000000000000000008152600401610eb390615837565b60405180910390fd5b60006003549050816003819055507fc565b045403dc03c2eea82b81a0465edad9e2e7fc4d97e11421c209da93d7a9381600354604051610efd9291906155e6565b60405180910390a15050565b7f8cad95687ba82c2ce50e74f7b754645e5117c3a5bec8151c0726d5857980a86681565b61168081565b6954b40b1f852bda00000081565b69152d02c7e14af680000081565b600160009054906101000a900473ffffffffffffffffffffffffffffffffffffffff1681565b600c6020528060005260406000206000915090505481565b60035481565b600042600c60008473ffffffffffffffffffffffffffffffffffffffff1673ffffffffffffffffffffffffffffffffffffffff16815260200190815260200160002054119050919050565b60007f8cad95687ba82c2ce50e74f7b754645e5117c3a5bec8151c0726d5857980a8666040518060400160405280601681526020017f436f6d706f756e6420476f7665726e6f72204d696b65000000000000000000008152508051906020012046306040516020016110539493929190615857565b60405160208183030381529060405280519060200120905060007f150214d74d59b7d1e90c73fc22ef3d991dd0a76b046543d4d80ab92d2a50328f87876040516020016110a2939291906158ab565b604051602081830303815290604052805190602001209050600082826040516020016110cf92919061595a565b60405160208183030381529060405280519060200120905060006001828888886040516000815260200160405260405161110c9493929190615991565b6020604051602081039080840390855afa15801561112e573d6000803e3d6000fd5b505050602060405103519050600073ffffffffffffffffffffffffffffffffffffffff168173ffffffffffffffffffffffffffffffffffffffff1614156111aa576040517f08c379a00000000000000000000000000000000000000000000000000000000081526004016111a190615a48565b60405180910390fd5b8073ffffffffffffffffffffffffffffffffffffffff167fb8e138887d0aa13bab447e82de9d5c1777041ecd21ca36ba824ff1e6c07ddda48a8a6111ef858e8e6137b3565b6040516111fe93929190615abf565b60405180910390a2505050505050505050565b6000816007541015611258576040517f08c379a000000000000000000000000000000000000000000000000000000000815260040161124f90615b7b565b60405180910390fd5b6000600a600084815260200190815260200160002090508060070160009054906101000a900460ff16156112905760029150506113cc565b806004015443116112a55760009150506113cc565b806005015443116112ba5760019150506113cc565b6954b40b1f852bda0000006112ce84613a8c565b10156112de5760039150506113cc565b6000816002015414156112f55760049150506113cc565b8060070160019054906101000a900460ff16156113165760079150506113cc565b600860009054906101000a900473ffffffffffffffffffffffffffffffffffffffff1673ffffffffffffffffffffffffffffffffffffffff1663c1a287e26040518163ffffffff1660e01b8152600401602060405180830381865afa158015611383573d6000803e3d6000fd5b505050506040513d601f19601f820116820180604052508101906113a79190615bb0565b81600201546113b69190615c0c565b42106113c65760069150506113cc565b60059150505b919050565b6007808111156113e4576113e3614562565b5b6113ed82611211565b60078111156113ff576113fe614562565b5b1415611440576040517f08c379a000000000000000000000000000000000000000000000000000000000815260040161143790615cd4565b60405180910390fd5b6000600a6000838152602001908152602001600020905060008160030161146684613b1b565b8154811061147757611476615cf4565b5b906000526020600020906005020190508160010160009054906101000a900473ffffffffffffffffffffffffffffffffffffffff1673ffffffffffffffffffffffffffffffffffffffff163373ffffffffffffffffffffffffffffffffffffffff16146117ae5761150b8260010160009054906101000a900473ffffffffffffffffffffffffffffffffffffffff16610f93565b1561168d57600554600960009054906101000a900473ffffffffffffffffffffffffffffffffffffffff1673ffffffffffffffffffffffffffffffffffffffff1663782d6fe18460010160009054906101000a900473ffffffffffffffffffffffffffffffffffffffff166001436115839190615d23565b6040518363ffffffff1660e01b81526004016115a0929190615d57565b602060405180830381865afa1580156115bd573d6000803e3d6000fd5b505050506040513d601f19601f820116820180604052508101906115e19190615dac565b6bffffffffffffffffffffffff161080156116495750600d60009054906101000a900473ffffffffffffffffffffffffffffffffffffffff1673ffffffffffffffffffffffffffffffffffffffff163373ffffffffffffffffffffffffffffffffffffffff16145b611688576040517f08c379a000000000000000000000000000000000000000000000000000000000815260040161167f90615e4b565b60405180910390fd5b6117ad565b600554600960009054906101000a900473ffffffffffffffffffffffffffffffffffffffff1673ffffffffffffffffffffffffffffffffffffffff1663782d6fe18460010160009054906101000a900473ffffffffffffffffffffffffffffffffffffffff166001436117009190615d23565b6040518363ffffffff1660e01b815260040161171d929190615d57565b602060405180830381865afa15801561173a573d6000803e3d6000fd5b505050506040513d601f19601f8201168201806040525081019061175e9190615dac565b6bffffffffffffffffffffffff16106117ac576040517f08c379a00000000000000000000000000000000000000000000000000000000081526004016117a390615edd565b60405180910390fd5b5b5b60018260070160006101000a81548160ff02191690831515021790555060005b816000018054905081101561192757600860009054906101000a900473ffffffffffffffffffffffffffffffffffffffff1673ffffffffffffffffffffffffffffffffffffffff1663591fcdfe83600001838154811061183157611830615cf4565b5b9060005260206000200160009054906101000a900473ffffffffffffffffffffffffffffffffffffffff1684600101848154811061187257611871615cf4565b5b906000526020600020015485600201858154811061189357611892615cf4565b5b906000526020600020018660030186815481106118b3576118b2615cf4565b5b9060005260206000200188600201546040518663ffffffff1660e01b81526004016118e2959493929190616099565b600060405180830381600087803b1580156118fc57600080fd5b505af1158015611910573d6000803e3d6000fd5b50505050808061191f906160fa565b9150506117ce565b507f789cf55be980739dad1d0699b93b58e806b51c9d96619bfa8fe0a28abaa7b30c83604051611957919061426f565b60405180910390a1505050565b60008054906101000a900473ffffffffffffffffffffffffffffffffffffffff1673ffffffffffffffffffffffffffffffffffffffff163373ffffffffffffffffffffffffffffffffffffffff161480611a0b5750600d60009054906101000a900473ffffffffffffffffffffffffffffffffffffffff1673ffffffffffffffffffffffffffffffffffffffff163373ffffffffffffffffffffffffffffffffffffffff16145b611a4a576040517f08c379a0000000000000000000000000000000000000000000000000000000008152600401611a41906161b5565b60405180910390fd5b80600c60008473ffffffffffffffffffffffffffffffffffffffff1673ffffffffffffffffffffffffffffffffffffffff168152602001908152602001600020819055507f4e7b7545bc5744d0e30425959f4687475774b6c7edad77d24cb51c7d967d45158282604051611abf929190615d57565b60405180910390a15050565b3373ffffffffffffffffffffffffffffffffffffffff167fb8e138887d0aa13bab447e82de9d5c1777041ecd21ca36ba824ff1e6c07ddda48383611b103387876137b3565b604051611b1f93929190615abf565b60405180910390a25050565b600260009054906101000a900473ffffffffffffffffffffffffffffffffffffffff1681565b600060076000815480929190611b66906160fa565b91905055506000600a60006007548152602001908152602001600020905060005b8351811015611f6157600554600960009054906101000a900473ffffffffffffffffffffffffffffffffffffffff1673ffffffffffffffffffffffffffffffffffffffff1663782d6fe133600143611bdf9190615d23565b6040518363ffffffff1660e01b8152600401611bfc929190615d57565b602060405180830381865afa158015611c19573d6000803e3d6000fd5b505050506040513d601f19601f82011682018060405250810190611c3d9190615dac565b6bffffffffffffffffffffffff161180611c5c5750611c5b33610f93565b5b611c9b576040517f08c379a0000000000000000000000000000000000000000000000000000000008152600401611c9290616247565b60405180910390fd5b838181518110611cae57611cad615cf4565b5b60200260200101516020015151848281518110611cce57611ccd615cf4565b5b60200260200101516000015151148015611d255750838181518110611cf657611cf5615cf4565b5b60200260200101516040015151848281518110611d1657611d15615cf4565b5b60200260200101516000015151145b8015611d6e5750838181518110611d3f57611d3e615cf4565b5b60200260200101516060015151848281518110611d5f57611d5e615cf4565b5b60200260200101516000015151145b611dad576040517f08c379a0000000000000000000000000000000000000000000000000000000008152600401611da4906162ff565b60405180910390fd5b6000848281518110611dc257611dc1615cf4565b5b602002602001015160000151511415611e10576040517f08c379a0000000000000000000000000000000000000000000000000000000008152600401611e0790616391565b60405180910390fd5b600a848281518110611e2557611e24615cf4565b5b602002602001015160000151511115611e73576040517f08c379a0000000000000000000000000000000000000000000000000000000008152600401611e6a90616423565b60405180910390fd5b81600301848281518110611e8a57611e89615cf4565b5b602002602001015190806001815401808255809150506001900390600052602060002090600502016000909190919091506000820151816000019080519060200190611ed7929190613d62565b506020820151816001019080519060200190611ef4929190613dec565b506040820151816002019080519060200190611f11929190613e39565b506060820151816003019080519060200190611f2e929190613e99565b506080820151816004019080519060200190611f4b929190613ef9565b5050508080611f59906160fa565b915050611b87565b506000600b60003373ffffffffffffffffffffffffffffffffffffffff1673ffffffffffffffffffffffffffffffffffffffff1681526020019081526020016000205490506000811461208d576000611fb982611211565b905060016007811115611fcf57611fce614562565b5b816007811115611fe257611fe1614562565b5b1415612023576040517f08c379a000000000000000000000000000000000000000000000000000000000815260040161201a906164db565b60405180910390fd5b6000600781111561203757612036614562565b5b81600781111561204a57612049614562565b5b141561208b576040517f08c379a000000000000000000000000000000000000000000000000000000000815260040161208290616593565b60405180910390fd5b505b60006003544361209d9190615c0c565b90506000600454826120af9190615c0c565b90506007548460000181905550338460010160006101000a81548173ffffffffffffffffffffffffffffffffffffffff021916908373ffffffffffffffffffffffffffffffffffffffff16021790555060008460020181905550818460040181905550808460050181905550855167ffffffffffffffff81111561213657612135614679565b5b6040519080825280602002602001820160405280156121645781602001602082028036833780820191505090505b5084600601908051906020019061217c929190613dec565b5060008460070160006101000a81548160ff02191690831515021790555060008460070160016101000a81548160ff0219169083151502179055508360000154600b60008660010160009054906101000a900473ffffffffffffffffffffffffffffffffffffffff1673ffffffffffffffffffffffffffffffffffffffff1673ffffffffffffffffffffffffffffffffffffffff168152602001908152602001600020819055507fd38d9a9a102af286aea1cbcadb8aab8446a90859626389db3710ed4fea4c2c39846000015433848460405161225c94939291906165b3565b60405180910390a18360000154945050505050919050565b683635c9adc5dea0000081565b3373ffffffffffffffffffffffffffffffffffffffff167fb8e138887d0aa13bab447e82de9d5c1777041ecd21ca36ba824ff1e6c07ddda485856122c63389896137b3565b86866040516122d9959493929190616625565b60405180910390a250505050565b600a81565b60008054906101000a900473ffffffffffffffffffffffffffffffffffffffff1673ffffffffffffffffffffffffffffffffffffffff163373ffffffffffffffffffffffffffffffffffffffff161461237a576040517f08c379a0000000000000000000000000000000000000000000000000000000008152600401612371906166e5565b60405180910390fd5b6000600d60009054906101000a900473ffffffffffffffffffffffffffffffffffffffff16905081600d60006101000a81548173ffffffffffffffffffffffffffffffffffffffff021916908373ffffffffffffffffffffffffffffffffffffffff1602179055507f80a07e73e552148844a9c216d9724212d609cfa54e9c1a2e97203bdd2c4ad34181600d60009054906101000a900473ffffffffffffffffffffffffffffffffffffffff16604051612435929190616705565b60405180910390a15050565b62013b0081565b619d8081565b60055481565b60008054906101000a900473ffffffffffffffffffffffffffffffffffffffff1673ffffffffffffffffffffffffffffffffffffffff163373ffffffffffffffffffffffffffffffffffffffff16146124e2576040517f08c379a00000000000000000000000000000000000000000000000000000000081526004016124d9906167a0565b60405180910390fd5b6000600160009054906101000a900473ffffffffffffffffffffffffffffffffffffffff16905081600160006101000a81548173ffffffffffffffffffffffffffffffffffffffff021916908373ffffffffffffffffffffffffffffffffffffffff1602179055507fca4f2f25d0898edd99413412fb94012f9e54ec8142f9b093e7720646a95b16a9818360405161257b929190616705565b60405180910390a15050565b600d60009054906101000a900473ffffffffffffffffffffffffffffffffffffffff1681565b600073ffffffffffffffffffffffffffffffffffffffff16600860009054906101000a900473ffffffffffffffffffffffffffffffffffffffff1673ffffffffffffffffffffffffffffffffffffffff161461263e576040517f08c379a000000000000000000000000000000000000000000000000000000000815260040161263590616832565b60405180910390fd5b60008054906101000a900473ffffffffffffffffffffffffffffffffffffffff1673ffffffffffffffffffffffffffffffffffffffff163373ffffffffffffffffffffffffffffffffffffffff16146126cc576040517f08c379a00000000000000000000000000000000000000000000000000000000081526004016126c3906168c4565b60405180910390fd5b600073ffffffffffffffffffffffffffffffffffffffff168573ffffffffffffffffffffffffffffffffffffffff16141561273c576040517f08c379a000000000000000000000000000000000000000000000000000000000815260040161273390616956565b60405180910390fd5b600073ffffffffffffffffffffffffffffffffffffffff168473ffffffffffffffffffffffffffffffffffffffff1614156127ac576040517f08c379a00000000000000000000000000000000000000000000000000000000081526004016127a3906169e8565b60405180910390fd5b61168083101580156127c1575062013b008311155b612800576040517f08c379a00000000000000000000000000000000000000000000000000000000081526004016127f790616a7a565b60405180910390fd5b600182101580156128135750619d808211155b612852576040517f08c379a000000000000000000000000000000000000000000000000000000000815260040161284990616b0c565b60405180910390fd5b683635c9adc5dea000008110158015612875575069152d02c7e14af68000008111155b6128b4576040517f08c379a00000000000000000000000000000000000000000000000000000000081526004016128ab90616b9e565b60405180910390fd5b84600860006101000a81548173ffffffffffffffffffffffffffffffffffffffff021916908373ffffffffffffffffffffffffffffffffffffffff16021790555083600960006101000a81548173ffffffffffffffffffffffffffffffffffffffff021916908373ffffffffffffffffffffffffffffffffffffffff160217905550826004819055508160038190555080600581905550600860009054906101000a900473ffffffffffffffffffffffffffffffffffffffff1673ffffffffffffffffffffffffffffffffffffffff16630e18b6816040518163ffffffff1660e01b8152600401600060405180830381600087803b1580156129b557600080fd5b505af11580156129c9573d6000803e3d6000fd5b505050505050505050565b600860009054906101000a900473ffffffffffffffffffffffffffffffffffffffff1681565b60075481565b60046007811115612a1457612a13614562565b5b612a1d82611211565b6007811115612a2f57612a2e614562565b5b14612a6f576040517f08c379a0000000000000000000000000000000000000000000000000000000008152600401612a6690616c56565b60405180910390fd5b6000600a60008381526020019081526020016000209050600081600301612a9584613b1b565b81548110612aa657612aa5615cf4565b5b906000526020600020906005020190506000600860009054906101000a900473ffffffffffffffffffffffffffffffffffffffff1673ffffffffffffffffffffffffffffffffffffffff16636a42b8f86040518163ffffffff1660e01b8152600401602060405180830381865afa158015612b25573d6000803e3d6000fd5b505050506040513d601f19601f82011682018060405250810190612b499190615bb0565b42612b549190615c0c565b905060005b8260000180549050811015612d3857612d25836000018281548110612b8157612b80615cf4565b5b9060005260206000200160009054906101000a900473ffffffffffffffffffffffffffffffffffffffff16846001018381548110612bc257612bc1615cf4565b5b9060005260206000200154856002018481548110612be357612be2615cf4565b5b906000526020600020018054612bf890615f2c565b80601f0160208091040260200160405190810160405280929190818152602001828054612c2490615f2c565b8015612c715780601f10612c4657610100808354040283529160200191612c71565b820191906000526020600020905b815481529060010190602001808311612c5457829003601f168201915b5050505050866003018581548110612c8c57612c8b615cf4565b5b906000526020600020018054612ca190615f2c565b80601f0160208091040260200160405190810160405280929190818152602001828054612ccd90615f2c565b8015612d1a5780601f10612cef57610100808354040283529160200191612d1a565b820191906000526020600020905b815481529060010190602001808311612cfd57829003601f168201915b505050505086613baa565b8080612d30906160fa565b915050612b59565b508083600201819055507f9a2e42fd6722813d69113e7d0079d3d940171428df7373df9c7f7617cfda28928482604051612d739291906155e6565b60405180910390a150505050565b7f150214d74d59b7d1e90c73fc22ef3d991dd0a76b046543d4d80ab92d2a50328f81565b612dad613f7f565b600a600084815260200190815260200160002060080160008373ffffffffffffffffffffffffffffffffffffffff1673ffffffffffffffffffffffffffffffffffffffff1681526020019081526020016000206040518060600160405290816000820160009054906101000a900460ff161515151581526020016000820160019054906101000a900460ff1660ff1660ff1681526020016000820160029054906101000a90046bffffffffffffffffffffffff166bffffffffffffffffffffffff166bffffffffffffffffffffffff1681525050905092915050565b600181565b600160009054906101000a900473ffffffffffffffffffffffffffffffffffffffff1673ffffffffffffffffffffffffffffffffffffffff163373ffffffffffffffffffffffffffffffffffffffff16148015612f185750600073ffffffffffffffffffffffffffffffffffffffff163373ffffffffffffffffffffffffffffffffffffffff1614155b612f57576040517f08c379a0000000000000000000000000000000000000000000000000000000008152600401612f4e90616ce8565b60405180910390fd5b60008060009054906101000a900473ffffffffffffffffffffffffffffffffffffffff1690506000600160009054906101000a900473ffffffffffffffffffffffffffffffffffffffff169050600160009054906101000a900473ffffffffffffffffffffffffffffffffffffffff166000806101000a81548173ffffffffffffffffffffffffffffffffffffffff021916908373ffffffffffffffffffffffffffffffffffffffff1602179055506000600160006101000a81548173ffffffffffffffffffffffffffffffffffffffff021916908373ffffffffffffffffffffffffffffffffffffffff1602179055507ff9ffabca9c8276e99321725bcb43fb076a6c66a54b7f21c4e8146d8519b417dc8260008054906101000a900473ffffffffffffffffffffffffffffffffffffffff16604051613099929190616705565b60405180910390a17fca4f2f25d0898edd99413412fb94012f9e54ec8142f9b093e7720646a95b16a981600160009054906101000a900473ffffffffffffffffffffffffffffffffffffffff166040516130f4929190616705565b60405180910390a15050565b60608060608060606000600a6000898152602001908152602001600020600301878154811061313257613131615cf4565b5b906000526020600020906005020190508060000181600101826002018360030184600401848054806020026020016040519081016040528092919081815260200182805480156131d757602002820191906000526020600020905b8160009054906101000a900473ffffffffffffffffffffffffffffffffffffffff1673ffffffffffffffffffffffffffffffffffffffff168152602001906001019080831161318d575b505050505094508380548060200260200160405190810160405280929190818152602001828054801561322957602002820191906000526020600020905b815481526020019060010190808311613215575b5050505050935082805480602002602001604051908101604052809291908181526020016000905b828210156132fd57838290600052602060002001805461327090615f2c565b80601f016020809104026020016040519081016040528092919081815260200182805461329c90615f2c565b80156132e95780601f106132be576101008083540402835291602001916132e9565b820191906000526020600020905b8154815290600101906020018083116132cc57829003601f168201915b505050505081526020019060010190613251565b50505050925081805480602002602001604051908101604052809291908181526020016000905b828210156133d057838290600052602060002001805461334390615f2c565b80601f016020809104026020016040519081016040528092919081815260200182805461336f90615f2c565b80156133bc5780601f10613391576101008083540402835291602001916133bc565b820191906000526020600020905b81548152906001019060200180831161339f57829003601f168201915b505050505081526020019060010190613324565b5050505091508080546133e290615f2c565b80601f016020809104026020016040519081016040528092919081815260200182805461340e90615f2c565b801561345b5780601f106134305761010080835404028352916020019161345b565b820191906000526020600020905b81548152906001019060200180831161343e57829003601f168201915b5050505050905095509550955095509550509295509295909350565b60008054906101000a900473ffffffffffffffffffffffffffffffffffffffff1681565b60065481565b600560078111156134b5576134b4614562565b5b6134be82611211565b60078111156134d0576134cf614562565b5b14613510576040517f08c379a000000000000000000000000000000000000000000000000000000000815260040161350790616da0565b60405180910390fd5b6000600a6000838152602001908152602001600020905060008160030161353684613b1b565b8154811061354757613546615cf4565b5b9060005260206000209060050201905060018260070160016101000a81548160ff02191690831515021790555060005b816000018054905081101561370857600860009054906101000a900473ffffffffffffffffffffffffffffffffffffffff1673ffffffffffffffffffffffffffffffffffffffff16630825f38f8360010183815481106135da576135d9615cf4565b5b90600052602060002001548460000184815481106135fb576135fa615cf4565b5b9060005260206000200160009054906101000a900473ffffffffffffffffffffffffffffffffffffffff1685600101858154811061363c5761363b615cf4565b5b906000526020600020015486600201868154811061365d5761365c615cf4565b5b9060005260206000200187600301878154811061367d5761367c615cf4565b5b9060005260206000200189600201546040518763ffffffff1660e01b81526004016136ac959493929190616099565b60006040518083038185885af11580156136ca573d6000803e3d6000fd5b50505050506040513d6000823e3d601f19601f820116820180604052508101906136f49190616e30565b508080613700906160fa565b915050613577565b507f712ae1383f79ac853f8d882153778e0260ef8f03b504e2866e0593e04d2b291f83604051613738919061426f565b60405180910390a1505050565b6060600a60008381526020019081526020016000206006018054806020026020016040519081016040528092919081815260200182805480156137a757602002820191906000526020600020905b815481526020019060010190808311613793575b50505050509050919050565b6000600160078111156137c9576137c8614562565b5b6137d284611211565b60078111156137e4576137e3614562565b5b14613824576040517f08c379a000000000000000000000000000000000000000000000000000000000815260040161381b90616eeb565b60405180910390fd5b6000600a6000858152602001908152602001600020905080600301805490508360ff1610613887576040517f08c379a000000000000000000000000000000000000000000000000000000000815260040161387e90616f7d565b60405180910390fd5b60008160080160008773ffffffffffffffffffffffffffffffffffffffff1673ffffffffffffffffffffffffffffffffffffffff1681526020019081526020016000209050600015158160000160009054906101000a900460ff16151514613924576040517f08c379a000000000000000000000000000000000000000000000000000000000815260040161391b9061700f565b60405180910390fd5b6000600960009054906101000a900473ffffffffffffffffffffffffffffffffffffffff1673ffffffffffffffffffffffffffffffffffffffff1663782d6fe18885600401546040518363ffffffff1660e01b8152600401613987929190615d57565b602060405180830381865afa1580156139a4573d6000803e3d6000fd5b505050506040513d601f19601f820116820180604052508101906139c89190615dac565b9050806bffffffffffffffffffffffff16836006018660ff16815481106139f2576139f1615cf4565b5b906000526020600020016000828254613a0b9190615c0c565b9250508190555060018260000160006101000a81548160ff021916908315150217905550848260000160016101000a81548160ff021916908360ff160217905550808260000160026101000a8154816bffffffffffffffffffffffff02191690836bffffffffffffffffffffffff1602179055508093505050509392505050565b600080600a600084815260200190815260200160002060060190506000805b8280549050811015613b135783838281548110613acb57613aca615cf4565b5b90600052602060002001541115613b0057828181548110613aef57613aee615cf4565b5b906000526020600020015493508091505b8080613b0b906160fa565b915050613aab565b505050919050565b600080600a600084815260200190815260200160002060060190506000805b8280549050811015613ba25781838281548110613b5a57613b59615cf4565b5b90600052602060002001541115613b8f57828181548110613b7e57613b7d615cf4565b5b906000526020600020015491508093505b8080613b9a906160fa565b915050613b3a565b505050919050565b600860009054906101000a900473ffffffffffffffffffffffffffffffffffffffff1673ffffffffffffffffffffffffffffffffffffffff1663f2b065378686868686604051602001613c01959493929190617068565b604051602081830303815290604052805190602001206040518263ffffffff1660e01b8152600401613c339190614431565b602060405180830381865afa158015613c50573d6000803e3d6000fd5b505050506040513d601f19601f82011682018060405250810190613c7491906170f5565b15613cb4576040517f08c379a0000000000000000000000000000000000000000000000000000000008152600401613cab906171ba565b60405180910390fd5b600860009054906101000a900473ffffffffffffffffffffffffffffffffffffffff1673ffffffffffffffffffffffffffffffffffffffff16633a66f90186868686866040518663ffffffff1660e01b8152600401613d17959493929190617068565b6020604051808303816000875af1158015613d36573d6000803e3d6000fd5b505050506040513d601f19601f82011682018060405250810190613d5a91906171ef565b505050505050565b828054828255906000526020600020908101928215613ddb579160200282015b82811115613dda5782518260006101000a81548173ffffffffffffffffffffffffffffffffffffffff021916908373ffffffffffffffffffffffffffffffffffffffff16021790555091602001919060010190613d82565b5b509050613de89190613fb3565b5090565b828054828255906000526020600020908101928215613e28579160200282015b82811115613e27578251825591602001919060010190613e0c565b5b509050613e359190613fb3565b5090565b828054828255906000526020600020908101928215613e88579160200282015b82811115613e87578251829080519060200190613e77929190613ef9565b5091602001919060010190613e59565b5b509050613e959190613fd0565b5090565b828054828255906000526020600020908101928215613ee8579160200282015b82811115613ee7578251829080519060200190613ed7929190613ff4565b5091602001919060010190613eb9565b5b509050613ef5919061407a565b5090565b828054613f0590615f2c565b90600052602060002090601f016020900481019282613f275760008555613f6e565b82601f10613f4057805160ff1916838001178555613f6e565b82800160010185558215613f6e579182015b82811115613f6d578251825591602001919060010190613f52565b5b509050613f7b9190613fb3565b5090565b6040518060600160405280600015158152602001600060ff16815260200160006bffffffffffffffffffffffff1681525090565b5b80821115613fcc576000816000905550600101613fb4565b5090565b5b80821115613ff05760008181613fe7919061409e565b50600101613fd1565b5090565b82805461400090615f2c565b90600052602060002090601f0160209004810192826140225760008555614069565b82601f1061403b57805160ff1916838001178555614069565b82800160010185558215614069579182015b8281111561406857825182559160200191906001019061404d565b5b5090506140769190613fb3565b5090565b5b8082111561409a576000818161409191906140de565b5060010161407b565b5090565b5080546140aa90615f2c565b6000825580601f106140bc57506140db565b601f0160209004906000526020600020908101906140da9190613fb3565b5b50565b5080546140ea90615f2c565b6000825580601f106140fc575061411b565b601f01602090049060005260206000209081019061411a9190613fb3565b5b50565b6000604051905090565b600080fd5b600080fd5b6000819050919050565b61414581614132565b811461415057600080fd5b50565b6000813590506141628161413c565b92915050565b60006020828403121561417e5761417d614128565b5b600061418c84828501614153565b91505092915050565b61419e81614132565b82525050565b600073ffffffffffffffffffffffffffffffffffffffff82169050919050565b60006141cf826141a4565b9050919050565b6141df816141c4565b82525050565b60008115159050919050565b6141fa816141e5565b82525050565b600060e082019050614215600083018a614195565b61422260208301896141d6565b61422f6040830188614195565b61423c6060830187614195565b6142496080830186614195565b61425660a08301856141f1565b61426360c08301846141f1565b98975050505050505050565b60006020820190506142846000830184614195565b92915050565b600081519050919050565b600082825260208201905092915050565b60005b838110156142c45780820151818401526020810190506142a9565b838111156142d3576000848401525b50505050565b6000601f19601f8301169050919050565b60006142f58261428a565b6142ff8185614295565b935061430f8185602086016142a6565b614318816142d9565b840191505092915050565b6000602082019050818103600083015261433d81846142ea565b905092915050565b6000819050919050565b600061436a614365614360846141a4565b614345565b6141a4565b9050919050565b600061437c8261434f565b9050919050565b600061438e82614371565b9050919050565b61439e81614383565b82525050565b60006020820190506143b96000830184614395565b92915050565b6143c8816141c4565b81146143d357600080fd5b50565b6000813590506143e5816143bf565b92915050565b60006020828403121561440157614400614128565b5b600061440f848285016143d6565b91505092915050565b6000819050919050565b61442b81614418565b82525050565b60006020820190506144466000830184614422565b92915050565b600060208201905061446160008301846141d6565b92915050565b600060208201905061447c60008301846141f1565b92915050565b600060ff82169050919050565b61449881614482565b81146144a357600080fd5b50565b6000813590506144b58161448f565b92915050565b6144c481614418565b81146144cf57600080fd5b50565b6000813590506144e1816144bb565b92915050565b600080600080600060a0868803121561450357614502614128565b5b600061451188828901614153565b9550506020614522888289016144a6565b9450506040614533888289016144a6565b9350506060614544888289016144d2565b9250506080614555888289016144d2565b9150509295509295909350565b7f4e487b7100000000000000000000000000000000000000000000000000000000600052602160045260246000fd5b600881106145a2576145a1614562565b5b50565b60008190506145b382614591565b919050565b60006145c3826145a5565b9050919050565b6145d3816145b8565b82525050565b60006020820190506145ee60008301846145ca565b92915050565b6000806040838503121561460b5761460a614128565b5b6000614619858286016143d6565b925050602061462a85828601614153565b9150509250929050565b6000806040838503121561464b5761464a614128565b5b600061465985828601614153565b925050602061466a858286016144a6565b9150509250929050565b600080fd5b7f4e487b7100000000000000000000000000000000000000000000000000000000600052604160045260246000fd5b6146b1826142d9565b810181811067ffffffffffffffff821117156146d0576146cf614679565b5b80604052505050565b60006146e361411e565b90506146ef82826146a8565b919050565b600067ffffffffffffffff82111561470f5761470e614679565b5b602082029050602081019050919050565b600080fd5b600080fd5b600080fd5b600067ffffffffffffffff82111561474a57614749614679565b5b602082029050602081019050919050565b600061476e6147698461472f565b6146d9565b9050808382526020820190506020840283018581111561479157614790614720565b5b835b818110156147ba57806147a688826143d6565b845260208401935050602081019050614793565b5050509392505050565b600082601f8301126147d9576147d8614674565b5b81356147e984826020860161475b565b91505092915050565b600067ffffffffffffffff82111561480d5761480c614679565b5b602082029050602081019050919050565b600061483161482c846147f2565b6146d9565b9050808382526020820190506020840283018581111561485457614853614720565b5b835b8181101561487d57806148698882614153565b845260208401935050602081019050614856565b5050509392505050565b600082601f83011261489c5761489b614674565b5b81356148ac84826020860161481e565b91505092915050565b600067ffffffffffffffff8211156148d0576148cf614679565b5b602082029050602081019050919050565b600080fd5b600067ffffffffffffffff82111561490157614900614679565b5b61490a826142d9565b9050602081019050919050565b82818337600083830152505050565b6000614939614934846148e6565b6146d9565b905082815260208101848484011115614955576149546148e1565b5b614960848285614917565b509392505050565b600082601f83011261497d5761497c614674565b5b813561498d848260208601614926565b91505092915050565b60006149a96149a4846148b5565b6146d9565b905080838252602082019050602084028301858111156149cc576149cb614720565b5b835b81811015614a1357803567ffffffffffffffff8111156149f1576149f0614674565b5b8086016149fe8982614968565b855260208501945050506020810190506149ce565b5050509392505050565b600082601f830112614a3257614a31614674565b5b8135614a42848260208601614996565b91505092915050565b600067ffffffffffffffff821115614a6657614a65614679565b5b602082029050602081019050919050565b600067ffffffffffffffff821115614a9257614a91614679565b5b614a9b826142d9565b9050602081019050919050565b6000614abb614ab684614a77565b6146d9565b905082815260208101848484011115614ad757614ad66148e1565b5b614ae2848285614917565b509392505050565b600082601f830112614aff57614afe614674565b5b8135614b0f848260208601614aa8565b91505092915050565b6000614b2b614b2684614a4b565b6146d9565b90508083825260208201905060208402830185811115614b4e57614b4d614720565b5b835b81811015614b9557803567ffffffffffffffff811115614b7357614b72614674565b5b808601614b808982614aea565b85526020850194505050602081019050614b50565b5050509392505050565b600082601f830112614bb457614bb3614674565b5b8135614bc4848260208601614b18565b91505092915050565b600060a08284031215614be357614be2614725565b5b614bed60a06146d9565b9050600082013567ffffffffffffffff811115614c0d57614c0c61472a565b5b614c19848285016147c4565b600083015250602082013567ffffffffffffffff811115614c3d57614c3c61472a565b5b614c4984828501614887565b602083015250604082013567ffffffffffffffff811115614c6d57614c6c61472a565b5b614c7984828501614a1d565b604083015250606082013567ffffffffffffffff811115614c9d57614c9c61472a565b5b614ca984828501614b9f565b606083015250608082013567ffffffffffffffff811115614ccd57614ccc61472a565b5b614cd984828501614968565b60808301525092915050565b6000614cf8614cf3846146f4565b6146d9565b90508083825260208201905060208402830185811115614d1b57614d1a614720565b5b835b81811015614d6257803567ffffffffffffffff811115614d4057614d3f614674565b5b808601614d4d8982614bcd565b85526020850194505050602081019050614d1d565b5050509392505050565b600082601f830112614d8157614d80614674565b5b8135614d91848260208601614ce5565b91505092915050565b600060208284031215614db057614daf614128565b5b600082013567ffffffffffffffff811115614dce57614dcd61412d565b5b614dda84828501614d6c565b91505092915050565b600080fd5b60008083601f840112614dfe57614dfd614674565b5b8235905067ffffffffffffffff811115614e1b57614e1a614de3565b5b602083019150836001820283011115614e3757614e36614720565b5b9250929050565b60008060008060608587031215614e5857614e57614128565b5b6000614e6687828801614153565b9450506020614e77878288016144a6565b935050604085013567ffffffffffffffff811115614e9857614e9761412d565b5b614ea487828801614de8565b925092505092959194509250565b600080600080600060a08688031215614ece57614ecd614128565b5b6000614edc888289016143d6565b9550506020614eed888289016143d6565b9450506040614efe88828901614153565b9350506060614f0f88828901614153565b9250506080614f2088828901614153565b9150509295509295909350565b6000614f3882614371565b9050919050565b614f4881614f2d565b82525050565b6000602082019050614f636000830184614f3f565b92915050565b60008060408385031215614f8057614f7f614128565b5b6000614f8e85828601614153565b9250506020614f9f858286016143d6565b9150509250929050565b614fb2816141e5565b82525050565b614fc181614482565b82525050565b60006bffffffffffffffffffffffff82169050919050565b614fe881614fc7565b82525050565b6060820160008201516150046000850182614fa9565b5060208201516150176020850182614fb8565b50604082015161502a6040850182614fdf565b50505050565b60006060820190506150456000830184614fee565b92915050565b6000806040838503121561506257615061614128565b5b600061507085828601614153565b925050602061508185828601614153565b9150509250929050565b600081519050919050565b600082825260208201905092915050565b6000819050602082019050919050565b6150c0816141c4565b82525050565b60006150d283836150b7565b60208301905092915050565b6000602082019050919050565b60006150f68261508b565b6151008185615096565b935061510b836150a7565b8060005b8381101561513c57815161512388826150c6565b975061512e836150de565b92505060018101905061510f565b5085935050505092915050565b600081519050919050565b600082825260208201905092915050565b6000819050602082019050919050565b61517e81614132565b82525050565b60006151908383615175565b60208301905092915050565b6000602082019050919050565b60006151b482615149565b6151be8185615154565b93506151c983615165565b8060005b838110156151fa5781516151e18882615184565b97506151ec8361519c565b9250506001810190506151cd565b5085935050505092915050565b600081519050919050565b600082825260208201905092915050565b6000819050602082019050919050565b600082825260208201905092915050565b600061524f8261428a565b6152598185615233565b93506152698185602086016142a6565b615272816142d9565b840191505092915050565b60006152898383615244565b905092915050565b6000602082019050919050565b60006152a982615207565b6152b38185615212565b9350836020820285016152c585615223565b8060005b8581101561530157848403895281516152e2858261527d565b94506152ed83615291565b925060208a019950506001810190506152c9565b50829750879550505050505092915050565b600081519050919050565b600082825260208201905092915050565b6000819050602082019050919050565b600081519050919050565b600082825260208201905092915050565b60006153668261533f565b615370818561534a565b93506153808185602086016142a6565b615389816142d9565b840191505092915050565b60006153a0838361535b565b905092915050565b6000602082019050919050565b60006153c082615313565b6153ca818561531e565b9350836020820285016153dc8561532f565b8060005b8581101561541857848403895281516153f98582615394565b9450615404836153a8565b925060208a019950506001810190506153e0565b50829750879550505050505092915050565b600060a082019050818103600083015261544481886150eb565b9050818103602083015261545881876151a9565b9050818103604083015261546c818661529e565b9050818103606083015261548081856153b5565b9050818103608083015261549481846142ea565b90509695505050505050565b600060208201905081810360008301526154ba81846151a9565b905092915050565b7f476f7665726e6f724d696b653a3a5f736574566f74696e67506572696f643a2060008201527f61646d696e206f6e6c7900000000000000000000000000000000000000000000602082015250565b600061551e602a83614295565b9150615529826154c2565b604082019050919050565b6000602082019050818103600083015261554d81615511565b9050919050565b7f476f7665726e6f724d696b653a3a5f736574566f74696e67506572696f643a2060008201527f696e76616c696420766f74696e6720706572696f640000000000000000000000602082015250565b60006155b0603583614295565b91506155bb82615554565b604082019050919050565b600060208201905081810360008301526155df816155a3565b9050919050565b60006040820190506155fb6000830185614195565b6156086020830184614195565b9392505050565b7f476f7665726e6f724d696b653a3a5f73657450726f706f73616c54687265736860008201527f6f6c643a2061646d696e206f6e6c790000000000000000000000000000000000602082015250565b600061566b602f83614295565b91506156768261560f565b604082019050919050565b6000602082019050818103600083015261569a8161565e565b9050919050565b7f476f7665726e6f724d696b653a3a5f73657450726f706f73616c54687265736860008201527f6f6c643a20696e76616c69642070726f706f73616c207468726573686f6c6400602082015250565b60006156fd603f83614295565b9150615708826156a1565b604082019050919050565b6000602082019050818103600083015261572c816156f0565b9050919050565b7f476f7665726e6f724d696b653a3a5f736574566f74696e6744656c61793a206160008201527f646d696e206f6e6c790000000000000000000000000000000000000000000000602082015250565b600061578f602983614295565b915061579a82615733565b604082019050919050565b600060208201905081810360008301526157be81615782565b9050919050565b7f476f7665726e6f724d696b653a3a5f736574566f74696e6744656c61793a206960008201527f6e76616c696420766f74696e672064656c617900000000000000000000000000602082015250565b6000615821603383614295565b915061582c826157c5565b604082019050919050565b6000602082019050818103600083015261585081615814565b9050919050565b600060808201905061586c6000830187614422565b6158796020830186614422565b6158866040830185614195565b61589360608301846141d6565b95945050505050565b6158a581614482565b82525050565b60006060820190506158c06000830186614422565b6158cd6020830185614195565b6158da604083018461589c565b949350505050565b600081905092915050565b7f1901000000000000000000000000000000000000000000000000000000000000600082015250565b60006159236002836158e2565b915061592e826158ed565b600282019050919050565b6000819050919050565b61595461594f82614418565b615939565b82525050565b600061596582615916565b91506159718285615943565b6020820191506159818284615943565b6020820191508190509392505050565b60006080820190506159a66000830187614422565b6159b3602083018661589c565b6159c06040830185614422565b6159cd6060830184614422565b95945050505050565b7f476f7665726e6f724d696b653a3a63617374566f746542795369673a20696e7660008201527f616c6964207369676e6174757265000000000000000000000000000000000000602082015250565b6000615a32602e83614295565b9150615a3d826159d6565b604082019050919050565b60006020820190508181036000830152615a6181615a25565b9050919050565b6000615a83615a7e615a7984614fc7565b614345565b614132565b9050919050565b615a9381615a68565b82525050565b50565b6000615aa9600083614295565b9150615ab482615a99565b600082019050919050565b6000608082019050615ad46000830186614195565b615ae1602083018561589c565b615aee6040830184615a8a565b8181036060830152615aff81615a9c565b9050949350505050565b7f476f7665726e6f724d696b653a3a73746174653a20696e76616c69642070726f60008201527f706f73616c206964000000000000000000000000000000000000000000000000602082015250565b6000615b65602883614295565b9150615b7082615b09565b604082019050919050565b60006020820190508181036000830152615b9481615b58565b9050919050565b600081519050615baa8161413c565b92915050565b600060208284031215615bc657615bc5614128565b5b6000615bd484828501615b9b565b91505092915050565b7f4e487b7100000000000000000000000000000000000000000000000000000000600052601160045260246000fd5b6000615c1782614132565b9150615c2283614132565b9250827fffffffffffffffffffffffffffffffffffffffffffffffffffffffffffffffff03821115615c5757615c56615bdd565b5b828201905092915050565b7f476f7665726e6f724d696b653a3a63616e63656c3a2063616e6e6f742063616e60008201527f63656c2065786563757465642070726f706f73616c0000000000000000000000602082015250565b6000615cbe603583614295565b9150615cc982615c62565b604082019050919050565b60006020820190508181036000830152615ced81615cb1565b9050919050565b7f4e487b7100000000000000000000000000000000000000000000000000000000600052603260045260246000fd5b6000615d2e82614132565b9150615d3983614132565b925082821015615d4c57615d4b615bdd565b5b828203905092915050565b6000604082019050615d6c60008301856141d6565b615d796020830184614195565b9392505050565b615d8981614fc7565b8114615d9457600080fd5b50565b600081519050615da681615d80565b92915050565b600060208284031215615dc257615dc1614128565b5b6000615dd084828501615d97565b91505092915050565b7f476f7665726e6f724d696b653a3a63616e63656c3a2077686974656c6973746560008201527f642070726f706f73657200000000000000000000000000000000000000000000602082015250565b6000615e35602a83614295565b9150615e4082615dd9565b604082019050919050565b60006020820190508181036000830152615e6481615e28565b9050919050565b7f476f7665726e6f724d696b653a3a63616e63656c3a2070726f706f736572206160008201527f626f7665207468726573686f6c64000000000000000000000000000000000000602082015250565b6000615ec7602e83614295565b9150615ed282615e6b565b604082019050919050565b60006020820190508181036000830152615ef681615eba565b9050919050565b7f4e487b7100000000000000000000000000000000000000000000000000000000600052602260045260246000fd5b60006002820490506001821680615f4457607f821691505b60208210811415615f5857615f57615efd565b5b50919050565b60008190508160005260206000209050919050565b60008154615f8081615f2c565b615f8a8186614295565b94506001821660008114615fa55760018114615fb757615fea565b60ff1983168652602086019350615fea565b615fc085615f5e565b60005b83811015615fe257815481890152600182019150602081019050615fc3565b808801955050505b50505092915050565b600082825260208201905092915050565b60008190508160005260206000209050919050565b6000815461602681615f2c565b6160308186615ff3565b9450600182166000811461604b576001811461605d57616090565b60ff1983168652602086019350616090565b61606685616004565b60005b8381101561608857815481890152600182019150602081019050616069565b808801955050505b50505092915050565b600060a0820190506160ae60008301886141d6565b6160bb6020830187614195565b81810360408301526160cd8186615f73565b905081810360608301526160e18185616019565b90506160f06080830184614195565b9695505050505050565b600061610582614132565b91507fffffffffffffffffffffffffffffffffffffffffffffffffffffffffffffffff82141561613857616137615bdd565b5b600182019050919050565b7f476f7665726e6f724d696b653a3a5f73657457686974656c6973744163636f7560008201527f6e7445787069726174696f6e3a2061646d696e206f6e6c790000000000000000602082015250565b600061619f603883614295565b91506161aa82616143565b604082019050919050565b600060208201905081810360008301526161ce81616192565b9050919050565b7f476f7665726e6f724d696b653a3a70726f706f73653a2070726f706f7365722060008201527f766f7465732062656c6f772070726f706f73616c207468726573686f6c640000602082015250565b6000616231603e83614295565b915061623c826161d5565b604082019050919050565b6000602082019050818103600083015261626081616224565b9050919050565b7f476f7665726e6f724d696b653a3a70726f706f73653a2070726f706f73616c2060008201527f66756e6374696f6e20696e666f726d6174696f6e206172697479206d69736d6160208201527f7463680000000000000000000000000000000000000000000000000000000000604082015250565b60006162e9604383614295565b91506162f482616267565b606082019050919050565b60006020820190508181036000830152616318816162dc565b9050919050565b7f476f7665726e6f724d696b653a3a70726f706f73653a206d7573742070726f7660008201527f69646520616374696f6e73000000000000000000000000000000000000000000602082015250565b600061637b602b83614295565b91506163868261631f565b604082019050919050565b600060208201905081810360008301526163aa8161636e565b9050919050565b7f476f7665726e6f724d696b653a3a70726f706f73653a20746f6f206d616e792060008201527f616374696f6e7300000000000000000000000000000000000000000000000000602082015250565b600061640d602783614295565b9150616418826163b1565b604082019050919050565b6000602082019050818103600083015261643c81616400565b9050919050565b7f476f7665726e6f724d696b653a3a70726f706f73653a206f6e65206c6976652060008201527f70726f706f73616c207065722070726f706f7365722c20666f756e6420616e2060208201527f616c7265616479206163746976652070726f706f73616c000000000000000000604082015250565b60006164c5605783614295565b91506164d082616443565b606082019050919050565b600060208201905081810360008301526164f4816164b8565b9050919050565b7f476f7665726e6f724d696b653a3a70726f706f73653a206f6e65206c6976652060008201527f70726f706f73616c207065722070726f706f7365722c20666f756e6420616e2060208201527f616c72656164792070656e64696e672070726f706f73616c0000000000000000604082015250565b600061657d605883614295565b9150616588826164fb565b606082019050919050565b600060208201905081810360008301526165ac81616570565b9050919050565b60006080820190506165c86000830187614195565b6165d560208301866141d6565b6165e26040830185614195565b6165ef6060830184614195565b95945050505050565b60006166048385614295565b9350616611838584614917565b61661a836142d9565b840190509392505050565b600060808201905061663a6000830188614195565b616647602083018761589c565b6166546040830186615a8a565b81810360608301526166678184866165f8565b90509695505050505050565b7f476f7665726e6f724d696b653a3a5f73657457686974656c697374477561726460008201527f69616e3a2061646d696e206f6e6c790000000000000000000000000000000000602082015250565b60006166cf602f83614295565b91506166da82616673565b604082019050919050565b600060208201905081810360008301526166fe816166c2565b9050919050565b600060408201905061671a60008301856141d6565b61672760208301846141d6565b9392505050565b7f476f7665726e6f724d696b653a5f73657450656e64696e6741646d696e3a206160008201527f646d696e206f6e6c790000000000000000000000000000000000000000000000602082015250565b600061678a602983614295565b91506167958261672e565b604082019050919050565b600060208201905081810360008301526167b98161677d565b9050919050565b7f476f7665726e6f724d696b653a3a696e697469616c697a653a2063616e206f6e60008201527f6c7920696e697469616c697a65206f6e63650000000000000000000000000000602082015250565b600061681c603283614295565b9150616827826167c0565b604082019050919050565b6000602082019050818103600083015261684b8161680f565b9050919050565b7f476f7665726e6f724d696b653a3a696e697469616c697a653a2061646d696e2060008201527f6f6e6c7900000000000000000000000000000000000000000000000000000000602082015250565b60006168ae602483614295565b91506168b982616852565b604082019050919050565b600060208201905081810360008301526168dd816168a1565b9050919050565b7f476f7665726e6f724d696b653a3a696e697469616c697a653a20696e76616c6960008201527f642074696d656c6f636b20616464726573730000000000000000000000000000602082015250565b6000616940603283614295565b915061694b826168e4565b604082019050919050565b6000602082019050818103600083015261696f81616933565b9050919050565b7f476f7665726e6f724d696b653a3a696e697469616c697a653a20696e76616c6960008201527f6420636f6d702061646472657373000000000000000000000000000000000000602082015250565b60006169d2602e83614295565b91506169dd82616976565b604082019050919050565b60006020820190508181036000830152616a01816169c5565b9050919050565b7f476f7665726e6f724d696b653a3a696e697469616c697a653a20696e76616c6960008201527f6420766f74696e6720706572696f640000000000000000000000000000000000602082015250565b6000616a64602f83614295565b9150616a6f82616a08565b604082019050919050565b60006020820190508181036000830152616a9381616a57565b9050919050565b7f476f7665726e6f724d696b653a3a696e697469616c697a653a20696e76616c6960008201527f6420766f74696e672064656c6179000000000000000000000000000000000000602082015250565b6000616af6602e83614295565b9150616b0182616a9a565b604082019050919050565b60006020820190508181036000830152616b2581616ae9565b9050919050565b7f476f7665726e6f724d696b653a3a696e697469616c697a653a20696e76616c6960008201527f642070726f706f73616c207468726573686f6c64000000000000000000000000602082015250565b6000616b88603483614295565b9150616b9382616b2c565b604082019050919050565b60006020820190508181036000830152616bb781616b7b565b9050919050565b7f476f7665726e6f724d696b653a3a71756575653a2070726f706f73616c20636160008201527f6e206f6e6c79206265207175657565642069662069742069732073756363656560208201527f6465640000000000000000000000000000000000000000000000000000000000604082015250565b6000616c40604383614295565b9150616c4b82616bbe565b606082019050919050565b60006020820190508181036000830152616c6f81616c33565b9050919050565b7f476f7665726e6f724d696b653a5f61636365707441646d696e3a2070656e646960008201527f6e672061646d696e206f6e6c7900000000000000000000000000000000000000602082015250565b6000616cd2602d83614295565b9150616cdd82616c76565b604082019050919050565b60006020820190508181036000830152616d0181616cc5565b9050919050565b7f476f7665726e6f724d696b653a3a657865637574653a2070726f706f73616c2060008201527f63616e206f6e6c7920626520657865637574656420696620697420697320717560208201527f6575656400000000000000000000000000000000000000000000000000000000604082015250565b6000616d8a604483614295565b9150616d9582616d08565b606082019050919050565b60006020820190508181036000830152616db981616d7d565b9050919050565b6000616dd3616dce84614a77565b6146d9565b905082815260208101848484011115616def57616dee6148e1565b5b616dfa8482856142a6565b509392505050565b600082601f830112616e1757616e16614674565b5b8151616e27848260208601616dc0565b91505092915050565b600060208284031215616e4657616e45614128565b5b600082015167ffffffffffffffff811115616e6457616e6361412d565b5b616e7084828501616e02565b91505092915050565b7f476f7665726e6f724d696b653a3a63617374566f7465496e7465726e616c3a2060008201527f766f74696e6720697320636c6f73656400000000000000000000000000000000602082015250565b6000616ed5603083614295565b9150616ee082616e79565b604082019050919050565b60006020820190508181036000830152616f0481616ec8565b9050919050565b7f476f7665726e6f724d696b653a3a63617374566f7465496e7465726e616c3a2060008201527f696e76616c696420766f74652074797065000000000000000000000000000000602082015250565b6000616f67603183614295565b9150616f7282616f0b565b604082019050919050565b60006020820190508181036000830152616f9681616f5a565b9050919050565b7f476f7665726e6f724d696b653a3a63617374566f7465496e7465726e616c3a2060008201527f766f74657220616c726561647920766f74656400000000000000000000000000602082015250565b6000616ff9603383614295565b915061700482616f9d565b604082019050919050565b6000602082019050818103600083015261702881616fec565b9050919050565b600061703a8261533f565b6170448185615ff3565b93506170548185602086016142a6565b61705d816142d9565b840191505092915050565b600060a08201905061707d60008301886141d6565b61708a6020830187614195565b818103604083015261709c81866142ea565b905081810360608301526170b0818561702f565b90506170bf6080830184614195565b9695505050505050565b6170d2816141e5565b81146170dd57600080fd5b50565b6000815190506170ef816170c9565b92915050565b60006020828403121561710b5761710a614128565b5b6000617119848285016170e0565b91505092915050565b7f476f7665726e6f724d696b653a3a71756575654f72526576657274496e74657260008201527f6e616c3a206964656e746963616c2070726f706f73616c20616374696f6e206160208201527f6c72656164792071756575656420617420657461000000000000000000000000604082015250565b60006171a4605483614295565b91506171af82617122565b606082019050919050565b600060208201905081810360008301526171d381617197565b9050919050565b6000815190506171e9816144bb565b92915050565b60006020828403121561720557617204614128565b5b6000617213848285016171da565b9150509291505056fea26469706673582212208d54a028383f59bb1634dd4d335ca4a64bc2a72a29a9d943955a628d6bf7767e64736f6c634300080a0033",
  "immutableReferences": {},
  "source": "// SPDX-License-Identifier: BSD-3-Clause\n\npragma solidity ^0.8.0;\n\nimport \"./GovernorMikeInterfaces.sol\";\n\ncontract GovernorMikeDelegate is\n    GovernorMikeDelegateStorageV2,\n    GovernorMikeEvents\n{\n\n    /// @notice The name of this contract\n    string public constant name = \"Compound Governor Mike\";\n\n    /// @notice The minimum setable proposal threshold\n    uint public constant MIN_PROPOSAL_THRESHOLD = 1000e18; // 1,000 Comp\n\n    /// @notice The maximum setable proposal threshold\n    uint public constant MAX_PROPOSAL_THRESHOLD = 100000e18; //100,000 Comp\n\n    /// @notice The minimum setable voting period\n    uint public constant MIN_VOTING_PERIOD = 5760; // About 24 hours\n\n    /// @notice The max setable voting period\n    uint public constant MAX_VOTING_PERIOD = 80640; // About 2 weeks\n\n    /// @notice The min setable voting delay\n    uint public constant MIN_VOTING_DELAY = 1;\n\n    /// @notice The max setable voting delay\n    uint public constant MAX_VOTING_DELAY = 40320; // About 1 week\n\n    /// @notice The number of votes in support of a proposal required in order for a quorum to be reached and for a vote to succeed\n    uint public constant quorumVotes = 400000e18; // 400,000 = 4% of Comp\n\n    /// @notice The maximum number of actions that can be included in a proposal\n    uint public constant proposalMaxOperations = 10; // 10 actions\n\n    /// @notice The EIP-712 typehash for the contract's domain\n    bytes32 public constant DOMAIN_TYPEHASH = keccak256(\"EIP712Domain(string name,uint256 chainId,address verifyingContract)\");\n\n    /// @notice The EIP-712 typehash for the ballot struct used by the contract\n    bytes32 public constant BALLOT_TYPEHASH = keccak256(\"Ballot(uint256 proposalId,uint8 support)\");\n\n    /**\n      * @notice Used to initialize the contract during delegator constructor\n      * @param timelock_ The address of the Timelock\n      * @param comp_ The address of the COMP token\n      * @param votingPeriod_ The initial voting period\n      * @param votingDelay_ The initial voting delay\n      * @param proposalThreshold_ The initial proposal threshold\n      */\n    function initialize(address timelock_, address comp_, uint votingPeriod_, uint votingDelay_, uint proposalThreshold_) virtual public {\n        require(address(timelock) == address(0), \"GovernorMike::initialize: can only initialize once\");\n        require(msg.sender == admin, \"GovernorMike::initialize: admin only\");\n        require(timelock_ != address(0), \"GovernorMike::initialize: invalid timelock address\");\n        require(comp_ != address(0), \"GovernorMike::initialize: invalid comp address\");\n        require(votingPeriod_ >= MIN_VOTING_PERIOD && votingPeriod_ <= MAX_VOTING_PERIOD, \"GovernorMike::initialize: invalid voting period\");\n        require(votingDelay_ >= MIN_VOTING_DELAY && votingDelay_ <= MAX_VOTING_DELAY, \"GovernorMike::initialize: invalid voting delay\");\n        require(proposalThreshold_ >= MIN_PROPOSAL_THRESHOLD && proposalThreshold_ <= MAX_PROPOSAL_THRESHOLD, \"GovernorMike::initialize: invalid proposal threshold\");\n\n        timelock = TimelockInterface(timelock_);\n        comp = CompInterface(comp_);\n        votingPeriod = votingPeriod_;\n        votingDelay = votingDelay_;\n        proposalThreshold = proposalThreshold_;\n\n        timelock.acceptAdmin();\n    }\n\n    /**\n      * @notice Function used to propose a new proposal with multiple issues.\n      * Sender must have delegates above the proposal threshold\n      * @param issues_ Choices\n      * @return Proposal id of new proposal\n      */\n    function propose(\n        Issue[] memory issues_\n    ) public returns (uint) {\n        proposalCount++;\n        Proposal storage newProposal = proposals[proposalCount];\n        \n        for (uint i = 0; i < issues_.length; i++) {\n            // Allow addresses above proposal threshold and whitelisted addresses to propose\n            require(comp.getPriorVotes(msg.sender, block.number - 1) > proposalThreshold || isWhitelisted(msg.sender), \"GovernorMike::propose: proposer votes below proposal threshold\");\n            require(\n                issues_[i].targets.length == issues_[i].values.length && issues_[i].targets.length == issues_[i].signatures.length && issues_[i].targets.length == issues_[i].calldatas.length,\n                \"GovernorMike::propose: proposal function information arity mismatch\"\n            );\n            require(issues_[i].targets.length != 0, \"GovernorMike::propose: must provide actions\");\n            require(issues_[i].targets.length <= proposalMaxOperations, \"GovernorMike::propose: too many actions\");\n\n            newProposal.issues.push(issues_[i]);\n        }\n\n        uint latestProposalId = latestProposalIds[msg.sender];\n        if (latestProposalId != 0) {\n          ProposalState proposersLatestProposalState = state(latestProposalId);\n          require(proposersLatestProposalState != ProposalState.Active, \"GovernorMike::propose: one live proposal per proposer, found an already active proposal\");\n          require(proposersLatestProposalState != ProposalState.Pending, \"GovernorMike::propose: one live proposal per proposer, found an already pending proposal\");\n        }\n\n        uint startBlock = block.number + votingDelay;\n        uint endBlock = startBlock + votingPeriod;\n\n        newProposal.id = proposalCount;\n        newProposal.proposer = msg.sender;\n        newProposal.eta = 0;\n        // newProposal.issues = issues_; // above\n        newProposal.startBlock = startBlock;\n        newProposal.endBlock = endBlock;\n        newProposal.votes = new uint[](issues_.length);\n        newProposal.canceled = false;\n        newProposal.executed = false;\n\n        latestProposalIds[newProposal.proposer] = newProposal.id;\n\n        emit ProposalCreated(newProposal.id, msg.sender, startBlock, endBlock);\n        return newProposal.id;\n    }\n\n    /**\n      * @notice Queues a proposal of state succeeded\n      * @param proposalId The id of the proposal to queue\n      */\n    function queue(uint proposalId) external {\n        require(state(proposalId) == ProposalState.Succeeded, \"GovernorMike::queue: proposal can only be queued if it is succeeded\");\n        Proposal storage proposal = proposals[proposalId];\n        Issue storage issue = proposal.issues[_winnerIssue(proposalId)];\n        uint eta = block.timestamp + timelock.delay();\n        for (uint i = 0; i < issue.targets.length; i++) {\n            queueOrRevertInternal(issue.targets[i], issue.values[i], issue.signatures[i], issue.calldatas[i], eta);\n        }\n        proposal.eta = eta;\n        emit ProposalQueued(proposalId, eta);\n    }\n\n    function queueOrRevertInternal(address target, uint value, string memory signature, bytes memory data, uint eta) internal {\n        require(!timelock.queuedTransactions(keccak256(abi.encode(target, value, signature, data, eta))), \"GovernorMike::queueOrRevertInternal: identical proposal action already queued at eta\");\n        timelock.queueTransaction(target, value, signature, data, eta);\n    }\n\n    /**\n      * @notice Executes a queued proposal if eta has passed\n      * @param proposalId The id of the proposal to execute\n      */\n    function execute(uint proposalId) external payable {\n        require(state(proposalId) == ProposalState.Queued, \"GovernorMike::execute: proposal can only be executed if it is queued\");\n        Proposal storage proposal = proposals[proposalId];\n        Issue storage issue = proposal.issues[_winnerIssue(proposalId)];\n        proposal.executed = true;\n        for (uint i = 0; i < issue.targets.length; i++) {\n            timelock.executeTransaction{value: issue.values[i]}(issue.targets[i], issue.values[i], issue.signatures[i], issue.calldatas[i], proposal.eta);\n        }\n        emit ProposalExecuted(proposalId);\n    }\n\n    /**\n      * @notice Cancels a proposal only if sender is the proposer, or proposer delegates dropped below proposal threshold\n      * @param proposalId The id of the proposal to cancel\n      */\n    function cancel(uint proposalId) external {\n        require(state(proposalId) != ProposalState.Executed, \"GovernorMike::cancel: cannot cancel executed proposal\");\n\n        Proposal storage proposal = proposals[proposalId];\n        Issue storage issue = proposal.issues[_winnerIssue(proposalId)];\n\n        // Proposer can cancel\n        if(msg.sender != proposal.proposer) {\n            // Whitelisted proposers can't be canceled for falling below proposal threshold\n            if(isWhitelisted(proposal.proposer)) {\n                require((comp.getPriorVotes(proposal.proposer, block.number - 1) < proposalThreshold) && msg.sender == whitelistGuardian, \"GovernorMike::cancel: whitelisted proposer\");\n            }\n            else {\n                require((comp.getPriorVotes(proposal.proposer, block.number - 1) < proposalThreshold), \"GovernorMike::cancel: proposer above threshold\");\n            }\n        }\n        \n        proposal.canceled = true;\n        for (uint i = 0; i < issue.targets.length; i++) {\n            timelock.cancelTransaction(issue.targets[i], issue.values[i], issue.signatures[i], issue.calldatas[i], proposal.eta);\n        }\n\n        emit ProposalCanceled(proposalId);\n    }\n\n    /**\n      * @notice Gets an issue of a proposal\n      * @param proposalId the id of the proposal\n      * @param issueNum the number of the issue\n      * return targets, values, signatures, calldatas, and description of the issue\n      */\n    function getIssue(uint proposalId, uint issueNum) external view returns (address[] memory targets, uint[] memory values, string[] memory signatures, bytes[] memory calldatas, string memory description) {\n        Issue storage issue = proposals[proposalId].issues[issueNum];\n        return (issue.targets, issue.values, issue.signatures, issue.calldatas, issue.description);\n    }\n\n    /**\n      * @notice Gets actions of a proposal\n      * @param proposalId the id of the proposal\n      * @return votes of the proposal\n      */\n    function getVotes(uint proposalId) external view returns (uint[] memory) {\n        return proposals[proposalId].votes;\n    }\n\n    /**\n      * @notice Gets the receipt for a voter on a given proposal\n      * @param proposalId the id of proposal\n      * @param voter The address of the voter\n      * @return The voting receipt\n      */\n    function getReceipt(uint proposalId, address voter) external view returns (Receipt memory) {\n        return proposals[proposalId].receipts[voter];\n    }\n\n    /**\n      * @notice Gets the state of a proposal\n      * @param proposalId The id of the proposal\n      * @return Proposal state\n      */\n    function state(uint proposalId) public view returns (ProposalState) {\n        require(proposalCount >= proposalId, \"GovernorMike::state: invalid proposal id\");\n        Proposal storage proposal = proposals[proposalId];\n        if (proposal.canceled) {\n            return ProposalState.Canceled;\n        } else if (block.number <= proposal.startBlock) {\n            return ProposalState.Pending;\n        } else if (block.number <= proposal.endBlock) {\n            return ProposalState.Active;\n        } else if (_winnerIssueVotes(proposalId) < quorumVotes) { // maxVotes < quorumVotes\n            return ProposalState.Defeated;\n        } else if (proposal.eta == 0) {\n            return ProposalState.Succeeded;\n        } else if (proposal.executed) {\n            return ProposalState.Executed;\n        } else if (block.timestamp >= proposal.eta + timelock.GRACE_PERIOD()) {\n            return ProposalState.Expired;\n        } else {\n            return ProposalState.Queued;\n        }\n    }\n\n    function _winnerIssue(uint proposalId) internal view returns(uint winnerIssue) {\n        uint[] storage votes = proposals[proposalId].votes;\n        uint maxVotes = 0;\n        for (uint i = 0; i < votes.length; i++) {\n            // TODO: case of equal\n            if (votes[i] > maxVotes) {\n                maxVotes = votes[i];\n                winnerIssue = i;\n            }\n        }\n    }\n\n    function _winnerIssueVotes(uint proposalId) internal view returns(uint maxVotes) {\n        uint[] storage votes = proposals[proposalId].votes;\n        uint winnerIssue = 0;\n        for (uint i = 0; i < votes.length; i++) {\n            // TODO: case of equal\n            if (votes[i] > maxVotes) {\n                maxVotes = votes[i];\n                winnerIssue = i;\n            }\n        }\n    }\n\n    /**\n      * @notice Cast a vote for a proposal\n      * @param proposalId The id of the proposal to vote on\n      * @param support The id of the issue to vote on\n      */\n    function castVote(uint proposalId, uint8 support) external {\n        emit VoteCast(msg.sender, proposalId, support, castVoteInternal(msg.sender, proposalId, support), \"\");\n    }\n\n    /**\n      * @notice Cast a vote for a proposal with a reason\n      * @param proposalId The id of the proposal to vote on\n      * @param support The id of the issue to vote on\n      * @param reason The reason given for the vote by the voter\n      */\n    function castVoteWithReason(uint proposalId, uint8 support, string calldata reason) external {\n        emit VoteCast(msg.sender, proposalId, support, castVoteInternal(msg.sender, proposalId, support), reason);\n    }\n\n    /**\n      * @notice Cast a vote for a proposal by signature\n      * @dev External function that accepts EIP-712 signatures for voting on proposals.\n      */\n    function castVoteBySig(uint proposalId, uint8 support, uint8 v, bytes32 r, bytes32 s) external {\n        bytes32 domainSeparator = keccak256(abi.encode(DOMAIN_TYPEHASH, keccak256(bytes(name)), block.chainid, address(this)));\n        bytes32 structHash = keccak256(abi.encode(BALLOT_TYPEHASH, proposalId, support));\n        bytes32 digest = keccak256(abi.encodePacked(\"\\x19\\x01\", domainSeparator, structHash));\n        address signatory = ecrecover(digest, v, r, s);\n        require(signatory != address(0), \"GovernorMike::castVoteBySig: invalid signature\");\n        emit VoteCast(signatory, proposalId, support, castVoteInternal(signatory, proposalId, support), \"\");\n    }\n\n    /**\n      * @notice Internal function that caries out voting logic\n      * @param voter The voter that is casting their vote\n      * @param proposalId The id of the proposal to vote on\n      * @param support The id of the issue to vote on\n      * @return The number of votes cast\n      */\n    function castVoteInternal(address voter, uint proposalId, uint8 support) internal returns (uint96) {\n        require(state(proposalId) == ProposalState.Active, \"GovernorMike::castVoteInternal: voting is closed\");\n        Proposal storage proposal = proposals[proposalId];\n        require(support < proposal.issues.length, \"GovernorMike::castVoteInternal: invalid vote type\");\n        Receipt storage receipt = proposal.receipts[voter];\n        require(receipt.hasVoted == false, \"GovernorMike::castVoteInternal: voter already voted\");\n        uint96 votes = comp.getPriorVotes(voter, proposal.startBlock);\n\n        proposal.votes[support] += votes;\n\n        receipt.hasVoted = true;\n        receipt.support = support;\n        receipt.votes = votes;\n\n        return votes;\n    }\n\n    /**\n     * @notice View function which returns if an account is whitelisted\n     * @param account Account to check white list status of\n     * @return If the account is whitelisted\n     */\n    function isWhitelisted(address account) public view returns (bool) {\n        return (whitelistAccountExpirations[account] > block.timestamp);\n    }\n\n    /**\n      * @notice Admin function for setting the voting delay\n      * @param newVotingDelay new voting delay, in blocks\n      */\n    function _setVotingDelay(uint newVotingDelay) external {\n        require(msg.sender == admin, \"GovernorMike::_setVotingDelay: admin only\");\n        require(newVotingDelay >= MIN_VOTING_DELAY && newVotingDelay <= MAX_VOTING_DELAY, \"GovernorMike::_setVotingDelay: invalid voting delay\");\n        uint oldVotingDelay = votingDelay;\n        votingDelay = newVotingDelay;\n\n        emit VotingDelaySet(oldVotingDelay,votingDelay);\n    }\n\n    /**\n      * @notice Admin function for setting the voting period\n      * @param newVotingPeriod new voting period, in blocks\n      */\n    function _setVotingPeriod(uint newVotingPeriod) external {\n        require(msg.sender == admin, \"GovernorMike::_setVotingPeriod: admin only\");\n        require(newVotingPeriod >= MIN_VOTING_PERIOD && newVotingPeriod <= MAX_VOTING_PERIOD, \"GovernorMike::_setVotingPeriod: invalid voting period\");\n        uint oldVotingPeriod = votingPeriod;\n        votingPeriod = newVotingPeriod;\n\n        emit VotingPeriodSet(oldVotingPeriod, votingPeriod);\n    }\n\n    /**\n      * @notice Admin function for setting the proposal threshold\n      * @dev newProposalThreshold must be greater than the hardcoded min\n      * @param newProposalThreshold new proposal threshold\n      */\n    function _setProposalThreshold(uint newProposalThreshold) external {\n        require(msg.sender == admin, \"GovernorMike::_setProposalThreshold: admin only\");\n        require(newProposalThreshold >= MIN_PROPOSAL_THRESHOLD && newProposalThreshold <= MAX_PROPOSAL_THRESHOLD, \"GovernorMike::_setProposalThreshold: invalid proposal threshold\");\n        uint oldProposalThreshold = proposalThreshold;\n        proposalThreshold = newProposalThreshold;\n\n        emit ProposalThresholdSet(oldProposalThreshold, proposalThreshold);\n    }\n\n    /**\n     * @notice Admin function for setting the whitelist expiration as a timestamp for an account. Whitelist status allows accounts to propose without meeting threshold\n     * @param account Account address to set whitelist expiration for\n     * @param expiration Expiration for account whitelist status as timestamp (if now < expiration, whitelisted)\n     */\n    function _setWhitelistAccountExpiration(address account, uint expiration) external {\n        require(msg.sender == admin || msg.sender == whitelistGuardian, \"GovernorMike::_setWhitelistAccountExpiration: admin only\");\n        whitelistAccountExpirations[account] = expiration;\n\n        emit WhitelistAccountExpirationSet(account, expiration);\n    }\n\n    /**\n     * @notice Admin function for setting the whitelistGuardian. WhitelistGuardian can cancel proposals from whitelisted addresses\n     * @param account Account to set whitelistGuardian to (0x0 to remove whitelistGuardian)\n     */\n     function _setWhitelistGuardian(address account) external {\n        require(msg.sender == admin, \"GovernorMike::_setWhitelistGuardian: admin only\");\n        address oldGuardian = whitelistGuardian;\n        whitelistGuardian = account;\n\n        emit WhitelistGuardianSet(oldGuardian, whitelistGuardian);\n     }\n\n    /**\n      * @notice Begins transfer of admin rights. The newPendingAdmin must call `_acceptAdmin` to finalize the transfer.\n      * @dev Admin function to begin change of admin. The newPendingAdmin must call `_acceptAdmin` to finalize the transfer.\n      * @param newPendingAdmin New pending admin.\n      */\n    function _setPendingAdmin(address newPendingAdmin) external {\n        // Check caller = admin\n        require(msg.sender == admin, \"GovernorMike:_setPendingAdmin: admin only\");\n\n        // Save current value, if any, for inclusion in log\n        address oldPendingAdmin = pendingAdmin;\n\n        // Store pendingAdmin with value newPendingAdmin\n        pendingAdmin = newPendingAdmin;\n\n        // Emit NewPendingAdmin(oldPendingAdmin, newPendingAdmin)\n        emit NewPendingAdmin(oldPendingAdmin, newPendingAdmin);\n    }\n\n    /**\n      * @notice Accepts transfer of admin rights. msg.sender must be pendingAdmin\n      * @dev Admin function for pending admin to accept role and update admin\n      */\n    function _acceptAdmin() external {\n        // Check caller is pendingAdmin and pendingAdmin  address(0)\n        require(msg.sender == pendingAdmin && msg.sender != address(0), \"GovernorMike:_acceptAdmin: pending admin only\");\n\n        // Save current values for inclusion in log\n        address oldAdmin = admin;\n        address oldPendingAdmin = pendingAdmin;\n\n        // Store admin with value pendingAdmin\n        admin = pendingAdmin;\n\n        // Clear the pending value\n        pendingAdmin = address(0);\n\n        emit NewAdmin(oldAdmin, admin);\n        emit NewPendingAdmin(oldPendingAdmin, pendingAdmin);\n    }\n}\n",
  "sourcePath": "/Users/lukepark/Desktop/D3LAB/Governor/dev/Governor-M/contracts/GovernorMikeDelegate.sol",
  "compiler": {
    "name": "solc",
    "version": "0.8.10+commit.fc410830.Emscripten.clang"
  },
  "schemaVersion": "3.4.3",
  "updatedAt": "2022-06-27T10:03:38.418Z",
  "devdoc": {
    "kind": "dev",
    "methods": {
      "_acceptAdmin()": {
        "details": "Admin function for pending admin to accept role and update admin"
      },
      "_setPendingAdmin(address)": {
        "details": "Admin function to begin change of admin. The newPendingAdmin must call `_acceptAdmin` to finalize the transfer.",
        "params": {
          "newPendingAdmin": "New pending admin."
        }
      },
      "_setProposalThreshold(uint256)": {
        "details": "newProposalThreshold must be greater than the hardcoded min",
        "params": {
          "newProposalThreshold": "new proposal threshold"
        }
      },
      "_setVotingDelay(uint256)": {
        "params": {
          "newVotingDelay": "new voting delay, in blocks"
        }
      },
      "_setVotingPeriod(uint256)": {
        "params": {
          "newVotingPeriod": "new voting period, in blocks"
        }
      },
      "_setWhitelistAccountExpiration(address,uint256)": {
        "params": {
          "account": "Account address to set whitelist expiration for",
          "expiration": "Expiration for account whitelist status as timestamp (if now < expiration, whitelisted)"
        }
      },
      "_setWhitelistGuardian(address)": {
        "params": {
          "account": "Account to set whitelistGuardian to (0x0 to remove whitelistGuardian)"
        }
      },
      "cancel(uint256)": {
        "params": {
          "proposalId": "The id of the proposal to cancel"
        }
      },
      "castVote(uint256,uint8)": {
        "params": {
          "proposalId": "The id of the proposal to vote on",
          "support": "The id of the issue to vote on"
        }
      },
      "castVoteBySig(uint256,uint8,uint8,bytes32,bytes32)": {
        "details": "External function that accepts EIP-712 signatures for voting on proposals."
      },
      "castVoteWithReason(uint256,uint8,string)": {
        "params": {
          "proposalId": "The id of the proposal to vote on",
          "reason": "The reason given for the vote by the voter",
          "support": "The id of the issue to vote on"
        }
      },
      "execute(uint256)": {
        "params": {
          "proposalId": "The id of the proposal to execute"
        }
      },
      "getIssue(uint256,uint256)": {
        "params": {
          "issueNum": "the number of the issue return targets, values, signatures, calldatas, and description of the issue",
          "proposalId": "the id of the proposal"
        }
      },
      "getReceipt(uint256,address)": {
        "params": {
          "proposalId": "the id of proposal",
          "voter": "The address of the voter"
        },
        "returns": {
          "_0": "The voting receipt"
        }
      },
      "getVotes(uint256)": {
        "params": {
          "proposalId": "the id of the proposal"
        },
        "returns": {
          "_0": "votes of the proposal"
        }
      },
      "initialize(address,address,uint256,uint256,uint256)": {
        "params": {
          "comp_": "The address of the COMP token",
          "proposalThreshold_": "The initial proposal threshold",
          "timelock_": "The address of the Timelock",
          "votingDelay_": "The initial voting delay",
          "votingPeriod_": "The initial voting period"
        }
      },
      "isWhitelisted(address)": {
        "params": {
          "account": "Account to check white list status of"
        },
        "returns": {
          "_0": "If the account is whitelisted"
        }
      },
      "propose((address[],uint256[],string[],bytes[],string)[])": {
        "params": {
          "issues_": "Choices"
        },
        "returns": {
          "_0": "Proposal id of new proposal"
        }
      },
      "queue(uint256)": {
        "params": {
          "proposalId": "The id of the proposal to queue"
        }
      },
      "state(uint256)": {
        "params": {
          "proposalId": "The id of the proposal"
        },
        "returns": {
          "_0": "Proposal state"
        }
      }
    },
    "version": 1
  },
  "userdoc": {
    "events": {
      "NewAdmin(address,address)": {
        "notice": "Emitted when pendingAdmin is accepted, which means admin is updated"
      },
      "NewImplementation(address,address)": {
        "notice": "Emitted when implementation is changed"
      },
      "NewPendingAdmin(address,address)": {
        "notice": "Emitted when pendingAdmin is changed"
      },
      "ProposalCanceled(uint256)": {
        "notice": "An event emitted when a proposal has been canceled"
      },
      "ProposalCreated(uint256,address,uint256,uint256)": {
        "notice": "An event emitted when a new proposal is created"
      },
      "ProposalExecuted(uint256)": {
        "notice": "An event emitted when a proposal has been executed in the Timelock"
      },
      "ProposalQueued(uint256,uint256)": {
        "notice": "An event emitted when a proposal has been queued in the Timelock"
      },
      "ProposalThresholdSet(uint256,uint256)": {
        "notice": "Emitted when proposal threshold is set"
      },
      "VoteCast(address,uint256,uint8,uint256,string)": {
        "notice": "An event emitted when a vote has been cast on a proposal"
      },
      "VotingDelaySet(uint256,uint256)": {
        "notice": "An event emitted when the voting delay is set"
      },
      "VotingPeriodSet(uint256,uint256)": {
        "notice": "An event emitted when the voting period is set"
      },
      "WhitelistAccountExpirationSet(address,uint256)": {
        "notice": "Emitted when whitelist account expiration is set"
      },
      "WhitelistGuardianSet(address,address)": {
        "notice": "Emitted when the whitelistGuardian is set"
      }
    },
    "kind": "user",
    "methods": {
      "BALLOT_TYPEHASH()": {
        "notice": "The EIP-712 typehash for the ballot struct used by the contract"
      },
      "DOMAIN_TYPEHASH()": {
        "notice": "The EIP-712 typehash for the contract's domain"
      },
      "MAX_PROPOSAL_THRESHOLD()": {
        "notice": "The maximum setable proposal threshold"
      },
      "MAX_VOTING_DELAY()": {
        "notice": "The max setable voting delay"
      },
      "MAX_VOTING_PERIOD()": {
        "notice": "The max setable voting period"
      },
      "MIN_PROPOSAL_THRESHOLD()": {
        "notice": "The minimum setable proposal threshold"
      },
      "MIN_VOTING_DELAY()": {
        "notice": "The min setable voting delay"
      },
      "MIN_VOTING_PERIOD()": {
        "notice": "The minimum setable voting period"
      },
      "_acceptAdmin()": {
        "notice": "Accepts transfer of admin rights. msg.sender must be pendingAdmin"
      },
      "_setPendingAdmin(address)": {
        "notice": "Begins transfer of admin rights. The newPendingAdmin must call `_acceptAdmin` to finalize the transfer."
      },
      "_setProposalThreshold(uint256)": {
        "notice": "Admin function for setting the proposal threshold"
      },
      "_setVotingDelay(uint256)": {
        "notice": "Admin function for setting the voting delay"
      },
      "_setVotingPeriod(uint256)": {
        "notice": "Admin function for setting the voting period"
      },
      "_setWhitelistAccountExpiration(address,uint256)": {
        "notice": "Admin function for setting the whitelist expiration as a timestamp for an account. Whitelist status allows accounts to propose without meeting threshold"
      },
      "_setWhitelistGuardian(address)": {
        "notice": "Admin function for setting the whitelistGuardian. WhitelistGuardian can cancel proposals from whitelisted addresses"
      },
      "admin()": {
        "notice": "Administrator for this contract"
      },
      "cancel(uint256)": {
        "notice": "Cancels a proposal only if sender is the proposer, or proposer delegates dropped below proposal threshold"
      },
      "castVote(uint256,uint8)": {
        "notice": "Cast a vote for a proposal"
      },
      "castVoteBySig(uint256,uint8,uint8,bytes32,bytes32)": {
        "notice": "Cast a vote for a proposal by signature"
      },
      "castVoteWithReason(uint256,uint8,string)": {
        "notice": "Cast a vote for a proposal with a reason"
      },
      "comp()": {
        "notice": "The address of the Compound governance token"
      },
      "execute(uint256)": {
        "notice": "Executes a queued proposal if eta has passed"
      },
      "getIssue(uint256,uint256)": {
        "notice": "Gets an issue of a proposal"
      },
      "getReceipt(uint256,address)": {
        "notice": "Gets the receipt for a voter on a given proposal"
      },
      "getVotes(uint256)": {
        "notice": "Gets actions of a proposal"
      },
      "implementation()": {
        "notice": "Active brains of Governor"
      },
      "initialProposalId()": {
        "notice": "Initial proposal id set at become"
      },
      "initialize(address,address,uint256,uint256,uint256)": {
        "notice": "Used to initialize the contract during delegator constructor"
      },
      "isWhitelisted(address)": {
        "notice": "View function which returns if an account is whitelisted"
      },
      "latestProposalIds(address)": {
        "notice": "The latest proposal for each proposer"
      },
      "name()": {
        "notice": "The name of this contract"
      },
      "pendingAdmin()": {
        "notice": "Pending administrator for this contract"
      },
      "proposalCount()": {
        "notice": "The total number of proposals"
      },
      "proposalMaxOperations()": {
        "notice": "The maximum number of actions that can be included in a proposal"
      },
      "proposalThreshold()": {
        "notice": "The number of votes required in order for a voter to become a proposer"
      },
      "proposals(uint256)": {
        "notice": "The official record of all proposals ever proposed"
      },
      "propose((address[],uint256[],string[],bytes[],string)[])": {
        "notice": "Function used to propose a new proposal with multiple issues. Sender must have delegates above the proposal threshold"
      },
      "queue(uint256)": {
        "notice": "Queues a proposal of state succeeded"
      },
      "quorumVotes()": {
        "notice": "The number of votes in support of a proposal required in order for a quorum to be reached and for a vote to succeed"
      },
      "state(uint256)": {
        "notice": "Gets the state of a proposal"
      },
      "timelock()": {
        "notice": "The address of the Compound Protocol Timelock"
      },
      "votingDelay()": {
        "notice": "The delay before voting on a proposal may take place, once proposed, in blocks"
      },
      "votingPeriod()": {
        "notice": "The duration of voting on a proposal, in blocks"
      },
      "whitelistAccountExpirations(address)": {
        "notice": "Stores the expiration of account whitelist status as a timestamp"
      },
      "whitelistGuardian()": {
        "notice": "Address which manages whitelisted proposals and whitelist accounts"
      }
    },
    "version": 1
  }
}