{
  "contractName": "GovernorBravoDelegate",
  "abi": [
    {
      "anonymous": false,
      "inputs": [
        {
          "indexed": false,
          "internalType": "address",
          "name": "oldAdmin",
          "type": "address"
        },
        {
          "indexed": false,
          "internalType": "address",
          "name": "newAdmin",
          "type": "address"
        }
      ],
      "name": "NewAdmin",
      "type": "event"
    },
    {
      "anonymous": false,
      "inputs": [
        {
          "indexed": false,
          "internalType": "address",
          "name": "oldImplementation",
          "type": "address"
        },
        {
          "indexed": false,
          "internalType": "address",
          "name": "newImplementation",
          "type": "address"
        }
      ],
      "name": "NewImplementation",
      "type": "event"
    },
    {
      "anonymous": false,
      "inputs": [
        {
          "indexed": false,
          "internalType": "address",
          "name": "oldPendingAdmin",
          "type": "address"
        },
        {
          "indexed": false,
          "internalType": "address",
          "name": "newPendingAdmin",
          "type": "address"
        }
      ],
      "name": "NewPendingAdmin",
      "type": "event"
    },
    {
      "anonymous": false,
      "inputs": [
        {
          "indexed": false,
          "internalType": "uint256",
          "name": "id",
          "type": "uint256"
        }
      ],
      "name": "ProposalCanceled",
      "type": "event"
    },
    {
      "anonymous": false,
      "inputs": [
        {
          "indexed": false,
          "internalType": "uint256",
          "name": "id",
          "type": "uint256"
        },
        {
          "indexed": false,
          "internalType": "address",
          "name": "proposer",
          "type": "address"
        },
        {
          "indexed": false,
          "internalType": "address[]",
          "name": "targets",
          "type": "address[]"
        },
        {
          "indexed": false,
          "internalType": "uint256[]",
          "name": "values",
          "type": "uint256[]"
        },
        {
          "indexed": false,
          "internalType": "string[]",
          "name": "signatures",
          "type": "string[]"
        },
        {
          "indexed": false,
          "internalType": "bytes[]",
          "name": "calldatas",
          "type": "bytes[]"
        },
        {
          "indexed": false,
          "internalType": "uint256",
          "name": "startBlock",
          "type": "uint256"
        },
        {
          "indexed": false,
          "internalType": "uint256",
          "name": "endBlock",
          "type": "uint256"
        },
        {
          "indexed": false,
          "internalType": "string",
          "name": "description",
          "type": "string"
        }
      ],
      "name": "ProposalCreated",
      "type": "event"
    },
    {
      "anonymous": false,
      "inputs": [
        {
          "indexed": false,
          "internalType": "uint256",
          "name": "id",
          "type": "uint256"
        }
      ],
      "name": "ProposalExecuted",
      "type": "event"
    },
    {
      "anonymous": false,
      "inputs": [
        {
          "indexed": false,
          "internalType": "uint256",
          "name": "id",
          "type": "uint256"
        },
        {
          "indexed": false,
          "internalType": "uint256",
          "name": "eta",
          "type": "uint256"
        }
      ],
      "name": "ProposalQueued",
      "type": "event"
    },
    {
      "anonymous": false,
      "inputs": [
        {
          "indexed": false,
          "internalType": "uint256",
          "name": "oldProposalThreshold",
          "type": "uint256"
        },
        {
          "indexed": false,
          "internalType": "uint256",
          "name": "newProposalThreshold",
          "type": "uint256"
        }
      ],
      "name": "ProposalThresholdSet",
      "type": "event"
    },
    {
      "anonymous": false,
      "inputs": [
        {
          "indexed": true,
          "internalType": "address",
          "name": "voter",
          "type": "address"
        },
        {
          "indexed": false,
          "internalType": "uint256",
          "name": "proposalId",
          "type": "uint256"
        },
        {
          "indexed": false,
          "internalType": "uint8",
          "name": "support",
          "type": "uint8"
        },
        {
          "indexed": false,
          "internalType": "uint256",
          "name": "votes",
          "type": "uint256"
        },
        {
          "indexed": false,
          "internalType": "string",
          "name": "reason",
          "type": "string"
        }
      ],
      "name": "VoteCast",
      "type": "event"
    },
    {
      "anonymous": false,
      "inputs": [
        {
          "indexed": false,
          "internalType": "uint256",
          "name": "oldVotingDelay",
          "type": "uint256"
        },
        {
          "indexed": false,
          "internalType": "uint256",
          "name": "newVotingDelay",
          "type": "uint256"
        }
      ],
      "name": "VotingDelaySet",
      "type": "event"
    },
    {
      "anonymous": false,
      "inputs": [
        {
          "indexed": false,
          "internalType": "uint256",
          "name": "oldVotingPeriod",
          "type": "uint256"
        },
        {
          "indexed": false,
          "internalType": "uint256",
          "name": "newVotingPeriod",
          "type": "uint256"
        }
      ],
      "name": "VotingPeriodSet",
      "type": "event"
    },
    {
      "anonymous": false,
      "inputs": [
        {
          "indexed": false,
          "internalType": "address",
          "name": "account",
          "type": "address"
        },
        {
          "indexed": false,
          "internalType": "uint256",
          "name": "expiration",
          "type": "uint256"
        }
      ],
      "name": "WhitelistAccountExpirationSet",
      "type": "event"
    },
    {
      "anonymous": false,
      "inputs": [
        {
          "indexed": false,
          "internalType": "address",
          "name": "oldGuardian",
          "type": "address"
        },
        {
          "indexed": false,
          "internalType": "address",
          "name": "newGuardian",
          "type": "address"
        }
      ],
      "name": "WhitelistGuardianSet",
      "type": "event"
    },
    {
      "constant": true,
      "inputs": [],
      "name": "BALLOT_TYPEHASH",
      "outputs": [
        {
          "internalType": "bytes32",
          "name": "",
          "type": "bytes32"
        }
      ],
      "payable": false,
      "stateMutability": "view",
      "type": "function"
    },
    {
      "constant": true,
      "inputs": [],
      "name": "DOMAIN_TYPEHASH",
      "outputs": [
        {
          "internalType": "bytes32",
          "name": "",
          "type": "bytes32"
        }
      ],
      "payable": false,
      "stateMutability": "view",
      "type": "function"
    },
    {
      "constant": true,
      "inputs": [],
      "name": "MAX_PROPOSAL_THRESHOLD",
      "outputs": [
        {
          "internalType": "uint256",
          "name": "",
          "type": "uint256"
        }
      ],
      "payable": false,
      "stateMutability": "view",
      "type": "function"
    },
    {
      "constant": true,
      "inputs": [],
      "name": "MAX_VOTING_DELAY",
      "outputs": [
        {
          "internalType": "uint256",
          "name": "",
          "type": "uint256"
        }
      ],
      "payable": false,
      "stateMutability": "view",
      "type": "function"
    },
    {
      "constant": true,
      "inputs": [],
      "name": "MAX_VOTING_PERIOD",
      "outputs": [
        {
          "internalType": "uint256",
          "name": "",
          "type": "uint256"
        }
      ],
      "payable": false,
      "stateMutability": "view",
      "type": "function"
    },
    {
      "constant": true,
      "inputs": [],
      "name": "MIN_PROPOSAL_THRESHOLD",
      "outputs": [
        {
          "internalType": "uint256",
          "name": "",
          "type": "uint256"
        }
      ],
      "payable": false,
      "stateMutability": "view",
      "type": "function"
    },
    {
      "constant": true,
      "inputs": [],
      "name": "MIN_VOTING_DELAY",
      "outputs": [
        {
          "internalType": "uint256",
          "name": "",
          "type": "uint256"
        }
      ],
      "payable": false,
      "stateMutability": "view",
      "type": "function"
    },
    {
      "constant": true,
      "inputs": [],
      "name": "MIN_VOTING_PERIOD",
      "outputs": [
        {
          "internalType": "uint256",
          "name": "",
          "type": "uint256"
        }
      ],
      "payable": false,
      "stateMutability": "view",
      "type": "function"
    },
    {
      "constant": true,
      "inputs": [],
      "name": "admin",
      "outputs": [
        {
          "internalType": "address",
          "name": "",
          "type": "address"
        }
      ],
      "payable": false,
      "stateMutability": "view",
      "type": "function"
    },
    {
      "constant": true,
      "inputs": [],
      "name": "comp",
      "outputs": [
        {
          "internalType": "contract CompInterface",
          "name": "",
          "type": "address"
        }
      ],
      "payable": false,
      "stateMutability": "view",
      "type": "function"
    },
    {
      "constant": true,
      "inputs": [],
      "name": "implementation",
      "outputs": [
        {
          "internalType": "address",
          "name": "",
          "type": "address"
        }
      ],
      "payable": false,
      "stateMutability": "view",
      "type": "function"
    },
    {
      "constant": true,
      "inputs": [],
      "name": "initialProposalId",
      "outputs": [
        {
          "internalType": "uint256",
          "name": "",
          "type": "uint256"
        }
      ],
      "payable": false,
      "stateMutability": "view",
      "type": "function"
    },
    {
      "constant": true,
      "inputs": [
        {
          "internalType": "address",
          "name": "",
          "type": "address"
        }
      ],
      "name": "latestProposalIds",
      "outputs": [
        {
          "internalType": "uint256",
          "name": "",
          "type": "uint256"
        }
      ],
      "payable": false,
      "stateMutability": "view",
      "type": "function"
    },
    {
      "constant": true,
      "inputs": [],
      "name": "name",
      "outputs": [
        {
          "internalType": "string",
          "name": "",
          "type": "string"
        }
      ],
      "payable": false,
      "stateMutability": "view",
      "type": "function"
    },
    {
      "constant": true,
      "inputs": [],
      "name": "pendingAdmin",
      "outputs": [
        {
          "internalType": "address",
          "name": "",
          "type": "address"
        }
      ],
      "payable": false,
      "stateMutability": "view",
      "type": "function"
    },
    {
      "constant": true,
      "inputs": [],
      "name": "proposalCount",
      "outputs": [
        {
          "internalType": "uint256",
          "name": "",
          "type": "uint256"
        }
      ],
      "payable": false,
      "stateMutability": "view",
      "type": "function"
    },
    {
      "constant": true,
      "inputs": [],
      "name": "proposalMaxOperations",
      "outputs": [
        {
          "internalType": "uint256",
          "name": "",
          "type": "uint256"
        }
      ],
      "payable": false,
      "stateMutability": "view",
      "type": "function"
    },
    {
      "constant": true,
      "inputs": [],
      "name": "proposalThreshold",
      "outputs": [
        {
          "internalType": "uint256",
          "name": "",
          "type": "uint256"
        }
      ],
      "payable": false,
      "stateMutability": "view",
      "type": "function"
    },
    {
      "constant": true,
      "inputs": [
        {
          "internalType": "uint256",
          "name": "",
          "type": "uint256"
        }
      ],
      "name": "proposals",
      "outputs": [
        {
          "internalType": "uint256",
          "name": "id",
          "type": "uint256"
        },
        {
          "internalType": "address",
          "name": "proposer",
          "type": "address"
        },
        {
          "internalType": "uint256",
          "name": "eta",
          "type": "uint256"
        },
        {
          "internalType": "uint256",
          "name": "startBlock",
          "type": "uint256"
        },
        {
          "internalType": "uint256",
          "name": "endBlock",
          "type": "uint256"
        },
        {
          "internalType": "uint256",
          "name": "forVotes",
          "type": "uint256"
        },
        {
          "internalType": "uint256",
          "name": "againstVotes",
          "type": "uint256"
        },
        {
          "internalType": "uint256",
          "name": "abstainVotes",
          "type": "uint256"
        },
        {
          "internalType": "bool",
          "name": "canceled",
          "type": "bool"
        },
        {
          "internalType": "bool",
          "name": "executed",
          "type": "bool"
        }
      ],
      "payable": false,
      "stateMutability": "view",
      "type": "function"
    },
    {
      "constant": true,
      "inputs": [],
      "name": "quorumVotes",
      "outputs": [
        {
          "internalType": "uint256",
          "name": "",
          "type": "uint256"
        }
      ],
      "payable": false,
      "stateMutability": "view",
      "type": "function"
    },
    {
      "constant": true,
      "inputs": [],
      "name": "timelock",
      "outputs": [
        {
          "internalType": "contract TimelockInterface",
          "name": "",
          "type": "address"
        }
      ],
      "payable": false,
      "stateMutability": "view",
      "type": "function"
    },
    {
      "constant": true,
      "inputs": [],
      "name": "votingDelay",
      "outputs": [
        {
          "internalType": "uint256",
          "name": "",
          "type": "uint256"
        }
      ],
      "payable": false,
      "stateMutability": "view",
      "type": "function"
    },
    {
      "constant": true,
      "inputs": [],
      "name": "votingPeriod",
      "outputs": [
        {
          "internalType": "uint256",
          "name": "",
          "type": "uint256"
        }
      ],
      "payable": false,
      "stateMutability": "view",
      "type": "function"
    },
    {
      "constant": true,
      "inputs": [
        {
          "internalType": "address",
          "name": "",
          "type": "address"
        }
      ],
      "name": "whitelistAccountExpirations",
      "outputs": [
        {
          "internalType": "uint256",
          "name": "",
          "type": "uint256"
        }
      ],
      "payable": false,
      "stateMutability": "view",
      "type": "function"
    },
    {
      "constant": true,
      "inputs": [],
      "name": "whitelistGuardian",
      "outputs": [
        {
          "internalType": "address",
          "name": "",
          "type": "address"
        }
      ],
      "payable": false,
      "stateMutability": "view",
      "type": "function"
    },
    {
      "constant": false,
      "inputs": [
        {
          "internalType": "address",
          "name": "timelock_",
          "type": "address"
        },
        {
          "internalType": "address",
          "name": "comp_",
          "type": "address"
        },
        {
          "internalType": "uint256",
          "name": "votingPeriod_",
          "type": "uint256"
        },
        {
          "internalType": "uint256",
          "name": "votingDelay_",
          "type": "uint256"
        },
        {
          "internalType": "uint256",
          "name": "proposalThreshold_",
          "type": "uint256"
        }
      ],
      "name": "initialize",
      "outputs": [],
      "payable": false,
      "stateMutability": "nonpayable",
      "type": "function"
    },
    {
      "constant": false,
      "inputs": [
        {
          "internalType": "address[]",
          "name": "targets",
          "type": "address[]"
        },
        {
          "internalType": "uint256[]",
          "name": "values",
          "type": "uint256[]"
        },
        {
          "internalType": "string[]",
          "name": "signatures",
          "type": "string[]"
        },
        {
          "internalType": "bytes[]",
          "name": "calldatas",
          "type": "bytes[]"
        },
        {
          "internalType": "string",
          "name": "description",
          "type": "string"
        }
      ],
      "name": "propose",
      "outputs": [
        {
          "internalType": "uint256",
          "name": "",
          "type": "uint256"
        }
      ],
      "payable": false,
      "stateMutability": "nonpayable",
      "type": "function"
    },
    {
      "constant": false,
      "inputs": [
        {
          "internalType": "uint256",
          "name": "proposalId",
          "type": "uint256"
        }
      ],
      "name": "queue",
      "outputs": [],
      "payable": false,
      "stateMutability": "nonpayable",
      "type": "function"
    },
    {
      "constant": false,
      "inputs": [
        {
          "internalType": "uint256",
          "name": "proposalId",
          "type": "uint256"
        }
      ],
      "name": "execute",
      "outputs": [],
      "payable": true,
      "stateMutability": "payable",
      "type": "function"
    },
    {
      "constant": false,
      "inputs": [
        {
          "internalType": "uint256",
          "name": "proposalId",
          "type": "uint256"
        }
      ],
      "name": "cancel",
      "outputs": [],
      "payable": false,
      "stateMutability": "nonpayable",
      "type": "function"
    },
    {
      "constant": true,
      "inputs": [
        {
          "internalType": "uint256",
          "name": "proposalId",
          "type": "uint256"
        }
      ],
      "name": "getActions",
      "outputs": [
        {
          "internalType": "address[]",
          "name": "targets",
          "type": "address[]"
        },
        {
          "internalType": "uint256[]",
          "name": "values",
          "type": "uint256[]"
        },
        {
          "internalType": "string[]",
          "name": "signatures",
          "type": "string[]"
        },
        {
          "internalType": "bytes[]",
          "name": "calldatas",
          "type": "bytes[]"
        }
      ],
      "payable": false,
      "stateMutability": "view",
      "type": "function"
    },
    {
      "constant": true,
      "inputs": [
        {
          "internalType": "uint256",
          "name": "proposalId",
          "type": "uint256"
        },
        {
          "internalType": "address",
          "name": "voter",
          "type": "address"
        }
      ],
      "name": "getReceipt",
      "outputs": [
        {
          "components": [
            {
              "internalType": "bool",
              "name": "hasVoted",
              "type": "bool"
            },
            {
              "internalType": "uint8",
              "name": "support",
              "type": "uint8"
            },
            {
              "internalType": "uint96",
              "name": "votes",
              "type": "uint96"
            }
          ],
          "internalType": "struct GovernorBravoDelegateStorageV1.Receipt",
          "name": "",
          "type": "tuple"
        }
      ],
      "payable": false,
      "stateMutability": "view",
      "type": "function"
    },
    {
      "constant": true,
      "inputs": [
        {
          "internalType": "uint256",
          "name": "proposalId",
          "type": "uint256"
        }
      ],
      "name": "state",
      "outputs": [
        {
          "internalType": "enum GovernorBravoDelegateStorageV1.ProposalState",
          "name": "",
          "type": "uint8"
        }
      ],
      "payable": false,
      "stateMutability": "view",
      "type": "function"
    },
    {
      "constant": false,
      "inputs": [
        {
          "internalType": "uint256",
          "name": "proposalId",
          "type": "uint256"
        },
        {
          "internalType": "uint8",
          "name": "support",
          "type": "uint8"
        }
      ],
      "name": "castVote",
      "outputs": [],
      "payable": false,
      "stateMutability": "nonpayable",
      "type": "function"
    },
    {
      "constant": false,
      "inputs": [
        {
          "internalType": "uint256",
          "name": "proposalId",
          "type": "uint256"
        },
        {
          "internalType": "uint8",
          "name": "support",
          "type": "uint8"
        },
        {
          "internalType": "string",
          "name": "reason",
          "type": "string"
        }
      ],
      "name": "castVoteWithReason",
      "outputs": [],
      "payable": false,
      "stateMutability": "nonpayable",
      "type": "function"
    },
    {
      "constant": false,
      "inputs": [
        {
          "internalType": "uint256",
          "name": "proposalId",
          "type": "uint256"
        },
        {
          "internalType": "uint8",
          "name": "support",
          "type": "uint8"
        },
        {
          "internalType": "uint8",
          "name": "v",
          "type": "uint8"
        },
        {
          "internalType": "bytes32",
          "name": "r",
          "type": "bytes32"
        },
        {
          "internalType": "bytes32",
          "name": "s",
          "type": "bytes32"
        }
      ],
      "name": "castVoteBySig",
      "outputs": [],
      "payable": false,
      "stateMutability": "nonpayable",
      "type": "function"
    },
    {
      "constant": true,
      "inputs": [
        {
          "internalType": "address",
          "name": "account",
          "type": "address"
        }
      ],
      "name": "isWhitelisted",
      "outputs": [
        {
          "internalType": "bool",
          "name": "",
          "type": "bool"
        }
      ],
      "payable": false,
      "stateMutability": "view",
      "type": "function"
    },
    {
      "constant": false,
      "inputs": [
        {
          "internalType": "uint256",
          "name": "newVotingDelay",
          "type": "uint256"
        }
      ],
      "name": "_setVotingDelay",
      "outputs": [],
      "payable": false,
      "stateMutability": "nonpayable",
      "type": "function"
    },
    {
      "constant": false,
      "inputs": [
        {
          "internalType": "uint256",
          "name": "newVotingPeriod",
          "type": "uint256"
        }
      ],
      "name": "_setVotingPeriod",
      "outputs": [],
      "payable": false,
      "stateMutability": "nonpayable",
      "type": "function"
    },
    {
      "constant": false,
      "inputs": [
        {
          "internalType": "uint256",
          "name": "newProposalThreshold",
          "type": "uint256"
        }
      ],
      "name": "_setProposalThreshold",
      "outputs": [],
      "payable": false,
      "stateMutability": "nonpayable",
      "type": "function"
    },
    {
      "constant": false,
      "inputs": [
        {
          "internalType": "address",
          "name": "account",
          "type": "address"
        },
        {
          "internalType": "uint256",
          "name": "expiration",
          "type": "uint256"
        }
      ],
      "name": "_setWhitelistAccountExpiration",
      "outputs": [],
      "payable": false,
      "stateMutability": "nonpayable",
      "type": "function"
    },
    {
      "constant": false,
      "inputs": [
        {
          "internalType": "address",
          "name": "account",
          "type": "address"
        }
      ],
      "name": "_setWhitelistGuardian",
      "outputs": [],
      "payable": false,
      "stateMutability": "nonpayable",
      "type": "function"
    },
    {
      "constant": false,
      "inputs": [
        {
          "internalType": "address",
          "name": "governorAlpha",
          "type": "address"
        }
      ],
      "name": "_initiate",
      "outputs": [],
      "payable": false,
      "stateMutability": "nonpayable",
      "type": "function"
    },
    {
      "constant": false,
      "inputs": [
        {
          "internalType": "address",
          "name": "newPendingAdmin",
          "type": "address"
        }
      ],
      "name": "_setPendingAdmin",
      "outputs": [],
      "payable": false,
      "stateMutability": "nonpayable",
      "type": "function"
    },
    {
      "constant": false,
      "inputs": [],
      "name": "_acceptAdmin",
      "outputs": [],
      "payable": false,
      "stateMutability": "nonpayable",
      "type": "function"
    }
  ],
  "bytecode": "0x608060405234801561001057600080fd5b5061702280620000216000396000f3fe6080604052600436106102725760003560e01c80635c60da1b1161014f578063d33219b4116100c1578063e48083fe1161007a578063e48083fe14610988578063e9c714f2146109b3578063f851a440146109ca578063f9d28b80146109f5578063fc4eee4214610a1e578063fe0d94c114610a4957610272565b8063d33219b414610864578063da35c6641461088f578063da95691a146108ba578063ddf0b009146108f7578063deaaa7cc14610920578063e23a9a521461094b57610272565b8063a64e024a11610113578063a64e024a14610766578063b112626314610791578063b58131b0146107bc578063b71d1a0c146107e7578063c5a8425d14610810578063d13f90b41461083b57610272565b80635c60da1b14610693578063791f5d23146106be5780637b3c71d3146106e95780637bdbe4d014610712578063995333651461073d57610272565b806325fd935a116101e85780633af32abf116101ac5780633af32abf146105755780633bccf4fd146105b25780633e4f49e6146105db57806340e58ee5146106185780634d6733d214610641578063567813881461066a57610272565b806325fd935a1461047757806326782247146104a2578063328dd982146104cd57806338bd0dda1461050d5780633932abb11461054a57610272565b806317977c611161023a57806317977c611461036757806317ba1b8b146103a45780631dfb1b5a146103cd57806320606b70146103f6578063215809ca1461042157806324bc1a641461044c57610272565b8063013cf08b1461027757806302a251a3146102bd57806306fdde03146102e85780630ea2d98c14610313578063109d0af81461033c575b600080fd5b34801561028357600080fd5b5061029e6004803603610299919081019061472e565b610a65565b6040516102b49a9998979695949392919061695c565b60405180910390f35b3480156102c957600080fd5b506102d2610af3565b6040516102df9190616891565b60405180910390f35b3480156102f457600080fd5b506102fd610af9565b60405161030a9190616374565b60405180910390f35b34801561031f57600080fd5b5061033a6004803603610335919081019061472e565b610b32565b005b34801561034857600080fd5b50610351610c62565b60405161035e9190616323565b60405180910390f35b34801561037357600080fd5b5061038e600480360361038991908101906144d0565b610c88565b60405161039b9190616891565b60405180910390f35b3480156103b057600080fd5b506103cb60048036036103c6919081019061472e565b610ca0565b005b3480156103d957600080fd5b506103f460048036036103ef919081019061472e565b610ddf565b005b34801561040257600080fd5b5061040b610f0d565b6040516104189190616247565b60405180910390f35b34801561042d57600080fd5b50610436610f24565b6040516104439190616891565b60405180910390f35b34801561045857600080fd5b50610461610f2a565b60405161046e9190616891565b60405180910390f35b34801561048357600080fd5b5061048c610f38565b6040516104999190616891565b60405180910390f35b3480156104ae57600080fd5b506104b7610f46565b6040516104c49190616073565b60405180910390f35b3480156104d957600080fd5b506104f460048036036104ef919081019061472e565b610f6c565b60405161050494939291906161cb565b60405180910390f35b34801561051957600080fd5b50610534600480360361052f91908101906144d0565b611249565b6040516105419190616891565b60405180910390f35b34801561055657600080fd5b5061055f611261565b60405161056c9190616891565b60405180910390f35b34801561058157600080fd5b5061059c600480360361059791908101906144d0565b611267565b6040516105a9919061622c565b60405180910390f35b3480156105be57600080fd5b506105d960048036036105d49190810190614864565b6112b2565b005b3480156105e757600080fd5b5061060260048036036105fd919081019061472e565b6114d2565b60405161060f9190616359565b60405180910390f35b34801561062457600080fd5b5061063f600480360361063a919081019061472e565b6116bb565b005b34801561064d57600080fd5b5061066860048036036106639190810190614570565b611c0a565b005b34801561067657600080fd5b50610691600480360361068c91908101906147bc565b611d72565b005b34801561069f57600080fd5b506106a8611dd2565b6040516106b59190616073565b60405180910390f35b3480156106ca57600080fd5b506106d3611df8565b6040516106e09190616891565b60405180910390f35b3480156106f557600080fd5b50610710600480360361070b91908101906147f8565b611e06565b005b34801561071e57600080fd5b50610727611e6c565b6040516107349190616891565b60405180910390f35b34801561074957600080fd5b50610764600480360361075f91908101906144d0565b611e71565b005b34801561077257600080fd5b5061077b611fc7565b6040516107889190616891565b60405180910390f35b34801561079d57600080fd5b506107a6611fce565b6040516107b39190616891565b60405180910390f35b3480156107c857600080fd5b506107d1611fd4565b6040516107de9190616891565b60405180910390f35b3480156107f357600080fd5b5061080e600480360361080991908101906144d0565b611fda565b005b34801561081c57600080fd5b5061082561210e565b6040516108329190616073565b60405180910390f35b34801561084757600080fd5b50610862600480360361085d91908101906144f9565b612134565b005b34801561087057600080fd5b506108796124db565b604051610886919061633e565b60405180910390f35b34801561089b57600080fd5b506108a4612501565b6040516108b19190616891565b60405180910390f35b3480156108c657600080fd5b506108e160048036036108dc91908101906145ac565b612507565b6040516108ee9190616891565b60405180910390f35b34801561090357600080fd5b5061091e6004803603610919919081019061472e565b612b26565b005b34801561092c57600080fd5b50610935612e76565b6040516109429190616247565b60405180910390f35b34801561095757600080fd5b50610972600480360361096d9190810190614780565b612e8d565b60405161097f9190616876565b60405180910390f35b34801561099457600080fd5b5061099d612f71565b6040516109aa9190616891565b60405180910390f35b3480156109bf57600080fd5b506109c8612f76565b005b3480156109d657600080fd5b506109df6131e9565b6040516109ec9190616073565b60405180910390f35b348015610a0157600080fd5b50610a1c6004803603610a1791908101906144d0565b61320e565b005b348015610a2a57600080fd5b50610a336133f6565b604051610a409190616891565b60405180910390f35b610a636004803603610a5e919081019061472e565b6133fc565b005b600a6020528060005260406000206000915090508060000154908060010160009054906101000a900473ffffffffffffffffffffffffffffffffffffffff169080600201549080600701549080600801549080600901549080600a01549080600b01549080600c0160009054906101000a900460ff169080600c0160019054906101000a900460ff1690508a565b60045481565b6040518060400160405280601781526020017f436f6d706f756e6420476f7665726e6f7220427261766f00000000000000000081525081565b6000809054906101000a900473ffffffffffffffffffffffffffffffffffffffff1673ffffffffffffffffffffffffffffffffffffffff163373ffffffffffffffffffffffffffffffffffffffff1614610bc1576040517f08c379a0000000000000000000000000000000000000000000000000000000008152600401610bb890616416565b60405180910390fd5b6116808110158015610bd6575062013b008111155b610c15576040517f08c379a0000000000000000000000000000000000000000000000000000000008152600401610c0c90616496565b60405180910390fd5b60006004549050816004819055507f7e3f7f0708a84de9203036abaa450dccc85ad5ff52f78c170f3edb55cf5e882881600454604051610c569291906169f8565b60405180910390a15050565b600960009054906101000a900473ffffffffffffffffffffffffffffffffffffffff1681565b600b6020528060005260406000206000915090505481565b6000809054906101000a900473ffffffffffffffffffffffffffffffffffffffff1673ffffffffffffffffffffffffffffffffffffffff163373ffffffffffffffffffffffffffffffffffffffff1614610d2f576040517f08c379a0000000000000000000000000000000000000000000000000000000008152600401610d26906167d6565b60405180910390fd5b690a968163f0a57b4000008110158015610d53575069152d02c7e14af68000008111155b610d92576040517f08c379a0000000000000000000000000000000000000000000000000000000008152600401610d89906165f6565b60405180910390fd5b60006005549050816005819055507fccb45da8d5717e6c4544694297c4ba5cf151d455c9bb0ed4fc7a38411bc0546181600554604051610dd39291906169f8565b60405180910390a15050565b6000809054906101000a900473ffffffffffffffffffffffffffffffffffffffff1673ffffffffffffffffffffffffffffffffffffffff163373ffffffffffffffffffffffffffffffffffffffff1614610e6e576040517f08c379a0000000000000000000000000000000000000000000000000000000008152600401610e6590616456565b60405180910390fd5b60018110158015610e815750619d808111155b610ec0576040517f08c379a0000000000000000000000000000000000000000000000000000000008152600401610eb7906164f6565b60405180910390fd5b60006003549050816003819055507fc565b045403dc03c2eea82b81a0465edad9e2e7fc4d97e11421c209da93d7a9381600354604051610f019291906169f8565b60405180910390a15050565b604051610f199061605e565b604051809103902081565b61168081565b6954b40b1f852bda00000081565b69152d02c7e14af680000081565b600160009054906101000a900473ffffffffffffffffffffffffffffffffffffffff1681565b6060806060806000600a60008781526020019081526020016000209050806003018160040182600501836006018380548060200260200160405190810160405280929190818152602001828054801561101a57602002820191906000526020600020905b8160009054906101000a900473ffffffffffffffffffffffffffffffffffffffff1673ffffffffffffffffffffffffffffffffffffffff1681526020019060010190808311610fd0575b505050505093508280548060200260200160405190810160405280929190818152602001828054801561106c57602002820191906000526020600020905b815481526020019060010190808311611058575b5050505050925081805480602002602001604051908101604052809291908181526020016000905b82821015611150578382906000526020600020018054600181600116156101000203166002900480601f01602080910402602001604051908101604052809291908181526020018280546001816001161561010002031660029004801561113c5780601f106111115761010080835404028352916020019161113c565b820191906000526020600020905b81548152906001019060200180831161111f57829003601f168201915b505050505081526020019060010190611094565b50505050915080805480602002602001604051908101604052809291908181526020016000905b82821015611233578382906000526020600020018054600181600116156101000203166002900480601f01602080910402602001604051908101604052809291908181526020018280546001816001161561010002031660029004801561121f5780601f106111f45761010080835404028352916020019161121f565b820191906000526020600020905b81548152906001019060200180831161120257829003601f168201915b505050505081526020019060010190611177565b5050505090509450945094509450509193509193565b600c6020528060005260406000206000915090505481565b60035481565b600042600c60008473ffffffffffffffffffffffffffffffffffffffff1673ffffffffffffffffffffffffffffffffffffffff16815260200190815260200160002054119050919050565b60006040516112c09061605e565b60405180910390206040518060400160405280601781526020017f436f6d706f756e6420476f7665726e6f7220427261766f0000000000000000008152508051906020012061130d61364a565b306040516020016113219493929190616262565b604051602081830303815290604052805190602001209050600060405161134790616012565b60405180910390208787604051602001611363939291906162a7565b60405160208183030381529060405280519060200120905060008282604051602001611390929190616027565b6040516020818303038152906040528051906020012090506000600182888888604051600081526020016040526040516113cd94939291906162de565b6020604051602081039080840390855afa1580156113ef573d6000803e3d6000fd5b505050602060405103519050600073ffffffffffffffffffffffffffffffffffffffff168173ffffffffffffffffffffffffffffffffffffffff16141561146b576040517f08c379a000000000000000000000000000000000000000000000000000000000815260040161146290616556565b60405180910390fd5b8073ffffffffffffffffffffffffffffffffffffffff167fb8e138887d0aa13bab447e82de9d5c1777041ecd21ca36ba824ff1e6c07ddda48a8a6114b0858e8e613657565b6040516114bf93929190616a6f565b60405180910390a2505050505050505050565b600081600754101580156114e7575060065482115b611526576040517f08c379a000000000000000000000000000000000000000000000000000000000815260040161151d906167f6565b60405180910390fd5b6000600a6000848152602001908152602001600020905080600c0160009054906101000a900460ff161561155e5760029150506116b6565b806007015443116115735760009150506116b6565b806008015443116115885760019150506116b6565b80600a015481600901541115806115ac57506954b40b1f852bda0000008160090154105b156115bb5760039150506116b6565b6000816002015414156115d25760049150506116b6565b80600c0160019054906101000a900460ff16156115f35760079150506116b6565b6116a08160020154600860009054906101000a900473ffffffffffffffffffffffffffffffffffffffff1673ffffffffffffffffffffffffffffffffffffffff1663c1a287e26040518163ffffffff1660e01b815260040160206040518083038186803b15801561166357600080fd5b505afa158015611677573d6000803e3d6000fd5b505050506040513d601f19601f8201168201806040525061169b9190810190614757565b613981565b42106116b05760069150506116b6565b60059150505b919050565b6007808111156116c757fe5b6116d0826114d2565b60078111156116db57fe5b141561171c576040517f08c379a0000000000000000000000000000000000000000000000000000000008152600401611713906167b6565b60405180910390fd5b6000600a600083815260200190815260200160002090508060010160009054906101000a900473ffffffffffffffffffffffffffffffffffffffff1673ffffffffffffffffffffffffffffffffffffffff163373ffffffffffffffffffffffffffffffffffffffff1614611a74576117b78160010160009054906101000a900473ffffffffffffffffffffffffffffffffffffffff16611267565b1561194657600554600960009054906101000a900473ffffffffffffffffffffffffffffffffffffffff1673ffffffffffffffffffffffffffffffffffffffff1663782d6fe18360010160009054906101000a900473ffffffffffffffffffffffffffffffffffffffff1661182d4360016139d6565b6040518363ffffffff1660e01b815260040161184a9291906160e0565b60206040518083038186803b15801561186257600080fd5b505afa158015611876573d6000803e3d6000fd5b505050506040513d601f19601f8201168201806040525061189a91908101906148db565b6bffffffffffffffffffffffff161080156119025750600d60009054906101000a900473ffffffffffffffffffffffffffffffffffffffff1673ffffffffffffffffffffffffffffffffffffffff163373ffffffffffffffffffffffffffffffffffffffff16145b611941576040517f08c379a000000000000000000000000000000000000000000000000000000000815260040161193890616856565b60405180910390fd5b611a73565b600554600960009054906101000a900473ffffffffffffffffffffffffffffffffffffffff1673ffffffffffffffffffffffffffffffffffffffff1663782d6fe18360010160009054906101000a900473ffffffffffffffffffffffffffffffffffffffff166119b74360016139d6565b6040518363ffffffff1660e01b81526004016119d49291906160e0565b60206040518083038186803b1580156119ec57600080fd5b505afa158015611a00573d6000803e3d6000fd5b505050506040513d601f19601f82011682018060405250611a2491908101906148db565b6bffffffffffffffffffffffff1610611a72576040517f08c379a0000000000000000000000000000000000000000000000000000000008152600401611a69906166d6565b60405180910390fd5b5b5b600181600c0160006101000a81548160ff02191690831515021790555060008090505b8160030180549050811015611bce57600860009054906101000a900473ffffffffffffffffffffffffffffffffffffffff1673ffffffffffffffffffffffffffffffffffffffff1663591fcdfe836003018381548110611af357fe5b9060005260206000200160009054906101000a900473ffffffffffffffffffffffffffffffffffffffff16846004018481548110611b2d57fe5b9060005260206000200154856005018581548110611b4757fe5b90600052602060002001866006018681548110611b6057fe5b9060005260206000200187600201546040518663ffffffff1660e01b8152600401611b8f95949392919061616a565b600060405180830381600087803b158015611ba957600080fd5b505af1158015611bbd573d6000803e3d6000fd5b505050508080600101915050611a97565b507f789cf55be980739dad1d0699b93b58e806b51c9d96619bfa8fe0a28abaa7b30c82604051611bfe9190616891565b60405180910390a15050565b6000809054906101000a900473ffffffffffffffffffffffffffffffffffffffff1673ffffffffffffffffffffffffffffffffffffffff163373ffffffffffffffffffffffffffffffffffffffff161480611cb25750600d60009054906101000a900473ffffffffffffffffffffffffffffffffffffffff1673ffffffffffffffffffffffffffffffffffffffff163373ffffffffffffffffffffffffffffffffffffffff16145b611cf1576040517f08c379a0000000000000000000000000000000000000000000000000000000008152600401611ce890616796565b60405180910390fd5b80600c60008473ffffffffffffffffffffffffffffffffffffffff1673ffffffffffffffffffffffffffffffffffffffff168152602001908152602001600020819055507f4e7b7545bc5744d0e30425959f4687475774b6c7edad77d24cb51c7d967d45158282604051611d669291906160e0565b60405180910390a15050565b3373ffffffffffffffffffffffffffffffffffffffff167fb8e138887d0aa13bab447e82de9d5c1777041ecd21ca36ba824ff1e6c07ddda48383611db7338787613657565b604051611dc693929190616a6f565b60405180910390a25050565b600260009054906101000a900473ffffffffffffffffffffffffffffffffffffffff1681565b690a968163f0a57b40000081565b3373ffffffffffffffffffffffffffffffffffffffff167fb8e138887d0aa13bab447e82de9d5c1777041ecd21ca36ba824ff1e6c07ddda48585611e4b338989613657565b8686604051611e5e959493929190616a21565b60405180910390a250505050565b600a81565b6000809054906101000a900473ffffffffffffffffffffffffffffffffffffffff1673ffffffffffffffffffffffffffffffffffffffff163373ffffffffffffffffffffffffffffffffffffffff1614611f00576040517f08c379a0000000000000000000000000000000000000000000000000000000008152600401611ef790616596565b60405180910390fd5b6000600d60009054906101000a900473ffffffffffffffffffffffffffffffffffffffff16905081600d60006101000a81548173ffffffffffffffffffffffffffffffffffffffff021916908373ffffffffffffffffffffffffffffffffffffffff1602179055507f80a07e73e552148844a9c216d9724212d609cfa54e9c1a2e97203bdd2c4ad34181600d60009054906101000a900473ffffffffffffffffffffffffffffffffffffffff16604051611fbb9291906160b7565b60405180910390a15050565b62013b0081565b619d8081565b60055481565b6000809054906101000a900473ffffffffffffffffffffffffffffffffffffffff1673ffffffffffffffffffffffffffffffffffffffff163373ffffffffffffffffffffffffffffffffffffffff1614612069576040517f08c379a0000000000000000000000000000000000000000000000000000000008152600401612060906163d6565b60405180910390fd5b6000600160009054906101000a900473ffffffffffffffffffffffffffffffffffffffff16905081600160006101000a81548173ffffffffffffffffffffffffffffffffffffffff021916908373ffffffffffffffffffffffffffffffffffffffff1602179055507fca4f2f25d0898edd99413412fb94012f9e54ec8142f9b093e7720646a95b16a981836040516121029291906160b7565b60405180910390a15050565b600d60009054906101000a900473ffffffffffffffffffffffffffffffffffffffff1681565b600073ffffffffffffffffffffffffffffffffffffffff16600860009054906101000a900473ffffffffffffffffffffffffffffffffffffffff1673ffffffffffffffffffffffffffffffffffffffff16146121c5576040517f08c379a00000000000000000000000000000000000000000000000000000000081526004016121bc906163b6565b60405180910390fd5b6000809054906101000a900473ffffffffffffffffffffffffffffffffffffffff1673ffffffffffffffffffffffffffffffffffffffff163373ffffffffffffffffffffffffffffffffffffffff1614612254576040517f08c379a000000000000000000000000000000000000000000000000000000000815260040161224b906165d6565b60405180910390fd5b600073ffffffffffffffffffffffffffffffffffffffff168573ffffffffffffffffffffffffffffffffffffffff1614156122c4576040517f08c379a00000000000000000000000000000000000000000000000000000000081526004016122bb90616436565b60405180910390fd5b600073ffffffffffffffffffffffffffffffffffffffff168473ffffffffffffffffffffffffffffffffffffffff161415612334576040517f08c379a000000000000000000000000000000000000000000000000000000000815260040161232b906166b6565b60405180910390fd5b6116808310158015612349575062013b008311155b612388576040517f08c379a000000000000000000000000000000000000000000000000000000000815260040161237f90616816565b60405180910390fd5b6001821015801561239b5750619d808211155b6123da576040517f08c379a00000000000000000000000000000000000000000000000000000000081526004016123d190616576565b60405180910390fd5b690a968163f0a57b40000081101580156123fe575069152d02c7e14af68000008111155b61243d576040517f08c379a000000000000000000000000000000000000000000000000000000000815260040161243490616516565b60405180910390fd5b84600860006101000a81548173ffffffffffffffffffffffffffffffffffffffff021916908373ffffffffffffffffffffffffffffffffffffffff16021790555083600960006101000a81548173ffffffffffffffffffffffffffffffffffffffff021916908373ffffffffffffffffffffffffffffffffffffffff1602179055508260048190555081600381905550806005819055505050505050565b600860009054906101000a900473ffffffffffffffffffffffffffffffffffffffff1681565b60075481565b600080600654141561254e576040517f08c379a000000000000000000000000000000000000000000000000000000000815260040161254590616476565b60405180910390fd5b600554600960009054906101000a900473ffffffffffffffffffffffffffffffffffffffff1673ffffffffffffffffffffffffffffffffffffffff1663782d6fe13361259b4360016139d6565b6040518363ffffffff1660e01b81526004016125b892919061608e565b60206040518083038186803b1580156125d057600080fd5b505afa1580156125e4573d6000803e3d6000fd5b505050506040513d601f19601f8201168201806040525061260891908101906148db565b6bffffffffffffffffffffffff161180612627575061262633611267565b5b612666576040517f08c379a000000000000000000000000000000000000000000000000000000000815260040161265d90616776565b60405180910390fd5b84518651148015612678575083518651145b8015612685575082518651145b6126c4576040517f08c379a00000000000000000000000000000000000000000000000000000000081526004016126bb906165b6565b60405180910390fd5b600086511415612709576040517f08c379a000000000000000000000000000000000000000000000000000000000815260040161270090616676565b60405180910390fd5b600a8651111561274e576040517f08c379a0000000000000000000000000000000000000000000000000000000008152600401612745906166f6565b60405180910390fd5b6000600b60003373ffffffffffffffffffffffffffffffffffffffff1673ffffffffffffffffffffffffffffffffffffffff1681526020019081526020016000205490506000811461285d5760006127a5826114d2565b9050600160078111156127b457fe5b8160078111156127c057fe5b1415612801576040517f08c379a00000000000000000000000000000000000000000000000000000000081526004016127f890616736565b60405180910390fd5b6000600781111561280e57fe5b81600781111561281a57fe5b141561285b576040517f08c379a000000000000000000000000000000000000000000000000000000000815260040161285290616716565b60405180910390fd5b505b600061286b43600354613981565b9050600061287b82600454613981565b9050600760008154809291906001019190505550612897613bfc565b604051806101c0016040528060075481526020013373ffffffffffffffffffffffffffffffffffffffff168152602001600081526020018b81526020018a815260200189815260200188815260200184815260200183815260200160008152602001600081526020016000815260200160001515815260200160001515815250905080600a6000836000015181526020019081526020016000206000820151816000015560208201518160010160006101000a81548173ffffffffffffffffffffffffffffffffffffffff021916908373ffffffffffffffffffffffffffffffffffffffff1602179055506040820151816002015560608201518160030190805190602001906129a8929190613c85565b5060808201518160040190805190602001906129c5929190613d0f565b5060a08201518160050190805190602001906129e2929190613d5c565b5060c08201518160060190805190602001906129ff929190613dbc565b5060e082015181600701556101008201518160080155610120820151816009015561014082015181600a015561016082015181600b015561018082015181600c0160006101000a81548160ff0219169083151502179055506101a082015181600c0160016101000a81548160ff0219169083151502179055509050508060000151600b6000836020015173ffffffffffffffffffffffffffffffffffffffff1673ffffffffffffffffffffffffffffffffffffffff168152602001908152602001600020819055507f7d84a6263ae0d98d3329bd7b46bb4e8d6f98cd35a7adb45c274c8b7fd5ebd5e08160000151338c8c8c8c89898e604051612b0a999897969594939291906168ac565b60405180910390a1806000015194505050505095945050505050565b60046007811115612b3357fe5b612b3c826114d2565b6007811115612b4757fe5b14612b87576040517f08c379a0000000000000000000000000000000000000000000000000000000008152600401612b7e90616616565b60405180910390fd5b6000600a600083815260200190815260200160002090506000612c4942600860009054906101000a900473ffffffffffffffffffffffffffffffffffffffff1673ffffffffffffffffffffffffffffffffffffffff16636a42b8f86040518163ffffffff1660e01b815260040160206040518083038186803b158015612c0c57600080fd5b505afa158015612c20573d6000803e3d6000fd5b505050506040513d601f19601f82011682018060405250612c449190810190614757565b613981565b905060008090505b8260030180549050811015612e2e57612e21836003018281548110612c7257fe5b9060005260206000200160009054906101000a900473ffffffffffffffffffffffffffffffffffffffff16846004018381548110612cac57fe5b9060005260206000200154856005018481548110612cc657fe5b906000526020600020018054600181600116156101000203166002900480601f016020809104026020016040519081016040528092919081815260200182805460018160011615610100020316600290048015612d645780601f10612d3957610100808354040283529160200191612d64565b820191906000526020600020905b815481529060010190602001808311612d4757829003601f168201915b5050505050866006018581548110612d7857fe5b906000526020600020018054600181600116156101000203166002900480601f016020809104026020016040519081016040528092919081815260200182805460018160011615610100020316600290048015612e165780601f10612deb57610100808354040283529160200191612e16565b820191906000526020600020905b815481529060010190602001808311612df957829003601f168201915b505050505086613a26565b8080600101915050612c51565b508082600201819055507f9a2e42fd6722813d69113e7d0079d3d940171428df7373df9c7f7617cfda28928382604051612e699291906169f8565b60405180910390a1505050565b604051612e8290616012565b604051809103902081565b612e95613e1c565b600a6000848152602001908152602001600020600d0160008373ffffffffffffffffffffffffffffffffffffffff1673ffffffffffffffffffffffffffffffffffffffff1681526020019081526020016000206040518060600160405290816000820160009054906101000a900460ff161515151581526020016000820160019054906101000a900460ff1660ff1660ff1681526020016000820160029054906101000a90046bffffffffffffffffffffffff166bffffffffffffffffffffffff166bffffffffffffffffffffffff1681525050905092915050565b600181565b600160009054906101000a900473ffffffffffffffffffffffffffffffffffffffff1673ffffffffffffffffffffffffffffffffffffffff163373ffffffffffffffffffffffffffffffffffffffff161480156130005750600073ffffffffffffffffffffffffffffffffffffffff163373ffffffffffffffffffffffffffffffffffffffff1614155b61303f576040517f08c379a000000000000000000000000000000000000000000000000000000000815260040161303690616696565b60405180910390fd5b60008060009054906101000a900473ffffffffffffffffffffffffffffffffffffffff1690506000600160009054906101000a900473ffffffffffffffffffffffffffffffffffffffff169050600160009054906101000a900473ffffffffffffffffffffffffffffffffffffffff166000806101000a81548173ffffffffffffffffffffffffffffffffffffffff021916908373ffffffffffffffffffffffffffffffffffffffff1602179055506000600160006101000a81548173ffffffffffffffffffffffffffffffffffffffff021916908373ffffffffffffffffffffffffffffffffffffffff1602179055507ff9ffabca9c8276e99321725bcb43fb076a6c66a54b7f21c4e8146d8519b417dc826000809054906101000a900473ffffffffffffffffffffffffffffffffffffffff166040516131829291906160b7565b60405180910390a17fca4f2f25d0898edd99413412fb94012f9e54ec8142f9b093e7720646a95b16a981600160009054906101000a900473ffffffffffffffffffffffffffffffffffffffff166040516131dd9291906160b7565b60405180910390a15050565b6000809054906101000a900473ffffffffffffffffffffffffffffffffffffffff1681565b6000809054906101000a900473ffffffffffffffffffffffffffffffffffffffff1673ffffffffffffffffffffffffffffffffffffffff163373ffffffffffffffffffffffffffffffffffffffff161461329d576040517f08c379a000000000000000000000000000000000000000000000000000000000815260040161329490616756565b60405180910390fd5b6000600654146132e2576040517f08c379a00000000000000000000000000000000000000000000000000000000081526004016132d990616656565b60405180910390fd5b8073ffffffffffffffffffffffffffffffffffffffff1663da35c6646040518163ffffffff1660e01b8152600401602060405180830381600087803b15801561332a57600080fd5b505af115801561333e573d6000803e3d6000fd5b505050506040513d601f19601f820116820180604052506133629190810190614757565b600781905550600754600681905550600860009054906101000a900473ffffffffffffffffffffffffffffffffffffffff1673ffffffffffffffffffffffffffffffffffffffff16630e18b6816040518163ffffffff1660e01b8152600401600060405180830381600087803b1580156133db57600080fd5b505af11580156133ef573d6000803e3d6000fd5b5050505050565b60065481565b6005600781111561340957fe5b613412826114d2565b600781111561341d57fe5b1461345d576040517f08c379a000000000000000000000000000000000000000000000000000000000815260040161345490616536565b60405180910390fd5b6000600a60008381526020019081526020016000209050600181600c0160016101000a81548160ff02191690831515021790555060008090505b816003018054905081101561360e57600860009054906101000a900473ffffffffffffffffffffffffffffffffffffffff1673ffffffffffffffffffffffffffffffffffffffff16630825f38f8360040183815481106134f357fe5b906000526020600020015484600301848154811061350d57fe5b9060005260206000200160009054906101000a900473ffffffffffffffffffffffffffffffffffffffff1685600401858154811061354757fe5b906000526020600020015486600501868154811061356157fe5b9060005260206000200187600601878154811061357a57fe5b9060005260206000200188600201546040518763ffffffff1660e01b81526004016135a995949392919061616a565b6000604051808303818588803b1580156135c257600080fd5b505af11580156135d6573d6000803e3d6000fd5b50505050506040513d6000823e3d601f19601f8201168201806040525061360091908101906146ed565b508080600101915050613497565b507f712ae1383f79ac853f8d882153778e0260ef8f03b504e2866e0593e04d2b291f8260405161363e9190616891565b60405180910390a15050565b6000804690508091505090565b60006001600781111561366657fe5b61366f846114d2565b600781111561367a57fe5b146136ba576040517f08c379a00000000000000000000000000000000000000000000000000000000081526004016136b1906164b6565b60405180910390fd5b60028260ff161115613701576040517f08c379a00000000000000000000000000000000000000000000000000000000081526004016136f890616396565b60405180910390fd5b6000600a60008581526020019081526020016000209050600081600d0160008773ffffffffffffffffffffffffffffffffffffffff1673ffffffffffffffffffffffffffffffffffffffff1681526020019081526020016000209050600015158160000160009054906101000a900460ff161515146137b5576040517f08c379a00000000000000000000000000000000000000000000000000000000081526004016137ac906164d6565b60405180910390fd5b6000600960009054906101000a900473ffffffffffffffffffffffffffffffffffffffff1673ffffffffffffffffffffffffffffffffffffffff1663782d6fe18885600701546040518363ffffffff1660e01b81526004016138189291906160e0565b60206040518083038186803b15801561383057600080fd5b505afa158015613844573d6000803e3d6000fd5b505050506040513d601f19601f8201168201806040525061386891908101906148db565b905060008560ff16141561389f5761389283600a0154826bffffffffffffffffffffffff16613981565b83600a0181905550613907565b60018560ff1614156138d4576138c78360090154826bffffffffffffffffffffffff16613981565b8360090181905550613906565b60028560ff161415613905576138fc83600b0154826bffffffffffffffffffffffff16613981565b83600b01819055505b5b5b60018260000160006101000a81548160ff021916908315150217905550848260000160016101000a81548160ff021916908360ff160217905550808260000160026101000a8154816bffffffffffffffffffffffff02191690836bffffffffffffffffffffffff1602179055508093505050509392505050565b6000808284019050838110156139cc576040517f08c379a00000000000000000000000000000000000000000000000000000000081526004016139c390616636565b60405180910390fd5b8091505092915050565b600082821115613a1b576040517f08c379a0000000000000000000000000000000000000000000000000000000008152600401613a1290616836565b60405180910390fd5b818303905092915050565b600860009054906101000a900473ffffffffffffffffffffffffffffffffffffffff1673ffffffffffffffffffffffffffffffffffffffff1663f2b065378686868686604051602001613a7d959493929190616109565b604051602081830303815290604052805190602001206040518263ffffffff1660e01b8152600401613aaf9190616247565b60206040518083038186803b158015613ac757600080fd5b505afa158015613adb573d6000803e3d6000fd5b505050506040513d601f19601f82011682018060405250613aff919081019061469b565b15613b3f576040517f08c379a0000000000000000000000000000000000000000000000000000000008152600401613b36906163f6565b60405180910390fd5b600860009054906101000a900473ffffffffffffffffffffffffffffffffffffffff1673ffffffffffffffffffffffffffffffffffffffff16633a66f90186868686866040518663ffffffff1660e01b8152600401613ba2959493929190616109565b602060405180830381600087803b158015613bbc57600080fd5b505af1158015613bd0573d6000803e3d6000fd5b505050506040513d601f19601f82011682018060405250613bf491908101906146c4565b505050505050565b604051806101c0016040528060008152602001600073ffffffffffffffffffffffffffffffffffffffff168152602001600081526020016060815260200160608152602001606081526020016060815260200160008152602001600081526020016000815260200160008152602001600081526020016000151581526020016000151581525090565b828054828255906000526020600020908101928215613cfe579160200282015b82811115613cfd5782518260006101000a81548173ffffffffffffffffffffffffffffffffffffffff021916908373ffffffffffffffffffffffffffffffffffffffff16021790555091602001919060010190613ca5565b5b509050613d0b9190613e50565b5090565b828054828255906000526020600020908101928215613d4b579160200282015b82811115613d4a578251825591602001919060010190613d2f565b5b509050613d589190613e93565b5090565b828054828255906000526020600020908101928215613dab579160200282015b82811115613daa578251829080519060200190613d9a929190613eb8565b5091602001919060010190613d7c565b5b509050613db89190613f38565b5090565b828054828255906000526020600020908101928215613e0b579160200282015b82811115613e0a578251829080519060200190613dfa929190613f64565b5091602001919060010190613ddc565b5b509050613e189190613fe4565b5090565b6040518060600160405280600015158152602001600060ff16815260200160006bffffffffffffffffffffffff1681525090565b613e9091905b80821115613e8c57600081816101000a81549073ffffffffffffffffffffffffffffffffffffffff021916905550600101613e56565b5090565b90565b613eb591905b80821115613eb1576000816000905550600101613e99565b5090565b90565b828054600181600116156101000203166002900490600052602060002090601f016020900481019282601f10613ef957805160ff1916838001178555613f27565b82800160010185558215613f27579182015b82811115613f26578251825591602001919060010190613f0b565b5b509050613f349190613e93565b5090565b613f6191905b80821115613f5d5760008181613f549190614010565b50600101613f3e565b5090565b90565b828054600181600116156101000203166002900490600052602060002090601f016020900481019282601f10613fa557805160ff1916838001178555613fd3565b82800160010185558215613fd3579182015b82811115613fd2578251825591602001919060010190613fb7565b5b509050613fe09190613e93565b5090565b61400d91905b8082111561400957600081816140009190614058565b50600101613fea565b5090565b90565b50805460018160011615610100020316600290046000825580601f106140365750614055565b601f0160209004906000526020600020908101906140549190613e93565b5b50565b50805460018160011615610100020316600290046000825580601f1061407e575061409d565b601f01602090049060005260206000209081019061409c9190613e93565b5b50565b6000813590506140af81616f55565b92915050565b600082601f8301126140c657600080fd5b81356140d96140d482616ae6565b616ab9565b915081818352602084019350602081019050838560208402820111156140fe57600080fd5b60005b8381101561412e578161411488826140a0565b845260208401935060208301925050600181019050614101565b5050505092915050565b600082601f83011261414957600080fd5b813561415c61415782616b0e565b616ab9565b9150818183526020840193506020810190508360005b838110156141a2578135860161418888826142e2565b845260208401935060208301925050600181019050614172565b5050505092915050565b600082601f8301126141bd57600080fd5b81356141d06141cb82616b36565b616ab9565b9150818183526020840193506020810190508360005b8381101561421657813586016141fc88826143d4565b8452602084019350602083019250506001810190506141e6565b5050505092915050565b600082601f83011261423157600080fd5b813561424461423f82616b5e565b616ab9565b9150818183526020840193506020810190508385602084028201111561426957600080fd5b60005b83811015614299578161427f888261447c565b84526020840193506020830192505060018101905061426c565b5050505092915050565b6000815190506142b281616f6c565b92915050565b6000813590506142c781616f83565b92915050565b6000815190506142dc81616f83565b92915050565b600082601f8301126142f357600080fd5b813561430661430182616b86565b616ab9565b9150808252602083016020830185838301111561432257600080fd5b61432d838284616eeb565b50505092915050565b600082601f83011261434757600080fd5b815161435a61435582616bb2565b616ab9565b9150808252602083016020830185838301111561437657600080fd5b614381838284616efa565b50505092915050565b60008083601f84011261439c57600080fd5b8235905067ffffffffffffffff8111156143b557600080fd5b6020830191508360018202830111156143cd57600080fd5b9250929050565b600082601f8301126143e557600080fd5b81356143f86143f382616bde565b616ab9565b9150808252602083016020830185838301111561441457600080fd5b61441f838284616eeb565b50505092915050565b600082601f83011261443957600080fd5b813561444c61444782616c0a565b616ab9565b9150808252602083016020830185838301111561446857600080fd5b614473838284616eeb565b50505092915050565b60008135905061448b81616f9a565b92915050565b6000815190506144a081616f9a565b92915050565b6000813590506144b581616fb1565b92915050565b6000815190506144ca81616fc8565b92915050565b6000602082840312156144e257600080fd5b60006144f0848285016140a0565b91505092915050565b600080600080600060a0868803121561451157600080fd5b600061451f888289016140a0565b9550506020614530888289016140a0565b94505060406145418882890161447c565b93505060606145528882890161447c565b92505060806145638882890161447c565b9150509295509295909350565b6000806040838503121561458357600080fd5b6000614591858286016140a0565b92505060206145a28582860161447c565b9150509250929050565b600080600080600060a086880312156145c457600080fd5b600086013567ffffffffffffffff8111156145de57600080fd5b6145ea888289016140b5565b955050602086013567ffffffffffffffff81111561460757600080fd5b61461388828901614220565b945050604086013567ffffffffffffffff81111561463057600080fd5b61463c888289016141ac565b935050606086013567ffffffffffffffff81111561465957600080fd5b61466588828901614138565b925050608086013567ffffffffffffffff81111561468257600080fd5b61468e88828901614428565b9150509295509295909350565b6000602082840312156146ad57600080fd5b60006146bb848285016142a3565b91505092915050565b6000602082840312156146d657600080fd5b60006146e4848285016142cd565b91505092915050565b6000602082840312156146ff57600080fd5b600082015167ffffffffffffffff81111561471957600080fd5b61472584828501614336565b91505092915050565b60006020828403121561474057600080fd5b600061474e8482850161447c565b91505092915050565b60006020828403121561476957600080fd5b600061477784828501614491565b91505092915050565b6000806040838503121561479357600080fd5b60006147a18582860161447c565b92505060206147b2858286016140a0565b9150509250929050565b600080604083850312156147cf57600080fd5b60006147dd8582860161447c565b92505060206147ee858286016144a6565b9150509250929050565b6000806000806060858703121561480e57600080fd5b600061481c8782880161447c565b945050602061482d878288016144a6565b935050604085013567ffffffffffffffff81111561484a57600080fd5b6148568782880161438a565b925092505092959194509250565b600080600080600060a0868803121561487c57600080fd5b600061488a8882890161447c565b955050602061489b888289016144a6565b94505060406148ac888289016144a6565b93505060606148bd888289016142b8565b92505060806148ce888289016142b8565b9150509295509295909350565b6000602082840312156148ed57600080fd5b60006148fb848285016144bb565b91505092915050565b6000614910838361496b565b60208301905092915050565b60006149288383614bac565b905092915050565b600061493c8383614d07565b905092915050565b60006149508383615fb8565b60208301905092915050565b61496581616e49565b82525050565b61497481616dbf565b82525050565b61498381616dbf565b82525050565b600061499482616ca0565b61499e8185616d2c565b93506149a983616c36565b8060005b838110156149da5781516149c18882614904565b97506149cc83616cf8565b9250506001810190506149ad565b5085935050505092915050565b60006149f282616cab565b6149fc8185616d3d565b935083602082028501614a0e85616c46565b8060005b85811015614a4a5784840389528151614a2b858261491c565b9450614a3683616d05565b925060208a01995050600181019050614a12565b50829750879550505050505092915050565b6000614a6782616cb6565b614a718185616d4e565b935083602082028501614a8385616c56565b8060005b85811015614abf5784840389528151614aa08582614930565b9450614aab83616d12565b925060208a01995050600181019050614a87565b50829750879550505050505092915050565b6000614adc82616cc1565b614ae68185616d5f565b9350614af183616c66565b8060005b83811015614b22578151614b098882614944565b9750614b1483616d1f565b925050600181019050614af5565b5085935050505092915050565b614b3881616dd1565b82525050565b614b4781616dd1565b82525050565b614b5681616ddd565b82525050565b614b6d614b6882616ddd565b616f2d565b82525050565b6000614b7e82616cd7565b614b888185616d81565b9350614b98818560208601616efa565b614ba181616f37565b840191505092915050565b6000614bb782616ccc565b614bc18185616d70565b9350614bd1818560208601616efa565b614bda81616f37565b840191505092915050565b600081546001811660008114614c025760018114614c2857614c6c565b607f6002830416614c138187616d81565b955060ff198316865260208601935050614c6c565b60028204614c368187616d81565b9550614c4185616c76565b60005b82811015614c6357815481890152600182019150602081019050614c44565b80880195505050505b505092915050565b614c7d81616e5b565b82525050565b614c8c81616e7f565b82525050565b614c9b81616ea3565b82525050565b6000614cad8385616da3565b9350614cba838584616eeb565b614cc383616f37565b840190509392505050565b6000614cd982616ced565b614ce38185616da3565b9350614cf3818560208601616efa565b614cfc81616f37565b840191505092915050565b6000614d1282616ce2565b614d1c8185616d92565b9350614d2c818560208601616efa565b614d3581616f37565b840191505092915050565b6000614d4b82616ce2565b614d558185616da3565b9350614d65818560208601616efa565b614d6e81616f37565b840191505092915050565b600081546001811660008114614d965760018114614dbc57614e00565b607f6002830416614da78187616da3565b955060ff198316865260208601935050614e00565b60028204614dca8187616da3565b9550614dd585616c8b565b60005b82811015614df757815481890152600182019150602081019050614dd8565b80880195505050505b505092915050565b6000614e15603283616da3565b91507f476f7665726e6f72427261766f3a3a63617374566f7465496e7465726e616c3a60008301527f20696e76616c696420766f7465207479706500000000000000000000000000006020830152604082019050919050565b6000614e7b602883616db4565b91507f42616c6c6f742875696e743235362070726f706f73616c49642c75696e74382060008301527f737570706f7274290000000000000000000000000000000000000000000000006020830152602882019050919050565b6000614ee1603383616da3565b91507f476f7665726e6f72427261766f3a3a696e697469616c697a653a2063616e206f60008301527f6e6c7920696e697469616c697a65206f6e6365000000000000000000000000006020830152604082019050919050565b6000614f47602a83616da3565b91507f476f7665726e6f72427261766f3a5f73657450656e64696e6741646d696e3a2060008301527f61646d696e206f6e6c79000000000000000000000000000000000000000000006020830152604082019050919050565b6000614fad605583616da3565b91507f476f7665726e6f72427261766f3a3a71756575654f72526576657274496e746560008301527f726e616c3a206964656e746963616c2070726f706f73616c20616374696f6e2060208301527f616c7265616479207175657565642061742065746100000000000000000000006040830152606082019050919050565b6000615039602b83616da3565b91507f476f7665726e6f72427261766f3a3a5f736574566f74696e67506572696f643a60008301527f2061646d696e206f6e6c790000000000000000000000000000000000000000006020830152604082019050919050565b600061509f603383616da3565b91507f476f7665726e6f72427261766f3a3a696e697469616c697a653a20696e76616c60008301527f69642074696d656c6f636b2061646472657373000000000000000000000000006020830152604082019050919050565b6000615105602a83616da3565b91507f476f7665726e6f72427261766f3a3a5f736574566f74696e6744656c61793a2060008301527f61646d696e206f6e6c79000000000000000000000000000000000000000000006020830152604082019050919050565b600061516b603183616da3565b91507f476f7665726e6f72427261766f3a3a70726f706f73653a20476f7665726e6f7260008301527f20427261766f206e6f74206163746976650000000000000000000000000000006020830152604082019050919050565b60006151d1600283616db4565b91507f19010000000000000000000000000000000000000000000000000000000000006000830152600282019050919050565b6000615211603683616da3565b91507f476f7665726e6f72427261766f3a3a5f736574566f74696e67506572696f643a60008301527f20696e76616c696420766f74696e6720706572696f64000000000000000000006020830152604082019050919050565b6000615277603183616da3565b91507f476f7665726e6f72427261766f3a3a63617374566f7465496e7465726e616c3a60008301527f20766f74696e6720697320636c6f7365640000000000000000000000000000006020830152604082019050919050565b60006152dd603483616da3565b91507f476f7665726e6f72427261766f3a3a63617374566f7465496e7465726e616c3a60008301527f20766f74657220616c726561647920766f7465640000000000000000000000006020830152604082019050919050565b6000615343603483616da3565b91507f476f7665726e6f72427261766f3a3a5f736574566f74696e6744656c61793a2060008301527f696e76616c696420766f74696e672064656c61790000000000000000000000006020830152604082019050919050565b60006153a9603583616da3565b91507f476f7665726e6f72427261766f3a3a696e697469616c697a653a20696e76616c60008301527f69642070726f706f73616c207468726573686f6c6400000000000000000000006020830152604082019050919050565b600061540f604583616da3565b91507f476f7665726e6f72427261766f3a3a657865637574653a2070726f706f73616c60008301527f2063616e206f6e6c79206265206578656375746564206966206974206973207160208301527f75657565640000000000000000000000000000000000000000000000000000006040830152606082019050919050565b600061549b602f83616da3565b91507f476f7665726e6f72427261766f3a3a63617374566f746542795369673a20696e60008301527f76616c6964207369676e617475726500000000000000000000000000000000006020830152604082019050919050565b6000615501602f83616da3565b91507f476f7665726e6f72427261766f3a3a696e697469616c697a653a20696e76616c60008301527f696420766f74696e672064656c617900000000000000000000000000000000006020830152604082019050919050565b6000615567603083616da3565b91507f476f7665726e6f72427261766f3a3a5f73657457686974656c6973744775617260008301527f6469616e3a2061646d696e206f6e6c79000000000000000000000000000000006020830152604082019050919050565b60006155cd604483616da3565b91507f476f7665726e6f72427261766f3a3a70726f706f73653a2070726f706f73616c60008301527f2066756e6374696f6e20696e666f726d6174696f6e206172697479206d69736d60208301527f61746368000000000000000000000000000000000000000000000000000000006040830152606082019050919050565b6000615659602583616da3565b91507f476f7665726e6f72427261766f3a3a696e697469616c697a653a2061646d696e60008301527f206f6e6c790000000000000000000000000000000000000000000000000000006020830152604082019050919050565b60006156bf604083616da3565b91507f476f7665726e6f72427261766f3a3a5f73657450726f706f73616c546872657360008301527f686f6c643a20696e76616c69642070726f706f73616c207468726573686f6c646020830152604082019050919050565b6000615725604483616da3565b91507f476f7665726e6f72427261766f3a3a71756575653a2070726f706f73616c206360008301527f616e206f6e6c792062652071756575656420696620697420697320737563636560208301527f65646564000000000000000000000000000000000000000000000000000000006040830152606082019050919050565b60006157b1601183616da3565b91507f6164646974696f6e206f766572666c6f770000000000000000000000000000006000830152602082019050919050565b60006157f1604383616db4565b91507f454950373132446f6d61696e28737472696e67206e616d652c75696e7432353660008301527f20636861696e49642c6164647265737320766572696679696e67436f6e74726160208301527f63742900000000000000000000000000000000000000000000000000000000006040830152604382019050919050565b600061587d603083616da3565b91507f476f7665726e6f72427261766f3a3a5f696e6974696174653a2063616e206f6e60008301527f6c7920696e697469617465206f6e6365000000000000000000000000000000006020830152604082019050919050565b60006158e3602c83616da3565b91507f476f7665726e6f72427261766f3a3a70726f706f73653a206d7573742070726f60008301527f7669646520616374696f6e7300000000000000000000000000000000000000006020830152604082019050919050565b6000615949602e83616da3565b91507f476f7665726e6f72427261766f3a5f61636365707441646d696e3a2070656e6460008301527f696e672061646d696e206f6e6c790000000000000000000000000000000000006020830152604082019050919050565b60006159af602f83616da3565b91507f476f7665726e6f72427261766f3a3a696e697469616c697a653a20696e76616c60008301527f696420636f6d70206164647265737300000000000000000000000000000000006020830152604082019050919050565b6000615a15602f83616da3565b91507f476f7665726e6f72427261766f3a3a63616e63656c3a2070726f706f7365722060008301527f61626f7665207468726573686f6c6400000000000000000000000000000000006020830152604082019050919050565b6000615a7b602883616da3565b91507f476f7665726e6f72427261766f3a3a70726f706f73653a20746f6f206d616e7960008301527f20616374696f6e730000000000000000000000000000000000000000000000006020830152604082019050919050565b6000615ae1605983616da3565b91507f476f7665726e6f72427261766f3a3a70726f706f73653a206f6e65206c69766560008301527f2070726f706f73616c207065722070726f706f7365722c20666f756e6420616e60208301527f20616c72656164792070656e64696e672070726f706f73616c000000000000006040830152606082019050919050565b6000615b6d605883616da3565b91507f476f7665726e6f72427261766f3a3a70726f706f73653a206f6e65206c69766560008301527f2070726f706f73616c207065722070726f706f7365722c20666f756e6420616e60208301527f20616c7265616479206163746976652070726f706f73616c00000000000000006040830152606082019050919050565b6000615bf9600083616da3565b9150600082019050919050565b6000615c13602483616da3565b91507f476f7665726e6f72427261766f3a3a5f696e6974696174653a2061646d696e2060008301527f6f6e6c79000000000000000000000000000000000000000000000000000000006020830152604082019050919050565b6000615c79603f83616da3565b91507f476f7665726e6f72427261766f3a3a70726f706f73653a2070726f706f73657260008301527f20766f7465732062656c6f772070726f706f73616c207468726573686f6c64006020830152604082019050919050565b6000615cdf603983616da3565b91507f476f7665726e6f72427261766f3a3a5f73657457686974656c6973744163636f60008301527f756e7445787069726174696f6e3a2061646d696e206f6e6c79000000000000006020830152604082019050919050565b6000615d45603683616da3565b91507f476f7665726e6f72427261766f3a3a63616e63656c3a2063616e6e6f7420636160008301527f6e63656c2065786563757465642070726f706f73616c000000000000000000006020830152604082019050919050565b6000615dab603083616da3565b91507f476f7665726e6f72427261766f3a3a5f73657450726f706f73616c546872657360008301527f686f6c643a2061646d696e206f6e6c79000000000000000000000000000000006020830152604082019050919050565b6000615e11602983616da3565b91507f476f7665726e6f72427261766f3a3a73746174653a20696e76616c696420707260008301527f6f706f73616c20696400000000000000000000000000000000000000000000006020830152604082019050919050565b6000615e77603083616da3565b91507f476f7665726e6f72427261766f3a3a696e697469616c697a653a20696e76616c60008301527f696420766f74696e6720706572696f64000000000000000000000000000000006020830152604082019050919050565b6000615edd601583616da3565b91507f7375627472616374696f6e20756e646572666c6f7700000000000000000000006000830152602082019050919050565b6000615f1d602b83616da3565b91507f476f7665726e6f72427261766f3a3a63616e63656c3a2077686974656c69737460008301527f65642070726f706f7365720000000000000000000000000000000000000000006020830152604082019050919050565b606082016000820151615f8c6000850182614b2f565b506020820151615f9f6020850182615fd6565b506040820151615fb26040850182616003565b50505050565b615fc181616e1a565b82525050565b615fd081616e1a565b82525050565b615fdf81616e24565b82525050565b615fee81616e24565b82525050565b615ffd81616ed9565b82525050565b61600c81616e31565b82525050565b600061601d82614e6e565b9150819050919050565b6000616032826151c4565b915061603e8285614b5c565b60208201915061604e8284614b5c565b6020820191508190509392505050565b6000616069826157e4565b9150819050919050565b6000602082019050616088600083018461497a565b92915050565b60006040820190506160a3600083018561495c565b6160b06020830184615fc7565b9392505050565b60006040820190506160cc600083018561497a565b6160d9602083018461497a565b9392505050565b60006040820190506160f5600083018561497a565b6161026020830184615fc7565b9392505050565b600060a08201905061611e600083018861497a565b61612b6020830187615fc7565b818103604083015261613d8186614cce565b905081810360608301526161518185614b73565b90506161606080830184615fc7565b9695505050505050565b600060a08201905061617f600083018861497a565b61618c6020830187615fc7565b818103604083015261619e8186614d79565b905081810360608301526161b28185614be5565b90506161c16080830184615fc7565b9695505050505050565b600060808201905081810360008301526161e58187614989565b905081810360208301526161f98186614ad1565b9050818103604083015261620d8185614a5c565b9050818103606083015261622181846149e7565b905095945050505050565b60006020820190506162416000830184614b3e565b92915050565b600060208201905061625c6000830184614b4d565b92915050565b60006080820190506162776000830187614b4d565b6162846020830186614b4d565b6162916040830185615fc7565b61629e606083018461497a565b95945050505050565b60006060820190506162bc6000830186614b4d565b6162c96020830185615fc7565b6162d66040830184615fe5565b949350505050565b60006080820190506162f36000830187614b4d565b6163006020830186615fe5565b61630d6040830185614b4d565b61631a6060830184614b4d565b95945050505050565b60006020820190506163386000830184614c74565b92915050565b60006020820190506163536000830184614c83565b92915050565b600060208201905061636e6000830184614c92565b92915050565b6000602082019050818103600083015261638e8184614d40565b905092915050565b600060208201905081810360008301526163af81614e08565b9050919050565b600060208201905081810360008301526163cf81614ed4565b9050919050565b600060208201905081810360008301526163ef81614f3a565b9050919050565b6000602082019050818103600083015261640f81614fa0565b9050919050565b6000602082019050818103600083015261642f8161502c565b9050919050565b6000602082019050818103600083015261644f81615092565b9050919050565b6000602082019050818103600083015261646f816150f8565b9050919050565b6000602082019050818103600083015261648f8161515e565b9050919050565b600060208201905081810360008301526164af81615204565b9050919050565b600060208201905081810360008301526164cf8161526a565b9050919050565b600060208201905081810360008301526164ef816152d0565b9050919050565b6000602082019050818103600083015261650f81615336565b9050919050565b6000602082019050818103600083015261652f8161539c565b9050919050565b6000602082019050818103600083015261654f81615402565b9050919050565b6000602082019050818103600083015261656f8161548e565b9050919050565b6000602082019050818103600083015261658f816154f4565b9050919050565b600060208201905081810360008301526165af8161555a565b9050919050565b600060208201905081810360008301526165cf816155c0565b9050919050565b600060208201905081810360008301526165ef8161564c565b9050919050565b6000602082019050818103600083015261660f816156b2565b9050919050565b6000602082019050818103600083015261662f81615718565b9050919050565b6000602082019050818103600083015261664f816157a4565b9050919050565b6000602082019050818103600083015261666f81615870565b9050919050565b6000602082019050818103600083015261668f816158d6565b9050919050565b600060208201905081810360008301526166af8161593c565b9050919050565b600060208201905081810360008301526166cf816159a2565b9050919050565b600060208201905081810360008301526166ef81615a08565b9050919050565b6000602082019050818103600083015261670f81615a6e565b9050919050565b6000602082019050818103600083015261672f81615ad4565b9050919050565b6000602082019050818103600083015261674f81615b60565b9050919050565b6000602082019050818103600083015261676f81615c06565b9050919050565b6000602082019050818103600083015261678f81615c6c565b9050919050565b600060208201905081810360008301526167af81615cd2565b9050919050565b600060208201905081810360008301526167cf81615d38565b9050919050565b600060208201905081810360008301526167ef81615d9e565b9050919050565b6000602082019050818103600083015261680f81615e04565b9050919050565b6000602082019050818103600083015261682f81615e6a565b9050919050565b6000602082019050818103600083015261684f81615ed0565b9050919050565b6000602082019050818103600083015261686f81615f10565b9050919050565b600060608201905061688b6000830184615f76565b92915050565b60006020820190506168a66000830184615fc7565b92915050565b6000610120820190506168c2600083018c615fc7565b6168cf602083018b61495c565b81810360408301526168e1818a614989565b905081810360608301526168f58189614ad1565b905081810360808301526169098188614a5c565b905081810360a083015261691d81876149e7565b905061692c60c0830186615fc7565b61693960e0830185615fc7565b81810361010083015261694c8184614cce565b90509a9950505050505050505050565b600061014082019050616972600083018d615fc7565b61697f602083018c61497a565b61698c604083018b615fc7565b616999606083018a615fc7565b6169a66080830189615fc7565b6169b360a0830188615fc7565b6169c060c0830187615fc7565b6169cd60e0830186615fc7565b6169db610100830185614b3e565b6169e9610120830184614b3e565b9b9a5050505050505050505050565b6000604082019050616a0d6000830185615fc7565b616a1a6020830184615fc7565b9392505050565b6000608082019050616a366000830188615fc7565b616a436020830187615fe5565b616a506040830186615ff4565b8181036060830152616a63818486614ca1565b90509695505050505050565b6000608082019050616a846000830186615fc7565b616a916020830185615fe5565b616a9e6040830184615ff4565b8181036060830152616aaf81615bec565b9050949350505050565b6000604051905081810181811067ffffffffffffffff82111715616adc57600080fd5b8060405250919050565b600067ffffffffffffffff821115616afd57600080fd5b602082029050602081019050919050565b600067ffffffffffffffff821115616b2557600080fd5b602082029050602081019050919050565b600067ffffffffffffffff821115616b4d57600080fd5b602082029050602081019050919050565b600067ffffffffffffffff821115616b7557600080fd5b602082029050602081019050919050565b600067ffffffffffffffff821115616b9d57600080fd5b601f19601f8301169050602081019050919050565b600067ffffffffffffffff821115616bc957600080fd5b601f19601f8301169050602081019050919050565b600067ffffffffffffffff821115616bf557600080fd5b601f19601f8301169050602081019050919050565b600067ffffffffffffffff821115616c2157600080fd5b601f19601f8301169050602081019050919050565b6000819050602082019050919050565b6000819050602082019050919050565b6000819050602082019050919050565b6000819050602082019050919050565b60008190508160005260206000209050919050565b60008190508160005260206000209050919050565b600081519050919050565b600081519050919050565b600081519050919050565b600081519050919050565b600081519050919050565b600081519050919050565b600081519050919050565b600081519050919050565b6000602082019050919050565b6000602082019050919050565b6000602082019050919050565b6000602082019050919050565b600082825260208201905092915050565b600082825260208201905092915050565b600082825260208201905092915050565b600082825260208201905092915050565b600082825260208201905092915050565b600082825260208201905092915050565b600082825260208201905092915050565b600082825260208201905092915050565b600081905092915050565b6000616dca82616dfa565b9050919050565b60008115159050919050565b6000819050919050565b6000819050616df582616f48565b919050565b600073ffffffffffffffffffffffffffffffffffffffff82169050919050565b6000819050919050565b600060ff82169050919050565b60006bffffffffffffffffffffffff82169050919050565b6000616e5482616eb5565b9050919050565b6000616e6682616e6d565b9050919050565b6000616e7882616dfa565b9050919050565b6000616e8a82616e91565b9050919050565b6000616e9c82616dfa565b9050919050565b6000616eae82616de7565b9050919050565b6000616ec082616ec7565b9050919050565b6000616ed282616dfa565b9050919050565b6000616ee482616e31565b9050919050565b82818337600083830152505050565b60005b83811015616f18578082015181840152602081019050616efd565b83811115616f27576000848401525b50505050565b6000819050919050565b6000601f19601f8301169050919050565b60088110616f5257fe5b50565b616f5e81616dbf565b8114616f6957600080fd5b50565b616f7581616dd1565b8114616f8057600080fd5b50565b616f8c81616ddd565b8114616f9757600080fd5b50565b616fa381616e1a565b8114616fae57600080fd5b50565b616fba81616e24565b8114616fc557600080fd5b50565b616fd181616e31565b8114616fdc57600080fd5b5056fea365627a7a723158205b27d20c7e74a2b1f83a8074ef88edae288560b17cc1cbb166b80c7911a072436c6578706572696d656e74616cf564736f6c63430005100040",
  "source": "pragma solidity ^0.5.16;\npragma experimental ABIEncoderV2;\n\nimport \"./GovernorMikeInterfaces.sol\";\n\ncontract GovernorBravoDelegate is GovernorBravoDelegateStorageV2, GovernorBravoEvents {\n\n    /// @notice The name of this contract\n    string public constant name = \"Compound Governor Bravo\";\n\n    /// @notice The minimum setable proposal threshold\n    uint public constant MIN_PROPOSAL_THRESHOLD = 50000e18; // 50,000 Comp\n\n    /// @notice The maximum setable proposal threshold\n    uint public constant MAX_PROPOSAL_THRESHOLD = 100000e18; //100,000 Comp\n\n    /// @notice The minimum setable voting period\n    uint public constant MIN_VOTING_PERIOD = 5760; // About 24 hours\n\n    /// @notice The max setable voting period\n    uint public constant MAX_VOTING_PERIOD = 80640; // About 2 weeks\n\n    /// @notice The min setable voting delay\n    uint public constant MIN_VOTING_DELAY = 1;\n\n    /// @notice The max setable voting delay\n    uint public constant MAX_VOTING_DELAY = 40320; // About 1 week\n\n    /// @notice The number of votes in support of a proposal required in order for a quorum to be reached and for a vote to succeed\n    uint public constant quorumVotes = 400000e18; // 400,000 = 4% of Comp\n\n    /// @notice The maximum number of actions that can be included in a proposal\n    uint public constant proposalMaxOperations = 10; // 10 actions\n\n    /// @notice The EIP-712 typehash for the contract's domain\n    bytes32 public constant DOMAIN_TYPEHASH = keccak256(\"EIP712Domain(string name,uint256 chainId,address verifyingContract)\");\n\n    /// @notice The EIP-712 typehash for the ballot struct used by the contract\n    bytes32 public constant BALLOT_TYPEHASH = keccak256(\"Ballot(uint256 proposalId,uint8 support)\");\n\n    /**\n      * @notice Used to initialize the contract during delegator contructor\n      * @param timelock_ The address of the Timelock\n      * @param comp_ The address of the COMP token\n      * @param votingPeriod_ The initial voting period\n      * @param votingDelay_ The initial voting delay\n      * @param proposalThreshold_ The initial proposal threshold\n      */\n    function initialize(address timelock_, address comp_, uint votingPeriod_, uint votingDelay_, uint proposalThreshold_) public {\n        require(address(timelock) == address(0), \"GovernorBravo::initialize: can only initialize once\");\n        require(msg.sender == admin, \"GovernorBravo::initialize: admin only\");\n        require(timelock_ != address(0), \"GovernorBravo::initialize: invalid timelock address\");\n        require(comp_ != address(0), \"GovernorBravo::initialize: invalid comp address\");\n        require(votingPeriod_ >= MIN_VOTING_PERIOD && votingPeriod_ <= MAX_VOTING_PERIOD, \"GovernorBravo::initialize: invalid voting period\");\n        require(votingDelay_ >= MIN_VOTING_DELAY && votingDelay_ <= MAX_VOTING_DELAY, \"GovernorBravo::initialize: invalid voting delay\");\n        require(proposalThreshold_ >= MIN_PROPOSAL_THRESHOLD && proposalThreshold_ <= MAX_PROPOSAL_THRESHOLD, \"GovernorBravo::initialize: invalid proposal threshold\");\n\n        timelock = TimelockInterface(timelock_);\n        comp = CompInterface(comp_);\n        votingPeriod = votingPeriod_;\n        votingDelay = votingDelay_;\n        proposalThreshold = proposalThreshold_;\n    }\n\n    /**\n      * @notice Function used to propose a new proposal. Sender must have delegates above the proposal threshold\n      * @param targets Target addresses for proposal calls\n      * @param values Eth values for proposal calls\n      * @param signatures Function signatures for proposal calls\n      * @param calldatas Calldatas for proposal calls\n      * @param description String description of the proposal\n      * @return Proposal id of new proposal\n      */\n    function propose(address[] memory targets, uint[] memory values, string[] memory signatures, bytes[] memory calldatas, string memory description) public returns (uint) {\n        // Reject proposals before initiating as Governor\n        require(initialProposalId != 0, \"GovernorBravo::propose: Governor Bravo not active\");\n        // Allow addresses above proposal threshold and whitelisted addresses to propose\n        require(comp.getPriorVotes(msg.sender, sub256(block.number, 1)) > proposalThreshold || isWhitelisted(msg.sender), \"GovernorBravo::propose: proposer votes below proposal threshold\");\n        require(targets.length == values.length && targets.length == signatures.length && targets.length == calldatas.length, \"GovernorBravo::propose: proposal function information arity mismatch\");\n        require(targets.length != 0, \"GovernorBravo::propose: must provide actions\");\n        require(targets.length <= proposalMaxOperations, \"GovernorBravo::propose: too many actions\");\n\n        uint latestProposalId = latestProposalIds[msg.sender];\n        if (latestProposalId != 0) {\n          ProposalState proposersLatestProposalState = state(latestProposalId);\n          require(proposersLatestProposalState != ProposalState.Active, \"GovernorBravo::propose: one live proposal per proposer, found an already active proposal\");\n          require(proposersLatestProposalState != ProposalState.Pending, \"GovernorBravo::propose: one live proposal per proposer, found an already pending proposal\");\n        }\n\n        uint startBlock = add256(block.number, votingDelay);\n        uint endBlock = add256(startBlock, votingPeriod);\n\n        proposalCount++;\n        Proposal memory newProposal = Proposal({\n            id: proposalCount,\n            proposer: msg.sender,\n            eta: 0,\n            targets: targets,\n            values: values,\n            signatures: signatures,\n            calldatas: calldatas,\n            startBlock: startBlock,\n            endBlock: endBlock,\n            forVotes: 0,\n            againstVotes: 0,\n            abstainVotes: 0,\n            canceled: false,\n            executed: false\n        });\n\n        proposals[newProposal.id] = newProposal;\n        latestProposalIds[newProposal.proposer] = newProposal.id;\n\n        emit ProposalCreated(newProposal.id, msg.sender, targets, values, signatures, calldatas, startBlock, endBlock, description);\n        return newProposal.id;\n    }\n\n    /**\n      * @notice Queues a proposal of state succeeded\n      * @param proposalId The id of the proposal to queue\n      */\n    function queue(uint proposalId) external {\n        require(state(proposalId) == ProposalState.Succeeded, \"GovernorBravo::queue: proposal can only be queued if it is succeeded\");\n        Proposal storage proposal = proposals[proposalId];\n        uint eta = add256(block.timestamp, timelock.delay());\n        for (uint i = 0; i < proposal.targets.length; i++) {\n            queueOrRevertInternal(proposal.targets[i], proposal.values[i], proposal.signatures[i], proposal.calldatas[i], eta);\n        }\n        proposal.eta = eta;\n        emit ProposalQueued(proposalId, eta);\n    }\n\n    function queueOrRevertInternal(address target, uint value, string memory signature, bytes memory data, uint eta) internal {\n        require(!timelock.queuedTransactions(keccak256(abi.encode(target, value, signature, data, eta))), \"GovernorBravo::queueOrRevertInternal: identical proposal action already queued at eta\");\n        timelock.queueTransaction(target, value, signature, data, eta);\n    }\n\n    /**\n      * @notice Executes a queued proposal if eta has passed\n      * @param proposalId The id of the proposal to execute\n      */\n    function execute(uint proposalId) external payable {\n        require(state(proposalId) == ProposalState.Queued, \"GovernorBravo::execute: proposal can only be executed if it is queued\");\n        Proposal storage proposal = proposals[proposalId];\n        proposal.executed = true;\n        for (uint i = 0; i < proposal.targets.length; i++) {\n            timelock.executeTransaction.value(proposal.values[i])(proposal.targets[i], proposal.values[i], proposal.signatures[i], proposal.calldatas[i], proposal.eta);\n        }\n        emit ProposalExecuted(proposalId);\n    }\n\n    /**\n      * @notice Cancels a proposal only if sender is the proposer, or proposer delegates dropped below proposal threshold\n      * @param proposalId The id of the proposal to cancel\n      */\n    function cancel(uint proposalId) external {\n        require(state(proposalId) != ProposalState.Executed, \"GovernorBravo::cancel: cannot cancel executed proposal\");\n\n        Proposal storage proposal = proposals[proposalId];\n\n        // Proposer can cancel\n        if(msg.sender != proposal.proposer) {\n            // Whitelisted proposers can't be canceled for falling below proposal threshold\n            if(isWhitelisted(proposal.proposer)) {\n                require((comp.getPriorVotes(proposal.proposer, sub256(block.number, 1)) < proposalThreshold) && msg.sender == whitelistGuardian, \"GovernorBravo::cancel: whitelisted proposer\");\n            }\n            else {\n                require((comp.getPriorVotes(proposal.proposer, sub256(block.number, 1)) < proposalThreshold), \"GovernorBravo::cancel: proposer above threshold\");\n            }\n        }\n        \n        proposal.canceled = true;\n        for (uint i = 0; i < proposal.targets.length; i++) {\n            timelock.cancelTransaction(proposal.targets[i], proposal.values[i], proposal.signatures[i], proposal.calldatas[i], proposal.eta);\n        }\n\n        emit ProposalCanceled(proposalId);\n    }\n\n    /**\n      * @notice Gets actions of a proposal\n      * @param proposalId the id of the proposal\n      * @return Targets, values, signatures, and calldatas of the proposal actions\n      */\n    function getActions(uint proposalId) external view returns (address[] memory targets, uint[] memory values, string[] memory signatures, bytes[] memory calldatas) {\n        Proposal storage p = proposals[proposalId];\n        return (p.targets, p.values, p.signatures, p.calldatas);\n    }\n\n    /**\n      * @notice Gets the receipt for a voter on a given proposal\n      * @param proposalId the id of proposal\n      * @param voter The address of the voter\n      * @return The voting receipt\n      */\n    function getReceipt(uint proposalId, address voter) external view returns (Receipt memory) {\n        return proposals[proposalId].receipts[voter];\n    }\n\n    /**\n      * @notice Gets the state of a proposal\n      * @param proposalId The id of the proposal\n      * @return Proposal state\n      */\n    function state(uint proposalId) public view returns (ProposalState) {\n        require(proposalCount >= proposalId && proposalId > initialProposalId, \"GovernorBravo::state: invalid proposal id\");\n        Proposal storage proposal = proposals[proposalId];\n        if (proposal.canceled) {\n            return ProposalState.Canceled;\n        } else if (block.number <= proposal.startBlock) {\n            return ProposalState.Pending;\n        } else if (block.number <= proposal.endBlock) {\n            return ProposalState.Active;\n        } else if (proposal.forVotes <= proposal.againstVotes || proposal.forVotes < quorumVotes) {\n            return ProposalState.Defeated;\n        } else if (proposal.eta == 0) {\n            return ProposalState.Succeeded;\n        } else if (proposal.executed) {\n            return ProposalState.Executed;\n        } else if (block.timestamp >= add256(proposal.eta, timelock.GRACE_PERIOD())) {\n            return ProposalState.Expired;\n        } else {\n            return ProposalState.Queued;\n        }\n    }\n\n    /**\n      * @notice Cast a vote for a proposal\n      * @param proposalId The id of the proposal to vote on\n      * @param support The support value for the vote. 0=against, 1=for, 2=abstain\n      */\n    function castVote(uint proposalId, uint8 support) external {\n        emit VoteCast(msg.sender, proposalId, support, castVoteInternal(msg.sender, proposalId, support), \"\");\n    }\n\n    /**\n      * @notice Cast a vote for a proposal with a reason\n      * @param proposalId The id of the proposal to vote on\n      * @param support The support value for the vote. 0=against, 1=for, 2=abstain\n      * @param reason The reason given for the vote by the voter\n      */\n    function castVoteWithReason(uint proposalId, uint8 support, string calldata reason) external {\n        emit VoteCast(msg.sender, proposalId, support, castVoteInternal(msg.sender, proposalId, support), reason);\n    }\n\n    /**\n      * @notice Cast a vote for a proposal by signature\n      * @dev External function that accepts EIP-712 signatures for voting on proposals.\n      */\n    function castVoteBySig(uint proposalId, uint8 support, uint8 v, bytes32 r, bytes32 s) external {\n        bytes32 domainSeparator = keccak256(abi.encode(DOMAIN_TYPEHASH, keccak256(bytes(name)), getChainIdInternal(), address(this)));\n        bytes32 structHash = keccak256(abi.encode(BALLOT_TYPEHASH, proposalId, support));\n        bytes32 digest = keccak256(abi.encodePacked(\"\\x19\\x01\", domainSeparator, structHash));\n        address signatory = ecrecover(digest, v, r, s);\n        require(signatory != address(0), \"GovernorBravo::castVoteBySig: invalid signature\");\n        emit VoteCast(signatory, proposalId, support, castVoteInternal(signatory, proposalId, support), \"\");\n    }\n\n    /**\n      * @notice Internal function that caries out voting logic\n      * @param voter The voter that is casting their vote\n      * @param proposalId The id of the proposal to vote on\n      * @param support The support value for the vote. 0=against, 1=for, 2=abstain\n      * @return The number of votes cast\n      */\n    function castVoteInternal(address voter, uint proposalId, uint8 support) internal returns (uint96) {\n        require(state(proposalId) == ProposalState.Active, \"GovernorBravo::castVoteInternal: voting is closed\");\n        require(support <= 2, \"GovernorBravo::castVoteInternal: invalid vote type\");\n        Proposal storage proposal = proposals[proposalId];\n        Receipt storage receipt = proposal.receipts[voter];\n        require(receipt.hasVoted == false, \"GovernorBravo::castVoteInternal: voter already voted\");\n        uint96 votes = comp.getPriorVotes(voter, proposal.startBlock);\n\n        if (support == 0) {\n            proposal.againstVotes = add256(proposal.againstVotes, votes);\n        } else if (support == 1) {\n            proposal.forVotes = add256(proposal.forVotes, votes);\n        } else if (support == 2) {\n            proposal.abstainVotes = add256(proposal.abstainVotes, votes);\n        }\n\n        receipt.hasVoted = true;\n        receipt.support = support;\n        receipt.votes = votes;\n\n        return votes;\n    }\n\n    /**\n     * @notice View function which returns if an account is whitelisted\n     * @param account Account to check white list status of\n     * @return If the account is whitelisted\n     */\n    function isWhitelisted(address account) public view returns (bool) {\n        return (whitelistAccountExpirations[account] > now);\n    }\n\n    /**\n      * @notice Admin function for setting the voting delay\n      * @param newVotingDelay new voting delay, in blocks\n      */\n    function _setVotingDelay(uint newVotingDelay) external {\n        require(msg.sender == admin, \"GovernorBravo::_setVotingDelay: admin only\");\n        require(newVotingDelay >= MIN_VOTING_DELAY && newVotingDelay <= MAX_VOTING_DELAY, \"GovernorBravo::_setVotingDelay: invalid voting delay\");\n        uint oldVotingDelay = votingDelay;\n        votingDelay = newVotingDelay;\n\n        emit VotingDelaySet(oldVotingDelay,votingDelay);\n    }\n\n    /**\n      * @notice Admin function for setting the voting period\n      * @param newVotingPeriod new voting period, in blocks\n      */\n    function _setVotingPeriod(uint newVotingPeriod) external {\n        require(msg.sender == admin, \"GovernorBravo::_setVotingPeriod: admin only\");\n        require(newVotingPeriod >= MIN_VOTING_PERIOD && newVotingPeriod <= MAX_VOTING_PERIOD, \"GovernorBravo::_setVotingPeriod: invalid voting period\");\n        uint oldVotingPeriod = votingPeriod;\n        votingPeriod = newVotingPeriod;\n\n        emit VotingPeriodSet(oldVotingPeriod, votingPeriod);\n    }\n\n    /**\n      * @notice Admin function for setting the proposal threshold\n      * @dev newProposalThreshold must be greater than the hardcoded min\n      * @param newProposalThreshold new proposal threshold\n      */\n    function _setProposalThreshold(uint newProposalThreshold) external {\n        require(msg.sender == admin, \"GovernorBravo::_setProposalThreshold: admin only\");\n        require(newProposalThreshold >= MIN_PROPOSAL_THRESHOLD && newProposalThreshold <= MAX_PROPOSAL_THRESHOLD, \"GovernorBravo::_setProposalThreshold: invalid proposal threshold\");\n        uint oldProposalThreshold = proposalThreshold;\n        proposalThreshold = newProposalThreshold;\n\n        emit ProposalThresholdSet(oldProposalThreshold, proposalThreshold);\n    }\n\n    /**\n     * @notice Admin function for setting the whitelist expiration as a timestamp for an account. Whitelist status allows accounts to propose without meeting threshold\n     * @param account Account address to set whitelist expiration for\n     * @param expiration Expiration for account whitelist status as timestamp (if now < expiration, whitelisted)\n     */\n    function _setWhitelistAccountExpiration(address account, uint expiration) external {\n        require(msg.sender == admin || msg.sender == whitelistGuardian, \"GovernorBravo::_setWhitelistAccountExpiration: admin only\");\n        whitelistAccountExpirations[account] = expiration;\n\n        emit WhitelistAccountExpirationSet(account, expiration);\n    }\n\n    /**\n     * @notice Admin function for setting the whitelistGuardian. WhitelistGuardian can cancel proposals from whitelisted addresses\n     * @param account Account to set whitelistGuardian to (0x0 to remove whitelistGuardian)\n     */\n     function _setWhitelistGuardian(address account) external {\n        require(msg.sender == admin, \"GovernorBravo::_setWhitelistGuardian: admin only\");\n        address oldGuardian = whitelistGuardian;\n        whitelistGuardian = account;\n\n        emit WhitelistGuardianSet(oldGuardian, whitelistGuardian);\n     }\n\n    /**\n      * @notice Initiate the GovernorBravo contract\n      * @dev Admin only. Sets initial proposal id which initiates the contract, ensuring a continuous proposal id count\n      * @param governorAlpha The address for the Governor to continue the proposal id count from\n      */\n    function _initiate(address governorAlpha) external {\n        require(msg.sender == admin, \"GovernorBravo::_initiate: admin only\");\n        require(initialProposalId == 0, \"GovernorBravo::_initiate: can only initiate once\");\n        proposalCount = GovernorAlpha(governorAlpha).proposalCount();\n        initialProposalId = proposalCount;\n        timelock.acceptAdmin();\n    }\n\n    /**\n      * @notice Begins transfer of admin rights. The newPendingAdmin must call `_acceptAdmin` to finalize the transfer.\n      * @dev Admin function to begin change of admin. The newPendingAdmin must call `_acceptAdmin` to finalize the transfer.\n      * @param newPendingAdmin New pending admin.\n      */\n    function _setPendingAdmin(address newPendingAdmin) external {\n        // Check caller = admin\n        require(msg.sender == admin, \"GovernorBravo:_setPendingAdmin: admin only\");\n\n        // Save current value, if any, for inclusion in log\n        address oldPendingAdmin = pendingAdmin;\n\n        // Store pendingAdmin with value newPendingAdmin\n        pendingAdmin = newPendingAdmin;\n\n        // Emit NewPendingAdmin(oldPendingAdmin, newPendingAdmin)\n        emit NewPendingAdmin(oldPendingAdmin, newPendingAdmin);\n    }\n\n    /**\n      * @notice Accepts transfer of admin rights. msg.sender must be pendingAdmin\n      * @dev Admin function for pending admin to accept role and update admin\n      */\n    function _acceptAdmin() external {\n        // Check caller is pendingAdmin and pendingAdmin  address(0)\n        require(msg.sender == pendingAdmin && msg.sender != address(0), \"GovernorBravo:_acceptAdmin: pending admin only\");\n\n        // Save current values for inclusion in log\n        address oldAdmin = admin;\n        address oldPendingAdmin = pendingAdmin;\n\n        // Store admin with value pendingAdmin\n        admin = pendingAdmin;\n\n        // Clear the pending value\n        pendingAdmin = address(0);\n\n        emit NewAdmin(oldAdmin, admin);\n        emit NewPendingAdmin(oldPendingAdmin, pendingAdmin);\n    }\n\n    function add256(uint256 a, uint256 b) internal pure returns (uint) {\n        uint c = a + b;\n        require(c >= a, \"addition overflow\");\n        return c;\n    }\n\n    function sub256(uint256 a, uint256 b) internal pure returns (uint) {\n        require(b <= a, \"subtraction underflow\");\n        return a - b;\n    }\n\n    function getChainIdInternal() internal pure returns (uint) {\n        uint chainId;\n        assembly { chainId := chainid() }\n        return chainId;\n    }\n}\n",
  "sourcePath": "/Users/lukepark/Desktop/Governor-M/contracts/GovernorMikeDelegate.sol",
  "compiler": {
    "name": "solc",
    "version": "0.5.16+commit.9c3226ce.Emscripten.clang"
  },
  "schemaVersion": "3.4.3",
  "updatedAt": "2021-12-26T18:15:50.277Z",
  "devdoc": {
    "methods": {
      "_acceptAdmin()": {
        "details": "Admin function for pending admin to accept role and update admin"
      },
      "_initiate(address)": {
        "details": "Admin only. Sets initial proposal id which initiates the contract, ensuring a continuous proposal id count",
        "params": {
          "governorAlpha": "The address for the Governor to continue the proposal id count from"
        }
      },
      "_setPendingAdmin(address)": {
        "details": "Admin function to begin change of admin. The newPendingAdmin must call `_acceptAdmin` to finalize the transfer.",
        "params": {
          "newPendingAdmin": "New pending admin."
        }
      },
      "_setProposalThreshold(uint256)": {
        "details": "newProposalThreshold must be greater than the hardcoded min",
        "params": {
          "newProposalThreshold": "new proposal threshold"
        }
      },
      "_setVotingDelay(uint256)": {
        "params": {
          "newVotingDelay": "new voting delay, in blocks"
        }
      },
      "_setVotingPeriod(uint256)": {
        "params": {
          "newVotingPeriod": "new voting period, in blocks"
        }
      },
      "_setWhitelistAccountExpiration(address,uint256)": {
        "params": {
          "account": "Account address to set whitelist expiration for",
          "expiration": "Expiration for account whitelist status as timestamp (if now < expiration, whitelisted)"
        }
      },
      "_setWhitelistGuardian(address)": {
        "params": {
          "account": "Account to set whitelistGuardian to (0x0 to remove whitelistGuardian)"
        }
      },
      "cancel(uint256)": {
        "params": {
          "proposalId": "The id of the proposal to cancel"
        }
      },
      "castVote(uint256,uint8)": {
        "params": {
          "proposalId": "The id of the proposal to vote on",
          "support": "The support value for the vote. 0=against, 1=for, 2=abstain"
        }
      },
      "castVoteBySig(uint256,uint8,uint8,bytes32,bytes32)": {
        "details": "External function that accepts EIP-712 signatures for voting on proposals."
      },
      "castVoteWithReason(uint256,uint8,string)": {
        "params": {
          "proposalId": "The id of the proposal to vote on",
          "reason": "The reason given for the vote by the voter",
          "support": "The support value for the vote. 0=against, 1=for, 2=abstain"
        }
      },
      "execute(uint256)": {
        "params": {
          "proposalId": "The id of the proposal to execute"
        }
      },
      "getActions(uint256)": {
        "params": {
          "proposalId": "the id of the proposal"
        },
        "return": "Targets, values, signatures, and calldatas of the proposal actions"
      },
      "getReceipt(uint256,address)": {
        "params": {
          "proposalId": "the id of proposal",
          "voter": "The address of the voter"
        },
        "return": "The voting receipt"
      },
      "initialize(address,address,uint256,uint256,uint256)": {
        "params": {
          "comp_": "The address of the COMP token",
          "proposalThreshold_": "The initial proposal threshold",
          "timelock_": "The address of the Timelock",
          "votingDelay_": "The initial voting delay",
          "votingPeriod_": "The initial voting period"
        }
      },
      "isWhitelisted(address)": {
        "params": {
          "account": "Account to check white list status of"
        },
        "return": "If the account is whitelisted"
      },
      "propose(address[],uint256[],string[],bytes[],string)": {
        "params": {
          "calldatas": "Calldatas for proposal calls",
          "description": "String description of the proposal",
          "signatures": "Function signatures for proposal calls",
          "targets": "Target addresses for proposal calls",
          "values": "Eth values for proposal calls"
        },
        "return": "Proposal id of new proposal"
      },
      "queue(uint256)": {
        "params": {
          "proposalId": "The id of the proposal to queue"
        }
      },
      "state(uint256)": {
        "params": {
          "proposalId": "The id of the proposal"
        },
        "return": "Proposal state"
      }
    }
  },
  "userdoc": {
    "methods": {
      "_acceptAdmin()": {
        "notice": "Accepts transfer of admin rights. msg.sender must be pendingAdmin"
      },
      "_initiate(address)": {
        "notice": "Initiate the GovernorBravo contract"
      },
      "_setPendingAdmin(address)": {
        "notice": "Begins transfer of admin rights. The newPendingAdmin must call `_acceptAdmin` to finalize the transfer."
      },
      "_setProposalThreshold(uint256)": {
        "notice": "Admin function for setting the proposal threshold"
      },
      "_setVotingDelay(uint256)": {
        "notice": "Admin function for setting the voting delay"
      },
      "_setVotingPeriod(uint256)": {
        "notice": "Admin function for setting the voting period"
      },
      "_setWhitelistAccountExpiration(address,uint256)": {
        "notice": "Admin function for setting the whitelist expiration as a timestamp for an account. Whitelist status allows accounts to propose without meeting threshold"
      },
      "_setWhitelistGuardian(address)": {
        "notice": "Admin function for setting the whitelistGuardian. WhitelistGuardian can cancel proposals from whitelisted addresses"
      },
      "cancel(uint256)": {
        "notice": "Cancels a proposal only if sender is the proposer, or proposer delegates dropped below proposal threshold"
      },
      "castVote(uint256,uint8)": {
        "notice": "Cast a vote for a proposal"
      },
      "castVoteBySig(uint256,uint8,uint8,bytes32,bytes32)": {
        "notice": "Cast a vote for a proposal by signature"
      },
      "castVoteWithReason(uint256,uint8,string)": {
        "notice": "Cast a vote for a proposal with a reason"
      },
      "execute(uint256)": {
        "notice": "Executes a queued proposal if eta has passed"
      },
      "getActions(uint256)": {
        "notice": "Gets actions of a proposal"
      },
      "getReceipt(uint256,address)": {
        "notice": "Gets the receipt for a voter on a given proposal"
      },
      "initialize(address,address,uint256,uint256,uint256)": {
        "notice": "Used to initialize the contract during delegator contructor"
      },
      "isWhitelisted(address)": {
        "notice": "View function which returns if an account is whitelisted"
      },
      "propose(address[],uint256[],string[],bytes[],string)": {
        "notice": "Function used to propose a new proposal. Sender must have delegates above the proposal threshold"
      },
      "queue(uint256)": {
        "notice": "Queues a proposal of state succeeded"
      },
      "state(uint256)": {
        "notice": "Gets the state of a proposal"
      }
    }
  }
}