{
  "contractName": "GovernorMikeDelegatorStorage",
  "abi": [
    {
      "inputs": [],
      "name": "admin",
      "outputs": [
        {
          "internalType": "address",
          "name": "",
          "type": "address"
        }
      ],
      "stateMutability": "view",
      "type": "function"
    },
    {
      "inputs": [],
      "name": "implementation",
      "outputs": [
        {
          "internalType": "address",
          "name": "",
          "type": "address"
        }
      ],
      "stateMutability": "view",
      "type": "function"
    },
    {
      "inputs": [],
      "name": "pendingAdmin",
      "outputs": [
        {
          "internalType": "address",
          "name": "",
          "type": "address"
        }
      ],
      "stateMutability": "view",
      "type": "function"
    }
  ],
  "bytecode": "0x608060405234801561001057600080fd5b506101a2806100206000396000f3fe608060405234801561001057600080fd5b50600436106100415760003560e01c806326782247146100465780635c60da1b14610064578063f851a44014610082575b600080fd5b61004e6100a0565b60405161005b9190610151565b60405180910390f35b61006c6100c6565b6040516100799190610151565b60405180910390f35b61008a6100ec565b6040516100979190610151565b60405180910390f35b600160009054906101000a900473ffffffffffffffffffffffffffffffffffffffff1681565b600260009054906101000a900473ffffffffffffffffffffffffffffffffffffffff1681565b60008054906101000a900473ffffffffffffffffffffffffffffffffffffffff1681565b600073ffffffffffffffffffffffffffffffffffffffff82169050919050565b600061013b82610110565b9050919050565b61014b81610130565b82525050565b60006020820190506101666000830184610142565b9291505056fea26469706673582212207bbcd5e8b4a519caa168001ef42c1d3d8d87ebfacc80b52d55d6de76a20800b364736f6c634300080a0033",
  "immutableReferences": {},
  "source": "// SPDX-License-Identifier: BSD-3-Clause\n\npragma solidity ^0.8.0;\n\ncontract GovernorMikeEvents {\n    /// @notice An event emitted when a new proposal is created\n    event ProposalCreated(uint id, address proposer, uint startBlock, uint endBlock); // TODO: details\n\n    /// @notice An event emitted when a vote has been cast on a proposal\n    /// @param voter The address which casted a vote\n    /// @param proposalId The proposal id which was voted on\n    /// @param support Support value for the vote. 0=against, 1=for, 2=abstain\n    /// @param votes Number of votes which were cast by the voter\n    /// @param reason The reason given for the vote by the voter\n    event VoteCast(address indexed voter, uint proposalId, uint8 support, uint votes, string reason);\n\n    /// @notice An event emitted when a proposal has been canceled\n    event ProposalCanceled(uint id);\n\n    /// @notice An event emitted when a proposal has been queued in the Timelock\n    event ProposalQueued(uint id, uint eta);\n\n    /// @notice An event emitted when a proposal has been executed in the Timelock\n    event ProposalExecuted(uint id);\n\n    /// @notice An event emitted when the voting delay is set\n    event VotingDelaySet(uint oldVotingDelay, uint newVotingDelay);\n\n    /// @notice An event emitted when the voting period is set\n    event VotingPeriodSet(uint oldVotingPeriod, uint newVotingPeriod);\n\n    /// @notice Emitted when implementation is changed\n    event NewImplementation(address oldImplementation, address newImplementation);\n\n    /// @notice Emitted when proposal threshold is set\n    event ProposalThresholdSet(uint oldProposalThreshold, uint newProposalThreshold);\n\n    /// @notice Emitted when pendingAdmin is changed\n    event NewPendingAdmin(address oldPendingAdmin, address newPendingAdmin);\n\n    /// @notice Emitted when pendingAdmin is accepted, which means admin is updated\n    event NewAdmin(address oldAdmin, address newAdmin);\n\n    /// @notice Emitted when whitelist account expiration is set\n    event WhitelistAccountExpirationSet(address account, uint expiration);\n\n    /// @notice Emitted when the whitelistGuardian is set\n    event WhitelistGuardianSet(address oldGuardian, address newGuardian);\n}\n\ncontract GovernorMikeDelegatorStorage {\n    /// @notice Administrator for this contract\n    address public admin;\n\n    /// @notice Pending administrator for this contract\n    address public pendingAdmin;\n\n    /// @notice Active brains of Governor\n    address public implementation;\n}\n\n\n/**\n * @title Storage for Governor Mike Delegate\n * @notice For future upgrades, do not change GovernorMikeDelegateStorageV1. Create a new\n * contract which implements GovernorMikeDelegateStorageV1 and following the naming convention\n * GovernorMikeDelegateStorageVX.\n */\ncontract GovernorMikeDelegateStorageV1 is GovernorMikeDelegatorStorage {\n\n    /// @notice The delay before voting on a proposal may take place, once proposed, in blocks\n    uint public votingDelay;\n\n    /// @notice The duration of voting on a proposal, in blocks\n    uint public votingPeriod;\n\n    /// @notice The number of votes required in order for a voter to become a proposer\n    uint public proposalThreshold;\n\n    /// @notice Initial proposal id set at become\n    uint public initialProposalId;\n\n    /// @notice The total number of proposals\n    uint public proposalCount;\n\n    /// @notice The address of the Compound Protocol Timelock\n    TimelockInterface public timelock;\n\n    /// @notice The address of the Compound governance token\n    CompInterface public comp;\n\n    /// @notice The official record of all proposals ever proposed\n    mapping (uint => Proposal) public proposals;\n\n    /// @notice The latest proposal for each proposer\n    mapping (address => uint) public latestProposalIds;\n\n    struct Issue {\n        /// @notice `targets`: Target addresses for proposal calls\n        address[] targets;\n\n        /// @notice `values`: Eth values for proposal calls\n        uint[] values;\n        \n        /// @notice `signatures`: Function signatures for proposal calls\n        string[] signatures;\n\n        /// @notice `calldatas`: Calldatas for proposal calls\n        bytes[] calldatas;\n\n        /// @notice `description`: String description of the proposal\n        string description;\n    }\n\n    struct Proposal {\n        /// @notice Unique id for looking up a proposal\n        uint id;\n\n        /// @notice Creator of the proposal\n        address proposer;\n\n        /// @notice The timestamp that the proposal will be available for execution, set once the vote succeeds\n        uint eta;\n\n        /// @notice The ordered list of issues\n        Issue[] issues;\n\n        /// @notice The block at which voting begins: holders must delegate their votes prior to this block\n        uint startBlock;\n\n        /// @notice The block at which voting ends: votes must be cast prior to this block\n        uint endBlock;\n\n        /// @notice Current number of votes: indexed to issues\n        uint[] votes;\n\n        /// @notice Flag marking whether the proposal has been canceled\n        bool canceled;\n\n        /// @notice Flag marking whether the proposal has been executed\n        bool executed;\n\n        /// @notice Receipts of ballots for the entire set of voters\n        mapping (address => Receipt) receipts;\n    }\n\n    /// @notice Ballot receipt record for a voter\n    struct Receipt {\n        /// @notice Whether or not a vote has been cast\n        bool hasVoted;\n\n        /// @notice Whether or not the voter supports the proposal or abstains\n        uint8 support;\n\n        /// @notice The number of votes the voter had, which were cast\n        uint96 votes;\n    }\n\n    /// @notice Possible states that a proposal may be in\n    enum ProposalState {\n        Pending,\n        Active,\n        Canceled,\n        Defeated,\n        Succeeded,\n        Queued,\n        Expired,\n        Executed\n    }\n}\n\ncontract GovernorMikeDelegateStorageV2 is GovernorMikeDelegateStorageV1 {\n    /// @notice Stores the expiration of account whitelist status as a timestamp\n    mapping (address => uint) public whitelistAccountExpirations;\n\n    /// @notice Address which manages whitelisted proposals and whitelist accounts\n    address public whitelistGuardian;\n}\n\ninterface TimelockInterface {\n    function delay() external view returns (uint);\n    function GRACE_PERIOD() external view returns (uint);\n    function acceptAdmin() external;\n    function queuedTransactions(bytes32 hash) external view returns (bool);\n    function queueTransaction(address target, uint value, string calldata signature, bytes calldata data, uint eta) external returns (bytes32);\n    function cancelTransaction(address target, uint value, string calldata signature, bytes calldata data, uint eta) external;\n    function executeTransaction(address target, uint value, string calldata signature, bytes calldata data, uint eta) external payable returns (bytes memory);\n}\n\ninterface CompInterface {\n    function getPriorVotes(address account, uint blockNumber) external view returns (uint96);\n}\n\ninterface GovernorAlpha {\n    /// @notice The total number of proposals\n    function proposalCount() external returns (uint);\n}",
  "sourcePath": "/Users/lukepark/Desktop/D3LAB/Governor/dev/Governor-M/contracts/GovernorMikeInterfaces.sol",
  "compiler": {
    "name": "solc",
    "version": "0.8.10+commit.fc410830.Emscripten.clang"
  },
  "schemaVersion": "3.4.3",
  "updatedAt": "2022-06-27T10:03:38.453Z",
  "devdoc": {
    "kind": "dev",
    "methods": {},
    "version": 1
  },
  "userdoc": {
    "kind": "user",
    "methods": {
      "admin()": {
        "notice": "Administrator for this contract"
      },
      "implementation()": {
        "notice": "Active brains of Governor"
      },
      "pendingAdmin()": {
        "notice": "Pending administrator for this contract"
      }
    },
    "version": 1
  }
}